{
	"contracts/MetDropTestToken_flattened.sol": {
		"MetDropTestToken": {
			"abi": [
				{
					"inputs": [
						{
							"internalType": "address",
							"name": "initialOwner",
							"type": "address"
						}
					],
					"stateMutability": "nonpayable",
					"type": "constructor"
				},
				{
					"inputs": [],
					"name": "ECDSAInvalidSignature",
					"type": "error"
				},
				{
					"inputs": [
						{
							"internalType": "uint256",
							"name": "length",
							"type": "uint256"
						}
					],
					"name": "ECDSAInvalidSignatureLength",
					"type": "error"
				},
				{
					"inputs": [
						{
							"internalType": "bytes32",
							"name": "s",
							"type": "bytes32"
						}
					],
					"name": "ECDSAInvalidSignatureS",
					"type": "error"
				},
				{
					"inputs": [
						{
							"internalType": "address",
							"name": "spender",
							"type": "address"
						},
						{
							"internalType": "uint256",
							"name": "allowance",
							"type": "uint256"
						},
						{
							"internalType": "uint256",
							"name": "needed",
							"type": "uint256"
						}
					],
					"name": "ERC20InsufficientAllowance",
					"type": "error"
				},
				{
					"inputs": [
						{
							"internalType": "address",
							"name": "sender",
							"type": "address"
						},
						{
							"internalType": "uint256",
							"name": "balance",
							"type": "uint256"
						},
						{
							"internalType": "uint256",
							"name": "needed",
							"type": "uint256"
						}
					],
					"name": "ERC20InsufficientBalance",
					"type": "error"
				},
				{
					"inputs": [
						{
							"internalType": "address",
							"name": "approver",
							"type": "address"
						}
					],
					"name": "ERC20InvalidApprover",
					"type": "error"
				},
				{
					"inputs": [
						{
							"internalType": "address",
							"name": "receiver",
							"type": "address"
						}
					],
					"name": "ERC20InvalidReceiver",
					"type": "error"
				},
				{
					"inputs": [
						{
							"internalType": "address",
							"name": "sender",
							"type": "address"
						}
					],
					"name": "ERC20InvalidSender",
					"type": "error"
				},
				{
					"inputs": [
						{
							"internalType": "address",
							"name": "spender",
							"type": "address"
						}
					],
					"name": "ERC20InvalidSpender",
					"type": "error"
				},
				{
					"inputs": [
						{
							"internalType": "uint256",
							"name": "deadline",
							"type": "uint256"
						}
					],
					"name": "ERC2612ExpiredSignature",
					"type": "error"
				},
				{
					"inputs": [
						{
							"internalType": "address",
							"name": "signer",
							"type": "address"
						},
						{
							"internalType": "address",
							"name": "owner",
							"type": "address"
						}
					],
					"name": "ERC2612InvalidSigner",
					"type": "error"
				},
				{
					"inputs": [],
					"name": "EnforcedPause",
					"type": "error"
				},
				{
					"inputs": [],
					"name": "ExpectedPause",
					"type": "error"
				},
				{
					"inputs": [
						{
							"internalType": "address",
							"name": "account",
							"type": "address"
						},
						{
							"internalType": "uint256",
							"name": "currentNonce",
							"type": "uint256"
						}
					],
					"name": "InvalidAccountNonce",
					"type": "error"
				},
				{
					"inputs": [],
					"name": "InvalidShortString",
					"type": "error"
				},
				{
					"inputs": [
						{
							"internalType": "address",
							"name": "owner",
							"type": "address"
						}
					],
					"name": "OwnableInvalidOwner",
					"type": "error"
				},
				{
					"inputs": [
						{
							"internalType": "address",
							"name": "account",
							"type": "address"
						}
					],
					"name": "OwnableUnauthorizedAccount",
					"type": "error"
				},
				{
					"inputs": [
						{
							"internalType": "string",
							"name": "str",
							"type": "string"
						}
					],
					"name": "StringTooLong",
					"type": "error"
				},
				{
					"anonymous": false,
					"inputs": [
						{
							"indexed": true,
							"internalType": "address",
							"name": "owner",
							"type": "address"
						},
						{
							"indexed": true,
							"internalType": "address",
							"name": "spender",
							"type": "address"
						},
						{
							"indexed": false,
							"internalType": "uint256",
							"name": "value",
							"type": "uint256"
						}
					],
					"name": "Approval",
					"type": "event"
				},
				{
					"anonymous": false,
					"inputs": [],
					"name": "EIP712DomainChanged",
					"type": "event"
				},
				{
					"anonymous": false,
					"inputs": [
						{
							"indexed": true,
							"internalType": "address",
							"name": "previousOwner",
							"type": "address"
						},
						{
							"indexed": true,
							"internalType": "address",
							"name": "newOwner",
							"type": "address"
						}
					],
					"name": "OwnershipTransferred",
					"type": "event"
				},
				{
					"anonymous": false,
					"inputs": [
						{
							"indexed": false,
							"internalType": "address",
							"name": "account",
							"type": "address"
						}
					],
					"name": "Paused",
					"type": "event"
				},
				{
					"anonymous": false,
					"inputs": [
						{
							"indexed": true,
							"internalType": "address",
							"name": "from",
							"type": "address"
						},
						{
							"indexed": true,
							"internalType": "address",
							"name": "to",
							"type": "address"
						},
						{
							"indexed": false,
							"internalType": "uint256",
							"name": "value",
							"type": "uint256"
						}
					],
					"name": "Transfer",
					"type": "event"
				},
				{
					"anonymous": false,
					"inputs": [
						{
							"indexed": false,
							"internalType": "address",
							"name": "account",
							"type": "address"
						}
					],
					"name": "Unpaused",
					"type": "event"
				},
				{
					"inputs": [],
					"name": "DOMAIN_SEPARATOR",
					"outputs": [
						{
							"internalType": "bytes32",
							"name": "",
							"type": "bytes32"
						}
					],
					"stateMutability": "view",
					"type": "function"
				},
				{
					"inputs": [
						{
							"internalType": "address",
							"name": "owner",
							"type": "address"
						},
						{
							"internalType": "address",
							"name": "spender",
							"type": "address"
						}
					],
					"name": "allowance",
					"outputs": [
						{
							"internalType": "uint256",
							"name": "",
							"type": "uint256"
						}
					],
					"stateMutability": "view",
					"type": "function"
				},
				{
					"inputs": [
						{
							"internalType": "address",
							"name": "spender",
							"type": "address"
						},
						{
							"internalType": "uint256",
							"name": "value",
							"type": "uint256"
						}
					],
					"name": "approve",
					"outputs": [
						{
							"internalType": "bool",
							"name": "",
							"type": "bool"
						}
					],
					"stateMutability": "nonpayable",
					"type": "function"
				},
				{
					"inputs": [
						{
							"internalType": "address",
							"name": "account",
							"type": "address"
						}
					],
					"name": "balanceOf",
					"outputs": [
						{
							"internalType": "uint256",
							"name": "",
							"type": "uint256"
						}
					],
					"stateMutability": "view",
					"type": "function"
				},
				{
					"inputs": [
						{
							"internalType": "uint256",
							"name": "value",
							"type": "uint256"
						}
					],
					"name": "burn",
					"outputs": [],
					"stateMutability": "nonpayable",
					"type": "function"
				},
				{
					"inputs": [
						{
							"internalType": "address",
							"name": "account",
							"type": "address"
						},
						{
							"internalType": "uint256",
							"name": "value",
							"type": "uint256"
						}
					],
					"name": "burnFrom",
					"outputs": [],
					"stateMutability": "nonpayable",
					"type": "function"
				},
				{
					"inputs": [],
					"name": "decimals",
					"outputs": [
						{
							"internalType": "uint8",
							"name": "",
							"type": "uint8"
						}
					],
					"stateMutability": "view",
					"type": "function"
				},
				{
					"inputs": [],
					"name": "eip712Domain",
					"outputs": [
						{
							"internalType": "bytes1",
							"name": "fields",
							"type": "bytes1"
						},
						{
							"internalType": "string",
							"name": "name",
							"type": "string"
						},
						{
							"internalType": "string",
							"name": "version",
							"type": "string"
						},
						{
							"internalType": "uint256",
							"name": "chainId",
							"type": "uint256"
						},
						{
							"internalType": "address",
							"name": "verifyingContract",
							"type": "address"
						},
						{
							"internalType": "bytes32",
							"name": "salt",
							"type": "bytes32"
						},
						{
							"internalType": "uint256[]",
							"name": "extensions",
							"type": "uint256[]"
						}
					],
					"stateMutability": "view",
					"type": "function"
				},
				{
					"inputs": [],
					"name": "mint",
					"outputs": [
						{
							"internalType": "uint256",
							"name": "_amount",
							"type": "uint256"
						}
					],
					"stateMutability": "nonpayable",
					"type": "function"
				},
				{
					"inputs": [
						{
							"internalType": "address",
							"name": "to",
							"type": "address"
						},
						{
							"internalType": "uint256",
							"name": "amount",
							"type": "uint256"
						}
					],
					"name": "mint",
					"outputs": [],
					"stateMutability": "nonpayable",
					"type": "function"
				},
				{
					"inputs": [],
					"name": "name",
					"outputs": [
						{
							"internalType": "string",
							"name": "",
							"type": "string"
						}
					],
					"stateMutability": "view",
					"type": "function"
				},
				{
					"inputs": [
						{
							"internalType": "address",
							"name": "owner",
							"type": "address"
						}
					],
					"name": "nonces",
					"outputs": [
						{
							"internalType": "uint256",
							"name": "",
							"type": "uint256"
						}
					],
					"stateMutability": "view",
					"type": "function"
				},
				{
					"inputs": [],
					"name": "owner",
					"outputs": [
						{
							"internalType": "address",
							"name": "",
							"type": "address"
						}
					],
					"stateMutability": "view",
					"type": "function"
				},
				{
					"inputs": [],
					"name": "pause",
					"outputs": [],
					"stateMutability": "nonpayable",
					"type": "function"
				},
				{
					"inputs": [],
					"name": "paused",
					"outputs": [
						{
							"internalType": "bool",
							"name": "",
							"type": "bool"
						}
					],
					"stateMutability": "view",
					"type": "function"
				},
				{
					"inputs": [
						{
							"internalType": "address",
							"name": "owner",
							"type": "address"
						},
						{
							"internalType": "address",
							"name": "spender",
							"type": "address"
						},
						{
							"internalType": "uint256",
							"name": "value",
							"type": "uint256"
						},
						{
							"internalType": "uint256",
							"name": "deadline",
							"type": "uint256"
						},
						{
							"internalType": "uint8",
							"name": "v",
							"type": "uint8"
						},
						{
							"internalType": "bytes32",
							"name": "r",
							"type": "bytes32"
						},
						{
							"internalType": "bytes32",
							"name": "s",
							"type": "bytes32"
						}
					],
					"name": "permit",
					"outputs": [],
					"stateMutability": "nonpayable",
					"type": "function"
				},
				{
					"inputs": [],
					"name": "renounceOwnership",
					"outputs": [],
					"stateMutability": "nonpayable",
					"type": "function"
				},
				{
					"inputs": [],
					"name": "symbol",
					"outputs": [
						{
							"internalType": "string",
							"name": "",
							"type": "string"
						}
					],
					"stateMutability": "view",
					"type": "function"
				},
				{
					"inputs": [],
					"name": "totalSupply",
					"outputs": [
						{
							"internalType": "uint256",
							"name": "",
							"type": "uint256"
						}
					],
					"stateMutability": "view",
					"type": "function"
				},
				{
					"inputs": [
						{
							"internalType": "address",
							"name": "to",
							"type": "address"
						},
						{
							"internalType": "uint256",
							"name": "value",
							"type": "uint256"
						}
					],
					"name": "transfer",
					"outputs": [
						{
							"internalType": "bool",
							"name": "",
							"type": "bool"
						}
					],
					"stateMutability": "nonpayable",
					"type": "function"
				},
				{
					"inputs": [
						{
							"internalType": "address",
							"name": "from",
							"type": "address"
						},
						{
							"internalType": "address",
							"name": "to",
							"type": "address"
						},
						{
							"internalType": "uint256",
							"name": "value",
							"type": "uint256"
						}
					],
					"name": "transferFrom",
					"outputs": [
						{
							"internalType": "bool",
							"name": "",
							"type": "bool"
						}
					],
					"stateMutability": "nonpayable",
					"type": "function"
				},
				{
					"inputs": [
						{
							"internalType": "address",
							"name": "newOwner",
							"type": "address"
						}
					],
					"name": "transferOwnership",
					"outputs": [],
					"stateMutability": "nonpayable",
					"type": "function"
				},
				{
					"inputs": [],
					"name": "unpause",
					"outputs": [],
					"stateMutability": "nonpayable",
					"type": "function"
				}
			],
			"devdoc": {
				"errors": {
					"ECDSAInvalidSignature()": [
						{
							"details": "The signature derives the `address(0)`."
						}
					],
					"ECDSAInvalidSignatureLength(uint256)": [
						{
							"details": "The signature has an invalid length."
						}
					],
					"ECDSAInvalidSignatureS(bytes32)": [
						{
							"details": "The signature has an S value that is in the upper half order."
						}
					],
					"ERC20InsufficientAllowance(address,uint256,uint256)": [
						{
							"details": "Indicates a failure with the `spender`’s `allowance`. Used in transfers.",
							"params": {
								"allowance": "Amount of tokens a `spender` is allowed to operate with.",
								"needed": "Minimum amount required to perform a transfer.",
								"spender": "Address that may be allowed to operate on tokens without being their owner."
							}
						}
					],
					"ERC20InsufficientBalance(address,uint256,uint256)": [
						{
							"details": "Indicates an error related to the current `balance` of a `sender`. Used in transfers.",
							"params": {
								"balance": "Current balance for the interacting account.",
								"needed": "Minimum amount required to perform a transfer.",
								"sender": "Address whose tokens are being transferred."
							}
						}
					],
					"ERC20InvalidApprover(address)": [
						{
							"details": "Indicates a failure with the `approver` of a token to be approved. Used in approvals.",
							"params": {
								"approver": "Address initiating an approval operation."
							}
						}
					],
					"ERC20InvalidReceiver(address)": [
						{
							"details": "Indicates a failure with the token `receiver`. Used in transfers.",
							"params": {
								"receiver": "Address to which tokens are being transferred."
							}
						}
					],
					"ERC20InvalidSender(address)": [
						{
							"details": "Indicates a failure with the token `sender`. Used in transfers.",
							"params": {
								"sender": "Address whose tokens are being transferred."
							}
						}
					],
					"ERC20InvalidSpender(address)": [
						{
							"details": "Indicates a failure with the `spender` to be approved. Used in approvals.",
							"params": {
								"spender": "Address that may be allowed to operate on tokens without being their owner."
							}
						}
					],
					"ERC2612ExpiredSignature(uint256)": [
						{
							"details": "Permit deadline has expired."
						}
					],
					"ERC2612InvalidSigner(address,address)": [
						{
							"details": "Mismatched signature."
						}
					],
					"EnforcedPause()": [
						{
							"details": "The operation failed because the contract is paused."
						}
					],
					"ExpectedPause()": [
						{
							"details": "The operation failed because the contract is not paused."
						}
					],
					"InvalidAccountNonce(address,uint256)": [
						{
							"details": "The nonce used for an `account` is not the expected current nonce."
						}
					],
					"OwnableInvalidOwner(address)": [
						{
							"details": "The owner is not a valid owner account. (eg. `address(0)`)"
						}
					],
					"OwnableUnauthorizedAccount(address)": [
						{
							"details": "The caller account is not authorized to perform an operation."
						}
					]
				},
				"events": {
					"Approval(address,address,uint256)": {
						"details": "Emitted when the allowance of a `spender` for an `owner` is set by a call to {approve}. `value` is the new allowance."
					},
					"EIP712DomainChanged()": {
						"details": "MAY be emitted to signal that the domain could have changed."
					},
					"Paused(address)": {
						"details": "Emitted when the pause is triggered by `account`."
					},
					"Transfer(address,address,uint256)": {
						"details": "Emitted when `value` tokens are moved from one account (`from`) to another (`to`). Note that `value` may be zero."
					},
					"Unpaused(address)": {
						"details": "Emitted when the pause is lifted by `account`."
					}
				},
				"kind": "dev",
				"methods": {
					"DOMAIN_SEPARATOR()": {
						"details": "Returns the domain separator used in the encoding of the signature for {permit}, as defined by {EIP712}."
					},
					"allowance(address,address)": {
						"details": "See {IERC20-allowance}."
					},
					"approve(address,uint256)": {
						"details": "See {IERC20-approve}. NOTE: If `value` is the maximum `uint256`, the allowance is not updated on `transferFrom`. This is semantically equivalent to an infinite approval. Requirements: - `spender` cannot be the zero address."
					},
					"balanceOf(address)": {
						"details": "See {IERC20-balanceOf}."
					},
					"burn(uint256)": {
						"details": "Destroys a `value` amount of tokens from the caller. See {ERC20-_burn}."
					},
					"burnFrom(address,uint256)": {
						"details": "Destroys a `value` amount of tokens from `account`, deducting from the caller's allowance. See {ERC20-_burn} and {ERC20-allowance}. Requirements: - the caller must have allowance for ``accounts``'s tokens of at least `value`."
					},
					"decimals()": {
						"details": "Returns the number of decimals used to get its user representation. For example, if `decimals` equals `2`, a balance of `505` tokens should be displayed to a user as `5.05` (`505 / 10 ** 2`). Tokens usually opt for a value of 18, imitating the relationship between Ether and Wei. This is the default value returned by this function, unless it's overridden. NOTE: This information is only used for _display_ purposes: it in no way affects any of the arithmetic of the contract, including {IERC20-balanceOf} and {IERC20-transfer}."
					},
					"eip712Domain()": {
						"details": "See {IERC-5267}."
					},
					"name()": {
						"details": "Returns the name of the token."
					},
					"nonces(address)": {
						"details": "Returns the current nonce for `owner`. This value must be included whenever a signature is generated for {permit}. Every successful call to {permit} increases ``owner``'s nonce by one. This prevents a signature from being used multiple times."
					},
					"owner()": {
						"details": "Returns the address of the current owner."
					},
					"paused()": {
						"details": "Returns true if the contract is paused, and false otherwise."
					},
					"permit(address,address,uint256,uint256,uint8,bytes32,bytes32)": {
						"details": "Sets `value` as the allowance of `spender` over ``owner``'s tokens, given ``owner``'s signed approval. IMPORTANT: The same issues {IERC20-approve} has related to transaction ordering also apply here. Emits an {Approval} event. Requirements: - `spender` cannot be the zero address. - `deadline` must be a timestamp in the future. - `v`, `r` and `s` must be a valid `secp256k1` signature from `owner` over the EIP712-formatted function arguments. - the signature must use ``owner``'s current nonce (see {nonces}). For more information on the signature format, see the https://eips.ethereum.org/EIPS/eip-2612#specification[relevant EIP section]. CAUTION: See Security Considerations above."
					},
					"renounceOwnership()": {
						"details": "Leaves the contract without owner. It will not be possible to call `onlyOwner` functions. Can only be called by the current owner. NOTE: Renouncing ownership will leave the contract without an owner, thereby disabling any functionality that is only available to the owner."
					},
					"symbol()": {
						"details": "Returns the symbol of the token, usually a shorter version of the name."
					},
					"totalSupply()": {
						"details": "See {IERC20-totalSupply}."
					},
					"transfer(address,uint256)": {
						"details": "See {IERC20-transfer}. Requirements: - `to` cannot be the zero address. - the caller must have a balance of at least `value`."
					},
					"transferFrom(address,address,uint256)": {
						"details": "See {IERC20-transferFrom}. Emits an {Approval} event indicating the updated allowance. This is not required by the EIP. See the note at the beginning of {ERC20}. NOTE: Does not update the allowance if the current allowance is the maximum `uint256`. Requirements: - `from` and `to` cannot be the zero address. - `from` must have a balance of at least `value`. - the caller must have allowance for ``from``'s tokens of at least `value`."
					},
					"transferOwnership(address)": {
						"details": "Transfers ownership of the contract to a new account (`newOwner`). Can only be called by the current owner."
					}
				},
				"version": 1
			},
			"evm": {
				"assembly": "    /* \"contracts/MetDropTestToken_flattened.sol\":84765:85935  contract MetDropTestToken is ERC20, ERC20Burnable, ERC20Pausable, Ownable, ERC20Permit {... */\n  mstore(0x40, 0x0160)\n    /* \"contracts/MetDropTestToken_flattened.sol\":84877:84885  24*60*60 */\n  0x015180\n    /* \"contracts/MetDropTestToken_flattened.sol\":84859:84885  int256 coolDown = 24*60*60 */\n  0x09\n  sstore\n    /* \"contracts/MetDropTestToken_flattened.sol\":84970:84981  1e18 * 2000 */\n  0x6c6b935b8bbd400000\n    /* \"contracts/MetDropTestToken_flattened.sol\":84946:84981  uint256 defaultAmount = 1e18 * 2000 */\n  0x0b\n  sstore\n    /* \"contracts/MetDropTestToken_flattened.sol\":84990:85142  constructor(address initialOwner)... */\n  callvalue\n  dup1\n  iszero\n  tag_1\n  jumpi\n  0x00\n  dup1\n  revert\ntag_1:\n  pop\n  mload(0x40)\n  sub(codesize, bytecodeSize)\n  dup1\n  bytecodeSize\n  dup4\n  codecopy\n  dup2\n  dup2\n  add\n  0x40\n  mstore\n  dup2\n  add\n  swap1\n  tag_2\n  swap2\n  swap1\n  tag_3\n  jump\t// in\ntag_2:\n    /* \"contracts/MetDropTestToken_flattened.sol\":83445:83497  constructor(string memory name) EIP712(name, \"1\") {} */\n  mload(0x40)\n  dup1\n  0x40\n  add\n  0x40\n  mstore\n  dup1\n  0x10\n  dup2\n  mstore\n  0x20\n  add\n  0x4d657444726f7054657374546f6b656e00000000000000000000000000000000\n  dup2\n  mstore\n  pop\n    /* \"contracts/MetDropTestToken_flattened.sol\":83484:83488  name */\n  dup1\n    /* \"contracts/MetDropTestToken_flattened.sol\":77289:77720  constructor(string memory name, string memory version) {... */\n  mload(0x40)\n  dup1\n  0x40\n  add\n  0x40\n  mstore\n  dup1\n  0x01\n  dup2\n  mstore\n  0x20\n  add\n  0x3100000000000000000000000000000000000000000000000000000000000000\n  dup2\n  mstore\n  pop\n    /* \"contracts/MetDropTestToken_flattened.sol\":85082:85094  initialOwner */\n  dup4\n    /* \"contracts/MetDropTestToken_flattened.sol\":12757:12870  constructor(string memory name_, string memory symbol_) {... */\n  mload(0x40)\n  dup1\n  0x40\n  add\n  0x40\n  mstore\n  dup1\n  0x10\n  dup2\n  mstore\n  0x20\n  add\n  0x4d657444726f7054657374546f6b656e00000000000000000000000000000000\n  dup2\n  mstore\n  pop\n  mload(0x40)\n  dup1\n  0x40\n  add\n  0x40\n  mstore\n  dup1\n  0x04\n  dup2\n  mstore\n  0x20\n  add\n  0x4d44545400000000000000000000000000000000000000000000000000000000\n  dup2\n  mstore\n  pop\n    /* \"contracts/MetDropTestToken_flattened.sol\":12831:12836  name_ */\n  dup2\n    /* \"contracts/MetDropTestToken_flattened.sol\":12823:12828  _name */\n  0x03\n    /* \"contracts/MetDropTestToken_flattened.sol\":12823:12836  _name = name_ */\n  swap1\n  dup2\n  tag_11\n  swap2\n  swap1\n  tag_12\n  jump\t// in\ntag_11:\n  pop\n    /* \"contracts/MetDropTestToken_flattened.sol\":12856:12863  symbol_ */\n  dup1\n    /* \"contracts/MetDropTestToken_flattened.sol\":12846:12853  _symbol */\n  0x04\n    /* \"contracts/MetDropTestToken_flattened.sol\":12846:12863  _symbol = symbol_ */\n  swap1\n  dup2\n  tag_13\n  swap2\n  swap1\n  tag_12\n  jump\t// in\ntag_13:\n  pop\n    /* \"contracts/MetDropTestToken_flattened.sol\":12757:12870  constructor(string memory name_, string memory symbol_) {... */\n  pop\n  pop\n    /* \"contracts/MetDropTestToken_flattened.sol\":24362:24367  false */\n  0x00\n    /* \"contracts/MetDropTestToken_flattened.sol\":24352:24359  _paused */\n  0x05\n  0x00\n    /* \"contracts/MetDropTestToken_flattened.sol\":24352:24367  _paused = false */\n  0x0100\n  exp\n  dup2\n  sload\n  dup2\n  0xff\n  mul\n  not\n  and\n  swap1\n  dup4\n  iszero\n  iszero\n  mul\n  or\n  swap1\n  sstore\n  pop\n    /* \"contracts/MetDropTestToken_flattened.sol\":28441:28442  0 */\n  0x00\n    /* \"contracts/MetDropTestToken_flattened.sol\":28417:28443  initialOwner == address(0) */\n  0xffffffffffffffffffffffffffffffffffffffff\n  and\n    /* \"contracts/MetDropTestToken_flattened.sol\":28417:28429  initialOwner */\n  dup2\n    /* \"contracts/MetDropTestToken_flattened.sol\":28417:28443  initialOwner == address(0) */\n  0xffffffffffffffffffffffffffffffffffffffff\n  and\n  sub\n    /* \"contracts/MetDropTestToken_flattened.sol\":28413:28508  if (initialOwner == address(0)) {... */\n  tag_16\n  jumpi\n    /* \"contracts/MetDropTestToken_flattened.sol\":28494:28495  0 */\n  0x00\n    /* \"contracts/MetDropTestToken_flattened.sol\":28466:28497  OwnableInvalidOwner(address(0)) */\n  mload(0x40)\n  0x1e4fbdf700000000000000000000000000000000000000000000000000000000\n  dup2\n  mstore\n  0x04\n  add\n  tag_17\n  swap2\n  swap1\n  tag_18\n  jump\t// in\ntag_17:\n  mload(0x40)\n  dup1\n  swap2\n  sub\n  swap1\n  revert\n    /* \"contracts/MetDropTestToken_flattened.sol\":28413:28508  if (initialOwner == address(0)) {... */\ntag_16:\n    /* \"contracts/MetDropTestToken_flattened.sol\":28517:28549  _transferOwnership(initialOwner) */\n  tag_19\n    /* \"contracts/MetDropTestToken_flattened.sol\":28536:28548  initialOwner */\n  dup2\n    /* \"contracts/MetDropTestToken_flattened.sol\":28517:28535  _transferOwnership */\n  shl(0x20, tag_20)\n    /* \"contracts/MetDropTestToken_flattened.sol\":28517:28549  _transferOwnership(initialOwner) */\n  0x20\n  shr\n  jump\t// in\ntag_19:\n    /* \"contracts/MetDropTestToken_flattened.sol\":28369:28556  constructor(address initialOwner) {... */\n  pop\n    /* \"contracts/MetDropTestToken_flattened.sol\":77362:77407  name.toShortStringWithFallback(_nameFallback) */\n  tag_22\n    /* \"contracts/MetDropTestToken_flattened.sol\":77393:77406  _nameFallback */\n  0x06\n    /* \"contracts/MetDropTestToken_flattened.sol\":77362:77366  name */\n  dup4\n    /* \"contracts/MetDropTestToken_flattened.sol\":77362:77392  name.toShortStringWithFallback */\n  shl(0x20, tag_23)\n  swap1\n    /* \"contracts/MetDropTestToken_flattened.sol\":77362:77407  name.toShortStringWithFallback(_nameFallback) */\n  swap2\n  swap1\n  0x20\n  shr\n  jump\t// in\ntag_22:\n    /* \"contracts/MetDropTestToken_flattened.sol\":77354:77407  _name = name.toShortStringWithFallback(_nameFallback) */\n  0x0120\n  dup2\n  dup2\n  mstore\n  pop\n  pop\n    /* \"contracts/MetDropTestToken_flattened.sol\":77428:77479  version.toShortStringWithFallback(_versionFallback) */\n  tag_24\n    /* \"contracts/MetDropTestToken_flattened.sol\":77462:77478  _versionFallback */\n  0x07\n    /* \"contracts/MetDropTestToken_flattened.sol\":77428:77435  version */\n  dup3\n    /* \"contracts/MetDropTestToken_flattened.sol\":77428:77461  version.toShortStringWithFallback */\n  shl(0x20, tag_23)\n  swap1\n    /* \"contracts/MetDropTestToken_flattened.sol\":77428:77479  version.toShortStringWithFallback(_versionFallback) */\n  swap2\n  swap1\n  0x20\n  shr\n  jump\t// in\ntag_24:\n    /* \"contracts/MetDropTestToken_flattened.sol\":77417:77479  _version = version.toShortStringWithFallback(_versionFallback) */\n  0x0140\n  dup2\n  dup2\n  mstore\n  pop\n  pop\n    /* \"contracts/MetDropTestToken_flattened.sol\":77519:77523  name */\n  dup2\n    /* \"contracts/MetDropTestToken_flattened.sol\":77503:77525  keccak256(bytes(name)) */\n  dup1\n  mload\n  swap1\n  0x20\n  add\n  keccak256\n    /* \"contracts/MetDropTestToken_flattened.sol\":77489:77525  _hashedName = keccak256(bytes(name)) */\n  0xe0\n  dup2\n  dup2\n  mstore\n  pop\n  pop\n    /* \"contracts/MetDropTestToken_flattened.sol\":77568:77575  version */\n  dup1\n    /* \"contracts/MetDropTestToken_flattened.sol\":77552:77577  keccak256(bytes(version)) */\n  dup1\n  mload\n  swap1\n  0x20\n  add\n  keccak256\n    /* \"contracts/MetDropTestToken_flattened.sol\":77535:77577  _hashedVersion = keccak256(bytes(version)) */\n  0x0100\n  dup2\n  dup2\n  mstore\n  pop\n  pop\n    /* \"contracts/MetDropTestToken_flattened.sol\":77605:77618  block.chainid */\n  chainid\n    /* \"contracts/MetDropTestToken_flattened.sol\":77588:77618  _cachedChainId = block.chainid */\n  0xa0\n  dup2\n  dup2\n  mstore\n  pop\n  pop\n    /* \"contracts/MetDropTestToken_flattened.sol\":77653:77676  _buildDomainSeparator() */\n  tag_25\n    /* \"contracts/MetDropTestToken_flattened.sol\":77653:77674  _buildDomainSeparator */\n  shl(0x20, tag_26)\n    /* \"contracts/MetDropTestToken_flattened.sol\":77653:77676  _buildDomainSeparator() */\n  0x20\n  shr\n  jump\t// in\ntag_25:\n    /* \"contracts/MetDropTestToken_flattened.sol\":77628:77676  _cachedDomainSeparator = _buildDomainSeparator() */\n  0x80\n  dup2\n  dup2\n  mstore\n  pop\n  pop\n    /* \"contracts/MetDropTestToken_flattened.sol\":77708:77712  this */\n  address\n    /* \"contracts/MetDropTestToken_flattened.sol\":77686:77713  _cachedThis = address(this) */\n  0xffffffffffffffffffffffffffffffffffffffff\n  and\n  0xc0\n  dup2\n  0xffffffffffffffffffffffffffffffffffffffff\n  and\n  dup2\n  mstore\n  pop\n  pop\n    /* \"contracts/MetDropTestToken_flattened.sol\":77289:77720  constructor(string memory name, string memory version) {... */\n  pop\n  pop\n    /* \"contracts/MetDropTestToken_flattened.sol\":83445:83497  constructor(string memory name) EIP712(name, \"1\") {} */\n  pop\n    /* \"contracts/MetDropTestToken_flattened.sol\":84990:85142  constructor(address initialOwner)... */\n  pop\n    /* \"contracts/MetDropTestToken_flattened.sol\":84765:85935  contract MetDropTestToken is ERC20, ERC20Burnable, ERC20Pausable, Ownable, ERC20Permit {... */\n  jump(tag_29)\n    /* \"contracts/MetDropTestToken_flattened.sol\":30056:30243  function _transferOwnership(address newOwner) internal virtual {... */\ntag_20:\n    /* \"contracts/MetDropTestToken_flattened.sol\":30129:30145  address oldOwner */\n  0x00\n    /* \"contracts/MetDropTestToken_flattened.sol\":30148:30154  _owner */\n  0x05\n  0x01\n  swap1\n  sload\n  swap1\n  0x0100\n  exp\n  swap1\n  div\n  0xffffffffffffffffffffffffffffffffffffffff\n  and\n    /* \"contracts/MetDropTestToken_flattened.sol\":30129:30154  address oldOwner = _owner */\n  swap1\n  pop\n    /* \"contracts/MetDropTestToken_flattened.sol\":30173:30181  newOwner */\n  dup2\n    /* \"contracts/MetDropTestToken_flattened.sol\":30164:30170  _owner */\n  0x05\n  0x01\n    /* \"contracts/MetDropTestToken_flattened.sol\":30164:30181  _owner = newOwner */\n  0x0100\n  exp\n  dup2\n  sload\n  dup2\n  0xffffffffffffffffffffffffffffffffffffffff\n  mul\n  not\n  and\n  swap1\n  dup4\n  0xffffffffffffffffffffffffffffffffffffffff\n  and\n  mul\n  or\n  swap1\n  sstore\n  pop\n    /* \"contracts/MetDropTestToken_flattened.sol\":30227:30235  newOwner */\n  dup2\n    /* \"contracts/MetDropTestToken_flattened.sol\":30196:30236  OwnershipTransferred(oldOwner, newOwner) */\n  0xffffffffffffffffffffffffffffffffffffffff\n  and\n    /* \"contracts/MetDropTestToken_flattened.sol\":30217:30225  oldOwner */\n  dup2\n    /* \"contracts/MetDropTestToken_flattened.sol\":30196:30236  OwnershipTransferred(oldOwner, newOwner) */\n  0xffffffffffffffffffffffffffffffffffffffff\n  and\n  0x8be0079c531659141344cd1fd0a4f28419497f9722a3daafe3b4186f6b6457e0\n  mload(0x40)\n  mload(0x40)\n  dup1\n  swap2\n  sub\n  swap1\n  log3\n    /* \"contracts/MetDropTestToken_flattened.sol\":30119:30243  {... */\n  pop\n    /* \"contracts/MetDropTestToken_flattened.sol\":30056:30243  function _transferOwnership(address newOwner) internal virtual {... */\n  pop\n  jump\t// out\n    /* \"contracts/MetDropTestToken_flattened.sol\":71939:72279  function toShortStringWithFallback(string memory value, string storage store) internal returns (ShortString) {... */\ntag_23:\n    /* \"contracts/MetDropTestToken_flattened.sol\":72035:72046  ShortString */\n  0x00\n    /* \"contracts/MetDropTestToken_flattened.sol\":72084:72086  32 */\n  0x20\n    /* \"contracts/MetDropTestToken_flattened.sol\":72068:72073  value */\n  dup4\n    /* \"contracts/MetDropTestToken_flattened.sol\":72062:72081  bytes(value).length */\n  mload\n    /* \"contracts/MetDropTestToken_flattened.sol\":72062:72086  bytes(value).length < 32 */\n  lt\n    /* \"contracts/MetDropTestToken_flattened.sol\":72058:72273  if (bytes(value).length < 32) {... */\n  iszero\n  tag_32\n  jumpi\n    /* \"contracts/MetDropTestToken_flattened.sol\":72109:72129  toShortString(value) */\n  tag_33\n    /* \"contracts/MetDropTestToken_flattened.sol\":72123:72128  value */\n  dup4\n    /* \"contracts/MetDropTestToken_flattened.sol\":72109:72122  toShortString */\n  shl(0x20, tag_34)\n    /* \"contracts/MetDropTestToken_flattened.sol\":72109:72129  toShortString(value) */\n  0x20\n  shr\n  jump\t// in\ntag_33:\n    /* \"contracts/MetDropTestToken_flattened.sol\":72102:72129  return toShortString(value) */\n  swap1\n  pop\n  jump(tag_31)\n    /* \"contracts/MetDropTestToken_flattened.sol\":72058:72273  if (bytes(value).length < 32) {... */\ntag_32:\n    /* \"contracts/MetDropTestToken_flattened.sol\":72201:72206  value */\n  dup3\n    /* \"contracts/MetDropTestToken_flattened.sol\":72160:72192  StorageSlot.getStringSlot(store) */\n  tag_36\n    /* \"contracts/MetDropTestToken_flattened.sol\":72186:72191  store */\n  dup4\n    /* \"contracts/MetDropTestToken_flattened.sol\":72160:72185  StorageSlot.getStringSlot */\n  shl(0x20, tag_37)\n    /* \"contracts/MetDropTestToken_flattened.sol\":72160:72192  StorageSlot.getStringSlot(store) */\n  0x20\n  shr\n  jump\t// in\ntag_36:\n    /* \"contracts/MetDropTestToken_flattened.sol\":72160:72198  StorageSlot.getStringSlot(store).value */\n  0x00\n  add\n    /* \"contracts/MetDropTestToken_flattened.sol\":72160:72206  StorageSlot.getStringSlot(store).value = value */\n  swap1\n  dup2\n  tag_38\n  swap2\n  swap1\n  tag_12\n  jump\t// in\ntag_38:\n  pop\n    /* \"contracts/MetDropTestToken_flattened.sol\":70415:70481  0x00000000000000000000000000000000000000000000000000000000000000FF */\n  0xff\n    /* \"contracts/MetDropTestToken_flattened.sol\":72244:72261  FALLBACK_SENTINEL */\n  0x00\n  shl\n    /* \"contracts/MetDropTestToken_flattened.sol\":72220:72262  return ShortString.wrap(FALLBACK_SENTINEL) */\n  swap1\n  pop\n    /* \"contracts/MetDropTestToken_flattened.sol\":71939:72279  function toShortStringWithFallback(string memory value, string storage store) internal returns (ShortString) {... */\ntag_31:\n  swap3\n  swap2\n  pop\n  pop\n  jump\t// out\n    /* \"contracts/MetDropTestToken_flattened.sol\":78074:78253  function _buildDomainSeparator() private view returns (bytes32) {... */\ntag_26:\n    /* \"contracts/MetDropTestToken_flattened.sol\":78129:78136  bytes32 */\n  0x00\n    /* \"contracts/MetDropTestToken_flattened.sol\":76040:76135  keccak256(\"EIP712Domain(string name,string version,uint256 chainId,address verifyingContract)\") */\n  0x8b73c3c69bb8fe3d512ecc4cf759cc79239f7b179b0ffacaa9a75d522b39400f\n    /* \"contracts/MetDropTestToken_flattened.sol\":78187:78198  _hashedName */\n  mload(0xe0)\n    /* \"contracts/MetDropTestToken_flattened.sol\":78200:78214  _hashedVersion */\n  mload(0x0100)\n    /* \"contracts/MetDropTestToken_flattened.sol\":78216:78229  block.chainid */\n  chainid\n    /* \"contracts/MetDropTestToken_flattened.sol\":78239:78243  this */\n  address\n    /* \"contracts/MetDropTestToken_flattened.sol\":78165:78245  abi.encode(TYPE_HASH, _hashedName, _hashedVersion, block.chainid, address(this)) */\n  add(0x20, mload(0x40))\n  tag_40\n  swap6\n  swap5\n  swap4\n  swap3\n  swap2\n  swap1\n  tag_41\n  jump\t// in\ntag_40:\n  mload(0x40)\n  0x20\n  dup2\n  dup4\n  sub\n  sub\n  dup2\n  mstore\n  swap1\n  0x40\n  mstore\n    /* \"contracts/MetDropTestToken_flattened.sol\":78155:78246  keccak256(abi.encode(TYPE_HASH, _hashedName, _hashedVersion, block.chainid, address(this))) */\n  dup1\n  mload\n  swap1\n  0x20\n  add\n  keccak256\n    /* \"contracts/MetDropTestToken_flattened.sol\":78148:78246  return keccak256(abi.encode(TYPE_HASH, _hashedName, _hashedVersion, block.chainid, address(this))) */\n  swap1\n  pop\n    /* \"contracts/MetDropTestToken_flattened.sol\":78074:78253  function _buildDomainSeparator() private view returns (bytes32) {... */\n  swap1\n  jump\t// out\n    /* \"contracts/MetDropTestToken_flattened.sol\":70733:71019  function toShortString(string memory str) internal pure returns (ShortString) {... */\ntag_34:\n    /* \"contracts/MetDropTestToken_flattened.sol\":70798:70809  ShortString */\n  0x00\n    /* \"contracts/MetDropTestToken_flattened.sol\":70821:70838  bytes memory bstr */\n  dup1\n    /* \"contracts/MetDropTestToken_flattened.sol\":70847:70850  str */\n  dup3\n    /* \"contracts/MetDropTestToken_flattened.sol\":70821:70851  bytes memory bstr = bytes(str) */\n  swap1\n  pop\n    /* \"contracts/MetDropTestToken_flattened.sol\":70879:70881  31 */\n  0x1f\n    /* \"contracts/MetDropTestToken_flattened.sol\":70865:70869  bstr */\n  dup2\n    /* \"contracts/MetDropTestToken_flattened.sol\":70865:70876  bstr.length */\n  mload\n    /* \"contracts/MetDropTestToken_flattened.sol\":70865:70881  bstr.length > 31 */\n  gt\n    /* \"contracts/MetDropTestToken_flattened.sol\":70861:70933  if (bstr.length > 31) {... */\n  iszero\n  tag_43\n  jumpi\n    /* \"contracts/MetDropTestToken_flattened.sol\":70918:70921  str */\n  dup3\n    /* \"contracts/MetDropTestToken_flattened.sol\":70904:70922  StringTooLong(str) */\n  mload(0x40)\n  0x305a27a900000000000000000000000000000000000000000000000000000000\n  dup2\n  mstore\n  0x04\n  add\n  tag_44\n  swap2\n  swap1\n  tag_45\n  jump\t// in\ntag_44:\n  mload(0x40)\n  dup1\n  swap2\n  sub\n  swap1\n  revert\n    /* \"contracts/MetDropTestToken_flattened.sol\":70861:70933  if (bstr.length > 31) {... */\ntag_43:\n    /* \"contracts/MetDropTestToken_flattened.sol\":70999:71003  bstr */\n  dup1\n    /* \"contracts/MetDropTestToken_flattened.sol\":70999:71010  bstr.length */\n  mload\n    /* \"contracts/MetDropTestToken_flattened.sol\":70990:70994  bstr */\n  dup2\n    /* \"contracts/MetDropTestToken_flattened.sol\":70982:70995  bytes32(bstr) */\n  tag_46\n  swap1\n  tag_47\n  jump\t// in\ntag_46:\n    /* \"contracts/MetDropTestToken_flattened.sol\":70974:70996  uint256(bytes32(bstr)) */\n  0x00\n  shr\n    /* \"contracts/MetDropTestToken_flattened.sol\":70974:71010  uint256(bytes32(bstr)) | bstr.length */\n  or\n    /* \"contracts/MetDropTestToken_flattened.sol\":70966:71011  bytes32(uint256(bytes32(bstr)) | bstr.length) */\n  0x00\n  shl\n    /* \"contracts/MetDropTestToken_flattened.sol\":70942:71012  return ShortString.wrap(bytes32(uint256(bytes32(bstr)) | bstr.length)) */\n  swap2\n  pop\n  pop\n    /* \"contracts/MetDropTestToken_flattened.sol\":70733:71019  function toShortString(string memory str) internal pure returns (ShortString) {... */\n  swap2\n  swap1\n  pop\n  jump\t// out\n    /* \"contracts/MetDropTestToken_flattened.sol\":68249:68451  function getStringSlot(string storage store) internal pure returns (StringSlot storage r) {... */\ntag_37:\n    /* \"contracts/MetDropTestToken_flattened.sol\":68317:68337  StringSlot storage r */\n  0x00\n    /* \"contracts/MetDropTestToken_flattened.sol\":68425:68435  store.slot */\n  dup2\n    /* \"contracts/MetDropTestToken_flattened.sol\":68415:68435  r.slot := store.slot */\n  swap1\n  pop\n    /* \"contracts/MetDropTestToken_flattened.sol\":68249:68451  function getStringSlot(string storage store) internal pure returns (StringSlot storage r) {... */\n  swap2\n  swap1\n  pop\n  jump\t// out\n    /* \"#utility.yul\":88:205   */\ntag_50:\n    /* \"#utility.yul\":197:198   */\n  0x00\n    /* \"#utility.yul\":194:195   */\n  dup1\n    /* \"#utility.yul\":187:199   */\n  revert\n    /* \"#utility.yul\":334:460   */\ntag_52:\n    /* \"#utility.yul\":371:378   */\n  0x00\n    /* \"#utility.yul\":411:453   */\n  0xffffffffffffffffffffffffffffffffffffffff\n    /* \"#utility.yul\":404:409   */\n  dup3\n    /* \"#utility.yul\":400:454   */\n  and\n    /* \"#utility.yul\":389:454   */\n  swap1\n  pop\n    /* \"#utility.yul\":334:460   */\n  swap2\n  swap1\n  pop\n  jump\t// out\n    /* \"#utility.yul\":466:562   */\ntag_53:\n    /* \"#utility.yul\":503:510   */\n  0x00\n    /* \"#utility.yul\":532:556   */\n  tag_93\n    /* \"#utility.yul\":550:555   */\n  dup3\n    /* \"#utility.yul\":532:556   */\n  tag_52\n  jump\t// in\ntag_93:\n    /* \"#utility.yul\":521:556   */\n  swap1\n  pop\n    /* \"#utility.yul\":466:562   */\n  swap2\n  swap1\n  pop\n  jump\t// out\n    /* \"#utility.yul\":568:690   */\ntag_54:\n    /* \"#utility.yul\":641:665   */\n  tag_95\n    /* \"#utility.yul\":659:664   */\n  dup2\n    /* \"#utility.yul\":641:665   */\n  tag_53\n  jump\t// in\ntag_95:\n    /* \"#utility.yul\":634:639   */\n  dup2\n    /* \"#utility.yul\":631:666   */\n  eq\n    /* \"#utility.yul\":621:684   */\n  tag_96\n  jumpi\n    /* \"#utility.yul\":680:681   */\n  0x00\n    /* \"#utility.yul\":677:678   */\n  dup1\n    /* \"#utility.yul\":670:682   */\n  revert\n    /* \"#utility.yul\":621:684   */\ntag_96:\n    /* \"#utility.yul\":568:690   */\n  pop\n  jump\t// out\n    /* \"#utility.yul\":696:839   */\ntag_55:\n    /* \"#utility.yul\":753:758   */\n  0x00\n    /* \"#utility.yul\":784:790   */\n  dup2\n    /* \"#utility.yul\":778:791   */\n  mload\n    /* \"#utility.yul\":769:791   */\n  swap1\n  pop\n    /* \"#utility.yul\":800:833   */\n  tag_98\n    /* \"#utility.yul\":827:832   */\n  dup2\n    /* \"#utility.yul\":800:833   */\n  tag_54\n  jump\t// in\ntag_98:\n    /* \"#utility.yul\":696:839   */\n  swap3\n  swap2\n  pop\n  pop\n  jump\t// out\n    /* \"#utility.yul\":845:1196   */\ntag_3:\n    /* \"#utility.yul\":915:921   */\n  0x00\n    /* \"#utility.yul\":964:966   */\n  0x20\n    /* \"#utility.yul\":952:961   */\n  dup3\n    /* \"#utility.yul\":943:950   */\n  dup5\n    /* \"#utility.yul\":939:962   */\n  sub\n    /* \"#utility.yul\":935:967   */\n  slt\n    /* \"#utility.yul\":932:1051   */\n  iszero\n  tag_100\n  jumpi\n    /* \"#utility.yul\":970:1049   */\n  tag_101\n  tag_50\n  jump\t// in\ntag_101:\n    /* \"#utility.yul\":932:1051   */\ntag_100:\n    /* \"#utility.yul\":1090:1091   */\n  0x00\n    /* \"#utility.yul\":1115:1179   */\n  tag_102\n    /* \"#utility.yul\":1171:1178   */\n  dup5\n    /* \"#utility.yul\":1162:1168   */\n  dup3\n    /* \"#utility.yul\":1151:1160   */\n  dup6\n    /* \"#utility.yul\":1147:1169   */\n  add\n    /* \"#utility.yul\":1115:1179   */\n  tag_55\n  jump\t// in\ntag_102:\n    /* \"#utility.yul\":1105:1179   */\n  swap2\n  pop\n    /* \"#utility.yul\":1061:1189   */\n  pop\n    /* \"#utility.yul\":845:1196   */\n  swap3\n  swap2\n  pop\n  pop\n  jump\t// out\n    /* \"#utility.yul\":1202:1301   */\ntag_56:\n    /* \"#utility.yul\":1254:1260   */\n  0x00\n    /* \"#utility.yul\":1288:1293   */\n  dup2\n    /* \"#utility.yul\":1282:1294   */\n  mload\n    /* \"#utility.yul\":1272:1294   */\n  swap1\n  pop\n    /* \"#utility.yul\":1202:1301   */\n  swap2\n  swap1\n  pop\n  jump\t// out\n    /* \"#utility.yul\":1307:1487   */\ntag_57:\n    /* \"#utility.yul\":1355:1432   */\n  0x4e487b7100000000000000000000000000000000000000000000000000000000\n    /* \"#utility.yul\":1352:1353   */\n  0x00\n    /* \"#utility.yul\":1345:1433   */\n  mstore\n    /* \"#utility.yul\":1452:1456   */\n  0x41\n    /* \"#utility.yul\":1449:1450   */\n  0x04\n    /* \"#utility.yul\":1442:1457   */\n  mstore\n    /* \"#utility.yul\":1476:1480   */\n  0x24\n    /* \"#utility.yul\":1473:1474   */\n  0x00\n    /* \"#utility.yul\":1466:1481   */\n  revert\n    /* \"#utility.yul\":1493:1673   */\ntag_58:\n    /* \"#utility.yul\":1541:1618   */\n  0x4e487b7100000000000000000000000000000000000000000000000000000000\n    /* \"#utility.yul\":1538:1539   */\n  0x00\n    /* \"#utility.yul\":1531:1619   */\n  mstore\n    /* \"#utility.yul\":1638:1642   */\n  0x22\n    /* \"#utility.yul\":1635:1636   */\n  0x04\n    /* \"#utility.yul\":1628:1643   */\n  mstore\n    /* \"#utility.yul\":1662:1666   */\n  0x24\n    /* \"#utility.yul\":1659:1660   */\n  0x00\n    /* \"#utility.yul\":1652:1667   */\n  revert\n    /* \"#utility.yul\":1679:1999   */\ntag_59:\n    /* \"#utility.yul\":1723:1729   */\n  0x00\n    /* \"#utility.yul\":1760:1761   */\n  0x02\n    /* \"#utility.yul\":1754:1758   */\n  dup3\n    /* \"#utility.yul\":1750:1762   */\n  div\n    /* \"#utility.yul\":1740:1762   */\n  swap1\n  pop\n    /* \"#utility.yul\":1807:1808   */\n  0x01\n    /* \"#utility.yul\":1801:1805   */\n  dup3\n    /* \"#utility.yul\":1797:1809   */\n  and\n    /* \"#utility.yul\":1828:1846   */\n  dup1\n    /* \"#utility.yul\":1818:1899   */\n  tag_107\n  jumpi\n    /* \"#utility.yul\":1884:1888   */\n  0x7f\n    /* \"#utility.yul\":1876:1882   */\n  dup3\n    /* \"#utility.yul\":1872:1889   */\n  and\n    /* \"#utility.yul\":1862:1889   */\n  swap2\n  pop\n    /* \"#utility.yul\":1818:1899   */\ntag_107:\n    /* \"#utility.yul\":1946:1948   */\n  0x20\n    /* \"#utility.yul\":1938:1944   */\n  dup3\n    /* \"#utility.yul\":1935:1949   */\n  lt\n    /* \"#utility.yul\":1915:1933   */\n  dup2\n    /* \"#utility.yul\":1912:1950   */\n  sub\n    /* \"#utility.yul\":1909:1993   */\n  tag_108\n  jumpi\n    /* \"#utility.yul\":1965:1983   */\n  tag_109\n  tag_58\n  jump\t// in\ntag_109:\n    /* \"#utility.yul\":1909:1993   */\ntag_108:\n    /* \"#utility.yul\":1730:1999   */\n  pop\n    /* \"#utility.yul\":1679:1999   */\n  swap2\n  swap1\n  pop\n  jump\t// out\n    /* \"#utility.yul\":2005:2146   */\ntag_60:\n    /* \"#utility.yul\":2054:2058   */\n  0x00\n    /* \"#utility.yul\":2077:2080   */\n  dup2\n    /* \"#utility.yul\":2069:2080   */\n  swap1\n  pop\n    /* \"#utility.yul\":2100:2103   */\n  dup2\n    /* \"#utility.yul\":2097:2098   */\n  0x00\n    /* \"#utility.yul\":2090:2104   */\n  mstore\n    /* \"#utility.yul\":2134:2138   */\n  0x20\n    /* \"#utility.yul\":2131:2132   */\n  0x00\n    /* \"#utility.yul\":2121:2139   */\n  keccak256\n    /* \"#utility.yul\":2113:2139   */\n  swap1\n  pop\n    /* \"#utility.yul\":2005:2146   */\n  swap2\n  swap1\n  pop\n  jump\t// out\n    /* \"#utility.yul\":2152:2245   */\ntag_61:\n    /* \"#utility.yul\":2189:2195   */\n  0x00\n    /* \"#utility.yul\":2236:2238   */\n  0x20\n    /* \"#utility.yul\":2231:2233   */\n  0x1f\n    /* \"#utility.yul\":2224:2229   */\n  dup4\n    /* \"#utility.yul\":2220:2234   */\n  add\n    /* \"#utility.yul\":2216:2239   */\n  div\n    /* \"#utility.yul\":2206:2239   */\n  swap1\n  pop\n    /* \"#utility.yul\":2152:2245   */\n  swap2\n  swap1\n  pop\n  jump\t// out\n    /* \"#utility.yul\":2251:2358   */\ntag_62:\n    /* \"#utility.yul\":2295:2303   */\n  0x00\n    /* \"#utility.yul\":2345:2350   */\n  dup3\n    /* \"#utility.yul\":2339:2343   */\n  dup3\n    /* \"#utility.yul\":2335:2351   */\n  shl\n    /* \"#utility.yul\":2314:2351   */\n  swap1\n  pop\n    /* \"#utility.yul\":2251:2358   */\n  swap3\n  swap2\n  pop\n  pop\n  jump\t// out\n    /* \"#utility.yul\":2364:2757   */\ntag_63:\n    /* \"#utility.yul\":2433:2439   */\n  0x00\n    /* \"#utility.yul\":2483:2484   */\n  0x08\n    /* \"#utility.yul\":2471:2481   */\n  dup4\n    /* \"#utility.yul\":2467:2485   */\n  mul\n    /* \"#utility.yul\":2506:2603   */\n  tag_114\n    /* \"#utility.yul\":2536:2602   */\n  0xffffffffffffffffffffffffffffffffffffffffffffffffffffffffffffffff\n    /* \"#utility.yul\":2525:2534   */\n  dup3\n    /* \"#utility.yul\":2506:2603   */\n  tag_62\n  jump\t// in\ntag_114:\n    /* \"#utility.yul\":2624:2663   */\n  tag_115\n    /* \"#utility.yul\":2654:2662   */\n  dup7\n    /* \"#utility.yul\":2643:2652   */\n  dup4\n    /* \"#utility.yul\":2624:2663   */\n  tag_62\n  jump\t// in\ntag_115:\n    /* \"#utility.yul\":2612:2663   */\n  swap6\n  pop\n    /* \"#utility.yul\":2696:2700   */\n  dup1\n    /* \"#utility.yul\":2692:2701   */\n  not\n    /* \"#utility.yul\":2685:2690   */\n  dup5\n    /* \"#utility.yul\":2681:2702   */\n  and\n    /* \"#utility.yul\":2672:2702   */\n  swap4\n  pop\n    /* \"#utility.yul\":2745:2749   */\n  dup1\n    /* \"#utility.yul\":2735:2743   */\n  dup7\n    /* \"#utility.yul\":2731:2750   */\n  and\n    /* \"#utility.yul\":2724:2729   */\n  dup5\n    /* \"#utility.yul\":2721:2751   */\n  or\n    /* \"#utility.yul\":2711:2751   */\n  swap3\n  pop\n    /* \"#utility.yul\":2440:2757   */\n  pop\n  pop\n    /* \"#utility.yul\":2364:2757   */\n  swap4\n  swap3\n  pop\n  pop\n  pop\n  jump\t// out\n    /* \"#utility.yul\":2763:2840   */\ntag_64:\n    /* \"#utility.yul\":2800:2807   */\n  0x00\n    /* \"#utility.yul\":2829:2834   */\n  dup2\n    /* \"#utility.yul\":2818:2834   */\n  swap1\n  pop\n    /* \"#utility.yul\":2763:2840   */\n  swap2\n  swap1\n  pop\n  jump\t// out\n    /* \"#utility.yul\":2846:2906   */\ntag_65:\n    /* \"#utility.yul\":2874:2877   */\n  0x00\n    /* \"#utility.yul\":2895:2900   */\n  dup2\n    /* \"#utility.yul\":2888:2900   */\n  swap1\n  pop\n    /* \"#utility.yul\":2846:2906   */\n  swap2\n  swap1\n  pop\n  jump\t// out\n    /* \"#utility.yul\":2912:3054   */\ntag_66:\n    /* \"#utility.yul\":2962:2971   */\n  0x00\n    /* \"#utility.yul\":2995:3048   */\n  tag_119\n    /* \"#utility.yul\":3013:3047   */\n  tag_120\n    /* \"#utility.yul\":3022:3046   */\n  tag_121\n    /* \"#utility.yul\":3040:3045   */\n  dup5\n    /* \"#utility.yul\":3022:3046   */\n  tag_64\n  jump\t// in\ntag_121:\n    /* \"#utility.yul\":3013:3047   */\n  tag_65\n  jump\t// in\ntag_120:\n    /* \"#utility.yul\":2995:3048   */\n  tag_64\n  jump\t// in\ntag_119:\n    /* \"#utility.yul\":2982:3048   */\n  swap1\n  pop\n    /* \"#utility.yul\":2912:3054   */\n  swap2\n  swap1\n  pop\n  jump\t// out\n    /* \"#utility.yul\":3060:3135   */\ntag_67:\n    /* \"#utility.yul\":3103:3106   */\n  0x00\n    /* \"#utility.yul\":3124:3129   */\n  dup2\n    /* \"#utility.yul\":3117:3129   */\n  swap1\n  pop\n    /* \"#utility.yul\":3060:3135   */\n  swap2\n  swap1\n  pop\n  jump\t// out\n    /* \"#utility.yul\":3141:3410   */\ntag_68:\n    /* \"#utility.yul\":3251:3290   */\n  tag_124\n    /* \"#utility.yul\":3282:3289   */\n  dup4\n    /* \"#utility.yul\":3251:3290   */\n  tag_66\n  jump\t// in\ntag_124:\n    /* \"#utility.yul\":3312:3403   */\n  tag_125\n    /* \"#utility.yul\":3361:3402   */\n  tag_126\n    /* \"#utility.yul\":3385:3401   */\n  dup3\n    /* \"#utility.yul\":3361:3402   */\n  tag_67\n  jump\t// in\ntag_126:\n    /* \"#utility.yul\":3353:3359   */\n  dup5\n    /* \"#utility.yul\":3346:3350   */\n  dup5\n    /* \"#utility.yul\":3340:3351   */\n  sload\n    /* \"#utility.yul\":3312:3403   */\n  tag_63\n  jump\t// in\ntag_125:\n    /* \"#utility.yul\":3306:3310   */\n  dup3\n    /* \"#utility.yul\":3299:3404   */\n  sstore\n    /* \"#utility.yul\":3217:3410   */\n  pop\n    /* \"#utility.yul\":3141:3410   */\n  pop\n  pop\n  pop\n  jump\t// out\n    /* \"#utility.yul\":3416:3489   */\ntag_69:\n    /* \"#utility.yul\":3461:3464   */\n  0x00\n    /* \"#utility.yul\":3416:3489   */\n  swap1\n  jump\t// out\n    /* \"#utility.yul\":3495:3684   */\ntag_70:\n    /* \"#utility.yul\":3572:3604   */\n  tag_129\n  tag_69\n  jump\t// in\ntag_129:\n    /* \"#utility.yul\":3613:3678   */\n  tag_130\n    /* \"#utility.yul\":3671:3677   */\n  dup2\n    /* \"#utility.yul\":3663:3669   */\n  dup5\n    /* \"#utility.yul\":3657:3661   */\n  dup5\n    /* \"#utility.yul\":3613:3678   */\n  tag_68\n  jump\t// in\ntag_130:\n    /* \"#utility.yul\":3548:3684   */\n  pop\n    /* \"#utility.yul\":3495:3684   */\n  pop\n  pop\n  jump\t// out\n    /* \"#utility.yul\":3690:3876   */\ntag_71:\n    /* \"#utility.yul\":3750:3870   */\ntag_132:\n    /* \"#utility.yul\":3767:3770   */\n  dup2\n    /* \"#utility.yul\":3760:3765   */\n  dup2\n    /* \"#utility.yul\":3757:3771   */\n  lt\n    /* \"#utility.yul\":3750:3870   */\n  iszero\n  tag_134\n  jumpi\n    /* \"#utility.yul\":3821:3860   */\n  tag_135\n    /* \"#utility.yul\":3858:3859   */\n  0x00\n    /* \"#utility.yul\":3851:3856   */\n  dup3\n    /* \"#utility.yul\":3821:3860   */\n  tag_70\n  jump\t// in\ntag_135:\n    /* \"#utility.yul\":3794:3795   */\n  0x01\n    /* \"#utility.yul\":3787:3792   */\n  dup2\n    /* \"#utility.yul\":3783:3796   */\n  add\n    /* \"#utility.yul\":3774:3796   */\n  swap1\n  pop\n    /* \"#utility.yul\":3750:3870   */\n  jump(tag_132)\ntag_134:\n    /* \"#utility.yul\":3690:3876   */\n  pop\n  pop\n  jump\t// out\n    /* \"#utility.yul\":3882:4425   */\ntag_72:\n    /* \"#utility.yul\":3983:3985   */\n  0x1f\n    /* \"#utility.yul\":3978:3981   */\n  dup3\n    /* \"#utility.yul\":3975:3986   */\n  gt\n    /* \"#utility.yul\":3972:4418   */\n  iszero\n  tag_137\n  jumpi\n    /* \"#utility.yul\":4017:4055   */\n  tag_138\n    /* \"#utility.yul\":4049:4054   */\n  dup2\n    /* \"#utility.yul\":4017:4055   */\n  tag_60\n  jump\t// in\ntag_138:\n    /* \"#utility.yul\":4101:4130   */\n  tag_139\n    /* \"#utility.yul\":4119:4129   */\n  dup5\n    /* \"#utility.yul\":4101:4130   */\n  tag_61\n  jump\t// in\ntag_139:\n    /* \"#utility.yul\":4091:4099   */\n  dup2\n    /* \"#utility.yul\":4087:4131   */\n  add\n    /* \"#utility.yul\":4284:4286   */\n  0x20\n    /* \"#utility.yul\":4272:4282   */\n  dup6\n    /* \"#utility.yul\":4269:4287   */\n  lt\n    /* \"#utility.yul\":4266:4315   */\n  iszero\n  tag_140\n  jumpi\n    /* \"#utility.yul\":4305:4313   */\n  dup2\n    /* \"#utility.yul\":4290:4313   */\n  swap1\n  pop\n    /* \"#utility.yul\":4266:4315   */\ntag_140:\n    /* \"#utility.yul\":4328:4408   */\n  tag_141\n    /* \"#utility.yul\":4384:4406   */\n  tag_142\n    /* \"#utility.yul\":4402:4405   */\n  dup6\n    /* \"#utility.yul\":4384:4406   */\n  tag_61\n  jump\t// in\ntag_142:\n    /* \"#utility.yul\":4374:4382   */\n  dup4\n    /* \"#utility.yul\":4370:4407   */\n  add\n    /* \"#utility.yul\":4357:4368   */\n  dup3\n    /* \"#utility.yul\":4328:4408   */\n  tag_71\n  jump\t// in\ntag_141:\n    /* \"#utility.yul\":3987:4418   */\n  pop\n  pop\n    /* \"#utility.yul\":3972:4418   */\ntag_137:\n    /* \"#utility.yul\":3882:4425   */\n  pop\n  pop\n  pop\n  jump\t// out\n    /* \"#utility.yul\":4431:4548   */\ntag_73:\n    /* \"#utility.yul\":4485:4493   */\n  0x00\n    /* \"#utility.yul\":4535:4540   */\n  dup3\n    /* \"#utility.yul\":4529:4533   */\n  dup3\n    /* \"#utility.yul\":4525:4541   */\n  shr\n    /* \"#utility.yul\":4504:4541   */\n  swap1\n  pop\n    /* \"#utility.yul\":4431:4548   */\n  swap3\n  swap2\n  pop\n  pop\n  jump\t// out\n    /* \"#utility.yul\":4554:4723   */\ntag_74:\n    /* \"#utility.yul\":4598:4604   */\n  0x00\n    /* \"#utility.yul\":4631:4682   */\n  tag_145\n    /* \"#utility.yul\":4679:4680   */\n  0x00\n    /* \"#utility.yul\":4675:4681   */\n  not\n    /* \"#utility.yul\":4667:4672   */\n  dup5\n    /* \"#utility.yul\":4664:4665   */\n  0x08\n    /* \"#utility.yul\":4660:4673   */\n  mul\n    /* \"#utility.yul\":4631:4682   */\n  tag_73\n  jump\t// in\ntag_145:\n    /* \"#utility.yul\":4627:4683   */\n  not\n    /* \"#utility.yul\":4712:4716   */\n  dup1\n    /* \"#utility.yul\":4706:4710   */\n  dup4\n    /* \"#utility.yul\":4702:4717   */\n  and\n    /* \"#utility.yul\":4692:4717   */\n  swap2\n  pop\n    /* \"#utility.yul\":4605:4723   */\n  pop\n    /* \"#utility.yul\":4554:4723   */\n  swap3\n  swap2\n  pop\n  pop\n  jump\t// out\n    /* \"#utility.yul\":4728:5023   */\ntag_75:\n    /* \"#utility.yul\":4804:4808   */\n  0x00\n    /* \"#utility.yul\":4950:4979   */\n  tag_147\n    /* \"#utility.yul\":4975:4978   */\n  dup4\n    /* \"#utility.yul\":4969:4973   */\n  dup4\n    /* \"#utility.yul\":4950:4979   */\n  tag_74\n  jump\t// in\ntag_147:\n    /* \"#utility.yul\":4942:4979   */\n  swap2\n  pop\n    /* \"#utility.yul\":5012:5015   */\n  dup3\n    /* \"#utility.yul\":5009:5010   */\n  0x02\n    /* \"#utility.yul\":5005:5016   */\n  mul\n    /* \"#utility.yul\":4999:5003   */\n  dup3\n    /* \"#utility.yul\":4996:5017   */\n  or\n    /* \"#utility.yul\":4988:5017   */\n  swap1\n  pop\n    /* \"#utility.yul\":4728:5023   */\n  swap3\n  swap2\n  pop\n  pop\n  jump\t// out\n    /* \"#utility.yul\":5028:6423   */\ntag_12:\n    /* \"#utility.yul\":5145:5182   */\n  tag_149\n    /* \"#utility.yul\":5178:5181   */\n  dup3\n    /* \"#utility.yul\":5145:5182   */\n  tag_56\n  jump\t// in\ntag_149:\n    /* \"#utility.yul\":5247:5265   */\n  0xffffffffffffffff\n    /* \"#utility.yul\":5239:5245   */\n  dup2\n    /* \"#utility.yul\":5236:5266   */\n  gt\n    /* \"#utility.yul\":5233:5289   */\n  iszero\n  tag_150\n  jumpi\n    /* \"#utility.yul\":5269:5287   */\n  tag_151\n  tag_57\n  jump\t// in\ntag_151:\n    /* \"#utility.yul\":5233:5289   */\ntag_150:\n    /* \"#utility.yul\":5313:5351   */\n  tag_152\n    /* \"#utility.yul\":5345:5349   */\n  dup3\n    /* \"#utility.yul\":5339:5350   */\n  sload\n    /* \"#utility.yul\":5313:5351   */\n  tag_59\n  jump\t// in\ntag_152:\n    /* \"#utility.yul\":5398:5465   */\n  tag_153\n    /* \"#utility.yul\":5458:5464   */\n  dup3\n    /* \"#utility.yul\":5450:5456   */\n  dup3\n    /* \"#utility.yul\":5444:5448   */\n  dup6\n    /* \"#utility.yul\":5398:5465   */\n  tag_72\n  jump\t// in\ntag_153:\n    /* \"#utility.yul\":5492:5493   */\n  0x00\n    /* \"#utility.yul\":5516:5520   */\n  0x20\n    /* \"#utility.yul\":5503:5520   */\n  swap1\n  pop\n    /* \"#utility.yul\":5548:5550   */\n  0x1f\n    /* \"#utility.yul\":5540:5546   */\n  dup4\n    /* \"#utility.yul\":5537:5551   */\n  gt\n    /* \"#utility.yul\":5565:5566   */\n  0x01\n    /* \"#utility.yul\":5560:6178   */\n  dup2\n  eq\n  tag_155\n  jumpi\n    /* \"#utility.yul\":6222:6223   */\n  0x00\n    /* \"#utility.yul\":6239:6245   */\n  dup5\n    /* \"#utility.yul\":6236:6313   */\n  iszero\n  tag_156\n  jumpi\n    /* \"#utility.yul\":6288:6297   */\n  dup3\n    /* \"#utility.yul\":6283:6286   */\n  dup8\n    /* \"#utility.yul\":6279:6298   */\n  add\n    /* \"#utility.yul\":6273:6299   */\n  mload\n    /* \"#utility.yul\":6264:6299   */\n  swap1\n  pop\n    /* \"#utility.yul\":6236:6313   */\ntag_156:\n    /* \"#utility.yul\":6339:6406   */\n  tag_157\n    /* \"#utility.yul\":6399:6405   */\n  dup6\n    /* \"#utility.yul\":6392:6397   */\n  dup3\n    /* \"#utility.yul\":6339:6406   */\n  tag_75\n  jump\t// in\ntag_157:\n    /* \"#utility.yul\":6333:6337   */\n  dup7\n    /* \"#utility.yul\":6326:6407   */\n  sstore\n    /* \"#utility.yul\":6195:6417   */\n  pop\n    /* \"#utility.yul\":5530:6417   */\n  jump(tag_154)\n    /* \"#utility.yul\":5560:6178   */\ntag_155:\n    /* \"#utility.yul\":5612:5616   */\n  0x1f\n    /* \"#utility.yul\":5608:5617   */\n  not\n    /* \"#utility.yul\":5600:5606   */\n  dup5\n    /* \"#utility.yul\":5596:5618   */\n  and\n    /* \"#utility.yul\":5646:5683   */\n  tag_158\n    /* \"#utility.yul\":5678:5682   */\n  dup7\n    /* \"#utility.yul\":5646:5683   */\n  tag_60\n  jump\t// in\ntag_158:\n    /* \"#utility.yul\":5705:5706   */\n  0x00\n    /* \"#utility.yul\":5719:5927   */\ntag_159:\n    /* \"#utility.yul\":5733:5740   */\n  dup3\n    /* \"#utility.yul\":5730:5731   */\n  dup2\n    /* \"#utility.yul\":5727:5741   */\n  lt\n    /* \"#utility.yul\":5719:5927   */\n  iszero\n  tag_161\n  jumpi\n    /* \"#utility.yul\":5812:5821   */\n  dup5\n    /* \"#utility.yul\":5807:5810   */\n  dup10\n    /* \"#utility.yul\":5803:5822   */\n  add\n    /* \"#utility.yul\":5797:5823   */\n  mload\n    /* \"#utility.yul\":5789:5795   */\n  dup3\n    /* \"#utility.yul\":5782:5824   */\n  sstore\n    /* \"#utility.yul\":5863:5864   */\n  0x01\n    /* \"#utility.yul\":5855:5861   */\n  dup3\n    /* \"#utility.yul\":5851:5865   */\n  add\n    /* \"#utility.yul\":5841:5865   */\n  swap2\n  pop\n    /* \"#utility.yul\":5910:5912   */\n  0x20\n    /* \"#utility.yul\":5899:5908   */\n  dup6\n    /* \"#utility.yul\":5895:5913   */\n  add\n    /* \"#utility.yul\":5882:5913   */\n  swap5\n  pop\n    /* \"#utility.yul\":5756:5760   */\n  0x20\n    /* \"#utility.yul\":5753:5754   */\n  dup2\n    /* \"#utility.yul\":5749:5761   */\n  add\n    /* \"#utility.yul\":5744:5761   */\n  swap1\n  pop\n    /* \"#utility.yul\":5719:5927   */\n  jump(tag_159)\ntag_161:\n    /* \"#utility.yul\":5955:5961   */\n  dup7\n    /* \"#utility.yul\":5946:5953   */\n  dup4\n    /* \"#utility.yul\":5943:5962   */\n  lt\n    /* \"#utility.yul\":5940:6119   */\n  iszero\n  tag_162\n  jumpi\n    /* \"#utility.yul\":6013:6022   */\n  dup5\n    /* \"#utility.yul\":6008:6011   */\n  dup10\n    /* \"#utility.yul\":6004:6023   */\n  add\n    /* \"#utility.yul\":5998:6024   */\n  mload\n    /* \"#utility.yul\":6056:6104   */\n  tag_163\n    /* \"#utility.yul\":6098:6102   */\n  0x1f\n    /* \"#utility.yul\":6090:6096   */\n  dup10\n    /* \"#utility.yul\":6086:6103   */\n  and\n    /* \"#utility.yul\":6075:6084   */\n  dup3\n    /* \"#utility.yul\":6056:6104   */\n  tag_74\n  jump\t// in\ntag_163:\n    /* \"#utility.yul\":6048:6054   */\n  dup4\n    /* \"#utility.yul\":6041:6105   */\n  sstore\n    /* \"#utility.yul\":5963:6119   */\n  pop\n    /* \"#utility.yul\":5940:6119   */\ntag_162:\n    /* \"#utility.yul\":6165:6166   */\n  0x01\n    /* \"#utility.yul\":6161:6162   */\n  0x02\n    /* \"#utility.yul\":6153:6159   */\n  dup9\n    /* \"#utility.yul\":6149:6163   */\n  mul\n    /* \"#utility.yul\":6145:6167   */\n  add\n    /* \"#utility.yul\":6139:6143   */\n  dup9\n    /* \"#utility.yul\":6132:6168   */\n  sstore\n    /* \"#utility.yul\":5567:6178   */\n  pop\n  pop\n  pop\n    /* \"#utility.yul\":5530:6417   */\ntag_154:\n  pop\n    /* \"#utility.yul\":5120:6423   */\n  pop\n  pop\n  pop\n    /* \"#utility.yul\":5028:6423   */\n  pop\n  pop\n  jump\t// out\n    /* \"#utility.yul\":6429:6547   */\ntag_76:\n    /* \"#utility.yul\":6516:6540   */\n  tag_165\n    /* \"#utility.yul\":6534:6539   */\n  dup2\n    /* \"#utility.yul\":6516:6540   */\n  tag_53\n  jump\t// in\ntag_165:\n    /* \"#utility.yul\":6511:6514   */\n  dup3\n    /* \"#utility.yul\":6504:6541   */\n  mstore\n    /* \"#utility.yul\":6429:6547   */\n  pop\n  pop\n  jump\t// out\n    /* \"#utility.yul\":6553:6775   */\ntag_18:\n    /* \"#utility.yul\":6646:6650   */\n  0x00\n    /* \"#utility.yul\":6684:6686   */\n  0x20\n    /* \"#utility.yul\":6673:6682   */\n  dup3\n    /* \"#utility.yul\":6669:6687   */\n  add\n    /* \"#utility.yul\":6661:6687   */\n  swap1\n  pop\n    /* \"#utility.yul\":6697:6768   */\n  tag_167\n    /* \"#utility.yul\":6765:6766   */\n  0x00\n    /* \"#utility.yul\":6754:6763   */\n  dup4\n    /* \"#utility.yul\":6750:6767   */\n  add\n    /* \"#utility.yul\":6741:6747   */\n  dup5\n    /* \"#utility.yul\":6697:6768   */\n  tag_76\n  jump\t// in\ntag_167:\n    /* \"#utility.yul\":6553:6775   */\n  swap3\n  swap2\n  pop\n  pop\n  jump\t// out\n    /* \"#utility.yul\":6781:6858   */\ntag_77:\n    /* \"#utility.yul\":6818:6825   */\n  0x00\n    /* \"#utility.yul\":6847:6852   */\n  dup2\n    /* \"#utility.yul\":6836:6852   */\n  swap1\n  pop\n    /* \"#utility.yul\":6781:6858   */\n  swap2\n  swap1\n  pop\n  jump\t// out\n    /* \"#utility.yul\":6864:6982   */\ntag_78:\n    /* \"#utility.yul\":6951:6975   */\n  tag_170\n    /* \"#utility.yul\":6969:6974   */\n  dup2\n    /* \"#utility.yul\":6951:6975   */\n  tag_77\n  jump\t// in\ntag_170:\n    /* \"#utility.yul\":6946:6949   */\n  dup3\n    /* \"#utility.yul\":6939:6976   */\n  mstore\n    /* \"#utility.yul\":6864:6982   */\n  pop\n  pop\n  jump\t// out\n    /* \"#utility.yul\":6988:7106   */\ntag_79:\n    /* \"#utility.yul\":7075:7099   */\n  tag_172\n    /* \"#utility.yul\":7093:7098   */\n  dup2\n    /* \"#utility.yul\":7075:7099   */\n  tag_64\n  jump\t// in\ntag_172:\n    /* \"#utility.yul\":7070:7073   */\n  dup3\n    /* \"#utility.yul\":7063:7100   */\n  mstore\n    /* \"#utility.yul\":6988:7106   */\n  pop\n  pop\n  jump\t// out\n    /* \"#utility.yul\":7112:7776   */\ntag_41:\n    /* \"#utility.yul\":7317:7321   */\n  0x00\n    /* \"#utility.yul\":7355:7358   */\n  0xa0\n    /* \"#utility.yul\":7344:7353   */\n  dup3\n    /* \"#utility.yul\":7340:7359   */\n  add\n    /* \"#utility.yul\":7332:7359   */\n  swap1\n  pop\n    /* \"#utility.yul\":7369:7440   */\n  tag_174\n    /* \"#utility.yul\":7437:7438   */\n  0x00\n    /* \"#utility.yul\":7426:7435   */\n  dup4\n    /* \"#utility.yul\":7422:7439   */\n  add\n    /* \"#utility.yul\":7413:7419   */\n  dup9\n    /* \"#utility.yul\":7369:7440   */\n  tag_78\n  jump\t// in\ntag_174:\n    /* \"#utility.yul\":7450:7522   */\n  tag_175\n    /* \"#utility.yul\":7518:7520   */\n  0x20\n    /* \"#utility.yul\":7507:7516   */\n  dup4\n    /* \"#utility.yul\":7503:7521   */\n  add\n    /* \"#utility.yul\":7494:7500   */\n  dup8\n    /* \"#utility.yul\":7450:7522   */\n  tag_78\n  jump\t// in\ntag_175:\n    /* \"#utility.yul\":7532:7604   */\n  tag_176\n    /* \"#utility.yul\":7600:7602   */\n  0x40\n    /* \"#utility.yul\":7589:7598   */\n  dup4\n    /* \"#utility.yul\":7585:7603   */\n  add\n    /* \"#utility.yul\":7576:7582   */\n  dup7\n    /* \"#utility.yul\":7532:7604   */\n  tag_78\n  jump\t// in\ntag_176:\n    /* \"#utility.yul\":7614:7686   */\n  tag_177\n    /* \"#utility.yul\":7682:7684   */\n  0x60\n    /* \"#utility.yul\":7671:7680   */\n  dup4\n    /* \"#utility.yul\":7667:7685   */\n  add\n    /* \"#utility.yul\":7658:7664   */\n  dup6\n    /* \"#utility.yul\":7614:7686   */\n  tag_79\n  jump\t// in\ntag_177:\n    /* \"#utility.yul\":7696:7769   */\n  tag_178\n    /* \"#utility.yul\":7764:7767   */\n  0x80\n    /* \"#utility.yul\":7753:7762   */\n  dup4\n    /* \"#utility.yul\":7749:7768   */\n  add\n    /* \"#utility.yul\":7740:7746   */\n  dup5\n    /* \"#utility.yul\":7696:7769   */\n  tag_76\n  jump\t// in\ntag_178:\n    /* \"#utility.yul\":7112:7776   */\n  swap7\n  swap6\n  pop\n  pop\n  pop\n  pop\n  pop\n  pop\n  jump\t// out\n    /* \"#utility.yul\":7782:7951   */\ntag_80:\n    /* \"#utility.yul\":7866:7877   */\n  0x00\n    /* \"#utility.yul\":7900:7906   */\n  dup3\n    /* \"#utility.yul\":7895:7898   */\n  dup3\n    /* \"#utility.yul\":7888:7907   */\n  mstore\n    /* \"#utility.yul\":7940:7944   */\n  0x20\n    /* \"#utility.yul\":7935:7938   */\n  dup3\n    /* \"#utility.yul\":7931:7945   */\n  add\n    /* \"#utility.yul\":7916:7945   */\n  swap1\n  pop\n    /* \"#utility.yul\":7782:7951   */\n  swap3\n  swap2\n  pop\n  pop\n  jump\t// out\n    /* \"#utility.yul\":7957:8096   */\ntag_81:\n    /* \"#utility.yul\":8046:8052   */\n  dup3\n    /* \"#utility.yul\":8041:8044   */\n  dup2\n    /* \"#utility.yul\":8036:8039   */\n  dup4\n    /* \"#utility.yul\":8030:8053   */\n  mcopy\n    /* \"#utility.yul\":8087:8088   */\n  0x00\n    /* \"#utility.yul\":8078:8084   */\n  dup4\n    /* \"#utility.yul\":8073:8076   */\n  dup4\n    /* \"#utility.yul\":8069:8085   */\n  add\n    /* \"#utility.yul\":8062:8089   */\n  mstore\n    /* \"#utility.yul\":7957:8096   */\n  pop\n  pop\n  pop\n  jump\t// out\n    /* \"#utility.yul\":8102:8204   */\ntag_82:\n    /* \"#utility.yul\":8143:8149   */\n  0x00\n    /* \"#utility.yul\":8194:8196   */\n  0x1f\n    /* \"#utility.yul\":8190:8197   */\n  not\n    /* \"#utility.yul\":8185:8187   */\n  0x1f\n    /* \"#utility.yul\":8178:8183   */\n  dup4\n    /* \"#utility.yul\":8174:8188   */\n  add\n    /* \"#utility.yul\":8170:8198   */\n  and\n    /* \"#utility.yul\":8160:8198   */\n  swap1\n  pop\n    /* \"#utility.yul\":8102:8204   */\n  swap2\n  swap1\n  pop\n  jump\t// out\n    /* \"#utility.yul\":8210:8587   */\ntag_83:\n    /* \"#utility.yul\":8298:8301   */\n  0x00\n    /* \"#utility.yul\":8326:8365   */\n  tag_183\n    /* \"#utility.yul\":8359:8364   */\n  dup3\n    /* \"#utility.yul\":8326:8365   */\n  tag_56\n  jump\t// in\ntag_183:\n    /* \"#utility.yul\":8381:8452   */\n  tag_184\n    /* \"#utility.yul\":8445:8451   */\n  dup2\n    /* \"#utility.yul\":8440:8443   */\n  dup6\n    /* \"#utility.yul\":8381:8452   */\n  tag_80\n  jump\t// in\ntag_184:\n    /* \"#utility.yul\":8374:8452   */\n  swap4\n  pop\n    /* \"#utility.yul\":8461:8526   */\n  tag_185\n    /* \"#utility.yul\":8519:8525   */\n  dup2\n    /* \"#utility.yul\":8514:8517   */\n  dup6\n    /* \"#utility.yul\":8507:8511   */\n  0x20\n    /* \"#utility.yul\":8500:8505   */\n  dup7\n    /* \"#utility.yul\":8496:8512   */\n  add\n    /* \"#utility.yul\":8461:8526   */\n  tag_81\n  jump\t// in\ntag_185:\n    /* \"#utility.yul\":8551:8580   */\n  tag_186\n    /* \"#utility.yul\":8573:8579   */\n  dup2\n    /* \"#utility.yul\":8551:8580   */\n  tag_82\n  jump\t// in\ntag_186:\n    /* \"#utility.yul\":8546:8549   */\n  dup5\n    /* \"#utility.yul\":8542:8581   */\n  add\n    /* \"#utility.yul\":8535:8581   */\n  swap2\n  pop\n    /* \"#utility.yul\":8302:8587   */\n  pop\n    /* \"#utility.yul\":8210:8587   */\n  swap3\n  swap2\n  pop\n  pop\n  jump\t// out\n    /* \"#utility.yul\":8593:8906   */\ntag_45:\n    /* \"#utility.yul\":8706:8710   */\n  0x00\n    /* \"#utility.yul\":8744:8746   */\n  0x20\n    /* \"#utility.yul\":8733:8742   */\n  dup3\n    /* \"#utility.yul\":8729:8747   */\n  add\n    /* \"#utility.yul\":8721:8747   */\n  swap1\n  pop\n    /* \"#utility.yul\":8793:8802   */\n  dup2\n    /* \"#utility.yul\":8787:8791   */\n  dup2\n    /* \"#utility.yul\":8783:8803   */\n  sub\n    /* \"#utility.yul\":8779:8780   */\n  0x00\n    /* \"#utility.yul\":8768:8777   */\n  dup4\n    /* \"#utility.yul\":8764:8781   */\n  add\n    /* \"#utility.yul\":8757:8804   */\n  mstore\n    /* \"#utility.yul\":8821:8899   */\n  tag_188\n    /* \"#utility.yul\":8894:8898   */\n  dup2\n    /* \"#utility.yul\":8885:8891   */\n  dup5\n    /* \"#utility.yul\":8821:8899   */\n  tag_83\n  jump\t// in\ntag_188:\n    /* \"#utility.yul\":8813:8899   */\n  swap1\n  pop\n    /* \"#utility.yul\":8593:8906   */\n  swap3\n  swap2\n  pop\n  pop\n  jump\t// out\n    /* \"#utility.yul\":8912:9010   */\ntag_84:\n    /* \"#utility.yul\":8963:8969   */\n  0x00\n    /* \"#utility.yul\":8997:9002   */\n  dup2\n    /* \"#utility.yul\":8991:9003   */\n  mload\n    /* \"#utility.yul\":8981:9003   */\n  swap1\n  pop\n    /* \"#utility.yul\":8912:9010   */\n  swap2\n  swap1\n  pop\n  jump\t// out\n    /* \"#utility.yul\":9016:9132   */\ntag_85:\n    /* \"#utility.yul\":9067:9071   */\n  0x00\n    /* \"#utility.yul\":9090:9093   */\n  dup2\n    /* \"#utility.yul\":9082:9093   */\n  swap1\n  pop\n    /* \"#utility.yul\":9120:9124   */\n  0x20\n    /* \"#utility.yul\":9115:9118   */\n  dup3\n    /* \"#utility.yul\":9111:9125   */\n  add\n    /* \"#utility.yul\":9103:9125   */\n  swap1\n  pop\n    /* \"#utility.yul\":9016:9132   */\n  swap2\n  swap1\n  pop\n  jump\t// out\n    /* \"#utility.yul\":9138:9292   */\ntag_86:\n    /* \"#utility.yul\":9181:9192   */\n  0x00\n    /* \"#utility.yul\":9217:9246   */\n  tag_192\n    /* \"#utility.yul\":9241:9244   */\n  dup3\n    /* \"#utility.yul\":9235:9245   */\n  mload\n    /* \"#utility.yul\":9217:9246   */\n  tag_77\n  jump\t// in\ntag_192:\n    /* \"#utility.yul\":9280:9285   */\n  dup1\n    /* \"#utility.yul\":9256:9285   */\n  swap2\n  pop\n    /* \"#utility.yul\":9193:9292   */\n  pop\n    /* \"#utility.yul\":9138:9292   */\n  swap2\n  swap1\n  pop\n  jump\t// out\n    /* \"#utility.yul\":9298:9892   */\ntag_47:\n    /* \"#utility.yul\":9382:9387   */\n  0x00\n    /* \"#utility.yul\":9413:9451   */\n  tag_194\n    /* \"#utility.yul\":9445:9450   */\n  dup3\n    /* \"#utility.yul\":9413:9451   */\n  tag_84\n  jump\t// in\ntag_194:\n    /* \"#utility.yul\":9476:9481   */\n  dup3\n    /* \"#utility.yul\":9503:9543   */\n  tag_195\n    /* \"#utility.yul\":9537:9542   */\n  dup5\n    /* \"#utility.yul\":9503:9543   */\n  tag_85\n  jump\t// in\ntag_195:\n    /* \"#utility.yul\":9491:9543   */\n  swap1\n  pop\n    /* \"#utility.yul\":9562:9597   */\n  tag_196\n    /* \"#utility.yul\":9588:9596   */\n  dup2\n    /* \"#utility.yul\":9562:9597   */\n  tag_86\n  jump\t// in\ntag_196:\n    /* \"#utility.yul\":9553:9597   */\n  swap3\n  pop\n    /* \"#utility.yul\":9621:9623   */\n  0x20\n    /* \"#utility.yul\":9613:9619   */\n  dup3\n    /* \"#utility.yul\":9610:9624   */\n  lt\n    /* \"#utility.yul\":9607:9885   */\n  iszero\n  tag_197\n  jumpi\n    /* \"#utility.yul\":9692:9861   */\n  tag_198\n    /* \"#utility.yul\":9777:9843   */\n  0xffffffffffffffffffffffffffffffffffffffffffffffffffffffffffffffff\n    /* \"#utility.yul\":9747:9753   */\n  dup4\n    /* \"#utility.yul\":9743:9745   */\n  0x20\n    /* \"#utility.yul\":9739:9754   */\n  sub\n    /* \"#utility.yul\":9736:9737   */\n  0x08\n    /* \"#utility.yul\":9732:9755   */\n  mul\n    /* \"#utility.yul\":9692:9861   */\n  tag_62\n  jump\t// in\ntag_198:\n    /* \"#utility.yul\":9669:9674   */\n  dup4\n    /* \"#utility.yul\":9648:9875   */\n  and\n    /* \"#utility.yul\":9639:9875   */\n  swap3\n  pop\n    /* \"#utility.yul\":9607:9885   */\ntag_197:\n    /* \"#utility.yul\":9388:9892   */\n  pop\n  pop\n    /* \"#utility.yul\":9298:9892   */\n  swap2\n  swap1\n  pop\n  jump\t// out\n    /* \"contracts/MetDropTestToken_flattened.sol\":84765:85935  contract MetDropTestToken is ERC20, ERC20Burnable, ERC20Pausable, Ownable, ERC20Permit {... */\ntag_29:\n  mload(0x80)\n  mload(0xa0)\n  mload(0xc0)\n  mload(0xe0)\n  mload(0x0100)\n  mload(0x0120)\n  mload(0x0140)\n  codecopy(0x00, dataOffset(sub_0), dataSize(sub_0))\n  0x00\n  assignImmutable(\"0xef17f12455e22a45134579834cdca993c5eec3070954e76052dcfac9f22697b4\")\n  0x00\n  assignImmutable(\"0xb8163922f365f2d54f6122835c04019c69b181c4b5bf7a62d07ca62e91817bd9\")\n  0x00\n  assignImmutable(\"0xc9c370779fd62a0c7c118a2246ccad4c103473123315c14d4e476e7f4b22843f\")\n  0x00\n  assignImmutable(\"0xf40d89e88f976c0e4eebddab04ab11e8eb9a648fae2f79611f9b9f54d5ffefc8\")\n  0x00\n  assignImmutable(\"0xce191cb8321ca757450c20e87b57fa44746b6a87612dab9cf25801eef5ed67f8\")\n  0x00\n  assignImmutable(\"0x1a100bb1148e9e506f9ba8ec1947d4f84b922b6e9d33f30c8d12f2e351bcf10c\")\n  0x00\n  assignImmutable(\"0x29952515f5d57954abac5ab7b1327bd7bcbb5425c05d93673edc46b02d7cb56d\")\n  return(0x00, dataSize(sub_0))\nstop\n\nsub_0: assembly {\n        /* \"contracts/MetDropTestToken_flattened.sol\":84765:85935  contract MetDropTestToken is ERC20, ERC20Burnable, ERC20Pausable, Ownable, ERC20Permit {... */\n      mstore(0x40, 0x80)\n      callvalue\n      dup1\n      iszero\n      tag_1\n      jumpi\n      0x00\n      dup1\n      revert\n    tag_1:\n      pop\n      jumpi(tag_2, lt(calldatasize, 0x04))\n      shr(0xe0, calldataload(0x00))\n      dup1\n      0x70a08231\n      gt\n      tag_26\n      jumpi\n      dup1\n      0x8da5cb5b\n      gt\n      tag_27\n      jumpi\n      dup1\n      0x8da5cb5b\n      eq\n      tag_20\n      jumpi\n      dup1\n      0x95d89b41\n      eq\n      tag_21\n      jumpi\n      dup1\n      0xa9059cbb\n      eq\n      tag_22\n      jumpi\n      dup1\n      0xd505accf\n      eq\n      tag_23\n      jumpi\n      dup1\n      0xdd62ed3e\n      eq\n      tag_24\n      jumpi\n      dup1\n      0xf2fde38b\n      eq\n      tag_25\n      jumpi\n      jump(tag_2)\n    tag_27:\n      dup1\n      0x70a08231\n      eq\n      tag_14\n      jumpi\n      dup1\n      0x715018a6\n      eq\n      tag_15\n      jumpi\n      dup1\n      0x79cc6790\n      eq\n      tag_16\n      jumpi\n      dup1\n      0x7ecebe00\n      eq\n      tag_17\n      jumpi\n      dup1\n      0x8456cb59\n      eq\n      tag_18\n      jumpi\n      dup1\n      0x84b0196e\n      eq\n      tag_19\n      jumpi\n      jump(tag_2)\n    tag_26:\n      dup1\n      0x313ce567\n      gt\n      tag_28\n      jumpi\n      dup1\n      0x313ce567\n      eq\n      tag_8\n      jumpi\n      dup1\n      0x3644e515\n      eq\n      tag_9\n      jumpi\n      dup1\n      0x3f4ba83a\n      eq\n      tag_10\n      jumpi\n      dup1\n      0x40c10f19\n      eq\n      tag_11\n      jumpi\n      dup1\n      0x42966c68\n      eq\n      tag_12\n      jumpi\n      dup1\n      0x5c975abb\n      eq\n      tag_13\n      jumpi\n      jump(tag_2)\n    tag_28:\n      dup1\n      0x06fdde03\n      eq\n      tag_3\n      jumpi\n      dup1\n      0x095ea7b3\n      eq\n      tag_4\n      jumpi\n      dup1\n      0x1249c58b\n      eq\n      tag_5\n      jumpi\n      dup1\n      0x18160ddd\n      eq\n      tag_6\n      jumpi\n      dup1\n      0x23b872dd\n      eq\n      tag_7\n      jumpi\n    tag_2:\n      0x00\n      dup1\n      revert\n        /* \"contracts/MetDropTestToken_flattened.sol\":12935:13024  function name() public view virtual returns (string memory) {... */\n    tag_3:\n      tag_29\n      tag_30\n      jump\t// in\n    tag_29:\n      mload(0x40)\n      tag_31\n      swap2\n      swap1\n      tag_32\n      jump\t// in\n    tag_31:\n      mload(0x40)\n      dup1\n      swap2\n      sub\n      swap1\n      return\n        /* \"contracts/MetDropTestToken_flattened.sol\":15154:15340  function approve(address spender, uint256 value) public virtual returns (bool) {... */\n    tag_4:\n      tag_33\n      0x04\n      dup1\n      calldatasize\n      sub\n      dup2\n      add\n      swap1\n      tag_34\n      swap2\n      swap1\n      tag_35\n      jump\t// in\n    tag_34:\n      tag_36\n      jump\t// in\n    tag_33:\n      mload(0x40)\n      tag_37\n      swap2\n      swap1\n      tag_38\n      jump\t// in\n    tag_37:\n      mload(0x40)\n      dup1\n      swap2\n      sub\n      swap1\n      return\n        /* \"contracts/MetDropTestToken_flattened.sol\":85282:85595  function mint() external returns (uint256 _amount) {... */\n    tag_5:\n      tag_39\n      tag_40\n      jump\t// in\n    tag_39:\n      mload(0x40)\n      tag_41\n      swap2\n      swap1\n      tag_42\n      jump\t// in\n    tag_41:\n      mload(0x40)\n      dup1\n      swap2\n      sub\n      swap1\n      return\n        /* \"contracts/MetDropTestToken_flattened.sol\":14005:14102  function totalSupply() public view virtual returns (uint256) {... */\n    tag_6:\n      tag_43\n      tag_44\n      jump\t// in\n    tag_43:\n      mload(0x40)\n      tag_45\n      swap2\n      swap1\n      tag_42\n      jump\t// in\n    tag_45:\n      mload(0x40)\n      dup1\n      swap2\n      sub\n      swap1\n      return\n        /* \"contracts/MetDropTestToken_flattened.sol\":15900:16144  function transferFrom(address from, address to, uint256 value) public virtual returns (bool) {... */\n    tag_7:\n      tag_46\n      0x04\n      dup1\n      calldatasize\n      sub\n      dup2\n      add\n      swap1\n      tag_47\n      swap2\n      swap1\n      tag_48\n      jump\t// in\n    tag_47:\n      tag_49\n      jump\t// in\n    tag_46:\n      mload(0x40)\n      tag_50\n      swap2\n      swap1\n      tag_38\n      jump\t// in\n    tag_50:\n      mload(0x40)\n      dup1\n      swap2\n      sub\n      swap1\n      return\n        /* \"contracts/MetDropTestToken_flattened.sol\":13863:13945  function decimals() public view virtual returns (uint8) {... */\n    tag_8:\n      tag_51\n      tag_52\n      jump\t// in\n    tag_51:\n      mload(0x40)\n      tag_53\n      swap2\n      swap1\n      tag_54\n      jump\t// in\n    tag_53:\n      mload(0x40)\n      dup1\n      swap2\n      sub\n      swap1\n      return\n        /* \"contracts/MetDropTestToken_flattened.sol\":84527:84639  function DOMAIN_SEPARATOR() external view virtual returns (bytes32) {... */\n    tag_9:\n      tag_55\n      tag_56\n      jump\t// in\n    tag_55:\n      mload(0x40)\n      tag_57\n      swap2\n      swap1\n      tag_58\n      jump\t// in\n    tag_57:\n      mload(0x40)\n      dup1\n      swap2\n      sub\n      swap1\n      return\n        /* \"contracts/MetDropTestToken_flattened.sol\":85213:85276  function unpause() public onlyOwner {... */\n    tag_10:\n      tag_59\n      tag_60\n      jump\t// in\n    tag_59:\n      stop\n        /* \"contracts/MetDropTestToken_flattened.sol\":85601:85694  function mint(address to, uint256 amount) public onlyOwner {... */\n    tag_11:\n      tag_61\n      0x04\n      dup1\n      calldatasize\n      sub\n      dup2\n      add\n      swap1\n      tag_62\n      swap2\n      swap1\n      tag_35\n      jump\t// in\n    tag_62:\n      tag_63\n      jump\t// in\n    tag_61:\n      stop\n        /* \"contracts/MetDropTestToken_flattened.sol\":22580:22667  function burn(uint256 value) public virtual {... */\n    tag_12:\n      tag_64\n      0x04\n      dup1\n      calldatasize\n      sub\n      dup2\n      add\n      swap1\n      tag_65\n      swap2\n      swap1\n      tag_66\n      jump\t// in\n    tag_65:\n      tag_67\n      jump\t// in\n    tag_64:\n      stop\n        /* \"contracts/MetDropTestToken_flattened.sol\":24971:25055  function paused() public view virtual returns (bool) {... */\n    tag_13:\n      tag_68\n      tag_69\n      jump\t// in\n    tag_68:\n      mload(0x40)\n      tag_70\n      swap2\n      swap1\n      tag_38\n      jump\t// in\n    tag_70:\n      mload(0x40)\n      dup1\n      swap2\n      sub\n      swap1\n      return\n        /* \"contracts/MetDropTestToken_flattened.sol\":14160:14276  function balanceOf(address account) public view virtual returns (uint256) {... */\n    tag_14:\n      tag_71\n      0x04\n      dup1\n      calldatasize\n      sub\n      dup2\n      add\n      swap1\n      tag_72\n      swap2\n      swap1\n      tag_73\n      jump\t// in\n    tag_72:\n      tag_74\n      jump\t// in\n    tag_71:\n      mload(0x40)\n      tag_75\n      swap2\n      swap1\n      tag_42\n      jump\t// in\n    tag_75:\n      mload(0x40)\n      dup1\n      swap2\n      sub\n      swap1\n      return\n        /* \"contracts/MetDropTestToken_flattened.sol\":29437:29538  function renounceOwnership() public virtual onlyOwner {... */\n    tag_15:\n      tag_76\n      tag_77\n      jump\t// in\n    tag_76:\n      stop\n        /* \"contracts/MetDropTestToken_flattened.sol\":22983:23141  function burnFrom(address account, uint256 value) public virtual {... */\n    tag_16:\n      tag_78\n      0x04\n      dup1\n      calldatasize\n      sub\n      dup2\n      add\n      swap1\n      tag_79\n      swap2\n      swap1\n      tag_35\n      jump\t// in\n    tag_79:\n      tag_80\n      jump\t// in\n    tag_78:\n      stop\n        /* \"contracts/MetDropTestToken_flattened.sol\":84277:84420  function nonces(address owner) public view virtual override(IERC20Permit, Nonces) returns (uint256) {... */\n    tag_17:\n      tag_81\n      0x04\n      dup1\n      calldatasize\n      sub\n      dup2\n      add\n      swap1\n      tag_82\n      swap2\n      swap1\n      tag_73\n      jump\t// in\n    tag_82:\n      tag_83\n      jump\t// in\n    tag_81:\n      mload(0x40)\n      tag_84\n      swap2\n      swap1\n      tag_42\n      jump\t// in\n    tag_84:\n      mload(0x40)\n      dup1\n      swap2\n      sub\n      swap1\n      return\n        /* \"contracts/MetDropTestToken_flattened.sol\":85148:85207  function pause() public onlyOwner {... */\n    tag_18:\n      tag_85\n      tag_86\n      jump\t// in\n    tag_85:\n      stop\n        /* \"contracts/MetDropTestToken_flattened.sol\":79105:79662  function eip712Domain()... */\n    tag_19:\n      tag_87\n      tag_88\n      jump\t// in\n    tag_87:\n      mload(0x40)\n      tag_89\n      swap8\n      swap7\n      swap6\n      swap5\n      swap4\n      swap3\n      swap2\n      swap1\n      tag_90\n      jump\t// in\n    tag_89:\n      mload(0x40)\n      dup1\n      swap2\n      sub\n      swap1\n      return\n        /* \"contracts/MetDropTestToken_flattened.sol\":28782:28867  function owner() public view virtual returns (address) {... */\n    tag_20:\n      tag_91\n      tag_92\n      jump\t// in\n    tag_91:\n      mload(0x40)\n      tag_93\n      swap2\n      swap1\n      tag_94\n      jump\t// in\n    tag_93:\n      mload(0x40)\n      dup1\n      swap2\n      sub\n      swap1\n      return\n        /* \"contracts/MetDropTestToken_flattened.sol\":13137:13230  function symbol() public view virtual returns (string memory) {... */\n    tag_21:\n      tag_95\n      tag_96\n      jump\t// in\n    tag_95:\n      mload(0x40)\n      tag_97\n      swap2\n      swap1\n      tag_32\n      jump\t// in\n    tag_97:\n      mload(0x40)\n      dup1\n      swap2\n      sub\n      swap1\n      return\n        /* \"contracts/MetDropTestToken_flattened.sol\":14471:14649  function transfer(address to, uint256 value) public virtual returns (bool) {... */\n    tag_22:\n      tag_98\n      0x04\n      dup1\n      calldatasize\n      sub\n      dup2\n      add\n      swap1\n      tag_99\n      swap2\n      swap1\n      tag_35\n      jump\t// in\n    tag_99:\n      tag_100\n      jump\t// in\n    tag_98:\n      mload(0x40)\n      tag_101\n      swap2\n      swap1\n      tag_38\n      jump\t// in\n    tag_101:\n      mload(0x40)\n      dup1\n      swap2\n      sub\n      swap1\n      return\n        /* \"contracts/MetDropTestToken_flattened.sol\":83551:84223  function permit(... */\n    tag_23:\n      tag_102\n      0x04\n      dup1\n      calldatasize\n      sub\n      dup2\n      add\n      swap1\n      tag_103\n      swap2\n      swap1\n      tag_104\n      jump\t// in\n    tag_103:\n      tag_105\n      jump\t// in\n    tag_102:\n      stop\n        /* \"contracts/MetDropTestToken_flattened.sol\":14707:14847  function allowance(address owner, address spender) public view virtual returns (uint256) {... */\n    tag_24:\n      tag_106\n      0x04\n      dup1\n      calldatasize\n      sub\n      dup2\n      add\n      swap1\n      tag_107\n      swap2\n      swap1\n      tag_108\n      jump\t// in\n    tag_107:\n      tag_109\n      jump\t// in\n    tag_106:\n      mload(0x40)\n      tag_110\n      swap2\n      swap1\n      tag_42\n      jump\t// in\n    tag_110:\n      mload(0x40)\n      dup1\n      swap2\n      sub\n      swap1\n      return\n        /* \"contracts/MetDropTestToken_flattened.sol\":29687:29902  function transferOwnership(address newOwner) public virtual onlyOwner {... */\n    tag_25:\n      tag_111\n      0x04\n      dup1\n      calldatasize\n      sub\n      dup2\n      add\n      swap1\n      tag_112\n      swap2\n      swap1\n      tag_73\n      jump\t// in\n    tag_112:\n      tag_113\n      jump\t// in\n    tag_111:\n      stop\n        /* \"contracts/MetDropTestToken_flattened.sol\":12935:13024  function name() public view virtual returns (string memory) {... */\n    tag_30:\n        /* \"contracts/MetDropTestToken_flattened.sol\":12980:12993  string memory */\n      0x60\n        /* \"contracts/MetDropTestToken_flattened.sol\":13012:13017  _name */\n      0x03\n        /* \"contracts/MetDropTestToken_flattened.sol\":13005:13017  return _name */\n      dup1\n      sload\n      tag_115\n      swap1\n      tag_116\n      jump\t// in\n    tag_115:\n      dup1\n      0x1f\n      add\n      0x20\n      dup1\n      swap2\n      div\n      mul\n      0x20\n      add\n      mload(0x40)\n      swap1\n      dup2\n      add\n      0x40\n      mstore\n      dup1\n      swap3\n      swap2\n      swap1\n      dup2\n      dup2\n      mstore\n      0x20\n      add\n      dup3\n      dup1\n      sload\n      tag_117\n      swap1\n      tag_116\n      jump\t// in\n    tag_117:\n      dup1\n      iszero\n      tag_118\n      jumpi\n      dup1\n      0x1f\n      lt\n      tag_119\n      jumpi\n      0x0100\n      dup1\n      dup4\n      sload\n      div\n      mul\n      dup4\n      mstore\n      swap2\n      0x20\n      add\n      swap2\n      jump(tag_118)\n    tag_119:\n      dup3\n      add\n      swap2\n      swap1\n      0x00\n      mstore\n      keccak256(0x00, 0x20)\n      swap1\n    tag_120:\n      dup2\n      sload\n      dup2\n      mstore\n      swap1\n      0x01\n      add\n      swap1\n      0x20\n      add\n      dup1\n      dup4\n      gt\n      tag_120\n      jumpi\n      dup3\n      swap1\n      sub\n      0x1f\n      and\n      dup3\n      add\n      swap2\n    tag_118:\n      pop\n      pop\n      pop\n      pop\n      pop\n      swap1\n      pop\n        /* \"contracts/MetDropTestToken_flattened.sol\":12935:13024  function name() public view virtual returns (string memory) {... */\n      swap1\n      jump\t// out\n        /* \"contracts/MetDropTestToken_flattened.sol\":15154:15340  function approve(address spender, uint256 value) public virtual returns (bool) {... */\n    tag_36:\n        /* \"contracts/MetDropTestToken_flattened.sol\":15227:15231  bool */\n      0x00\n        /* \"contracts/MetDropTestToken_flattened.sol\":15243:15256  address owner */\n      dup1\n        /* \"contracts/MetDropTestToken_flattened.sol\":15259:15271  _msgSender() */\n      tag_122\n        /* \"contracts/MetDropTestToken_flattened.sol\":15259:15269  _msgSender */\n      tag_123\n        /* \"contracts/MetDropTestToken_flattened.sol\":15259:15271  _msgSender() */\n      jump\t// in\n    tag_122:\n        /* \"contracts/MetDropTestToken_flattened.sol\":15243:15271  address owner = _msgSender() */\n      swap1\n      pop\n        /* \"contracts/MetDropTestToken_flattened.sol\":15281:15312  _approve(owner, spender, value) */\n      tag_124\n        /* \"contracts/MetDropTestToken_flattened.sol\":15290:15295  owner */\n      dup2\n        /* \"contracts/MetDropTestToken_flattened.sol\":15297:15304  spender */\n      dup6\n        /* \"contracts/MetDropTestToken_flattened.sol\":15306:15311  value */\n      dup6\n        /* \"contracts/MetDropTestToken_flattened.sol\":15281:15289  _approve */\n      tag_125\n        /* \"contracts/MetDropTestToken_flattened.sol\":15281:15312  _approve(owner, spender, value) */\n      jump\t// in\n    tag_124:\n        /* \"contracts/MetDropTestToken_flattened.sol\":15329:15333  true */\n      0x01\n        /* \"contracts/MetDropTestToken_flattened.sol\":15322:15333  return true */\n      swap2\n      pop\n      pop\n        /* \"contracts/MetDropTestToken_flattened.sol\":15154:15340  function approve(address spender, uint256 value) public virtual returns (bool) {... */\n      swap3\n      swap2\n      pop\n      pop\n      jump\t// out\n        /* \"contracts/MetDropTestToken_flattened.sol\":85282:85595  function mint() external returns (uint256 _amount) {... */\n    tag_40:\n        /* \"contracts/MetDropTestToken_flattened.sol\":85316:85331  uint256 _amount */\n      0x00\n        /* \"contracts/MetDropTestToken_flattened.sol\":85343:85359  int256 coolDown_ */\n      dup1\n        /* \"contracts/MetDropTestToken_flattened.sol\":85387:85408  lastMintDateByAddress */\n      0x0a\n        /* \"contracts/MetDropTestToken_flattened.sol\":85387:85420  lastMintDateByAddress[msg.sender] */\n      0x00\n        /* \"contracts/MetDropTestToken_flattened.sol\":85409:85419  msg.sender */\n      caller\n        /* \"contracts/MetDropTestToken_flattened.sol\":85387:85420  lastMintDateByAddress[msg.sender] */\n      0xffffffffffffffffffffffffffffffffffffffff\n      and\n      0xffffffffffffffffffffffffffffffffffffffff\n      and\n      dup2\n      mstore\n      0x20\n      add\n      swap1\n      dup2\n      mstore\n      0x20\n      add\n      0x00\n      keccak256\n      sload\n        /* \"contracts/MetDropTestToken_flattened.sol\":85369:85384  block.timestamp */\n      timestamp\n        /* \"contracts/MetDropTestToken_flattened.sol\":85369:85420  block.timestamp - lastMintDateByAddress[msg.sender] */\n      tag_127\n      swap2\n      swap1\n      tag_128\n      jump\t// in\n    tag_127:\n        /* \"contracts/MetDropTestToken_flattened.sol\":85343:85421  int256 coolDown_ = int256(block.timestamp - lastMintDateByAddress[msg.sender]) */\n      swap1\n      pop\n        /* \"contracts/MetDropTestToken_flattened.sol\":85452:85460  coolDown */\n      sload(0x09)\n        /* \"contracts/MetDropTestToken_flattened.sol\":85440:85449  coolDown_ */\n      dup2\n        /* \"contracts/MetDropTestToken_flattened.sol\":85440:85460  coolDown_ > coolDown */\n      sgt\n        /* \"contracts/MetDropTestToken_flattened.sol\":85432:85493  require(coolDown_ > coolDown, \" still in cool down period \" ) */\n      tag_129\n      jumpi\n      mload(0x40)\n      0x08c379a000000000000000000000000000000000000000000000000000000000\n      dup2\n      mstore\n      0x04\n      add\n      tag_130\n      swap1\n      tag_131\n      jump\t// in\n    tag_130:\n      mload(0x40)\n      dup1\n      swap2\n      sub\n      swap1\n      revert\n    tag_129:\n        /* \"contracts/MetDropTestToken_flattened.sol\":85513:85526  defaultAmount */\n      sload(0x0b)\n        /* \"contracts/MetDropTestToken_flattened.sol\":85503:85526  _amount = defaultAmount */\n      swap2\n      pop\n        /* \"contracts/MetDropTestToken_flattened.sol\":85537:85563  _mint(msg.sender, _amount) */\n      tag_132\n        /* \"contracts/MetDropTestToken_flattened.sol\":85543:85553  msg.sender */\n      caller\n        /* \"contracts/MetDropTestToken_flattened.sol\":85555:85562  _amount */\n      dup4\n        /* \"contracts/MetDropTestToken_flattened.sol\":85537:85542  _mint */\n      tag_133\n        /* \"contracts/MetDropTestToken_flattened.sol\":85537:85563  _mint(msg.sender, _amount) */\n      jump\t// in\n    tag_132:\n        /* \"contracts/MetDropTestToken_flattened.sol\":85573:85587  return _amount */\n      pop\n        /* \"contracts/MetDropTestToken_flattened.sol\":85282:85595  function mint() external returns (uint256 _amount) {... */\n      swap1\n      jump\t// out\n        /* \"contracts/MetDropTestToken_flattened.sol\":14005:14102  function totalSupply() public view virtual returns (uint256) {... */\n    tag_44:\n        /* \"contracts/MetDropTestToken_flattened.sol\":14057:14064  uint256 */\n      0x00\n        /* \"contracts/MetDropTestToken_flattened.sol\":14083:14095  _totalSupply */\n      sload(0x02)\n        /* \"contracts/MetDropTestToken_flattened.sol\":14076:14095  return _totalSupply */\n      swap1\n      pop\n        /* \"contracts/MetDropTestToken_flattened.sol\":14005:14102  function totalSupply() public view virtual returns (uint256) {... */\n      swap1\n      jump\t// out\n        /* \"contracts/MetDropTestToken_flattened.sol\":15900:16144  function transferFrom(address from, address to, uint256 value) public virtual returns (bool) {... */\n    tag_49:\n        /* \"contracts/MetDropTestToken_flattened.sol\":15987:15991  bool */\n      0x00\n        /* \"contracts/MetDropTestToken_flattened.sol\":16003:16018  address spender */\n      dup1\n        /* \"contracts/MetDropTestToken_flattened.sol\":16021:16033  _msgSender() */\n      tag_136\n        /* \"contracts/MetDropTestToken_flattened.sol\":16021:16031  _msgSender */\n      tag_123\n        /* \"contracts/MetDropTestToken_flattened.sol\":16021:16033  _msgSender() */\n      jump\t// in\n    tag_136:\n        /* \"contracts/MetDropTestToken_flattened.sol\":16003:16033  address spender = _msgSender() */\n      swap1\n      pop\n        /* \"contracts/MetDropTestToken_flattened.sol\":16043:16080  _spendAllowance(from, spender, value) */\n      tag_137\n        /* \"contracts/MetDropTestToken_flattened.sol\":16059:16063  from */\n      dup6\n        /* \"contracts/MetDropTestToken_flattened.sol\":16065:16072  spender */\n      dup3\n        /* \"contracts/MetDropTestToken_flattened.sol\":16074:16079  value */\n      dup6\n        /* \"contracts/MetDropTestToken_flattened.sol\":16043:16058  _spendAllowance */\n      tag_138\n        /* \"contracts/MetDropTestToken_flattened.sol\":16043:16080  _spendAllowance(from, spender, value) */\n      jump\t// in\n    tag_137:\n        /* \"contracts/MetDropTestToken_flattened.sol\":16090:16116  _transfer(from, to, value) */\n      tag_139\n        /* \"contracts/MetDropTestToken_flattened.sol\":16100:16104  from */\n      dup6\n        /* \"contracts/MetDropTestToken_flattened.sol\":16106:16108  to */\n      dup6\n        /* \"contracts/MetDropTestToken_flattened.sol\":16110:16115  value */\n      dup6\n        /* \"contracts/MetDropTestToken_flattened.sol\":16090:16099  _transfer */\n      tag_140\n        /* \"contracts/MetDropTestToken_flattened.sol\":16090:16116  _transfer(from, to, value) */\n      jump\t// in\n    tag_139:\n        /* \"contracts/MetDropTestToken_flattened.sol\":16133:16137  true */\n      0x01\n        /* \"contracts/MetDropTestToken_flattened.sol\":16126:16137  return true */\n      swap2\n      pop\n      pop\n        /* \"contracts/MetDropTestToken_flattened.sol\":15900:16144  function transferFrom(address from, address to, uint256 value) public virtual returns (bool) {... */\n      swap4\n      swap3\n      pop\n      pop\n      pop\n      jump\t// out\n        /* \"contracts/MetDropTestToken_flattened.sol\":13863:13945  function decimals() public view virtual returns (uint8) {... */\n    tag_52:\n        /* \"contracts/MetDropTestToken_flattened.sol\":13912:13917  uint8 */\n      0x00\n        /* \"contracts/MetDropTestToken_flattened.sol\":13936:13938  18 */\n      0x12\n        /* \"contracts/MetDropTestToken_flattened.sol\":13929:13938  return 18 */\n      swap1\n      pop\n        /* \"contracts/MetDropTestToken_flattened.sol\":13863:13945  function decimals() public view virtual returns (uint8) {... */\n      swap1\n      jump\t// out\n        /* \"contracts/MetDropTestToken_flattened.sol\":84527:84639  function DOMAIN_SEPARATOR() external view virtual returns (bytes32) {... */\n    tag_56:\n        /* \"contracts/MetDropTestToken_flattened.sol\":84586:84593  bytes32 */\n      0x00\n        /* \"contracts/MetDropTestToken_flattened.sol\":84612:84632  _domainSeparatorV4() */\n      tag_143\n        /* \"contracts/MetDropTestToken_flattened.sol\":84612:84630  _domainSeparatorV4 */\n      tag_144\n        /* \"contracts/MetDropTestToken_flattened.sol\":84612:84632  _domainSeparatorV4() */\n      jump\t// in\n    tag_143:\n        /* \"contracts/MetDropTestToken_flattened.sol\":84605:84632  return _domainSeparatorV4() */\n      swap1\n      pop\n        /* \"contracts/MetDropTestToken_flattened.sol\":84527:84639  function DOMAIN_SEPARATOR() external view virtual returns (bytes32) {... */\n      swap1\n      jump\t// out\n        /* \"contracts/MetDropTestToken_flattened.sol\":85213:85276  function unpause() public onlyOwner {... */\n    tag_60:\n        /* \"contracts/MetDropTestToken_flattened.sol\":28675:28688  _checkOwner() */\n      tag_146\n        /* \"contracts/MetDropTestToken_flattened.sol\":28675:28686  _checkOwner */\n      tag_147\n        /* \"contracts/MetDropTestToken_flattened.sol\":28675:28688  _checkOwner() */\n      jump\t// in\n    tag_146:\n        /* \"contracts/MetDropTestToken_flattened.sol\":85259:85269  _unpause() */\n      tag_149\n        /* \"contracts/MetDropTestToken_flattened.sol\":85259:85267  _unpause */\n      tag_150\n        /* \"contracts/MetDropTestToken_flattened.sol\":85259:85269  _unpause() */\n      jump\t// in\n    tag_149:\n        /* \"contracts/MetDropTestToken_flattened.sol\":85213:85276  function unpause() public onlyOwner {... */\n      jump\t// out\n        /* \"contracts/MetDropTestToken_flattened.sol\":85601:85694  function mint(address to, uint256 amount) public onlyOwner {... */\n    tag_63:\n        /* \"contracts/MetDropTestToken_flattened.sol\":28675:28688  _checkOwner() */\n      tag_152\n        /* \"contracts/MetDropTestToken_flattened.sol\":28675:28686  _checkOwner */\n      tag_147\n        /* \"contracts/MetDropTestToken_flattened.sol\":28675:28688  _checkOwner() */\n      jump\t// in\n    tag_152:\n        /* \"contracts/MetDropTestToken_flattened.sol\":85670:85687  _mint(to, amount) */\n      tag_154\n        /* \"contracts/MetDropTestToken_flattened.sol\":85676:85678  to */\n      dup3\n        /* \"contracts/MetDropTestToken_flattened.sol\":85680:85686  amount */\n      dup3\n        /* \"contracts/MetDropTestToken_flattened.sol\":85670:85675  _mint */\n      tag_133\n        /* \"contracts/MetDropTestToken_flattened.sol\":85670:85687  _mint(to, amount) */\n      jump\t// in\n    tag_154:\n        /* \"contracts/MetDropTestToken_flattened.sol\":85601:85694  function mint(address to, uint256 amount) public onlyOwner {... */\n      pop\n      pop\n      jump\t// out\n        /* \"contracts/MetDropTestToken_flattened.sol\":22580:22667  function burn(uint256 value) public virtual {... */\n    tag_67:\n        /* \"contracts/MetDropTestToken_flattened.sol\":22634:22660  _burn(_msgSender(), value) */\n      tag_156\n        /* \"contracts/MetDropTestToken_flattened.sol\":22640:22652  _msgSender() */\n      tag_157\n        /* \"contracts/MetDropTestToken_flattened.sol\":22640:22650  _msgSender */\n      tag_123\n        /* \"contracts/MetDropTestToken_flattened.sol\":22640:22652  _msgSender() */\n      jump\t// in\n    tag_157:\n        /* \"contracts/MetDropTestToken_flattened.sol\":22654:22659  value */\n      dup3\n        /* \"contracts/MetDropTestToken_flattened.sol\":22634:22639  _burn */\n      tag_158\n        /* \"contracts/MetDropTestToken_flattened.sol\":22634:22660  _burn(_msgSender(), value) */\n      jump\t// in\n    tag_156:\n        /* \"contracts/MetDropTestToken_flattened.sol\":22580:22667  function burn(uint256 value) public virtual {... */\n      pop\n      jump\t// out\n        /* \"contracts/MetDropTestToken_flattened.sol\":24971:25055  function paused() public view virtual returns (bool) {... */\n    tag_69:\n        /* \"contracts/MetDropTestToken_flattened.sol\":25018:25022  bool */\n      0x00\n        /* \"contracts/MetDropTestToken_flattened.sol\":25041:25048  _paused */\n      0x05\n      0x00\n      swap1\n      sload\n      swap1\n      0x0100\n      exp\n      swap1\n      div\n      0xff\n      and\n        /* \"contracts/MetDropTestToken_flattened.sol\":25034:25048  return _paused */\n      swap1\n      pop\n        /* \"contracts/MetDropTestToken_flattened.sol\":24971:25055  function paused() public view virtual returns (bool) {... */\n      swap1\n      jump\t// out\n        /* \"contracts/MetDropTestToken_flattened.sol\":14160:14276  function balanceOf(address account) public view virtual returns (uint256) {... */\n    tag_74:\n        /* \"contracts/MetDropTestToken_flattened.sol\":14225:14232  uint256 */\n      0x00\n        /* \"contracts/MetDropTestToken_flattened.sol\":14251:14260  _balances */\n      dup1\n        /* \"contracts/MetDropTestToken_flattened.sol\":14251:14269  _balances[account] */\n      0x00\n        /* \"contracts/MetDropTestToken_flattened.sol\":14261:14268  account */\n      dup4\n        /* \"contracts/MetDropTestToken_flattened.sol\":14251:14269  _balances[account] */\n      0xffffffffffffffffffffffffffffffffffffffff\n      and\n      0xffffffffffffffffffffffffffffffffffffffff\n      and\n      dup2\n      mstore\n      0x20\n      add\n      swap1\n      dup2\n      mstore\n      0x20\n      add\n      0x00\n      keccak256\n      sload\n        /* \"contracts/MetDropTestToken_flattened.sol\":14244:14269  return _balances[account] */\n      swap1\n      pop\n        /* \"contracts/MetDropTestToken_flattened.sol\":14160:14276  function balanceOf(address account) public view virtual returns (uint256) {... */\n      swap2\n      swap1\n      pop\n      jump\t// out\n        /* \"contracts/MetDropTestToken_flattened.sol\":29437:29538  function renounceOwnership() public virtual onlyOwner {... */\n    tag_77:\n        /* \"contracts/MetDropTestToken_flattened.sol\":28675:28688  _checkOwner() */\n      tag_162\n        /* \"contracts/MetDropTestToken_flattened.sol\":28675:28686  _checkOwner */\n      tag_147\n        /* \"contracts/MetDropTestToken_flattened.sol\":28675:28688  _checkOwner() */\n      jump\t// in\n    tag_162:\n        /* \"contracts/MetDropTestToken_flattened.sol\":29501:29531  _transferOwnership(address(0)) */\n      tag_164\n        /* \"contracts/MetDropTestToken_flattened.sol\":29528:29529  0 */\n      0x00\n        /* \"contracts/MetDropTestToken_flattened.sol\":29501:29519  _transferOwnership */\n      tag_165\n        /* \"contracts/MetDropTestToken_flattened.sol\":29501:29531  _transferOwnership(address(0)) */\n      jump\t// in\n    tag_164:\n        /* \"contracts/MetDropTestToken_flattened.sol\":29437:29538  function renounceOwnership() public virtual onlyOwner {... */\n      jump\t// out\n        /* \"contracts/MetDropTestToken_flattened.sol\":22983:23141  function burnFrom(address account, uint256 value) public virtual {... */\n    tag_80:\n        /* \"contracts/MetDropTestToken_flattened.sol\":23058:23103  _spendAllowance(account, _msgSender(), value) */\n      tag_167\n        /* \"contracts/MetDropTestToken_flattened.sol\":23074:23081  account */\n      dup3\n        /* \"contracts/MetDropTestToken_flattened.sol\":23083:23095  _msgSender() */\n      tag_168\n        /* \"contracts/MetDropTestToken_flattened.sol\":23083:23093  _msgSender */\n      tag_123\n        /* \"contracts/MetDropTestToken_flattened.sol\":23083:23095  _msgSender() */\n      jump\t// in\n    tag_168:\n        /* \"contracts/MetDropTestToken_flattened.sol\":23097:23102  value */\n      dup4\n        /* \"contracts/MetDropTestToken_flattened.sol\":23058:23073  _spendAllowance */\n      tag_138\n        /* \"contracts/MetDropTestToken_flattened.sol\":23058:23103  _spendAllowance(account, _msgSender(), value) */\n      jump\t// in\n    tag_167:\n        /* \"contracts/MetDropTestToken_flattened.sol\":23113:23134  _burn(account, value) */\n      tag_169\n        /* \"contracts/MetDropTestToken_flattened.sol\":23119:23126  account */\n      dup3\n        /* \"contracts/MetDropTestToken_flattened.sol\":23128:23133  value */\n      dup3\n        /* \"contracts/MetDropTestToken_flattened.sol\":23113:23118  _burn */\n      tag_158\n        /* \"contracts/MetDropTestToken_flattened.sol\":23113:23134  _burn(account, value) */\n      jump\t// in\n    tag_169:\n        /* \"contracts/MetDropTestToken_flattened.sol\":22983:23141  function burnFrom(address account, uint256 value) public virtual {... */\n      pop\n      pop\n      jump\t// out\n        /* \"contracts/MetDropTestToken_flattened.sol\":84277:84420  function nonces(address owner) public view virtual override(IERC20Permit, Nonces) returns (uint256) {... */\n    tag_83:\n        /* \"contracts/MetDropTestToken_flattened.sol\":84368:84375  uint256 */\n      0x00\n        /* \"contracts/MetDropTestToken_flattened.sol\":84394:84413  super.nonces(owner) */\n      tag_171\n        /* \"contracts/MetDropTestToken_flattened.sol\":84407:84412  owner */\n      dup3\n        /* \"contracts/MetDropTestToken_flattened.sol\":84394:84406  super.nonces */\n      tag_172\n        /* \"contracts/MetDropTestToken_flattened.sol\":84394:84413  super.nonces(owner) */\n      jump\t// in\n    tag_171:\n        /* \"contracts/MetDropTestToken_flattened.sol\":84387:84413  return super.nonces(owner) */\n      swap1\n      pop\n        /* \"contracts/MetDropTestToken_flattened.sol\":84277:84420  function nonces(address owner) public view virtual override(IERC20Permit, Nonces) returns (uint256) {... */\n      swap2\n      swap1\n      pop\n      jump\t// out\n        /* \"contracts/MetDropTestToken_flattened.sol\":85148:85207  function pause() public onlyOwner {... */\n    tag_86:\n        /* \"contracts/MetDropTestToken_flattened.sol\":28675:28688  _checkOwner() */\n      tag_174\n        /* \"contracts/MetDropTestToken_flattened.sol\":28675:28686  _checkOwner */\n      tag_147\n        /* \"contracts/MetDropTestToken_flattened.sol\":28675:28688  _checkOwner() */\n      jump\t// in\n    tag_174:\n        /* \"contracts/MetDropTestToken_flattened.sol\":85192:85200  _pause() */\n      tag_176\n        /* \"contracts/MetDropTestToken_flattened.sol\":85192:85198  _pause */\n      tag_177\n        /* \"contracts/MetDropTestToken_flattened.sol\":85192:85200  _pause() */\n      jump\t// in\n    tag_176:\n        /* \"contracts/MetDropTestToken_flattened.sol\":85148:85207  function pause() public onlyOwner {... */\n      jump\t// out\n        /* \"contracts/MetDropTestToken_flattened.sol\":79105:79662  function eip712Domain()... */\n    tag_88:\n        /* \"contracts/MetDropTestToken_flattened.sol\":79203:79216  bytes1 fields */\n      0x00\n        /* \"contracts/MetDropTestToken_flattened.sol\":79230:79248  string memory name */\n      0x60\n        /* \"contracts/MetDropTestToken_flattened.sol\":79262:79283  string memory version */\n      dup1\n        /* \"contracts/MetDropTestToken_flattened.sol\":79297:79312  uint256 chainId */\n      0x00\n        /* \"contracts/MetDropTestToken_flattened.sol\":79326:79351  address verifyingContract */\n      dup1\n        /* \"contracts/MetDropTestToken_flattened.sol\":79365:79377  bytes32 salt */\n      0x00\n        /* \"contracts/MetDropTestToken_flattened.sol\":79391:79418  uint256[] memory extensions */\n      0x60\n        /* \"contracts/MetDropTestToken_flattened.sol\":79494:79507  _EIP712Name() */\n      tag_179\n        /* \"contracts/MetDropTestToken_flattened.sol\":79494:79505  _EIP712Name */\n      tag_180\n        /* \"contracts/MetDropTestToken_flattened.sol\":79494:79507  _EIP712Name() */\n      jump\t// in\n    tag_179:\n        /* \"contracts/MetDropTestToken_flattened.sol\":79521:79537  _EIP712Version() */\n      tag_181\n        /* \"contracts/MetDropTestToken_flattened.sol\":79521:79535  _EIP712Version */\n      tag_182\n        /* \"contracts/MetDropTestToken_flattened.sol\":79521:79537  _EIP712Version() */\n      jump\t// in\n    tag_181:\n        /* \"contracts/MetDropTestToken_flattened.sol\":79551:79564  block.chainid */\n      chainid\n        /* \"contracts/MetDropTestToken_flattened.sol\":79586:79590  this */\n      address\n        /* \"contracts/MetDropTestToken_flattened.sol\":79613:79614  0 */\n      0x00\n        /* \"contracts/MetDropTestToken_flattened.sol\":79605:79615  bytes32(0) */\n      dup1\n      shl\n        /* \"contracts/MetDropTestToken_flattened.sol\":79643:79644  0 */\n      0x00\n        /* \"contracts/MetDropTestToken_flattened.sol\":79629:79645  new uint256[](0) */\n      0xffffffffffffffff\n      dup2\n      gt\n      iszero\n      tag_183\n      jumpi\n      tag_184\n      tag_185\n      jump\t// in\n    tag_184:\n    tag_183:\n      mload(0x40)\n      swap1\n      dup1\n      dup3\n      mstore\n      dup1\n      0x20\n      mul\n      0x20\n      add\n      dup3\n      add\n      0x40\n      mstore\n      dup1\n      iszero\n      tag_186\n      jumpi\n      dup2\n      0x20\n      add\n      0x20\n      dup3\n      mul\n      dup1\n      calldatasize\n      dup4\n      calldatacopy\n      dup1\n      dup3\n      add\n      swap2\n      pop\n      pop\n      swap1\n      pop\n    tag_186:\n      pop\n        /* \"contracts/MetDropTestToken_flattened.sol\":79443:79655  return (... */\n      0x0f00000000000000000000000000000000000000000000000000000000000000\n      swap6\n      swap5\n      swap4\n      swap3\n      swap2\n      swap1\n      swap7\n      pop\n      swap7\n      pop\n      swap7\n      pop\n      swap7\n      pop\n      swap7\n      pop\n      swap7\n      pop\n      swap7\n      pop\n        /* \"contracts/MetDropTestToken_flattened.sol\":79105:79662  function eip712Domain()... */\n      swap1\n      swap2\n      swap3\n      swap4\n      swap5\n      swap6\n      swap7\n      jump\t// out\n        /* \"contracts/MetDropTestToken_flattened.sol\":28782:28867  function owner() public view virtual returns (address) {... */\n    tag_92:\n        /* \"contracts/MetDropTestToken_flattened.sol\":28828:28835  address */\n      0x00\n        /* \"contracts/MetDropTestToken_flattened.sol\":28854:28860  _owner */\n      0x05\n      0x01\n      swap1\n      sload\n      swap1\n      0x0100\n      exp\n      swap1\n      div\n      0xffffffffffffffffffffffffffffffffffffffff\n      and\n        /* \"contracts/MetDropTestToken_flattened.sol\":28847:28860  return _owner */\n      swap1\n      pop\n        /* \"contracts/MetDropTestToken_flattened.sol\":28782:28867  function owner() public view virtual returns (address) {... */\n      swap1\n      jump\t// out\n        /* \"contracts/MetDropTestToken_flattened.sol\":13137:13230  function symbol() public view virtual returns (string memory) {... */\n    tag_96:\n        /* \"contracts/MetDropTestToken_flattened.sol\":13184:13197  string memory */\n      0x60\n        /* \"contracts/MetDropTestToken_flattened.sol\":13216:13223  _symbol */\n      0x04\n        /* \"contracts/MetDropTestToken_flattened.sol\":13209:13223  return _symbol */\n      dup1\n      sload\n      tag_189\n      swap1\n      tag_116\n      jump\t// in\n    tag_189:\n      dup1\n      0x1f\n      add\n      0x20\n      dup1\n      swap2\n      div\n      mul\n      0x20\n      add\n      mload(0x40)\n      swap1\n      dup2\n      add\n      0x40\n      mstore\n      dup1\n      swap3\n      swap2\n      swap1\n      dup2\n      dup2\n      mstore\n      0x20\n      add\n      dup3\n      dup1\n      sload\n      tag_190\n      swap1\n      tag_116\n      jump\t// in\n    tag_190:\n      dup1\n      iszero\n      tag_191\n      jumpi\n      dup1\n      0x1f\n      lt\n      tag_192\n      jumpi\n      0x0100\n      dup1\n      dup4\n      sload\n      div\n      mul\n      dup4\n      mstore\n      swap2\n      0x20\n      add\n      swap2\n      jump(tag_191)\n    tag_192:\n      dup3\n      add\n      swap2\n      swap1\n      0x00\n      mstore\n      keccak256(0x00, 0x20)\n      swap1\n    tag_193:\n      dup2\n      sload\n      dup2\n      mstore\n      swap1\n      0x01\n      add\n      swap1\n      0x20\n      add\n      dup1\n      dup4\n      gt\n      tag_193\n      jumpi\n      dup3\n      swap1\n      sub\n      0x1f\n      and\n      dup3\n      add\n      swap2\n    tag_191:\n      pop\n      pop\n      pop\n      pop\n      pop\n      swap1\n      pop\n        /* \"contracts/MetDropTestToken_flattened.sol\":13137:13230  function symbol() public view virtual returns (string memory) {... */\n      swap1\n      jump\t// out\n        /* \"contracts/MetDropTestToken_flattened.sol\":14471:14649  function transfer(address to, uint256 value) public virtual returns (bool) {... */\n    tag_100:\n        /* \"contracts/MetDropTestToken_flattened.sol\":14540:14544  bool */\n      0x00\n        /* \"contracts/MetDropTestToken_flattened.sol\":14556:14569  address owner */\n      dup1\n        /* \"contracts/MetDropTestToken_flattened.sol\":14572:14584  _msgSender() */\n      tag_195\n        /* \"contracts/MetDropTestToken_flattened.sol\":14572:14582  _msgSender */\n      tag_123\n        /* \"contracts/MetDropTestToken_flattened.sol\":14572:14584  _msgSender() */\n      jump\t// in\n    tag_195:\n        /* \"contracts/MetDropTestToken_flattened.sol\":14556:14584  address owner = _msgSender() */\n      swap1\n      pop\n        /* \"contracts/MetDropTestToken_flattened.sol\":14594:14621  _transfer(owner, to, value) */\n      tag_196\n        /* \"contracts/MetDropTestToken_flattened.sol\":14604:14609  owner */\n      dup2\n        /* \"contracts/MetDropTestToken_flattened.sol\":14611:14613  to */\n      dup6\n        /* \"contracts/MetDropTestToken_flattened.sol\":14615:14620  value */\n      dup6\n        /* \"contracts/MetDropTestToken_flattened.sol\":14594:14603  _transfer */\n      tag_140\n        /* \"contracts/MetDropTestToken_flattened.sol\":14594:14621  _transfer(owner, to, value) */\n      jump\t// in\n    tag_196:\n        /* \"contracts/MetDropTestToken_flattened.sol\":14638:14642  true */\n      0x01\n        /* \"contracts/MetDropTestToken_flattened.sol\":14631:14642  return true */\n      swap2\n      pop\n      pop\n        /* \"contracts/MetDropTestToken_flattened.sol\":14471:14649  function transfer(address to, uint256 value) public virtual returns (bool) {... */\n      swap3\n      swap2\n      pop\n      pop\n      jump\t// out\n        /* \"contracts/MetDropTestToken_flattened.sol\":83551:84223  function permit(... */\n    tag_105:\n        /* \"contracts/MetDropTestToken_flattened.sol\":83772:83780  deadline */\n      dup4\n        /* \"contracts/MetDropTestToken_flattened.sol\":83754:83769  block.timestamp */\n      timestamp\n        /* \"contracts/MetDropTestToken_flattened.sol\":83754:83780  block.timestamp > deadline */\n      gt\n        /* \"contracts/MetDropTestToken_flattened.sol\":83750:83847  if (block.timestamp > deadline) {... */\n      iszero\n      tag_198\n      jumpi\n        /* \"contracts/MetDropTestToken_flattened.sol\":83827:83835  deadline */\n      dup4\n        /* \"contracts/MetDropTestToken_flattened.sol\":83803:83836  ERC2612ExpiredSignature(deadline) */\n      mload(0x40)\n      0x6279130200000000000000000000000000000000000000000000000000000000\n      dup2\n      mstore\n      0x04\n      add\n      tag_199\n      swap2\n      swap1\n      tag_42\n      jump\t// in\n    tag_199:\n      mload(0x40)\n      dup1\n      swap2\n      sub\n      swap1\n      revert\n        /* \"contracts/MetDropTestToken_flattened.sol\":83750:83847  if (block.timestamp > deadline) {... */\n    tag_198:\n        /* \"contracts/MetDropTestToken_flattened.sol\":83857:83875  bytes32 structHash */\n      0x00\n        /* \"contracts/MetDropTestToken_flattened.sol\":82893:82988  keccak256(\"Permit(address owner,address spender,uint256 value,uint256 nonce,uint256 deadline)\") */\n      0x6e71edae12b1b97f4d1f60370fef10105fa2faae0126114a169c64845d6126c9\n        /* \"contracts/MetDropTestToken_flattened.sol\":83916:83921  owner */\n      dup9\n        /* \"contracts/MetDropTestToken_flattened.sol\":83923:83930  spender */\n      dup9\n        /* \"contracts/MetDropTestToken_flattened.sol\":83932:83937  value */\n      dup9\n        /* \"contracts/MetDropTestToken_flattened.sol\":83939:83955  _useNonce(owner) */\n      tag_200\n        /* \"contracts/MetDropTestToken_flattened.sol\":83949:83954  owner */\n      dup13\n        /* \"contracts/MetDropTestToken_flattened.sol\":83939:83948  _useNonce */\n      tag_201\n        /* \"contracts/MetDropTestToken_flattened.sol\":83939:83955  _useNonce(owner) */\n      jump\t// in\n    tag_200:\n        /* \"contracts/MetDropTestToken_flattened.sol\":83957:83965  deadline */\n      dup10\n        /* \"contracts/MetDropTestToken_flattened.sol\":83888:83966  abi.encode(PERMIT_TYPEHASH, owner, spender, value, _useNonce(owner), deadline) */\n      add(0x20, mload(0x40))\n      tag_202\n      swap7\n      swap6\n      swap5\n      swap4\n      swap3\n      swap2\n      swap1\n      tag_203\n      jump\t// in\n    tag_202:\n      mload(0x40)\n      0x20\n      dup2\n      dup4\n      sub\n      sub\n      dup2\n      mstore\n      swap1\n      0x40\n      mstore\n        /* \"contracts/MetDropTestToken_flattened.sol\":83878:83967  keccak256(abi.encode(PERMIT_TYPEHASH, owner, spender, value, _useNonce(owner), deadline)) */\n      dup1\n      mload\n      swap1\n      0x20\n      add\n      keccak256\n        /* \"contracts/MetDropTestToken_flattened.sol\":83857:83967  bytes32 structHash = keccak256(abi.encode(PERMIT_TYPEHASH, owner, spender, value, _useNonce(owner), deadline)) */\n      swap1\n      pop\n        /* \"contracts/MetDropTestToken_flattened.sol\":83978:83990  bytes32 hash */\n      0x00\n        /* \"contracts/MetDropTestToken_flattened.sol\":83993:84021  _hashTypedDataV4(structHash) */\n      tag_204\n        /* \"contracts/MetDropTestToken_flattened.sol\":84010:84020  structHash */\n      dup3\n        /* \"contracts/MetDropTestToken_flattened.sol\":83993:84009  _hashTypedDataV4 */\n      tag_205\n        /* \"contracts/MetDropTestToken_flattened.sol\":83993:84021  _hashTypedDataV4(structHash) */\n      jump\t// in\n    tag_204:\n        /* \"contracts/MetDropTestToken_flattened.sol\":83978:84021  bytes32 hash = _hashTypedDataV4(structHash) */\n      swap1\n      pop\n        /* \"contracts/MetDropTestToken_flattened.sol\":84032:84046  address signer */\n      0x00\n        /* \"contracts/MetDropTestToken_flattened.sol\":84049:84077  ECDSA.recover(hash, v, r, s) */\n      tag_206\n        /* \"contracts/MetDropTestToken_flattened.sol\":84063:84067  hash */\n      dup3\n        /* \"contracts/MetDropTestToken_flattened.sol\":84069:84070  v */\n      dup8\n        /* \"contracts/MetDropTestToken_flattened.sol\":84072:84073  r */\n      dup8\n        /* \"contracts/MetDropTestToken_flattened.sol\":84075:84076  s */\n      dup8\n        /* \"contracts/MetDropTestToken_flattened.sol\":84049:84062  ECDSA.recover */\n      tag_207\n        /* \"contracts/MetDropTestToken_flattened.sol\":84049:84077  ECDSA.recover(hash, v, r, s) */\n      jump\t// in\n    tag_206:\n        /* \"contracts/MetDropTestToken_flattened.sol\":84032:84077  address signer = ECDSA.recover(hash, v, r, s) */\n      swap1\n      pop\n        /* \"contracts/MetDropTestToken_flattened.sol\":84101:84106  owner */\n      dup10\n        /* \"contracts/MetDropTestToken_flattened.sol\":84091:84106  signer != owner */\n      0xffffffffffffffffffffffffffffffffffffffff\n      and\n        /* \"contracts/MetDropTestToken_flattened.sol\":84091:84097  signer */\n      dup2\n        /* \"contracts/MetDropTestToken_flattened.sol\":84091:84106  signer != owner */\n      0xffffffffffffffffffffffffffffffffffffffff\n      and\n      eq\n        /* \"contracts/MetDropTestToken_flattened.sol\":84087:84175  if (signer != owner) {... */\n      tag_208\n      jumpi\n        /* \"contracts/MetDropTestToken_flattened.sol\":84150:84156  signer */\n      dup1\n        /* \"contracts/MetDropTestToken_flattened.sol\":84158:84163  owner */\n      dup11\n        /* \"contracts/MetDropTestToken_flattened.sol\":84129:84164  ERC2612InvalidSigner(signer, owner) */\n      mload(0x40)\n      0x4b800e4600000000000000000000000000000000000000000000000000000000\n      dup2\n      mstore\n      0x04\n      add\n      tag_209\n      swap3\n      swap2\n      swap1\n      tag_210\n      jump\t// in\n    tag_209:\n      mload(0x40)\n      dup1\n      swap2\n      sub\n      swap1\n      revert\n        /* \"contracts/MetDropTestToken_flattened.sol\":84087:84175  if (signer != owner) {... */\n    tag_208:\n        /* \"contracts/MetDropTestToken_flattened.sol\":84185:84216  _approve(owner, spender, value) */\n      tag_211\n        /* \"contracts/MetDropTestToken_flattened.sol\":84194:84199  owner */\n      dup11\n        /* \"contracts/MetDropTestToken_flattened.sol\":84201:84208  spender */\n      dup11\n        /* \"contracts/MetDropTestToken_flattened.sol\":84210:84215  value */\n      dup11\n        /* \"contracts/MetDropTestToken_flattened.sol\":84185:84193  _approve */\n      tag_125\n        /* \"contracts/MetDropTestToken_flattened.sol\":84185:84216  _approve(owner, spender, value) */\n      jump\t// in\n    tag_211:\n        /* \"contracts/MetDropTestToken_flattened.sol\":83740:84223  {... */\n      pop\n      pop\n      pop\n        /* \"contracts/MetDropTestToken_flattened.sol\":83551:84223  function permit(... */\n      pop\n      pop\n      pop\n      pop\n      pop\n      pop\n      pop\n      jump\t// out\n        /* \"contracts/MetDropTestToken_flattened.sol\":14707:14847  function allowance(address owner, address spender) public view virtual returns (uint256) {... */\n    tag_109:\n        /* \"contracts/MetDropTestToken_flattened.sol\":14787:14794  uint256 */\n      0x00\n        /* \"contracts/MetDropTestToken_flattened.sol\":14813:14824  _allowances */\n      0x01\n        /* \"contracts/MetDropTestToken_flattened.sol\":14813:14831  _allowances[owner] */\n      0x00\n        /* \"contracts/MetDropTestToken_flattened.sol\":14825:14830  owner */\n      dup5\n        /* \"contracts/MetDropTestToken_flattened.sol\":14813:14831  _allowances[owner] */\n      0xffffffffffffffffffffffffffffffffffffffff\n      and\n      0xffffffffffffffffffffffffffffffffffffffff\n      and\n      dup2\n      mstore\n      0x20\n      add\n      swap1\n      dup2\n      mstore\n      0x20\n      add\n      0x00\n      keccak256\n        /* \"contracts/MetDropTestToken_flattened.sol\":14813:14840  _allowances[owner][spender] */\n      0x00\n        /* \"contracts/MetDropTestToken_flattened.sol\":14832:14839  spender */\n      dup4\n        /* \"contracts/MetDropTestToken_flattened.sol\":14813:14840  _allowances[owner][spender] */\n      0xffffffffffffffffffffffffffffffffffffffff\n      and\n      0xffffffffffffffffffffffffffffffffffffffff\n      and\n      dup2\n      mstore\n      0x20\n      add\n      swap1\n      dup2\n      mstore\n      0x20\n      add\n      0x00\n      keccak256\n      sload\n        /* \"contracts/MetDropTestToken_flattened.sol\":14806:14840  return _allowances[owner][spender] */\n      swap1\n      pop\n        /* \"contracts/MetDropTestToken_flattened.sol\":14707:14847  function allowance(address owner, address spender) public view virtual returns (uint256) {... */\n      swap3\n      swap2\n      pop\n      pop\n      jump\t// out\n        /* \"contracts/MetDropTestToken_flattened.sol\":29687:29902  function transferOwnership(address newOwner) public virtual onlyOwner {... */\n    tag_113:\n        /* \"contracts/MetDropTestToken_flattened.sol\":28675:28688  _checkOwner() */\n      tag_214\n        /* \"contracts/MetDropTestToken_flattened.sol\":28675:28686  _checkOwner */\n      tag_147\n        /* \"contracts/MetDropTestToken_flattened.sol\":28675:28688  _checkOwner() */\n      jump\t// in\n    tag_214:\n        /* \"contracts/MetDropTestToken_flattened.sol\":29791:29792  0 */\n      0x00\n        /* \"contracts/MetDropTestToken_flattened.sol\":29771:29793  newOwner == address(0) */\n      0xffffffffffffffffffffffffffffffffffffffff\n      and\n        /* \"contracts/MetDropTestToken_flattened.sol\":29771:29779  newOwner */\n      dup2\n        /* \"contracts/MetDropTestToken_flattened.sol\":29771:29793  newOwner == address(0) */\n      0xffffffffffffffffffffffffffffffffffffffff\n      and\n      sub\n        /* \"contracts/MetDropTestToken_flattened.sol\":29767:29858  if (newOwner == address(0)) {... */\n      tag_216\n      jumpi\n        /* \"contracts/MetDropTestToken_flattened.sol\":29844:29845  0 */\n      0x00\n        /* \"contracts/MetDropTestToken_flattened.sol\":29816:29847  OwnableInvalidOwner(address(0)) */\n      mload(0x40)\n      0x1e4fbdf700000000000000000000000000000000000000000000000000000000\n      dup2\n      mstore\n      0x04\n      add\n      tag_217\n      swap2\n      swap1\n      tag_94\n      jump\t// in\n    tag_217:\n      mload(0x40)\n      dup1\n      swap2\n      sub\n      swap1\n      revert\n        /* \"contracts/MetDropTestToken_flattened.sol\":29767:29858  if (newOwner == address(0)) {... */\n    tag_216:\n        /* \"contracts/MetDropTestToken_flattened.sol\":29867:29895  _transferOwnership(newOwner) */\n      tag_218\n        /* \"contracts/MetDropTestToken_flattened.sol\":29886:29894  newOwner */\n      dup2\n        /* \"contracts/MetDropTestToken_flattened.sol\":29867:29885  _transferOwnership */\n      tag_165\n        /* \"contracts/MetDropTestToken_flattened.sol\":29867:29895  _transferOwnership(newOwner) */\n      jump\t// in\n    tag_218:\n        /* \"contracts/MetDropTestToken_flattened.sol\":29687:29902  function transferOwnership(address newOwner) public virtual onlyOwner {... */\n      pop\n      jump\t// out\n        /* \"contracts/MetDropTestToken_flattened.sol\":4175:4271  function _msgSender() internal view virtual returns (address) {... */\n    tag_123:\n        /* \"contracts/MetDropTestToken_flattened.sol\":4228:4235  address */\n      0x00\n        /* \"contracts/MetDropTestToken_flattened.sol\":4254:4264  msg.sender */\n      caller\n        /* \"contracts/MetDropTestToken_flattened.sol\":4247:4264  return msg.sender */\n      swap1\n      pop\n        /* \"contracts/MetDropTestToken_flattened.sol\":4175:4271  function _msgSender() internal view virtual returns (address) {... */\n      swap1\n      jump\t// out\n        /* \"contracts/MetDropTestToken_flattened.sol\":19850:19978  function _approve(address owner, address spender, uint256 value) internal {... */\n    tag_125:\n        /* \"contracts/MetDropTestToken_flattened.sol\":19934:19971  _approve(owner, spender, value, true) */\n      tag_221\n        /* \"contracts/MetDropTestToken_flattened.sol\":19943:19948  owner */\n      dup4\n        /* \"contracts/MetDropTestToken_flattened.sol\":19950:19957  spender */\n      dup4\n        /* \"contracts/MetDropTestToken_flattened.sol\":19959:19964  value */\n      dup4\n        /* \"contracts/MetDropTestToken_flattened.sol\":19966:19970  true */\n      0x01\n        /* \"contracts/MetDropTestToken_flattened.sol\":19934:19942  _approve */\n      tag_222\n        /* \"contracts/MetDropTestToken_flattened.sol\":19934:19971  _approve(owner, spender, value, true) */\n      jump\t// in\n    tag_221:\n        /* \"contracts/MetDropTestToken_flattened.sol\":19850:19978  function _approve(address owner, address spender, uint256 value) internal {... */\n      pop\n      pop\n      pop\n      jump\t// out\n        /* \"contracts/MetDropTestToken_flattened.sol\":18582:18790  function _mint(address account, uint256 value) internal {... */\n    tag_133:\n        /* \"contracts/MetDropTestToken_flattened.sol\":18671:18672  0 */\n      0x00\n        /* \"contracts/MetDropTestToken_flattened.sol\":18652:18673  account == address(0) */\n      0xffffffffffffffffffffffffffffffffffffffff\n      and\n        /* \"contracts/MetDropTestToken_flattened.sol\":18652:18659  account */\n      dup3\n        /* \"contracts/MetDropTestToken_flattened.sol\":18652:18673  account == address(0) */\n      0xffffffffffffffffffffffffffffffffffffffff\n      and\n      sub\n        /* \"contracts/MetDropTestToken_flattened.sol\":18648:18739  if (account == address(0)) {... */\n      tag_224\n      jumpi\n        /* \"contracts/MetDropTestToken_flattened.sol\":18725:18726  0 */\n      0x00\n        /* \"contracts/MetDropTestToken_flattened.sol\":18696:18728  ERC20InvalidReceiver(address(0)) */\n      mload(0x40)\n      0xec442f0500000000000000000000000000000000000000000000000000000000\n      dup2\n      mstore\n      0x04\n      add\n      tag_225\n      swap2\n      swap1\n      tag_94\n      jump\t// in\n    tag_225:\n      mload(0x40)\n      dup1\n      swap2\n      sub\n      swap1\n      revert\n        /* \"contracts/MetDropTestToken_flattened.sol\":18648:18739  if (account == address(0)) {... */\n    tag_224:\n        /* \"contracts/MetDropTestToken_flattened.sol\":18748:18783  _update(address(0), account, value) */\n      tag_226\n        /* \"contracts/MetDropTestToken_flattened.sol\":18764:18765  0 */\n      0x00\n        /* \"contracts/MetDropTestToken_flattened.sol\":18768:18775  account */\n      dup4\n        /* \"contracts/MetDropTestToken_flattened.sol\":18777:18782  value */\n      dup4\n        /* \"contracts/MetDropTestToken_flattened.sol\":18748:18755  _update */\n      tag_227\n        /* \"contracts/MetDropTestToken_flattened.sol\":18748:18783  _update(address(0), account, value) */\n      jump\t// in\n    tag_226:\n        /* \"contracts/MetDropTestToken_flattened.sol\":18582:18790  function _mint(address account, uint256 value) internal {... */\n      pop\n      pop\n      jump\t// out\n        /* \"contracts/MetDropTestToken_flattened.sol\":21524:22001  function _spendAllowance(address owner, address spender, uint256 value) internal virtual {... */\n    tag_138:\n        /* \"contracts/MetDropTestToken_flattened.sol\":21623:21647  uint256 currentAllowance */\n      0x00\n        /* \"contracts/MetDropTestToken_flattened.sol\":21650:21675  allowance(owner, spender) */\n      tag_229\n        /* \"contracts/MetDropTestToken_flattened.sol\":21660:21665  owner */\n      dup5\n        /* \"contracts/MetDropTestToken_flattened.sol\":21667:21674  spender */\n      dup5\n        /* \"contracts/MetDropTestToken_flattened.sol\":21650:21659  allowance */\n      tag_109\n        /* \"contracts/MetDropTestToken_flattened.sol\":21650:21675  allowance(owner, spender) */\n      jump\t// in\n    tag_229:\n        /* \"contracts/MetDropTestToken_flattened.sol\":21623:21675  uint256 currentAllowance = allowance(owner, spender) */\n      swap1\n      pop\n        /* \"contracts/MetDropTestToken_flattened.sol\":21709:21726  type(uint256).max */\n      0xffffffffffffffffffffffffffffffffffffffffffffffffffffffffffffffff\n        /* \"contracts/MetDropTestToken_flattened.sol\":21689:21705  currentAllowance */\n      dup2\n        /* \"contracts/MetDropTestToken_flattened.sol\":21689:21726  currentAllowance != type(uint256).max */\n      eq\n        /* \"contracts/MetDropTestToken_flattened.sol\":21685:21995  if (currentAllowance != type(uint256).max) {... */\n      tag_230\n      jumpi\n        /* \"contracts/MetDropTestToken_flattened.sol\":21765:21770  value */\n      dup2\n        /* \"contracts/MetDropTestToken_flattened.sol\":21746:21762  currentAllowance */\n      dup2\n        /* \"contracts/MetDropTestToken_flattened.sol\":21746:21770  currentAllowance < value */\n      lt\n        /* \"contracts/MetDropTestToken_flattened.sol\":21742:21872  if (currentAllowance < value) {... */\n      iszero\n      tag_231\n      jumpi\n        /* \"contracts/MetDropTestToken_flattened.sol\":21824:21831  spender */\n      dup3\n        /* \"contracts/MetDropTestToken_flattened.sol\":21833:21849  currentAllowance */\n      dup2\n        /* \"contracts/MetDropTestToken_flattened.sol\":21851:21856  value */\n      dup4\n        /* \"contracts/MetDropTestToken_flattened.sol\":21797:21857  ERC20InsufficientAllowance(spender, currentAllowance, value) */\n      mload(0x40)\n      0xfb8f41b200000000000000000000000000000000000000000000000000000000\n      dup2\n      mstore\n      0x04\n      add\n      tag_232\n      swap4\n      swap3\n      swap2\n      swap1\n      tag_233\n      jump\t// in\n    tag_232:\n      mload(0x40)\n      dup1\n      swap2\n      sub\n      swap1\n      revert\n        /* \"contracts/MetDropTestToken_flattened.sol\":21742:21872  if (currentAllowance < value) {... */\n    tag_231:\n        /* \"contracts/MetDropTestToken_flattened.sol\":21913:21970  _approve(owner, spender, currentAllowance - value, false) */\n      tag_234\n        /* \"contracts/MetDropTestToken_flattened.sol\":21922:21927  owner */\n      dup5\n        /* \"contracts/MetDropTestToken_flattened.sol\":21929:21936  spender */\n      dup5\n        /* \"contracts/MetDropTestToken_flattened.sol\":21957:21962  value */\n      dup5\n        /* \"contracts/MetDropTestToken_flattened.sol\":21938:21954  currentAllowance */\n      dup5\n        /* \"contracts/MetDropTestToken_flattened.sol\":21938:21962  currentAllowance - value */\n      sub\n        /* \"contracts/MetDropTestToken_flattened.sol\":21964:21969  false */\n      0x00\n        /* \"contracts/MetDropTestToken_flattened.sol\":21913:21921  _approve */\n      tag_222\n        /* \"contracts/MetDropTestToken_flattened.sol\":21913:21970  _approve(owner, spender, currentAllowance - value, false) */\n      jump\t// in\n    tag_234:\n        /* \"contracts/MetDropTestToken_flattened.sol\":21685:21995  if (currentAllowance != type(uint256).max) {... */\n    tag_230:\n        /* \"contracts/MetDropTestToken_flattened.sol\":21613:22001  {... */\n      pop\n        /* \"contracts/MetDropTestToken_flattened.sol\":21524:22001  function _spendAllowance(address owner, address spender, uint256 value) internal virtual {... */\n      pop\n      pop\n      pop\n      jump\t// out\n        /* \"contracts/MetDropTestToken_flattened.sol\":16517:16817  function _transfer(address from, address to, uint256 value) internal {... */\n    tag_140:\n        /* \"contracts/MetDropTestToken_flattened.sol\":16616:16617  0 */\n      0x00\n        /* \"contracts/MetDropTestToken_flattened.sol\":16600:16618  from == address(0) */\n      0xffffffffffffffffffffffffffffffffffffffff\n      and\n        /* \"contracts/MetDropTestToken_flattened.sol\":16600:16604  from */\n      dup4\n        /* \"contracts/MetDropTestToken_flattened.sol\":16600:16618  from == address(0) */\n      0xffffffffffffffffffffffffffffffffffffffff\n      and\n      sub\n        /* \"contracts/MetDropTestToken_flattened.sol\":16596:16682  if (from == address(0)) {... */\n      tag_236\n      jumpi\n        /* \"contracts/MetDropTestToken_flattened.sol\":16668:16669  0 */\n      0x00\n        /* \"contracts/MetDropTestToken_flattened.sol\":16641:16671  ERC20InvalidSender(address(0)) */\n      mload(0x40)\n      0x96c6fd1e00000000000000000000000000000000000000000000000000000000\n      dup2\n      mstore\n      0x04\n      add\n      tag_237\n      swap2\n      swap1\n      tag_94\n      jump\t// in\n    tag_237:\n      mload(0x40)\n      dup1\n      swap2\n      sub\n      swap1\n      revert\n        /* \"contracts/MetDropTestToken_flattened.sol\":16596:16682  if (from == address(0)) {... */\n    tag_236:\n        /* \"contracts/MetDropTestToken_flattened.sol\":16709:16710  0 */\n      0x00\n        /* \"contracts/MetDropTestToken_flattened.sol\":16695:16711  to == address(0) */\n      0xffffffffffffffffffffffffffffffffffffffff\n      and\n        /* \"contracts/MetDropTestToken_flattened.sol\":16695:16697  to */\n      dup3\n        /* \"contracts/MetDropTestToken_flattened.sol\":16695:16711  to == address(0) */\n      0xffffffffffffffffffffffffffffffffffffffff\n      and\n      sub\n        /* \"contracts/MetDropTestToken_flattened.sol\":16691:16777  if (to == address(0)) {... */\n      tag_238\n      jumpi\n        /* \"contracts/MetDropTestToken_flattened.sol\":16763:16764  0 */\n      0x00\n        /* \"contracts/MetDropTestToken_flattened.sol\":16734:16766  ERC20InvalidReceiver(address(0)) */\n      mload(0x40)\n      0xec442f0500000000000000000000000000000000000000000000000000000000\n      dup2\n      mstore\n      0x04\n      add\n      tag_239\n      swap2\n      swap1\n      tag_94\n      jump\t// in\n    tag_239:\n      mload(0x40)\n      dup1\n      swap2\n      sub\n      swap1\n      revert\n        /* \"contracts/MetDropTestToken_flattened.sol\":16691:16777  if (to == address(0)) {... */\n    tag_238:\n        /* \"contracts/MetDropTestToken_flattened.sol\":16786:16810  _update(from, to, value) */\n      tag_240\n        /* \"contracts/MetDropTestToken_flattened.sol\":16794:16798  from */\n      dup4\n        /* \"contracts/MetDropTestToken_flattened.sol\":16800:16802  to */\n      dup4\n        /* \"contracts/MetDropTestToken_flattened.sol\":16804:16809  value */\n      dup4\n        /* \"contracts/MetDropTestToken_flattened.sol\":16786:16793  _update */\n      tag_227\n        /* \"contracts/MetDropTestToken_flattened.sol\":16786:16810  _update(from, to, value) */\n      jump\t// in\n    tag_240:\n        /* \"contracts/MetDropTestToken_flattened.sol\":16517:16817  function _transfer(address from, address to, uint256 value) internal {... */\n      pop\n      pop\n      pop\n      jump\t// out\n        /* \"contracts/MetDropTestToken_flattened.sol\":77806:78068  function _domainSeparatorV4() internal view returns (bytes32) {... */\n    tag_144:\n        /* \"contracts/MetDropTestToken_flattened.sol\":77859:77866  bytes32 */\n      0x00\n        /* \"contracts/MetDropTestToken_flattened.sol\":77899:77910  _cachedThis */\n      immutable(\"0xce191cb8321ca757450c20e87b57fa44746b6a87612dab9cf25801eef5ed67f8\")\n        /* \"contracts/MetDropTestToken_flattened.sol\":77882:77910  address(this) == _cachedThis */\n      0xffffffffffffffffffffffffffffffffffffffff\n      and\n        /* \"contracts/MetDropTestToken_flattened.sol\":77890:77894  this */\n      address\n        /* \"contracts/MetDropTestToken_flattened.sol\":77882:77910  address(this) == _cachedThis */\n      0xffffffffffffffffffffffffffffffffffffffff\n      and\n      eq\n        /* \"contracts/MetDropTestToken_flattened.sol\":77882:77945  address(this) == _cachedThis && block.chainid == _cachedChainId */\n      dup1\n      iszero\n      tag_242\n      jumpi\n      pop\n        /* \"contracts/MetDropTestToken_flattened.sol\":77931:77945  _cachedChainId */\n      immutable(\"0x1a100bb1148e9e506f9ba8ec1947d4f84b922b6e9d33f30c8d12f2e351bcf10c\")\n        /* \"contracts/MetDropTestToken_flattened.sol\":77914:77927  block.chainid */\n      chainid\n        /* \"contracts/MetDropTestToken_flattened.sol\":77914:77945  block.chainid == _cachedChainId */\n      eq\n        /* \"contracts/MetDropTestToken_flattened.sol\":77882:77945  address(this) == _cachedThis && block.chainid == _cachedChainId */\n    tag_242:\n        /* \"contracts/MetDropTestToken_flattened.sol\":77878:78062  if (address(this) == _cachedThis && block.chainid == _cachedChainId) {... */\n      iszero\n      tag_243\n      jumpi\n        /* \"contracts/MetDropTestToken_flattened.sol\":77968:77990  _cachedDomainSeparator */\n      immutable(\"0x29952515f5d57954abac5ab7b1327bd7bcbb5425c05d93673edc46b02d7cb56d\")\n        /* \"contracts/MetDropTestToken_flattened.sol\":77961:77990  return _cachedDomainSeparator */\n      swap1\n      pop\n      jump(tag_241)\n        /* \"contracts/MetDropTestToken_flattened.sol\":77878:78062  if (address(this) == _cachedThis && block.chainid == _cachedChainId) {... */\n    tag_243:\n        /* \"contracts/MetDropTestToken_flattened.sol\":78028:78051  _buildDomainSeparator() */\n      tag_245\n        /* \"contracts/MetDropTestToken_flattened.sol\":78028:78049  _buildDomainSeparator */\n      tag_246\n        /* \"contracts/MetDropTestToken_flattened.sol\":78028:78051  _buildDomainSeparator() */\n      jump\t// in\n    tag_245:\n        /* \"contracts/MetDropTestToken_flattened.sol\":78021:78051  return _buildDomainSeparator() */\n      swap1\n      pop\n        /* \"contracts/MetDropTestToken_flattened.sol\":77806:78068  function _domainSeparatorV4() internal view returns (bytes32) {... */\n    tag_241:\n      swap1\n      jump\t// out\n        /* \"contracts/MetDropTestToken_flattened.sol\":28940:29102  function _checkOwner() internal view virtual {... */\n    tag_147:\n        /* \"contracts/MetDropTestToken_flattened.sol\":29010:29022  _msgSender() */\n      tag_248\n        /* \"contracts/MetDropTestToken_flattened.sol\":29010:29020  _msgSender */\n      tag_123\n        /* \"contracts/MetDropTestToken_flattened.sol\":29010:29022  _msgSender() */\n      jump\t// in\n    tag_248:\n        /* \"contracts/MetDropTestToken_flattened.sol\":28999:29022  owner() != _msgSender() */\n      0xffffffffffffffffffffffffffffffffffffffff\n      and\n        /* \"contracts/MetDropTestToken_flattened.sol\":28999:29006  owner() */\n      tag_249\n        /* \"contracts/MetDropTestToken_flattened.sol\":28999:29004  owner */\n      tag_92\n        /* \"contracts/MetDropTestToken_flattened.sol\":28999:29006  owner() */\n      jump\t// in\n    tag_249:\n        /* \"contracts/MetDropTestToken_flattened.sol\":28999:29022  owner() != _msgSender() */\n      0xffffffffffffffffffffffffffffffffffffffff\n      and\n      eq\n        /* \"contracts/MetDropTestToken_flattened.sol\":28995:29096  if (owner() != _msgSender()) {... */\n      tag_250\n      jumpi\n        /* \"contracts/MetDropTestToken_flattened.sol\":29072:29084  _msgSender() */\n      tag_251\n        /* \"contracts/MetDropTestToken_flattened.sol\":29072:29082  _msgSender */\n      tag_123\n        /* \"contracts/MetDropTestToken_flattened.sol\":29072:29084  _msgSender() */\n      jump\t// in\n    tag_251:\n        /* \"contracts/MetDropTestToken_flattened.sol\":29045:29085  OwnableUnauthorizedAccount(_msgSender()) */\n      mload(0x40)\n      0x118cdaa700000000000000000000000000000000000000000000000000000000\n      dup2\n      mstore\n      0x04\n      add\n      tag_252\n      swap2\n      swap1\n      tag_94\n      jump\t// in\n    tag_252:\n      mload(0x40)\n      dup1\n      swap2\n      sub\n      swap1\n      revert\n        /* \"contracts/MetDropTestToken_flattened.sol\":28995:29096  if (owner() != _msgSender()) {... */\n    tag_250:\n        /* \"contracts/MetDropTestToken_flattened.sol\":28940:29102  function _checkOwner() internal view virtual {... */\n      jump\t// out\n        /* \"contracts/MetDropTestToken_flattened.sol\":25831:25948  function _unpause() internal virtual whenPaused {... */\n    tag_150:\n        /* \"contracts/MetDropTestToken_flattened.sol\":24842:24858  _requirePaused() */\n      tag_254\n        /* \"contracts/MetDropTestToken_flattened.sol\":24842:24856  _requirePaused */\n      tag_255\n        /* \"contracts/MetDropTestToken_flattened.sol\":24842:24858  _requirePaused() */\n      jump\t// in\n    tag_254:\n        /* \"contracts/MetDropTestToken_flattened.sol\":25899:25904  false */\n      0x00\n        /* \"contracts/MetDropTestToken_flattened.sol\":25889:25896  _paused */\n      0x05\n      0x00\n        /* \"contracts/MetDropTestToken_flattened.sol\":25889:25904  _paused = false */\n      0x0100\n      exp\n      dup2\n      sload\n      dup2\n      0xff\n      mul\n      not\n      and\n      swap1\n      dup4\n      iszero\n      iszero\n      mul\n      or\n      swap1\n      sstore\n      pop\n        /* \"contracts/MetDropTestToken_flattened.sol\":25919:25941  Unpaused(_msgSender()) */\n      0x5db9ee0a495bf2e6ff9c91a7834c1ba4fdd244a5e8aa4e537bd38aeae4b073aa\n        /* \"contracts/MetDropTestToken_flattened.sol\":25928:25940  _msgSender() */\n      tag_257\n        /* \"contracts/MetDropTestToken_flattened.sol\":25928:25938  _msgSender */\n      tag_123\n        /* \"contracts/MetDropTestToken_flattened.sol\":25928:25940  _msgSender() */\n      jump\t// in\n    tag_257:\n        /* \"contracts/MetDropTestToken_flattened.sol\":25919:25941  Unpaused(_msgSender()) */\n      mload(0x40)\n      tag_258\n      swap2\n      swap1\n      tag_94\n      jump\t// in\n    tag_258:\n      mload(0x40)\n      dup1\n      swap2\n      sub\n      swap1\n      log1\n        /* \"contracts/MetDropTestToken_flattened.sol\":25831:25948  function _unpause() internal virtual whenPaused {... */\n      jump\t// out\n        /* \"contracts/MetDropTestToken_flattened.sol\":19108:19314  function _burn(address account, uint256 value) internal {... */\n    tag_158:\n        /* \"contracts/MetDropTestToken_flattened.sol\":19197:19198  0 */\n      0x00\n        /* \"contracts/MetDropTestToken_flattened.sol\":19178:19199  account == address(0) */\n      0xffffffffffffffffffffffffffffffffffffffff\n      and\n        /* \"contracts/MetDropTestToken_flattened.sol\":19178:19185  account */\n      dup3\n        /* \"contracts/MetDropTestToken_flattened.sol\":19178:19199  account == address(0) */\n      0xffffffffffffffffffffffffffffffffffffffff\n      and\n      sub\n        /* \"contracts/MetDropTestToken_flattened.sol\":19174:19263  if (account == address(0)) {... */\n      tag_260\n      jumpi\n        /* \"contracts/MetDropTestToken_flattened.sol\":19249:19250  0 */\n      0x00\n        /* \"contracts/MetDropTestToken_flattened.sol\":19222:19252  ERC20InvalidSender(address(0)) */\n      mload(0x40)\n      0x96c6fd1e00000000000000000000000000000000000000000000000000000000\n      dup2\n      mstore\n      0x04\n      add\n      tag_261\n      swap2\n      swap1\n      tag_94\n      jump\t// in\n    tag_261:\n      mload(0x40)\n      dup1\n      swap2\n      sub\n      swap1\n      revert\n        /* \"contracts/MetDropTestToken_flattened.sol\":19174:19263  if (account == address(0)) {... */\n    tag_260:\n        /* \"contracts/MetDropTestToken_flattened.sol\":19272:19307  _update(account, address(0), value) */\n      tag_262\n        /* \"contracts/MetDropTestToken_flattened.sol\":19280:19287  account */\n      dup3\n        /* \"contracts/MetDropTestToken_flattened.sol\":19297:19298  0 */\n      0x00\n        /* \"contracts/MetDropTestToken_flattened.sol\":19301:19306  value */\n      dup4\n        /* \"contracts/MetDropTestToken_flattened.sol\":19272:19279  _update */\n      tag_227\n        /* \"contracts/MetDropTestToken_flattened.sol\":19272:19307  _update(account, address(0), value) */\n      jump\t// in\n    tag_262:\n        /* \"contracts/MetDropTestToken_flattened.sol\":19108:19314  function _burn(address account, uint256 value) internal {... */\n      pop\n      pop\n      jump\t// out\n        /* \"contracts/MetDropTestToken_flattened.sol\":30056:30243  function _transferOwnership(address newOwner) internal virtual {... */\n    tag_165:\n        /* \"contracts/MetDropTestToken_flattened.sol\":30129:30145  address oldOwner */\n      0x00\n        /* \"contracts/MetDropTestToken_flattened.sol\":30148:30154  _owner */\n      0x05\n      0x01\n      swap1\n      sload\n      swap1\n      0x0100\n      exp\n      swap1\n      div\n      0xffffffffffffffffffffffffffffffffffffffff\n      and\n        /* \"contracts/MetDropTestToken_flattened.sol\":30129:30154  address oldOwner = _owner */\n      swap1\n      pop\n        /* \"contracts/MetDropTestToken_flattened.sol\":30173:30181  newOwner */\n      dup2\n        /* \"contracts/MetDropTestToken_flattened.sol\":30164:30170  _owner */\n      0x05\n      0x01\n        /* \"contracts/MetDropTestToken_flattened.sol\":30164:30181  _owner = newOwner */\n      0x0100\n      exp\n      dup2\n      sload\n      dup2\n      0xffffffffffffffffffffffffffffffffffffffff\n      mul\n      not\n      and\n      swap1\n      dup4\n      0xffffffffffffffffffffffffffffffffffffffff\n      and\n      mul\n      or\n      swap1\n      sstore\n      pop\n        /* \"contracts/MetDropTestToken_flattened.sol\":30227:30235  newOwner */\n      dup2\n        /* \"contracts/MetDropTestToken_flattened.sol\":30196:30236  OwnershipTransferred(oldOwner, newOwner) */\n      0xffffffffffffffffffffffffffffffffffffffff\n      and\n        /* \"contracts/MetDropTestToken_flattened.sol\":30217:30225  oldOwner */\n      dup2\n        /* \"contracts/MetDropTestToken_flattened.sol\":30196:30236  OwnershipTransferred(oldOwner, newOwner) */\n      0xffffffffffffffffffffffffffffffffffffffff\n      and\n      0x8be0079c531659141344cd1fd0a4f28419497f9722a3daafe3b4186f6b6457e0\n      mload(0x40)\n      mload(0x40)\n      dup1\n      swap2\n      sub\n      swap1\n      log3\n        /* \"contracts/MetDropTestToken_flattened.sol\":30119:30243  {... */\n      pop\n        /* \"contracts/MetDropTestToken_flattened.sol\":30056:30243  function _transferOwnership(address newOwner) internal virtual {... */\n      pop\n      jump\t// out\n        /* \"contracts/MetDropTestToken_flattened.sol\":81131:81238  function nonces(address owner) public view virtual returns (uint256) {... */\n    tag_172:\n        /* \"contracts/MetDropTestToken_flattened.sol\":81191:81198  uint256 */\n      0x00\n        /* \"contracts/MetDropTestToken_flattened.sol\":81217:81224  _nonces */\n      0x08\n        /* \"contracts/MetDropTestToken_flattened.sol\":81217:81231  _nonces[owner] */\n      0x00\n        /* \"contracts/MetDropTestToken_flattened.sol\":81225:81230  owner */\n      dup4\n        /* \"contracts/MetDropTestToken_flattened.sol\":81217:81231  _nonces[owner] */\n      0xffffffffffffffffffffffffffffffffffffffff\n      and\n      0xffffffffffffffffffffffffffffffffffffffff\n      and\n      dup2\n      mstore\n      0x20\n      add\n      swap1\n      dup2\n      mstore\n      0x20\n      add\n      0x00\n      keccak256\n      sload\n        /* \"contracts/MetDropTestToken_flattened.sol\":81210:81231  return _nonces[owner] */\n      swap1\n      pop\n        /* \"contracts/MetDropTestToken_flattened.sol\":81131:81238  function nonces(address owner) public view virtual returns (uint256) {... */\n      swap2\n      swap1\n      pop\n      jump\t// out\n        /* \"contracts/MetDropTestToken_flattened.sol\":25584:25699  function _pause() internal virtual whenNotPaused {... */\n    tag_177:\n        /* \"contracts/MetDropTestToken_flattened.sol\":24595:24614  _requireNotPaused() */\n      tag_266\n        /* \"contracts/MetDropTestToken_flattened.sol\":24595:24612  _requireNotPaused */\n      tag_267\n        /* \"contracts/MetDropTestToken_flattened.sol\":24595:24614  _requireNotPaused() */\n      jump\t// in\n    tag_266:\n        /* \"contracts/MetDropTestToken_flattened.sol\":25653:25657  true */\n      0x01\n        /* \"contracts/MetDropTestToken_flattened.sol\":25643:25650  _paused */\n      0x05\n      0x00\n        /* \"contracts/MetDropTestToken_flattened.sol\":25643:25657  _paused = true */\n      0x0100\n      exp\n      dup2\n      sload\n      dup2\n      0xff\n      mul\n      not\n      and\n      swap1\n      dup4\n      iszero\n      iszero\n      mul\n      or\n      swap1\n      sstore\n      pop\n        /* \"contracts/MetDropTestToken_flattened.sol\":25672:25692  Paused(_msgSender()) */\n      0x62e78cea01bee320cd4e420270b5ea74000d11b0c9f74754ebdbfc544b05a258\n        /* \"contracts/MetDropTestToken_flattened.sol\":25679:25691  _msgSender() */\n      tag_269\n        /* \"contracts/MetDropTestToken_flattened.sol\":25679:25689  _msgSender */\n      tag_123\n        /* \"contracts/MetDropTestToken_flattened.sol\":25679:25691  _msgSender() */\n      jump\t// in\n    tag_269:\n        /* \"contracts/MetDropTestToken_flattened.sol\":25672:25692  Paused(_msgSender()) */\n      mload(0x40)\n      tag_270\n      swap2\n      swap1\n      tag_94\n      jump\t// in\n    tag_270:\n      mload(0x40)\n      dup1\n      swap2\n      sub\n      swap1\n      log1\n        /* \"contracts/MetDropTestToken_flattened.sol\":25584:25699  function _pause() internal virtual whenNotPaused {... */\n      jump\t// out\n        /* \"contracts/MetDropTestToken_flattened.sol\":79982:80108  function _EIP712Name() internal view returns (string memory) {... */\n    tag_180:\n        /* \"contracts/MetDropTestToken_flattened.sol\":80028:80041  string memory */\n      0x60\n        /* \"contracts/MetDropTestToken_flattened.sol\":80060:80101  _name.toStringWithFallback(_nameFallback) */\n      tag_272\n        /* \"contracts/MetDropTestToken_flattened.sol\":80087:80100  _nameFallback */\n      0x06\n        /* \"contracts/MetDropTestToken_flattened.sol\":80060:80065  _name */\n      immutable(\"0xb8163922f365f2d54f6122835c04019c69b181c4b5bf7a62d07ca62e91817bd9\")\n        /* \"contracts/MetDropTestToken_flattened.sol\":80060:80086  _name.toStringWithFallback */\n      tag_273\n      swap1\n        /* \"contracts/MetDropTestToken_flattened.sol\":80060:80101  _name.toStringWithFallback(_nameFallback) */\n      swap2\n      swap1\n      0xffffffff\n      and\n      jump\t// in\n    tag_272:\n        /* \"contracts/MetDropTestToken_flattened.sol\":80053:80101  return _name.toStringWithFallback(_nameFallback) */\n      swap1\n      pop\n        /* \"contracts/MetDropTestToken_flattened.sol\":79982:80108  function _EIP712Name() internal view returns (string memory) {... */\n      swap1\n      jump\t// out\n        /* \"contracts/MetDropTestToken_flattened.sol\":80434:80569  function _EIP712Version() internal view returns (string memory) {... */\n    tag_182:\n        /* \"contracts/MetDropTestToken_flattened.sol\":80483:80496  string memory */\n      0x60\n        /* \"contracts/MetDropTestToken_flattened.sol\":80515:80562  _version.toStringWithFallback(_versionFallback) */\n      tag_275\n        /* \"contracts/MetDropTestToken_flattened.sol\":80545:80561  _versionFallback */\n      0x07\n        /* \"contracts/MetDropTestToken_flattened.sol\":80515:80523  _version */\n      immutable(\"0xef17f12455e22a45134579834cdca993c5eec3070954e76052dcfac9f22697b4\")\n        /* \"contracts/MetDropTestToken_flattened.sol\":80515:80544  _version.toStringWithFallback */\n      tag_273\n      swap1\n        /* \"contracts/MetDropTestToken_flattened.sol\":80515:80562  _version.toStringWithFallback(_versionFallback) */\n      swap2\n      swap1\n      0xffffffff\n      and\n      jump\t// in\n    tag_275:\n        /* \"contracts/MetDropTestToken_flattened.sol\":80508:80562  return _version.toStringWithFallback(_versionFallback) */\n      swap1\n      pop\n        /* \"contracts/MetDropTestToken_flattened.sol\":80434:80569  function _EIP712Version() internal view returns (string memory) {... */\n      swap1\n      jump\t// out\n        /* \"contracts/MetDropTestToken_flattened.sol\":81352:81747  function _useNonce(address owner) internal virtual returns (uint256) {... */\n    tag_201:\n        /* \"contracts/MetDropTestToken_flattened.sol\":81412:81419  uint256 */\n      0x00\n        /* \"contracts/MetDropTestToken_flattened.sol\":81714:81721  _nonces */\n      0x08\n        /* \"contracts/MetDropTestToken_flattened.sol\":81714:81728  _nonces[owner] */\n      0x00\n        /* \"contracts/MetDropTestToken_flattened.sol\":81722:81727  owner */\n      dup4\n        /* \"contracts/MetDropTestToken_flattened.sol\":81714:81728  _nonces[owner] */\n      0xffffffffffffffffffffffffffffffffffffffff\n      and\n      0xffffffffffffffffffffffffffffffffffffffff\n      and\n      dup2\n      mstore\n      0x20\n      add\n      swap1\n      dup2\n      mstore\n      0x20\n      add\n      0x00\n      keccak256\n      0x00\n        /* \"contracts/MetDropTestToken_flattened.sol\":81714:81730  _nonces[owner]++ */\n      dup2\n      sload\n      dup1\n      swap3\n      swap2\n      swap1\n      0x01\n      add\n      swap2\n      swap1\n      pop\n      sstore\n        /* \"contracts/MetDropTestToken_flattened.sol\":81707:81730  return _nonces[owner]++ */\n      swap1\n      pop\n        /* \"contracts/MetDropTestToken_flattened.sol\":81352:81747  function _useNonce(address owner) internal virtual returns (uint256) {... */\n      swap2\n      swap1\n      pop\n      jump\t// out\n        /* \"contracts/MetDropTestToken_flattened.sol\":78878:79054  function _hashTypedDataV4(bytes32 structHash) internal view virtual returns (bytes32) {... */\n    tag_205:\n        /* \"contracts/MetDropTestToken_flattened.sol\":78955:78962  bytes32 */\n      0x00\n        /* \"contracts/MetDropTestToken_flattened.sol\":78981:79047  MessageHashUtils.toTypedDataHash(_domainSeparatorV4(), structHash) */\n      tag_278\n        /* \"contracts/MetDropTestToken_flattened.sol\":79014:79034  _domainSeparatorV4() */\n      tag_279\n        /* \"contracts/MetDropTestToken_flattened.sol\":79014:79032  _domainSeparatorV4 */\n      tag_144\n        /* \"contracts/MetDropTestToken_flattened.sol\":79014:79034  _domainSeparatorV4() */\n      jump\t// in\n    tag_279:\n        /* \"contracts/MetDropTestToken_flattened.sol\":79036:79046  structHash */\n      dup4\n        /* \"contracts/MetDropTestToken_flattened.sol\":78981:79013  MessageHashUtils.toTypedDataHash */\n      tag_280\n        /* \"contracts/MetDropTestToken_flattened.sol\":78981:79047  MessageHashUtils.toTypedDataHash(_domainSeparatorV4(), structHash) */\n      jump\t// in\n    tag_278:\n        /* \"contracts/MetDropTestToken_flattened.sol\":78974:79047  return MessageHashUtils.toTypedDataHash(_domainSeparatorV4(), structHash) */\n      swap1\n      pop\n        /* \"contracts/MetDropTestToken_flattened.sol\":78878:79054  function _hashTypedDataV4(bytes32 structHash) internal view virtual returns (bytes32) {... */\n      swap2\n      swap1\n      pop\n      jump\t// out\n        /* \"contracts/MetDropTestToken_flattened.sol\":40929:41189  function recover(bytes32 hash, uint8 v, bytes32 r, bytes32 s) internal pure returns (address) {... */\n    tag_207:\n        /* \"contracts/MetDropTestToken_flattened.sol\":41014:41021  address */\n      0x00\n        /* \"contracts/MetDropTestToken_flattened.sol\":41034:41051  address recovered */\n      dup1\n        /* \"contracts/MetDropTestToken_flattened.sol\":41053:41071  RecoverError error */\n      0x00\n        /* \"contracts/MetDropTestToken_flattened.sol\":41073:41089  bytes32 errorArg */\n      dup1\n        /* \"contracts/MetDropTestToken_flattened.sol\":41093:41118  tryRecover(hash, v, r, s) */\n      tag_282\n        /* \"contracts/MetDropTestToken_flattened.sol\":41104:41108  hash */\n      dup9\n        /* \"contracts/MetDropTestToken_flattened.sol\":41110:41111  v */\n      dup9\n        /* \"contracts/MetDropTestToken_flattened.sol\":41113:41114  r */\n      dup9\n        /* \"contracts/MetDropTestToken_flattened.sol\":41116:41117  s */\n      dup9\n        /* \"contracts/MetDropTestToken_flattened.sol\":41093:41103  tryRecover */\n      tag_283\n        /* \"contracts/MetDropTestToken_flattened.sol\":41093:41118  tryRecover(hash, v, r, s) */\n      jump\t// in\n    tag_282:\n        /* \"contracts/MetDropTestToken_flattened.sol\":41033:41118  (address recovered, RecoverError error, bytes32 errorArg) = tryRecover(hash, v, r, s) */\n      swap3\n      pop\n      swap3\n      pop\n      swap3\n      pop\n        /* \"contracts/MetDropTestToken_flattened.sol\":41128:41156  _throwError(error, errorArg) */\n      tag_284\n        /* \"contracts/MetDropTestToken_flattened.sol\":41140:41145  error */\n      dup3\n        /* \"contracts/MetDropTestToken_flattened.sol\":41147:41155  errorArg */\n      dup3\n        /* \"contracts/MetDropTestToken_flattened.sol\":41128:41139  _throwError */\n      tag_285\n        /* \"contracts/MetDropTestToken_flattened.sol\":41128:41156  _throwError(error, errorArg) */\n      jump\t// in\n    tag_284:\n        /* \"contracts/MetDropTestToken_flattened.sol\":41173:41182  recovered */\n      dup3\n        /* \"contracts/MetDropTestToken_flattened.sol\":41166:41182  return recovered */\n      swap4\n      pop\n      pop\n      pop\n      pop\n        /* \"contracts/MetDropTestToken_flattened.sol\":40929:41189  function recover(bytes32 hash, uint8 v, bytes32 r, bytes32 s) internal pure returns (address) {... */\n      swap5\n      swap4\n      pop\n      pop\n      pop\n      pop\n      jump\t// out\n        /* \"contracts/MetDropTestToken_flattened.sol\":20810:21242  function _approve(address owner, address spender, uint256 value, bool emitEvent) internal virtual {... */\n    tag_222:\n        /* \"contracts/MetDropTestToken_flattened.sol\":20939:20940  0 */\n      0x00\n        /* \"contracts/MetDropTestToken_flattened.sol\":20922:20941  owner == address(0) */\n      0xffffffffffffffffffffffffffffffffffffffff\n      and\n        /* \"contracts/MetDropTestToken_flattened.sol\":20922:20927  owner */\n      dup5\n        /* \"contracts/MetDropTestToken_flattened.sol\":20922:20941  owner == address(0) */\n      0xffffffffffffffffffffffffffffffffffffffff\n      and\n      sub\n        /* \"contracts/MetDropTestToken_flattened.sol\":20918:21007  if (owner == address(0)) {... */\n      tag_287\n      jumpi\n        /* \"contracts/MetDropTestToken_flattened.sol\":20993:20994  0 */\n      0x00\n        /* \"contracts/MetDropTestToken_flattened.sol\":20964:20996  ERC20InvalidApprover(address(0)) */\n      mload(0x40)\n      0xe602df0500000000000000000000000000000000000000000000000000000000\n      dup2\n      mstore\n      0x04\n      add\n      tag_288\n      swap2\n      swap1\n      tag_94\n      jump\t// in\n    tag_288:\n      mload(0x40)\n      dup1\n      swap2\n      sub\n      swap1\n      revert\n        /* \"contracts/MetDropTestToken_flattened.sol\":20918:21007  if (owner == address(0)) {... */\n    tag_287:\n        /* \"contracts/MetDropTestToken_flattened.sol\":21039:21040  0 */\n      0x00\n        /* \"contracts/MetDropTestToken_flattened.sol\":21020:21041  spender == address(0) */\n      0xffffffffffffffffffffffffffffffffffffffff\n      and\n        /* \"contracts/MetDropTestToken_flattened.sol\":21020:21027  spender */\n      dup4\n        /* \"contracts/MetDropTestToken_flattened.sol\":21020:21041  spender == address(0) */\n      0xffffffffffffffffffffffffffffffffffffffff\n      and\n      sub\n        /* \"contracts/MetDropTestToken_flattened.sol\":21016:21106  if (spender == address(0)) {... */\n      tag_289\n      jumpi\n        /* \"contracts/MetDropTestToken_flattened.sol\":21092:21093  0 */\n      0x00\n        /* \"contracts/MetDropTestToken_flattened.sol\":21064:21095  ERC20InvalidSpender(address(0)) */\n      mload(0x40)\n      0x94280d6200000000000000000000000000000000000000000000000000000000\n      dup2\n      mstore\n      0x04\n      add\n      tag_290\n      swap2\n      swap1\n      tag_94\n      jump\t// in\n    tag_290:\n      mload(0x40)\n      dup1\n      swap2\n      sub\n      swap1\n      revert\n        /* \"contracts/MetDropTestToken_flattened.sol\":21016:21106  if (spender == address(0)) {... */\n    tag_289:\n        /* \"contracts/MetDropTestToken_flattened.sol\":21145:21150  value */\n      dup2\n        /* \"contracts/MetDropTestToken_flattened.sol\":21115:21126  _allowances */\n      0x01\n        /* \"contracts/MetDropTestToken_flattened.sol\":21115:21133  _allowances[owner] */\n      0x00\n        /* \"contracts/MetDropTestToken_flattened.sol\":21127:21132  owner */\n      dup7\n        /* \"contracts/MetDropTestToken_flattened.sol\":21115:21133  _allowances[owner] */\n      0xffffffffffffffffffffffffffffffffffffffff\n      and\n      0xffffffffffffffffffffffffffffffffffffffff\n      and\n      dup2\n      mstore\n      0x20\n      add\n      swap1\n      dup2\n      mstore\n      0x20\n      add\n      0x00\n      keccak256\n        /* \"contracts/MetDropTestToken_flattened.sol\":21115:21142  _allowances[owner][spender] */\n      0x00\n        /* \"contracts/MetDropTestToken_flattened.sol\":21134:21141  spender */\n      dup6\n        /* \"contracts/MetDropTestToken_flattened.sol\":21115:21142  _allowances[owner][spender] */\n      0xffffffffffffffffffffffffffffffffffffffff\n      and\n      0xffffffffffffffffffffffffffffffffffffffff\n      and\n      dup2\n      mstore\n      0x20\n      add\n      swap1\n      dup2\n      mstore\n      0x20\n      add\n      0x00\n      keccak256\n        /* \"contracts/MetDropTestToken_flattened.sol\":21115:21150  _allowances[owner][spender] = value */\n      dup2\n      swap1\n      sstore\n      pop\n        /* \"contracts/MetDropTestToken_flattened.sol\":21164:21173  emitEvent */\n      dup1\n        /* \"contracts/MetDropTestToken_flattened.sol\":21160:21236  if (emitEvent) {... */\n      iszero\n      tag_291\n      jumpi\n        /* \"contracts/MetDropTestToken_flattened.sol\":21210:21217  spender */\n      dup3\n        /* \"contracts/MetDropTestToken_flattened.sol\":21194:21225  Approval(owner, spender, value) */\n      0xffffffffffffffffffffffffffffffffffffffff\n      and\n        /* \"contracts/MetDropTestToken_flattened.sol\":21203:21208  owner */\n      dup5\n        /* \"contracts/MetDropTestToken_flattened.sol\":21194:21225  Approval(owner, spender, value) */\n      0xffffffffffffffffffffffffffffffffffffffff\n      and\n      0x8c5be1e5ebec7d5bd14f71427d1e84f3dd0314c0f7b2291e5b200ac8c7c3b925\n        /* \"contracts/MetDropTestToken_flattened.sol\":21219:21224  value */\n      dup5\n        /* \"contracts/MetDropTestToken_flattened.sol\":21194:21225  Approval(owner, spender, value) */\n      mload(0x40)\n      tag_292\n      swap2\n      swap1\n      tag_42\n      jump\t// in\n    tag_292:\n      mload(0x40)\n      dup1\n      swap2\n      sub\n      swap1\n      log3\n        /* \"contracts/MetDropTestToken_flattened.sol\":21160:21236  if (emitEvent) {... */\n    tag_291:\n        /* \"contracts/MetDropTestToken_flattened.sol\":20810:21242  function _approve(address owner, address spender, uint256 value, bool emitEvent) internal virtual {... */\n      pop\n      pop\n      pop\n      pop\n      jump\t// out\n        /* \"contracts/MetDropTestToken_flattened.sol\":85768:85933  function _update(address from, address to, uint256 value)... */\n    tag_227:\n        /* \"contracts/MetDropTestToken_flattened.sol\":85896:85926  super._update(from, to, value) */\n      tag_294\n        /* \"contracts/MetDropTestToken_flattened.sol\":85910:85914  from */\n      dup4\n        /* \"contracts/MetDropTestToken_flattened.sol\":85916:85918  to */\n      dup4\n        /* \"contracts/MetDropTestToken_flattened.sol\":85920:85925  value */\n      dup4\n        /* \"contracts/MetDropTestToken_flattened.sol\":85896:85909  super._update */\n      tag_295\n        /* \"contracts/MetDropTestToken_flattened.sol\":85896:85926  super._update(from, to, value) */\n      jump\t// in\n    tag_294:\n        /* \"contracts/MetDropTestToken_flattened.sol\":85768:85933  function _update(address from, address to, uint256 value)... */\n      pop\n      pop\n      pop\n      jump\t// out\n        /* \"contracts/MetDropTestToken_flattened.sol\":78074:78253  function _buildDomainSeparator() private view returns (bytes32) {... */\n    tag_246:\n        /* \"contracts/MetDropTestToken_flattened.sol\":78129:78136  bytes32 */\n      0x00\n        /* \"contracts/MetDropTestToken_flattened.sol\":76040:76135  keccak256(\"EIP712Domain(string name,string version,uint256 chainId,address verifyingContract)\") */\n      0x8b73c3c69bb8fe3d512ecc4cf759cc79239f7b179b0ffacaa9a75d522b39400f\n        /* \"contracts/MetDropTestToken_flattened.sol\":78187:78198  _hashedName */\n      immutable(\"0xf40d89e88f976c0e4eebddab04ab11e8eb9a648fae2f79611f9b9f54d5ffefc8\")\n        /* \"contracts/MetDropTestToken_flattened.sol\":78200:78214  _hashedVersion */\n      immutable(\"0xc9c370779fd62a0c7c118a2246ccad4c103473123315c14d4e476e7f4b22843f\")\n        /* \"contracts/MetDropTestToken_flattened.sol\":78216:78229  block.chainid */\n      chainid\n        /* \"contracts/MetDropTestToken_flattened.sol\":78239:78243  this */\n      address\n        /* \"contracts/MetDropTestToken_flattened.sol\":78165:78245  abi.encode(TYPE_HASH, _hashedName, _hashedVersion, block.chainid, address(this)) */\n      add(0x20, mload(0x40))\n      tag_297\n      swap6\n      swap5\n      swap4\n      swap3\n      swap2\n      swap1\n      tag_298\n      jump\t// in\n    tag_297:\n      mload(0x40)\n      0x20\n      dup2\n      dup4\n      sub\n      sub\n      dup2\n      mstore\n      swap1\n      0x40\n      mstore\n        /* \"contracts/MetDropTestToken_flattened.sol\":78155:78246  keccak256(abi.encode(TYPE_HASH, _hashedName, _hashedVersion, block.chainid, address(this))) */\n      dup1\n      mload\n      swap1\n      0x20\n      add\n      keccak256\n        /* \"contracts/MetDropTestToken_flattened.sol\":78148:78246  return keccak256(abi.encode(TYPE_HASH, _hashedName, _hashedVersion, block.chainid, address(this))) */\n      swap1\n      pop\n        /* \"contracts/MetDropTestToken_flattened.sol\":78074:78253  function _buildDomainSeparator() private view returns (bytes32) {... */\n      swap1\n      jump\t// out\n        /* \"contracts/MetDropTestToken_flattened.sol\":25323:25449  function _requirePaused() internal view virtual {... */\n    tag_255:\n        /* \"contracts/MetDropTestToken_flattened.sol\":25386:25394  paused() */\n      tag_300\n        /* \"contracts/MetDropTestToken_flattened.sol\":25386:25392  paused */\n      tag_69\n        /* \"contracts/MetDropTestToken_flattened.sol\":25386:25394  paused() */\n      jump\t// in\n    tag_300:\n        /* \"contracts/MetDropTestToken_flattened.sol\":25381:25443  if (!paused()) {... */\n      tag_301\n      jumpi\n        /* \"contracts/MetDropTestToken_flattened.sol\":25417:25432  ExpectedPause() */\n      mload(0x40)\n      0x8dfc202b00000000000000000000000000000000000000000000000000000000\n      dup2\n      mstore\n      0x04\n      add\n      mload(0x40)\n      dup1\n      swap2\n      sub\n      swap1\n      revert\n        /* \"contracts/MetDropTestToken_flattened.sol\":25381:25443  if (!paused()) {... */\n    tag_301:\n        /* \"contracts/MetDropTestToken_flattened.sol\":25323:25449  function _requirePaused() internal view virtual {... */\n      jump\t// out\n        /* \"contracts/MetDropTestToken_flattened.sol\":25123:25251  function _requireNotPaused() internal view virtual {... */\n    tag_267:\n        /* \"contracts/MetDropTestToken_flattened.sol\":25188:25196  paused() */\n      tag_303\n        /* \"contracts/MetDropTestToken_flattened.sol\":25188:25194  paused */\n      tag_69\n        /* \"contracts/MetDropTestToken_flattened.sol\":25188:25196  paused() */\n      jump\t// in\n    tag_303:\n        /* \"contracts/MetDropTestToken_flattened.sol\":25184:25245  if (paused()) {... */\n      iszero\n      tag_304\n      jumpi\n        /* \"contracts/MetDropTestToken_flattened.sol\":25219:25234  EnforcedPause() */\n      mload(0x40)\n      0xd93c066500000000000000000000000000000000000000000000000000000000\n      dup2\n      mstore\n      0x04\n      add\n      mload(0x40)\n      dup1\n      swap2\n      sub\n      swap1\n      revert\n        /* \"contracts/MetDropTestToken_flattened.sol\":25184:25245  if (paused()) {... */\n    tag_304:\n        /* \"contracts/MetDropTestToken_flattened.sol\":25123:25251  function _requireNotPaused() internal view virtual {... */\n      jump\t// out\n        /* \"contracts/MetDropTestToken_flattened.sol\":72410:72677  function toStringWithFallback(ShortString value, string storage store) internal pure returns (string memory) {... */\n    tag_273:\n        /* \"contracts/MetDropTestToken_flattened.sol\":72504:72517  string memory */\n      0x60\n        /* \"contracts/MetDropTestToken_flattened.sol\":70415:70481  0x00000000000000000000000000000000000000000000000000000000000000FF */\n      0xff\n        /* \"contracts/MetDropTestToken_flattened.sol\":72562:72579  FALLBACK_SENTINEL */\n      0x00\n      shl\n        /* \"contracts/MetDropTestToken_flattened.sol\":72552:72557  value */\n      dup4\n        /* \"contracts/MetDropTestToken_flattened.sol\":72533:72579  ShortString.unwrap(value) != FALLBACK_SENTINEL */\n      eq\n        /* \"contracts/MetDropTestToken_flattened.sol\":72529:72671  if (ShortString.unwrap(value) != FALLBACK_SENTINEL) {... */\n      tag_306\n      jumpi\n        /* \"contracts/MetDropTestToken_flattened.sol\":72602:72617  toString(value) */\n      tag_307\n        /* \"contracts/MetDropTestToken_flattened.sol\":72611:72616  value */\n      dup4\n        /* \"contracts/MetDropTestToken_flattened.sol\":72602:72610  toString */\n      tag_308\n        /* \"contracts/MetDropTestToken_flattened.sol\":72602:72617  toString(value) */\n      jump\t// in\n    tag_307:\n        /* \"contracts/MetDropTestToken_flattened.sol\":72595:72617  return toString(value) */\n      swap1\n      pop\n      jump(tag_305)\n        /* \"contracts/MetDropTestToken_flattened.sol\":72529:72671  if (ShortString.unwrap(value) != FALLBACK_SENTINEL) {... */\n    tag_306:\n        /* \"contracts/MetDropTestToken_flattened.sol\":72655:72660  store */\n      dup2\n        /* \"contracts/MetDropTestToken_flattened.sol\":72648:72660  return store */\n      dup1\n      sload\n      tag_310\n      swap1\n      tag_116\n      jump\t// in\n    tag_310:\n      dup1\n      0x1f\n      add\n      0x20\n      dup1\n      swap2\n      div\n      mul\n      0x20\n      add\n      mload(0x40)\n      swap1\n      dup2\n      add\n      0x40\n      mstore\n      dup1\n      swap3\n      swap2\n      swap1\n      dup2\n      dup2\n      mstore\n      0x20\n      add\n      dup3\n      dup1\n      sload\n      tag_311\n      swap1\n      tag_116\n      jump\t// in\n    tag_311:\n      dup1\n      iszero\n      tag_312\n      jumpi\n      dup1\n      0x1f\n      lt\n      tag_313\n      jumpi\n      0x0100\n      dup1\n      dup4\n      sload\n      div\n      mul\n      dup4\n      mstore\n      swap2\n      0x20\n      add\n      swap2\n      jump(tag_312)\n    tag_313:\n      dup3\n      add\n      swap2\n      swap1\n      0x00\n      mstore\n      keccak256(0x00, 0x20)\n      swap1\n    tag_314:\n      dup2\n      sload\n      dup2\n      mstore\n      swap1\n      0x01\n      add\n      swap1\n      0x20\n      add\n      dup1\n      dup4\n      gt\n      tag_314\n      jumpi\n      dup3\n      swap1\n      sub\n      0x1f\n      and\n      dup3\n      add\n      swap2\n    tag_312:\n      pop\n      pop\n      pop\n      pop\n      pop\n      swap1\n      pop\n        /* \"contracts/MetDropTestToken_flattened.sol\":72410:72677  function toStringWithFallback(ShortString value, string storage store) internal pure returns (string memory) {... */\n    tag_305:\n      swap3\n      swap2\n      pop\n      pop\n      jump\t// out\n        /* \"contracts/MetDropTestToken_flattened.sol\":64684:65085  function toTypedDataHash(bytes32 domainSeparator, bytes32 structHash) internal pure returns (bytes32 digest) {... */\n    tag_280:\n        /* \"contracts/MetDropTestToken_flattened.sol\":64777:64791  bytes32 digest */\n      0x00\n        /* \"contracts/MetDropTestToken_flattened.sol\":64886:64890  0x40 */\n      0x40\n        /* \"contracts/MetDropTestToken_flattened.sol\":64880:64891  mload(0x40) */\n      mload\n        /* \"contracts/MetDropTestToken_flattened.sol\":64916:64926  hex\"19_01\" */\n      0x1901000000000000000000000000000000000000000000000000000000000000\n        /* \"contracts/MetDropTestToken_flattened.sol\":64911:64914  ptr */\n      dup2\n        /* \"contracts/MetDropTestToken_flattened.sol\":64904:64927  mstore(ptr, hex\"19_01\") */\n      mstore\n        /* \"contracts/MetDropTestToken_flattened.sol\":64963:64978  domainSeparator */\n      dup4\n        /* \"contracts/MetDropTestToken_flattened.sol\":64956:64960  0x02 */\n      0x02\n        /* \"contracts/MetDropTestToken_flattened.sol\":64951:64954  ptr */\n      dup3\n        /* \"contracts/MetDropTestToken_flattened.sol\":64947:64961  add(ptr, 0x02) */\n      add\n        /* \"contracts/MetDropTestToken_flattened.sol\":64940:64979  mstore(add(ptr, 0x02), domainSeparator) */\n      mstore\n        /* \"contracts/MetDropTestToken_flattened.sol\":65015:65025  structHash */\n      dup3\n        /* \"contracts/MetDropTestToken_flattened.sol\":65008:65012  0x22 */\n      0x22\n        /* \"contracts/MetDropTestToken_flattened.sol\":65003:65006  ptr */\n      dup3\n        /* \"contracts/MetDropTestToken_flattened.sol\":64999:65013  add(ptr, 0x22) */\n      add\n        /* \"contracts/MetDropTestToken_flattened.sol\":64992:65026  mstore(add(ptr, 0x22), structHash) */\n      mstore\n        /* \"contracts/MetDropTestToken_flattened.sol\":65064:65068  0x42 */\n      0x42\n        /* \"contracts/MetDropTestToken_flattened.sol\":65059:65062  ptr */\n      dup2\n        /* \"contracts/MetDropTestToken_flattened.sol\":65049:65069  keccak256(ptr, 0x42) */\n      keccak256\n        /* \"contracts/MetDropTestToken_flattened.sol\":65039:65069  digest := keccak256(ptr, 0x42) */\n      swap2\n      pop\n        /* \"contracts/MetDropTestToken_flattened.sol\":64855:65079  {... */\n      pop\n        /* \"contracts/MetDropTestToken_flattened.sol\":64684:65085  function toTypedDataHash(bytes32 domainSeparator, bytes32 structHash) internal pure returns (bytes32 digest) {... */\n      swap3\n      swap2\n      pop\n      pop\n      jump\t// out\n        /* \"contracts/MetDropTestToken_flattened.sol\":39266:40796  function tryRecover(... */\n    tag_283:\n        /* \"contracts/MetDropTestToken_flattened.sol\":39392:39399  address */\n      0x00\n        /* \"contracts/MetDropTestToken_flattened.sol\":39401:39413  RecoverError */\n      dup1\n        /* \"contracts/MetDropTestToken_flattened.sol\":39415:39422  bytes32 */\n      0x00\n        /* \"contracts/MetDropTestToken_flattened.sol\":40325:40391  0x7FFFFFFFFFFFFFFFFFFFFFFFFFFFFFFF5D576E7357A4501DDFE92F46681B20A0 */\n      0x7fffffffffffffffffffffffffffffff5d576e7357a4501ddfe92f46681b20a0\n        /* \"contracts/MetDropTestToken_flattened.sol\":40320:40321  s */\n      dup5\n        /* \"contracts/MetDropTestToken_flattened.sol\":40312:40322  uint256(s) */\n      0x00\n      shr\n        /* \"contracts/MetDropTestToken_flattened.sol\":40312:40391  uint256(s) > 0x7FFFFFFFFFFFFFFFFFFFFFFFFFFFFFFF5D576E7357A4501DDFE92F46681B20A0 */\n      gt\n        /* \"contracts/MetDropTestToken_flattened.sol\":40308:40472  if (uint256(s) > 0x7FFFFFFFFFFFFFFFFFFFFFFFFFFFFFFF5D576E7357A4501DDFE92F46681B20A0) {... */\n      iszero\n      tag_317\n      jumpi\n        /* \"contracts/MetDropTestToken_flattened.sol\":40423:40424  0 */\n      0x00\n        /* \"contracts/MetDropTestToken_flattened.sol\":40427:40457  RecoverError.InvalidSignatureS */\n      0x03\n        /* \"contracts/MetDropTestToken_flattened.sol\":40459:40460  s */\n      dup6\n        /* \"contracts/MetDropTestToken_flattened.sol\":40407:40461  return (address(0), RecoverError.InvalidSignatureS, s) */\n      swap3\n      pop\n      swap3\n      pop\n      swap3\n      pop\n      jump(tag_316)\n        /* \"contracts/MetDropTestToken_flattened.sol\":40308:40472  if (uint256(s) > 0x7FFFFFFFFFFFFFFFFFFFFFFFFFFFFFFF5D576E7357A4501DDFE92F46681B20A0) {... */\n    tag_317:\n        /* \"contracts/MetDropTestToken_flattened.sol\":40566:40580  address signer */\n      0x00\n        /* \"contracts/MetDropTestToken_flattened.sol\":40583:40607  ecrecover(hash, v, r, s) */\n      0x01\n        /* \"contracts/MetDropTestToken_flattened.sol\":40593:40597  hash */\n      dup9\n        /* \"contracts/MetDropTestToken_flattened.sol\":40599:40600  v */\n      dup9\n        /* \"contracts/MetDropTestToken_flattened.sol\":40602:40603  r */\n      dup9\n        /* \"contracts/MetDropTestToken_flattened.sol\":40605:40606  s */\n      dup9\n        /* \"contracts/MetDropTestToken_flattened.sol\":40583:40607  ecrecover(hash, v, r, s) */\n      mload(0x40)\n      0x00\n      dup2\n      mstore\n      0x20\n      add\n      0x40\n      mstore\n      mload(0x40)\n      tag_318\n      swap5\n      swap4\n      swap3\n      swap2\n      swap1\n      tag_319\n      jump\t// in\n    tag_318:\n      0x20\n      mload(0x40)\n      0x20\n      dup2\n      sub\n      swap1\n      dup1\n      dup5\n      sub\n      swap1\n      dup6\n      gas\n      staticcall\n      iszero\n      dup1\n      iszero\n      tag_321\n      jumpi\n      returndatasize\n      0x00\n      dup1\n      returndatacopy\n      revert(0x00, returndatasize)\n    tag_321:\n      pop\n      pop\n      pop\n      mload(sub(mload(0x40), 0x20))\n        /* \"contracts/MetDropTestToken_flattened.sol\":40566:40607  address signer = ecrecover(hash, v, r, s) */\n      swap1\n      pop\n        /* \"contracts/MetDropTestToken_flattened.sol\":40639:40640  0 */\n      0x00\n        /* \"contracts/MetDropTestToken_flattened.sol\":40621:40641  signer == address(0) */\n      0xffffffffffffffffffffffffffffffffffffffff\n      and\n        /* \"contracts/MetDropTestToken_flattened.sol\":40621:40627  signer */\n      dup2\n        /* \"contracts/MetDropTestToken_flattened.sol\":40621:40641  signer == address(0) */\n      0xffffffffffffffffffffffffffffffffffffffff\n      and\n      sub\n        /* \"contracts/MetDropTestToken_flattened.sol\":40617:40730  if (signer == address(0)) {... */\n      tag_322\n      jumpi\n        /* \"contracts/MetDropTestToken_flattened.sol\":40673:40674  0 */\n      0x00\n        /* \"contracts/MetDropTestToken_flattened.sol\":40677:40706  RecoverError.InvalidSignature */\n      0x01\n        /* \"contracts/MetDropTestToken_flattened.sol\":40716:40717  0 */\n      0x00\n        /* \"contracts/MetDropTestToken_flattened.sol\":40708:40718  bytes32(0) */\n      dup1\n      shl\n        /* \"contracts/MetDropTestToken_flattened.sol\":40657:40719  return (address(0), RecoverError.InvalidSignature, bytes32(0)) */\n      swap4\n      pop\n      swap4\n      pop\n      swap4\n      pop\n      pop\n      jump(tag_316)\n        /* \"contracts/MetDropTestToken_flattened.sol\":40617:40730  if (signer == address(0)) {... */\n    tag_322:\n        /* \"contracts/MetDropTestToken_flattened.sol\":40748:40754  signer */\n      dup1\n        /* \"contracts/MetDropTestToken_flattened.sol\":40756:40776  RecoverError.NoError */\n      0x00\n        /* \"contracts/MetDropTestToken_flattened.sol\":40786:40787  0 */\n      dup1\n        /* \"contracts/MetDropTestToken_flattened.sol\":40778:40788  bytes32(0) */\n      0x00\n      shl\n        /* \"contracts/MetDropTestToken_flattened.sol\":40740:40789  return (signer, RecoverError.NoError, bytes32(0)) */\n      swap4\n      pop\n      swap4\n      pop\n      swap4\n      pop\n      pop\n        /* \"contracts/MetDropTestToken_flattened.sol\":39266:40796  function tryRecover(... */\n    tag_316:\n      swap5\n      pop\n      swap5\n      pop\n      swap5\n      swap2\n      pop\n      pop\n      jump\t// out\n        /* \"contracts/MetDropTestToken_flattened.sol\":41322:41854  function _throwError(RecoverError error, bytes32 errorArg) private pure {... */\n    tag_285:\n        /* \"contracts/MetDropTestToken_flattened.sol\":41417:41437  RecoverError.NoError */\n      0x00\n        /* \"contracts/MetDropTestToken_flattened.sol\":41408:41437  error == RecoverError.NoError */\n      0x03\n      dup2\n      gt\n      iszero\n      tag_324\n      jumpi\n      tag_325\n      tag_326\n      jump\t// in\n    tag_325:\n    tag_324:\n        /* \"contracts/MetDropTestToken_flattened.sol\":41408:41413  error */\n      dup3\n        /* \"contracts/MetDropTestToken_flattened.sol\":41408:41437  error == RecoverError.NoError */\n      0x03\n      dup2\n      gt\n      iszero\n      tag_327\n      jumpi\n      tag_328\n      tag_326\n      jump\t// in\n    tag_328:\n    tag_327:\n      sub\n        /* \"contracts/MetDropTestToken_flattened.sol\":41404:41848  if (error == RecoverError.NoError) {... */\n      iszero\n        /* \"contracts/MetDropTestToken_flattened.sol\":41453:41460  return; */\n      tag_323\n        /* \"contracts/MetDropTestToken_flattened.sol\":41404:41848  if (error == RecoverError.NoError) {... */\n      jumpi\n        /* \"contracts/MetDropTestToken_flattened.sol\":41513:41542  RecoverError.InvalidSignature */\n      0x01\n        /* \"contracts/MetDropTestToken_flattened.sol\":41504:41542  error == RecoverError.InvalidSignature */\n      0x03\n      dup2\n      gt\n      iszero\n      tag_331\n      jumpi\n      tag_332\n      tag_326\n      jump\t// in\n    tag_332:\n    tag_331:\n        /* \"contracts/MetDropTestToken_flattened.sol\":41504:41509  error */\n      dup3\n        /* \"contracts/MetDropTestToken_flattened.sol\":41504:41542  error == RecoverError.InvalidSignature */\n      0x03\n      dup2\n      gt\n      iszero\n      tag_333\n      jumpi\n      tag_334\n      tag_326\n      jump\t// in\n    tag_334:\n    tag_333:\n      sub\n        /* \"contracts/MetDropTestToken_flattened.sol\":41500:41848  if (error == RecoverError.InvalidSignature) {... */\n      tag_335\n      jumpi\n        /* \"contracts/MetDropTestToken_flattened.sol\":41565:41588  ECDSAInvalidSignature() */\n      mload(0x40)\n      0xf645eedf00000000000000000000000000000000000000000000000000000000\n      dup2\n      mstore\n      0x04\n      add\n      mload(0x40)\n      dup1\n      swap2\n      sub\n      swap1\n      revert\n        /* \"contracts/MetDropTestToken_flattened.sol\":41500:41848  if (error == RecoverError.InvalidSignature) {... */\n    tag_335:\n        /* \"contracts/MetDropTestToken_flattened.sol\":41618:41653  RecoverError.InvalidSignatureLength */\n      0x02\n        /* \"contracts/MetDropTestToken_flattened.sol\":41609:41653  error == RecoverError.InvalidSignatureLength */\n      0x03\n      dup2\n      gt\n      iszero\n      tag_337\n      jumpi\n      tag_338\n      tag_326\n      jump\t// in\n    tag_338:\n    tag_337:\n        /* \"contracts/MetDropTestToken_flattened.sol\":41609:41614  error */\n      dup3\n        /* \"contracts/MetDropTestToken_flattened.sol\":41609:41653  error == RecoverError.InvalidSignatureLength */\n      0x03\n      dup2\n      gt\n      iszero\n      tag_339\n      jumpi\n      tag_340\n      tag_326\n      jump\t// in\n    tag_340:\n    tag_339:\n      sub\n        /* \"contracts/MetDropTestToken_flattened.sol\":41605:41848  if (error == RecoverError.InvalidSignatureLength) {... */\n      tag_341\n      jumpi\n        /* \"contracts/MetDropTestToken_flattened.sol\":41712:41720  errorArg */\n      dup1\n        /* \"contracts/MetDropTestToken_flattened.sol\":41704:41721  uint256(errorArg) */\n      0x00\n      shr\n        /* \"contracts/MetDropTestToken_flattened.sol\":41676:41722  ECDSAInvalidSignatureLength(uint256(errorArg)) */\n      mload(0x40)\n      0xfce698f700000000000000000000000000000000000000000000000000000000\n      dup2\n      mstore\n      0x04\n      add\n      tag_342\n      swap2\n      swap1\n      tag_42\n      jump\t// in\n    tag_342:\n      mload(0x40)\n      dup1\n      swap2\n      sub\n      swap1\n      revert\n        /* \"contracts/MetDropTestToken_flattened.sol\":41605:41848  if (error == RecoverError.InvalidSignatureLength) {... */\n    tag_341:\n        /* \"contracts/MetDropTestToken_flattened.sol\":41752:41782  RecoverError.InvalidSignatureS */\n      0x03\n        /* \"contracts/MetDropTestToken_flattened.sol\":41743:41782  error == RecoverError.InvalidSignatureS */\n      dup1\n      dup2\n      gt\n      iszero\n      tag_344\n      jumpi\n      tag_345\n      tag_326\n      jump\t// in\n    tag_345:\n    tag_344:\n        /* \"contracts/MetDropTestToken_flattened.sol\":41743:41748  error */\n      dup3\n        /* \"contracts/MetDropTestToken_flattened.sol\":41743:41782  error == RecoverError.InvalidSignatureS */\n      0x03\n      dup2\n      gt\n      iszero\n      tag_346\n      jumpi\n      tag_347\n      tag_326\n      jump\t// in\n    tag_347:\n    tag_346:\n      sub\n        /* \"contracts/MetDropTestToken_flattened.sol\":41739:41848  if (error == RecoverError.InvalidSignatureS) {... */\n      tag_348\n      jumpi\n        /* \"contracts/MetDropTestToken_flattened.sol\":41828:41836  errorArg */\n      dup1\n        /* \"contracts/MetDropTestToken_flattened.sol\":41805:41837  ECDSAInvalidSignatureS(errorArg) */\n      mload(0x40)\n      0xd78bce0c00000000000000000000000000000000000000000000000000000000\n      dup2\n      mstore\n      0x04\n      add\n      tag_349\n      swap2\n      swap1\n      tag_58\n      jump\t// in\n    tag_349:\n      mload(0x40)\n      dup1\n      swap2\n      sub\n      swap1\n      revert\n        /* \"contracts/MetDropTestToken_flattened.sol\":41739:41848  if (error == RecoverError.InvalidSignatureS) {... */\n    tag_348:\n        /* \"contracts/MetDropTestToken_flattened.sol\":41322:41854  function _throwError(RecoverError error, bytes32 errorArg) private pure {... */\n    tag_323:\n      pop\n      pop\n      jump\t// out\n        /* \"contracts/MetDropTestToken_flattened.sol\":27019:27164  function _update(address from, address to, uint256 value) internal virtual override whenNotPaused {... */\n    tag_295:\n        /* \"contracts/MetDropTestToken_flattened.sol\":24595:24614  _requireNotPaused() */\n      tag_351\n        /* \"contracts/MetDropTestToken_flattened.sol\":24595:24612  _requireNotPaused */\n      tag_267\n        /* \"contracts/MetDropTestToken_flattened.sol\":24595:24614  _requireNotPaused() */\n      jump\t// in\n    tag_351:\n        /* \"contracts/MetDropTestToken_flattened.sol\":27127:27157  super._update(from, to, value) */\n      tag_353\n        /* \"contracts/MetDropTestToken_flattened.sol\":27141:27145  from */\n      dup4\n        /* \"contracts/MetDropTestToken_flattened.sol\":27147:27149  to */\n      dup4\n        /* \"contracts/MetDropTestToken_flattened.sol\":27151:27156  value */\n      dup4\n        /* \"contracts/MetDropTestToken_flattened.sol\":27127:27140  super._update */\n      tag_354\n        /* \"contracts/MetDropTestToken_flattened.sol\":27127:27157  super._update(from, to, value) */\n      jump\t// in\n    tag_353:\n        /* \"contracts/MetDropTestToken_flattened.sol\":27019:27164  function _update(address from, address to, uint256 value) internal virtual override whenNotPaused {... */\n      pop\n      pop\n      pop\n      jump\t// out\n        /* \"contracts/MetDropTestToken_flattened.sol\":71103:71508  function toString(ShortString sstr) internal pure returns (string memory) {... */\n    tag_308:\n        /* \"contracts/MetDropTestToken_flattened.sol\":71162:71175  string memory */\n      0x60\n        /* \"contracts/MetDropTestToken_flattened.sol\":71187:71198  uint256 len */\n      0x00\n        /* \"contracts/MetDropTestToken_flattened.sol\":71201:71217  byteLength(sstr) */\n      tag_356\n        /* \"contracts/MetDropTestToken_flattened.sol\":71212:71216  sstr */\n      dup4\n        /* \"contracts/MetDropTestToken_flattened.sol\":71201:71211  byteLength */\n      tag_357\n        /* \"contracts/MetDropTestToken_flattened.sol\":71201:71217  byteLength(sstr) */\n      jump\t// in\n    tag_356:\n        /* \"contracts/MetDropTestToken_flattened.sol\":71187:71217  uint256 len = byteLength(sstr) */\n      swap1\n      pop\n        /* \"contracts/MetDropTestToken_flattened.sol\":71305:71322  string memory str */\n      0x00\n        /* \"contracts/MetDropTestToken_flattened.sol\":71336:71338  32 */\n      0x20\n        /* \"contracts/MetDropTestToken_flattened.sol\":71325:71339  new string(32) */\n      0xffffffffffffffff\n      dup2\n      gt\n      iszero\n      tag_358\n      jumpi\n      tag_359\n      tag_185\n      jump\t// in\n    tag_359:\n    tag_358:\n      mload(0x40)\n      swap1\n      dup1\n      dup3\n      mstore\n      dup1\n      0x1f\n      add\n      not(0x1f)\n      and\n      0x20\n      add\n      dup3\n      add\n      0x40\n      mstore\n      dup1\n      iszero\n      tag_360\n      jumpi\n      dup2\n      0x20\n      add\n      0x01\n      dup3\n      mul\n      dup1\n      calldatasize\n      dup4\n      calldatacopy\n      dup1\n      dup3\n      add\n      swap2\n      pop\n      pop\n      swap1\n      pop\n    tag_360:\n      pop\n        /* \"contracts/MetDropTestToken_flattened.sol\":71305:71339  string memory str = new string(32) */\n      swap1\n      pop\n        /* \"contracts/MetDropTestToken_flattened.sol\":71427:71430  len */\n      dup2\n        /* \"contracts/MetDropTestToken_flattened.sol\":71422:71425  str */\n      dup2\n        /* \"contracts/MetDropTestToken_flattened.sol\":71415:71431  mstore(str, len) */\n      mstore\n        /* \"contracts/MetDropTestToken_flattened.sol\":71467:71471  sstr */\n      dup4\n        /* \"contracts/MetDropTestToken_flattened.sol\":71460:71464  0x20 */\n      0x20\n        /* \"contracts/MetDropTestToken_flattened.sol\":71455:71458  str */\n      dup3\n        /* \"contracts/MetDropTestToken_flattened.sol\":71451:71465  add(str, 0x20) */\n      add\n        /* \"contracts/MetDropTestToken_flattened.sol\":71444:71472  mstore(add(str, 0x20), sstr) */\n      mstore\n        /* \"contracts/MetDropTestToken_flattened.sol\":71498:71501  str */\n      dup1\n        /* \"contracts/MetDropTestToken_flattened.sol\":71491:71501  return str */\n      swap3\n      pop\n      pop\n      pop\n        /* \"contracts/MetDropTestToken_flattened.sol\":71103:71508  function toString(ShortString sstr) internal pure returns (string memory) {... */\n      swap2\n      swap1\n      pop\n      jump\t// out\n        /* \"contracts/MetDropTestToken_flattened.sol\":17132:18239  function _update(address from, address to, uint256 value) internal virtual {... */\n    tag_354:\n        /* \"contracts/MetDropTestToken_flattened.sol\":17237:17238  0 */\n      0x00\n        /* \"contracts/MetDropTestToken_flattened.sol\":17221:17239  from == address(0) */\n      0xffffffffffffffffffffffffffffffffffffffff\n      and\n        /* \"contracts/MetDropTestToken_flattened.sol\":17221:17225  from */\n      dup4\n        /* \"contracts/MetDropTestToken_flattened.sol\":17221:17239  from == address(0) */\n      0xffffffffffffffffffffffffffffffffffffffff\n      and\n      sub\n        /* \"contracts/MetDropTestToken_flattened.sol\":17217:17757  if (from == address(0)) {... */\n      tag_362\n      jumpi\n        /* \"contracts/MetDropTestToken_flattened.sol\":17373:17378  value */\n      dup1\n        /* \"contracts/MetDropTestToken_flattened.sol\":17357:17369  _totalSupply */\n      0x02\n      0x00\n        /* \"contracts/MetDropTestToken_flattened.sol\":17357:17378  _totalSupply += value */\n      dup3\n      dup3\n      sload\n      tag_363\n      swap2\n      swap1\n      tag_364\n      jump\t// in\n    tag_363:\n      swap3\n      pop\n      pop\n      dup2\n      swap1\n      sstore\n      pop\n        /* \"contracts/MetDropTestToken_flattened.sol\":17217:17757  if (from == address(0)) {... */\n      jump(tag_365)\n    tag_362:\n        /* \"contracts/MetDropTestToken_flattened.sol\":17409:17428  uint256 fromBalance */\n      0x00\n        /* \"contracts/MetDropTestToken_flattened.sol\":17431:17440  _balances */\n      dup1\n        /* \"contracts/MetDropTestToken_flattened.sol\":17431:17446  _balances[from] */\n      0x00\n        /* \"contracts/MetDropTestToken_flattened.sol\":17441:17445  from */\n      dup6\n        /* \"contracts/MetDropTestToken_flattened.sol\":17431:17446  _balances[from] */\n      0xffffffffffffffffffffffffffffffffffffffff\n      and\n      0xffffffffffffffffffffffffffffffffffffffff\n      and\n      dup2\n      mstore\n      0x20\n      add\n      swap1\n      dup2\n      mstore\n      0x20\n      add\n      0x00\n      keccak256\n      sload\n        /* \"contracts/MetDropTestToken_flattened.sol\":17409:17446  uint256 fromBalance = _balances[from] */\n      swap1\n      pop\n        /* \"contracts/MetDropTestToken_flattened.sol\":17478:17483  value */\n      dup2\n        /* \"contracts/MetDropTestToken_flattened.sol\":17464:17475  fromBalance */\n      dup2\n        /* \"contracts/MetDropTestToken_flattened.sol\":17464:17483  fromBalance < value */\n      lt\n        /* \"contracts/MetDropTestToken_flattened.sol\":17460:17575  if (fromBalance < value) {... */\n      iszero\n      tag_366\n      jumpi\n        /* \"contracts/MetDropTestToken_flattened.sol\":17535:17539  from */\n      dup4\n        /* \"contracts/MetDropTestToken_flattened.sol\":17541:17552  fromBalance */\n      dup2\n        /* \"contracts/MetDropTestToken_flattened.sol\":17554:17559  value */\n      dup4\n        /* \"contracts/MetDropTestToken_flattened.sol\":17510:17560  ERC20InsufficientBalance(from, fromBalance, value) */\n      mload(0x40)\n      0xe450d38c00000000000000000000000000000000000000000000000000000000\n      dup2\n      mstore\n      0x04\n      add\n      tag_367\n      swap4\n      swap3\n      swap2\n      swap1\n      tag_233\n      jump\t// in\n    tag_367:\n      mload(0x40)\n      dup1\n      swap2\n      sub\n      swap1\n      revert\n        /* \"contracts/MetDropTestToken_flattened.sol\":17460:17575  if (fromBalance < value) {... */\n    tag_366:\n        /* \"contracts/MetDropTestToken_flattened.sol\":17727:17732  value */\n      dup2\n        /* \"contracts/MetDropTestToken_flattened.sol\":17713:17724  fromBalance */\n      dup2\n        /* \"contracts/MetDropTestToken_flattened.sol\":17713:17732  fromBalance - value */\n      sub\n        /* \"contracts/MetDropTestToken_flattened.sol\":17695:17704  _balances */\n      0x00\n        /* \"contracts/MetDropTestToken_flattened.sol\":17695:17710  _balances[from] */\n      dup1\n        /* \"contracts/MetDropTestToken_flattened.sol\":17705:17709  from */\n      dup7\n        /* \"contracts/MetDropTestToken_flattened.sol\":17695:17710  _balances[from] */\n      0xffffffffffffffffffffffffffffffffffffffff\n      and\n      0xffffffffffffffffffffffffffffffffffffffff\n      and\n      dup2\n      mstore\n      0x20\n      add\n      swap1\n      dup2\n      mstore\n      0x20\n      add\n      0x00\n      keccak256\n        /* \"contracts/MetDropTestToken_flattened.sol\":17695:17732  _balances[from] = fromBalance - value */\n      dup2\n      swap1\n      sstore\n      pop\n        /* \"contracts/MetDropTestToken_flattened.sol\":17395:17757  {... */\n      pop\n        /* \"contracts/MetDropTestToken_flattened.sol\":17217:17757  if (from == address(0)) {... */\n    tag_365:\n        /* \"contracts/MetDropTestToken_flattened.sol\":17785:17786  0 */\n      0x00\n        /* \"contracts/MetDropTestToken_flattened.sol\":17771:17787  to == address(0) */\n      0xffffffffffffffffffffffffffffffffffffffff\n      and\n        /* \"contracts/MetDropTestToken_flattened.sol\":17771:17773  to */\n      dup3\n        /* \"contracts/MetDropTestToken_flattened.sol\":17771:17787  to == address(0) */\n      0xffffffffffffffffffffffffffffffffffffffff\n      and\n      sub\n        /* \"contracts/MetDropTestToken_flattened.sol\":17767:18192  if (to == address(0)) {... */\n      tag_368\n      jumpi\n        /* \"contracts/MetDropTestToken_flattened.sol\":17950:17955  value */\n      dup1\n        /* \"contracts/MetDropTestToken_flattened.sol\":17934:17946  _totalSupply */\n      0x02\n      0x00\n        /* \"contracts/MetDropTestToken_flattened.sol\":17934:17955  _totalSupply -= value */\n      dup3\n      dup3\n      sload\n      sub\n      swap3\n      pop\n      pop\n      dup2\n      swap1\n      sstore\n      pop\n        /* \"contracts/MetDropTestToken_flattened.sol\":17767:18192  if (to == address(0)) {... */\n      jump(tag_369)\n    tag_368:\n        /* \"contracts/MetDropTestToken_flattened.sol\":18162:18167  value */\n      dup1\n        /* \"contracts/MetDropTestToken_flattened.sol\":18145:18154  _balances */\n      0x00\n        /* \"contracts/MetDropTestToken_flattened.sol\":18145:18158  _balances[to] */\n      dup1\n        /* \"contracts/MetDropTestToken_flattened.sol\":18155:18157  to */\n      dup5\n        /* \"contracts/MetDropTestToken_flattened.sol\":18145:18158  _balances[to] */\n      0xffffffffffffffffffffffffffffffffffffffff\n      and\n      0xffffffffffffffffffffffffffffffffffffffff\n      and\n      dup2\n      mstore\n      0x20\n      add\n      swap1\n      dup2\n      mstore\n      0x20\n      add\n      0x00\n      keccak256\n      0x00\n        /* \"contracts/MetDropTestToken_flattened.sol\":18145:18167  _balances[to] += value */\n      dup3\n      dup3\n      sload\n      add\n      swap3\n      pop\n      pop\n      dup2\n      swap1\n      sstore\n      pop\n        /* \"contracts/MetDropTestToken_flattened.sol\":17767:18192  if (to == address(0)) {... */\n    tag_369:\n        /* \"contracts/MetDropTestToken_flattened.sol\":18222:18224  to */\n      dup2\n        /* \"contracts/MetDropTestToken_flattened.sol\":18207:18232  Transfer(from, to, value) */\n      0xffffffffffffffffffffffffffffffffffffffff\n      and\n        /* \"contracts/MetDropTestToken_flattened.sol\":18216:18220  from */\n      dup4\n        /* \"contracts/MetDropTestToken_flattened.sol\":18207:18232  Transfer(from, to, value) */\n      0xffffffffffffffffffffffffffffffffffffffff\n      and\n      0xddf252ad1be2c89b69c2b068fc378daa952ba7f163c4a11628f55a4df523b3ef\n        /* \"contracts/MetDropTestToken_flattened.sol\":18226:18231  value */\n      dup4\n        /* \"contracts/MetDropTestToken_flattened.sol\":18207:18232  Transfer(from, to, value) */\n      mload(0x40)\n      tag_370\n      swap2\n      swap1\n      tag_42\n      jump\t// in\n    tag_370:\n      mload(0x40)\n      dup1\n      swap2\n      sub\n      swap1\n      log3\n        /* \"contracts/MetDropTestToken_flattened.sol\":17132:18239  function _update(address from, address to, uint256 value) internal virtual {... */\n      pop\n      pop\n      pop\n      jump\t// out\n        /* \"contracts/MetDropTestToken_flattened.sol\":71580:71825  function byteLength(ShortString sstr) internal pure returns (uint256) {... */\n    tag_357:\n        /* \"contracts/MetDropTestToken_flattened.sol\":71641:71648  uint256 */\n      0x00\n        /* \"contracts/MetDropTestToken_flattened.sol\":71660:71674  uint256 result */\n      dup1\n        /* \"contracts/MetDropTestToken_flattened.sol\":71713:71717  0xFF */\n      0xff\n        /* \"contracts/MetDropTestToken_flattened.sol\":71704:71708  sstr */\n      dup4\n        /* \"contracts/MetDropTestToken_flattened.sol\":71677:71710  uint256(ShortString.unwrap(sstr)) */\n      0x00\n      shr\n        /* \"contracts/MetDropTestToken_flattened.sol\":71677:71717  uint256(ShortString.unwrap(sstr)) & 0xFF */\n      and\n        /* \"contracts/MetDropTestToken_flattened.sol\":71660:71717  uint256 result = uint256(ShortString.unwrap(sstr)) & 0xFF */\n      swap1\n      pop\n        /* \"contracts/MetDropTestToken_flattened.sol\":71740:71742  31 */\n      0x1f\n        /* \"contracts/MetDropTestToken_flattened.sol\":71731:71737  result */\n      dup2\n        /* \"contracts/MetDropTestToken_flattened.sol\":71731:71742  result > 31 */\n      gt\n        /* \"contracts/MetDropTestToken_flattened.sol\":71727:71796  if (result > 31) {... */\n      iszero\n      tag_372\n      jumpi\n        /* \"contracts/MetDropTestToken_flattened.sol\":71765:71785  InvalidShortString() */\n      mload(0x40)\n      0xb3512b0c00000000000000000000000000000000000000000000000000000000\n      dup2\n      mstore\n      0x04\n      add\n      mload(0x40)\n      dup1\n      swap2\n      sub\n      swap1\n      revert\n        /* \"contracts/MetDropTestToken_flattened.sol\":71727:71796  if (result > 31) {... */\n    tag_372:\n        /* \"contracts/MetDropTestToken_flattened.sol\":71812:71818  result */\n      dup1\n        /* \"contracts/MetDropTestToken_flattened.sol\":71805:71818  return result */\n      swap2\n      pop\n      pop\n        /* \"contracts/MetDropTestToken_flattened.sol\":71580:71825  function byteLength(ShortString sstr) internal pure returns (uint256) {... */\n      swap2\n      swap1\n      pop\n      jump\t// out\n        /* \"#utility.yul\":7:106   */\n    tag_373:\n        /* \"#utility.yul\":59:65   */\n      0x00\n        /* \"#utility.yul\":93:98   */\n      dup2\n        /* \"#utility.yul\":87:99   */\n      mload\n        /* \"#utility.yul\":77:99   */\n      swap1\n      pop\n        /* \"#utility.yul\":7:106   */\n      swap2\n      swap1\n      pop\n      jump\t// out\n        /* \"#utility.yul\":112:281   */\n    tag_374:\n        /* \"#utility.yul\":196:207   */\n      0x00\n        /* \"#utility.yul\":230:236   */\n      dup3\n        /* \"#utility.yul\":225:228   */\n      dup3\n        /* \"#utility.yul\":218:237   */\n      mstore\n        /* \"#utility.yul\":270:274   */\n      0x20\n        /* \"#utility.yul\":265:268   */\n      dup3\n        /* \"#utility.yul\":261:275   */\n      add\n        /* \"#utility.yul\":246:275   */\n      swap1\n      pop\n        /* \"#utility.yul\":112:281   */\n      swap3\n      swap2\n      pop\n      pop\n      jump\t// out\n        /* \"#utility.yul\":287:426   */\n    tag_375:\n        /* \"#utility.yul\":376:382   */\n      dup3\n        /* \"#utility.yul\":371:374   */\n      dup2\n        /* \"#utility.yul\":366:369   */\n      dup4\n        /* \"#utility.yul\":360:383   */\n      mcopy\n        /* \"#utility.yul\":417:418   */\n      0x00\n        /* \"#utility.yul\":408:414   */\n      dup4\n        /* \"#utility.yul\":403:406   */\n      dup4\n        /* \"#utility.yul\":399:415   */\n      add\n        /* \"#utility.yul\":392:419   */\n      mstore\n        /* \"#utility.yul\":287:426   */\n      pop\n      pop\n      pop\n      jump\t// out\n        /* \"#utility.yul\":432:534   */\n    tag_376:\n        /* \"#utility.yul\":473:479   */\n      0x00\n        /* \"#utility.yul\":524:526   */\n      0x1f\n        /* \"#utility.yul\":520:527   */\n      not\n        /* \"#utility.yul\":515:517   */\n      0x1f\n        /* \"#utility.yul\":508:513   */\n      dup4\n        /* \"#utility.yul\":504:518   */\n      add\n        /* \"#utility.yul\":500:528   */\n      and\n        /* \"#utility.yul\":490:528   */\n      swap1\n      pop\n        /* \"#utility.yul\":432:534   */\n      swap2\n      swap1\n      pop\n      jump\t// out\n        /* \"#utility.yul\":540:917   */\n    tag_377:\n        /* \"#utility.yul\":628:631   */\n      0x00\n        /* \"#utility.yul\":656:695   */\n      tag_419\n        /* \"#utility.yul\":689:694   */\n      dup3\n        /* \"#utility.yul\":656:695   */\n      tag_373\n      jump\t// in\n    tag_419:\n        /* \"#utility.yul\":711:782   */\n      tag_420\n        /* \"#utility.yul\":775:781   */\n      dup2\n        /* \"#utility.yul\":770:773   */\n      dup6\n        /* \"#utility.yul\":711:782   */\n      tag_374\n      jump\t// in\n    tag_420:\n        /* \"#utility.yul\":704:782   */\n      swap4\n      pop\n        /* \"#utility.yul\":791:856   */\n      tag_421\n        /* \"#utility.yul\":849:855   */\n      dup2\n        /* \"#utility.yul\":844:847   */\n      dup6\n        /* \"#utility.yul\":837:841   */\n      0x20\n        /* \"#utility.yul\":830:835   */\n      dup7\n        /* \"#utility.yul\":826:842   */\n      add\n        /* \"#utility.yul\":791:856   */\n      tag_375\n      jump\t// in\n    tag_421:\n        /* \"#utility.yul\":881:910   */\n      tag_422\n        /* \"#utility.yul\":903:909   */\n      dup2\n        /* \"#utility.yul\":881:910   */\n      tag_376\n      jump\t// in\n    tag_422:\n        /* \"#utility.yul\":876:879   */\n      dup5\n        /* \"#utility.yul\":872:911   */\n      add\n        /* \"#utility.yul\":865:911   */\n      swap2\n      pop\n        /* \"#utility.yul\":632:917   */\n      pop\n        /* \"#utility.yul\":540:917   */\n      swap3\n      swap2\n      pop\n      pop\n      jump\t// out\n        /* \"#utility.yul\":923:1236   */\n    tag_32:\n        /* \"#utility.yul\":1036:1040   */\n      0x00\n        /* \"#utility.yul\":1074:1076   */\n      0x20\n        /* \"#utility.yul\":1063:1072   */\n      dup3\n        /* \"#utility.yul\":1059:1077   */\n      add\n        /* \"#utility.yul\":1051:1077   */\n      swap1\n      pop\n        /* \"#utility.yul\":1123:1132   */\n      dup2\n        /* \"#utility.yul\":1117:1121   */\n      dup2\n        /* \"#utility.yul\":1113:1133   */\n      sub\n        /* \"#utility.yul\":1109:1110   */\n      0x00\n        /* \"#utility.yul\":1098:1107   */\n      dup4\n        /* \"#utility.yul\":1094:1111   */\n      add\n        /* \"#utility.yul\":1087:1134   */\n      mstore\n        /* \"#utility.yul\":1151:1229   */\n      tag_424\n        /* \"#utility.yul\":1224:1228   */\n      dup2\n        /* \"#utility.yul\":1215:1221   */\n      dup5\n        /* \"#utility.yul\":1151:1229   */\n      tag_377\n      jump\t// in\n    tag_424:\n        /* \"#utility.yul\":1143:1229   */\n      swap1\n      pop\n        /* \"#utility.yul\":923:1236   */\n      swap3\n      swap2\n      pop\n      pop\n      jump\t// out\n        /* \"#utility.yul\":1323:1440   */\n    tag_379:\n        /* \"#utility.yul\":1432:1433   */\n      0x00\n        /* \"#utility.yul\":1429:1430   */\n      dup1\n        /* \"#utility.yul\":1422:1434   */\n      revert\n        /* \"#utility.yul\":1569:1695   */\n    tag_381:\n        /* \"#utility.yul\":1606:1613   */\n      0x00\n        /* \"#utility.yul\":1646:1688   */\n      0xffffffffffffffffffffffffffffffffffffffff\n        /* \"#utility.yul\":1639:1644   */\n      dup3\n        /* \"#utility.yul\":1635:1689   */\n      and\n        /* \"#utility.yul\":1624:1689   */\n      swap1\n      pop\n        /* \"#utility.yul\":1569:1695   */\n      swap2\n      swap1\n      pop\n      jump\t// out\n        /* \"#utility.yul\":1701:1797   */\n    tag_382:\n        /* \"#utility.yul\":1738:1745   */\n      0x00\n        /* \"#utility.yul\":1767:1791   */\n      tag_430\n        /* \"#utility.yul\":1785:1790   */\n      dup3\n        /* \"#utility.yul\":1767:1791   */\n      tag_381\n      jump\t// in\n    tag_430:\n        /* \"#utility.yul\":1756:1791   */\n      swap1\n      pop\n        /* \"#utility.yul\":1701:1797   */\n      swap2\n      swap1\n      pop\n      jump\t// out\n        /* \"#utility.yul\":1803:1925   */\n    tag_383:\n        /* \"#utility.yul\":1876:1900   */\n      tag_432\n        /* \"#utility.yul\":1894:1899   */\n      dup2\n        /* \"#utility.yul\":1876:1900   */\n      tag_382\n      jump\t// in\n    tag_432:\n        /* \"#utility.yul\":1869:1874   */\n      dup2\n        /* \"#utility.yul\":1866:1901   */\n      eq\n        /* \"#utility.yul\":1856:1919   */\n      tag_433\n      jumpi\n        /* \"#utility.yul\":1915:1916   */\n      0x00\n        /* \"#utility.yul\":1912:1913   */\n      dup1\n        /* \"#utility.yul\":1905:1917   */\n      revert\n        /* \"#utility.yul\":1856:1919   */\n    tag_433:\n        /* \"#utility.yul\":1803:1925   */\n      pop\n      jump\t// out\n        /* \"#utility.yul\":1931:2070   */\n    tag_384:\n        /* \"#utility.yul\":1977:1982   */\n      0x00\n        /* \"#utility.yul\":2015:2021   */\n      dup2\n        /* \"#utility.yul\":2002:2022   */\n      calldataload\n        /* \"#utility.yul\":1993:2022   */\n      swap1\n      pop\n        /* \"#utility.yul\":2031:2064   */\n      tag_435\n        /* \"#utility.yul\":2058:2063   */\n      dup2\n        /* \"#utility.yul\":2031:2064   */\n      tag_383\n      jump\t// in\n    tag_435:\n        /* \"#utility.yul\":1931:2070   */\n      swap3\n      swap2\n      pop\n      pop\n      jump\t// out\n        /* \"#utility.yul\":2076:2153   */\n    tag_385:\n        /* \"#utility.yul\":2113:2120   */\n      0x00\n        /* \"#utility.yul\":2142:2147   */\n      dup2\n        /* \"#utility.yul\":2131:2147   */\n      swap1\n      pop\n        /* \"#utility.yul\":2076:2153   */\n      swap2\n      swap1\n      pop\n      jump\t// out\n        /* \"#utility.yul\":2159:2281   */\n    tag_386:\n        /* \"#utility.yul\":2232:2256   */\n      tag_438\n        /* \"#utility.yul\":2250:2255   */\n      dup2\n        /* \"#utility.yul\":2232:2256   */\n      tag_385\n      jump\t// in\n    tag_438:\n        /* \"#utility.yul\":2225:2230   */\n      dup2\n        /* \"#utility.yul\":2222:2257   */\n      eq\n        /* \"#utility.yul\":2212:2275   */\n      tag_439\n      jumpi\n        /* \"#utility.yul\":2271:2272   */\n      0x00\n        /* \"#utility.yul\":2268:2269   */\n      dup1\n        /* \"#utility.yul\":2261:2273   */\n      revert\n        /* \"#utility.yul\":2212:2275   */\n    tag_439:\n        /* \"#utility.yul\":2159:2281   */\n      pop\n      jump\t// out\n        /* \"#utility.yul\":2287:2426   */\n    tag_387:\n        /* \"#utility.yul\":2333:2338   */\n      0x00\n        /* \"#utility.yul\":2371:2377   */\n      dup2\n        /* \"#utility.yul\":2358:2378   */\n      calldataload\n        /* \"#utility.yul\":2349:2378   */\n      swap1\n      pop\n        /* \"#utility.yul\":2387:2420   */\n      tag_441\n        /* \"#utility.yul\":2414:2419   */\n      dup2\n        /* \"#utility.yul\":2387:2420   */\n      tag_386\n      jump\t// in\n    tag_441:\n        /* \"#utility.yul\":2287:2426   */\n      swap3\n      swap2\n      pop\n      pop\n      jump\t// out\n        /* \"#utility.yul\":2432:2906   */\n    tag_35:\n        /* \"#utility.yul\":2500:2506   */\n      0x00\n        /* \"#utility.yul\":2508:2514   */\n      dup1\n        /* \"#utility.yul\":2557:2559   */\n      0x40\n        /* \"#utility.yul\":2545:2554   */\n      dup4\n        /* \"#utility.yul\":2536:2543   */\n      dup6\n        /* \"#utility.yul\":2532:2555   */\n      sub\n        /* \"#utility.yul\":2528:2560   */\n      slt\n        /* \"#utility.yul\":2525:2644   */\n      iszero\n      tag_443\n      jumpi\n        /* \"#utility.yul\":2563:2642   */\n      tag_444\n      tag_379\n      jump\t// in\n    tag_444:\n        /* \"#utility.yul\":2525:2644   */\n    tag_443:\n        /* \"#utility.yul\":2683:2684   */\n      0x00\n        /* \"#utility.yul\":2708:2761   */\n      tag_445\n        /* \"#utility.yul\":2753:2760   */\n      dup6\n        /* \"#utility.yul\":2744:2750   */\n      dup3\n        /* \"#utility.yul\":2733:2742   */\n      dup7\n        /* \"#utility.yul\":2729:2751   */\n      add\n        /* \"#utility.yul\":2708:2761   */\n      tag_384\n      jump\t// in\n    tag_445:\n        /* \"#utility.yul\":2698:2761   */\n      swap3\n      pop\n        /* \"#utility.yul\":2654:2771   */\n      pop\n        /* \"#utility.yul\":2810:2812   */\n      0x20\n        /* \"#utility.yul\":2836:2889   */\n      tag_446\n        /* \"#utility.yul\":2881:2888   */\n      dup6\n        /* \"#utility.yul\":2872:2878   */\n      dup3\n        /* \"#utility.yul\":2861:2870   */\n      dup7\n        /* \"#utility.yul\":2857:2879   */\n      add\n        /* \"#utility.yul\":2836:2889   */\n      tag_387\n      jump\t// in\n    tag_446:\n        /* \"#utility.yul\":2826:2889   */\n      swap2\n      pop\n        /* \"#utility.yul\":2781:2899   */\n      pop\n        /* \"#utility.yul\":2432:2906   */\n      swap3\n      pop\n      swap3\n      swap1\n      pop\n      jump\t// out\n        /* \"#utility.yul\":2912:3002   */\n    tag_388:\n        /* \"#utility.yul\":2946:2953   */\n      0x00\n        /* \"#utility.yul\":2989:2994   */\n      dup2\n        /* \"#utility.yul\":2982:2995   */\n      iszero\n        /* \"#utility.yul\":2975:2996   */\n      iszero\n        /* \"#utility.yul\":2964:2996   */\n      swap1\n      pop\n        /* \"#utility.yul\":2912:3002   */\n      swap2\n      swap1\n      pop\n      jump\t// out\n        /* \"#utility.yul\":3008:3117   */\n    tag_389:\n        /* \"#utility.yul\":3089:3110   */\n      tag_449\n        /* \"#utility.yul\":3104:3109   */\n      dup2\n        /* \"#utility.yul\":3089:3110   */\n      tag_388\n      jump\t// in\n    tag_449:\n        /* \"#utility.yul\":3084:3087   */\n      dup3\n        /* \"#utility.yul\":3077:3111   */\n      mstore\n        /* \"#utility.yul\":3008:3117   */\n      pop\n      pop\n      jump\t// out\n        /* \"#utility.yul\":3123:3333   */\n    tag_38:\n        /* \"#utility.yul\":3210:3214   */\n      0x00\n        /* \"#utility.yul\":3248:3250   */\n      0x20\n        /* \"#utility.yul\":3237:3246   */\n      dup3\n        /* \"#utility.yul\":3233:3251   */\n      add\n        /* \"#utility.yul\":3225:3251   */\n      swap1\n      pop\n        /* \"#utility.yul\":3261:3326   */\n      tag_451\n        /* \"#utility.yul\":3323:3324   */\n      0x00\n        /* \"#utility.yul\":3312:3321   */\n      dup4\n        /* \"#utility.yul\":3308:3325   */\n      add\n        /* \"#utility.yul\":3299:3305   */\n      dup5\n        /* \"#utility.yul\":3261:3326   */\n      tag_389\n      jump\t// in\n    tag_451:\n        /* \"#utility.yul\":3123:3333   */\n      swap3\n      swap2\n      pop\n      pop\n      jump\t// out\n        /* \"#utility.yul\":3339:3457   */\n    tag_390:\n        /* \"#utility.yul\":3426:3450   */\n      tag_453\n        /* \"#utility.yul\":3444:3449   */\n      dup2\n        /* \"#utility.yul\":3426:3450   */\n      tag_385\n      jump\t// in\n    tag_453:\n        /* \"#utility.yul\":3421:3424   */\n      dup3\n        /* \"#utility.yul\":3414:3451   */\n      mstore\n        /* \"#utility.yul\":3339:3457   */\n      pop\n      pop\n      jump\t// out\n        /* \"#utility.yul\":3463:3685   */\n    tag_42:\n        /* \"#utility.yul\":3556:3560   */\n      0x00\n        /* \"#utility.yul\":3594:3596   */\n      0x20\n        /* \"#utility.yul\":3583:3592   */\n      dup3\n        /* \"#utility.yul\":3579:3597   */\n      add\n        /* \"#utility.yul\":3571:3597   */\n      swap1\n      pop\n        /* \"#utility.yul\":3607:3678   */\n      tag_455\n        /* \"#utility.yul\":3675:3676   */\n      0x00\n        /* \"#utility.yul\":3664:3673   */\n      dup4\n        /* \"#utility.yul\":3660:3677   */\n      add\n        /* \"#utility.yul\":3651:3657   */\n      dup5\n        /* \"#utility.yul\":3607:3678   */\n      tag_390\n      jump\t// in\n    tag_455:\n        /* \"#utility.yul\":3463:3685   */\n      swap3\n      swap2\n      pop\n      pop\n      jump\t// out\n        /* \"#utility.yul\":3691:4310   */\n    tag_48:\n        /* \"#utility.yul\":3768:3774   */\n      0x00\n        /* \"#utility.yul\":3776:3782   */\n      dup1\n        /* \"#utility.yul\":3784:3790   */\n      0x00\n        /* \"#utility.yul\":3833:3835   */\n      0x60\n        /* \"#utility.yul\":3821:3830   */\n      dup5\n        /* \"#utility.yul\":3812:3819   */\n      dup7\n        /* \"#utility.yul\":3808:3831   */\n      sub\n        /* \"#utility.yul\":3804:3836   */\n      slt\n        /* \"#utility.yul\":3801:3920   */\n      iszero\n      tag_457\n      jumpi\n        /* \"#utility.yul\":3839:3918   */\n      tag_458\n      tag_379\n      jump\t// in\n    tag_458:\n        /* \"#utility.yul\":3801:3920   */\n    tag_457:\n        /* \"#utility.yul\":3959:3960   */\n      0x00\n        /* \"#utility.yul\":3984:4037   */\n      tag_459\n        /* \"#utility.yul\":4029:4036   */\n      dup7\n        /* \"#utility.yul\":4020:4026   */\n      dup3\n        /* \"#utility.yul\":4009:4018   */\n      dup8\n        /* \"#utility.yul\":4005:4027   */\n      add\n        /* \"#utility.yul\":3984:4037   */\n      tag_384\n      jump\t// in\n    tag_459:\n        /* \"#utility.yul\":3974:4037   */\n      swap4\n      pop\n        /* \"#utility.yul\":3930:4047   */\n      pop\n        /* \"#utility.yul\":4086:4088   */\n      0x20\n        /* \"#utility.yul\":4112:4165   */\n      tag_460\n        /* \"#utility.yul\":4157:4164   */\n      dup7\n        /* \"#utility.yul\":4148:4154   */\n      dup3\n        /* \"#utility.yul\":4137:4146   */\n      dup8\n        /* \"#utility.yul\":4133:4155   */\n      add\n        /* \"#utility.yul\":4112:4165   */\n      tag_384\n      jump\t// in\n    tag_460:\n        /* \"#utility.yul\":4102:4165   */\n      swap3\n      pop\n        /* \"#utility.yul\":4057:4175   */\n      pop\n        /* \"#utility.yul\":4214:4216   */\n      0x40\n        /* \"#utility.yul\":4240:4293   */\n      tag_461\n        /* \"#utility.yul\":4285:4292   */\n      dup7\n        /* \"#utility.yul\":4276:4282   */\n      dup3\n        /* \"#utility.yul\":4265:4274   */\n      dup8\n        /* \"#utility.yul\":4261:4283   */\n      add\n        /* \"#utility.yul\":4240:4293   */\n      tag_387\n      jump\t// in\n    tag_461:\n        /* \"#utility.yul\":4230:4293   */\n      swap2\n      pop\n        /* \"#utility.yul\":4185:4303   */\n      pop\n        /* \"#utility.yul\":3691:4310   */\n      swap3\n      pop\n      swap3\n      pop\n      swap3\n      jump\t// out\n        /* \"#utility.yul\":4316:4402   */\n    tag_391:\n        /* \"#utility.yul\":4351:4358   */\n      0x00\n        /* \"#utility.yul\":4391:4395   */\n      0xff\n        /* \"#utility.yul\":4384:4389   */\n      dup3\n        /* \"#utility.yul\":4380:4396   */\n      and\n        /* \"#utility.yul\":4369:4396   */\n      swap1\n      pop\n        /* \"#utility.yul\":4316:4402   */\n      swap2\n      swap1\n      pop\n      jump\t// out\n        /* \"#utility.yul\":4408:4520   */\n    tag_392:\n        /* \"#utility.yul\":4491:4513   */\n      tag_464\n        /* \"#utility.yul\":4507:4512   */\n      dup2\n        /* \"#utility.yul\":4491:4513   */\n      tag_391\n      jump\t// in\n    tag_464:\n        /* \"#utility.yul\":4486:4489   */\n      dup3\n        /* \"#utility.yul\":4479:4514   */\n      mstore\n        /* \"#utility.yul\":4408:4520   */\n      pop\n      pop\n      jump\t// out\n        /* \"#utility.yul\":4526:4740   */\n    tag_54:\n        /* \"#utility.yul\":4615:4619   */\n      0x00\n        /* \"#utility.yul\":4653:4655   */\n      0x20\n        /* \"#utility.yul\":4642:4651   */\n      dup3\n        /* \"#utility.yul\":4638:4656   */\n      add\n        /* \"#utility.yul\":4630:4656   */\n      swap1\n      pop\n        /* \"#utility.yul\":4666:4733   */\n      tag_466\n        /* \"#utility.yul\":4730:4731   */\n      0x00\n        /* \"#utility.yul\":4719:4728   */\n      dup4\n        /* \"#utility.yul\":4715:4732   */\n      add\n        /* \"#utility.yul\":4706:4712   */\n      dup5\n        /* \"#utility.yul\":4666:4733   */\n      tag_392\n      jump\t// in\n    tag_466:\n        /* \"#utility.yul\":4526:4740   */\n      swap3\n      swap2\n      pop\n      pop\n      jump\t// out\n        /* \"#utility.yul\":4746:4823   */\n    tag_393:\n        /* \"#utility.yul\":4783:4790   */\n      0x00\n        /* \"#utility.yul\":4812:4817   */\n      dup2\n        /* \"#utility.yul\":4801:4817   */\n      swap1\n      pop\n        /* \"#utility.yul\":4746:4823   */\n      swap2\n      swap1\n      pop\n      jump\t// out\n        /* \"#utility.yul\":4829:4947   */\n    tag_394:\n        /* \"#utility.yul\":4916:4940   */\n      tag_469\n        /* \"#utility.yul\":4934:4939   */\n      dup2\n        /* \"#utility.yul\":4916:4940   */\n      tag_393\n      jump\t// in\n    tag_469:\n        /* \"#utility.yul\":4911:4914   */\n      dup3\n        /* \"#utility.yul\":4904:4941   */\n      mstore\n        /* \"#utility.yul\":4829:4947   */\n      pop\n      pop\n      jump\t// out\n        /* \"#utility.yul\":4953:5175   */\n    tag_58:\n        /* \"#utility.yul\":5046:5050   */\n      0x00\n        /* \"#utility.yul\":5084:5086   */\n      0x20\n        /* \"#utility.yul\":5073:5082   */\n      dup3\n        /* \"#utility.yul\":5069:5087   */\n      add\n        /* \"#utility.yul\":5061:5087   */\n      swap1\n      pop\n        /* \"#utility.yul\":5097:5168   */\n      tag_471\n        /* \"#utility.yul\":5165:5166   */\n      0x00\n        /* \"#utility.yul\":5154:5163   */\n      dup4\n        /* \"#utility.yul\":5150:5167   */\n      add\n        /* \"#utility.yul\":5141:5147   */\n      dup5\n        /* \"#utility.yul\":5097:5168   */\n      tag_394\n      jump\t// in\n    tag_471:\n        /* \"#utility.yul\":4953:5175   */\n      swap3\n      swap2\n      pop\n      pop\n      jump\t// out\n        /* \"#utility.yul\":5181:5510   */\n    tag_66:\n        /* \"#utility.yul\":5240:5246   */\n      0x00\n        /* \"#utility.yul\":5289:5291   */\n      0x20\n        /* \"#utility.yul\":5277:5286   */\n      dup3\n        /* \"#utility.yul\":5268:5275   */\n      dup5\n        /* \"#utility.yul\":5264:5287   */\n      sub\n        /* \"#utility.yul\":5260:5292   */\n      slt\n        /* \"#utility.yul\":5257:5376   */\n      iszero\n      tag_473\n      jumpi\n        /* \"#utility.yul\":5295:5374   */\n      tag_474\n      tag_379\n      jump\t// in\n    tag_474:\n        /* \"#utility.yul\":5257:5376   */\n    tag_473:\n        /* \"#utility.yul\":5415:5416   */\n      0x00\n        /* \"#utility.yul\":5440:5493   */\n      tag_475\n        /* \"#utility.yul\":5485:5492   */\n      dup5\n        /* \"#utility.yul\":5476:5482   */\n      dup3\n        /* \"#utility.yul\":5465:5474   */\n      dup6\n        /* \"#utility.yul\":5461:5483   */\n      add\n        /* \"#utility.yul\":5440:5493   */\n      tag_387\n      jump\t// in\n    tag_475:\n        /* \"#utility.yul\":5430:5493   */\n      swap2\n      pop\n        /* \"#utility.yul\":5386:5503   */\n      pop\n        /* \"#utility.yul\":5181:5510   */\n      swap3\n      swap2\n      pop\n      pop\n      jump\t// out\n        /* \"#utility.yul\":5516:5845   */\n    tag_73:\n        /* \"#utility.yul\":5575:5581   */\n      0x00\n        /* \"#utility.yul\":5624:5626   */\n      0x20\n        /* \"#utility.yul\":5612:5621   */\n      dup3\n        /* \"#utility.yul\":5603:5610   */\n      dup5\n        /* \"#utility.yul\":5599:5622   */\n      sub\n        /* \"#utility.yul\":5595:5627   */\n      slt\n        /* \"#utility.yul\":5592:5711   */\n      iszero\n      tag_477\n      jumpi\n        /* \"#utility.yul\":5630:5709   */\n      tag_478\n      tag_379\n      jump\t// in\n    tag_478:\n        /* \"#utility.yul\":5592:5711   */\n    tag_477:\n        /* \"#utility.yul\":5750:5751   */\n      0x00\n        /* \"#utility.yul\":5775:5828   */\n      tag_479\n        /* \"#utility.yul\":5820:5827   */\n      dup5\n        /* \"#utility.yul\":5811:5817   */\n      dup3\n        /* \"#utility.yul\":5800:5809   */\n      dup6\n        /* \"#utility.yul\":5796:5818   */\n      add\n        /* \"#utility.yul\":5775:5828   */\n      tag_384\n      jump\t// in\n    tag_479:\n        /* \"#utility.yul\":5765:5828   */\n      swap2\n      pop\n        /* \"#utility.yul\":5721:5838   */\n      pop\n        /* \"#utility.yul\":5516:5845   */\n      swap3\n      swap2\n      pop\n      pop\n      jump\t// out\n        /* \"#utility.yul\":5851:6000   */\n    tag_395:\n        /* \"#utility.yul\":5887:5894   */\n      0x00\n        /* \"#utility.yul\":5927:5993   */\n      0xff00000000000000000000000000000000000000000000000000000000000000\n        /* \"#utility.yul\":5920:5925   */\n      dup3\n        /* \"#utility.yul\":5916:5994   */\n      and\n        /* \"#utility.yul\":5905:5994   */\n      swap1\n      pop\n        /* \"#utility.yul\":5851:6000   */\n      swap2\n      swap1\n      pop\n      jump\t// out\n        /* \"#utility.yul\":6006:6121   */\n    tag_396:\n        /* \"#utility.yul\":6091:6114   */\n      tag_482\n        /* \"#utility.yul\":6108:6113   */\n      dup2\n        /* \"#utility.yul\":6091:6114   */\n      tag_395\n      jump\t// in\n    tag_482:\n        /* \"#utility.yul\":6086:6089   */\n      dup3\n        /* \"#utility.yul\":6079:6115   */\n      mstore\n        /* \"#utility.yul\":6006:6121   */\n      pop\n      pop\n      jump\t// out\n        /* \"#utility.yul\":6127:6245   */\n    tag_397:\n        /* \"#utility.yul\":6214:6238   */\n      tag_484\n        /* \"#utility.yul\":6232:6237   */\n      dup2\n        /* \"#utility.yul\":6214:6238   */\n      tag_382\n      jump\t// in\n    tag_484:\n        /* \"#utility.yul\":6209:6212   */\n      dup3\n        /* \"#utility.yul\":6202:6239   */\n      mstore\n        /* \"#utility.yul\":6127:6245   */\n      pop\n      pop\n      jump\t// out\n        /* \"#utility.yul\":6251:6365   */\n    tag_398:\n        /* \"#utility.yul\":6318:6324   */\n      0x00\n        /* \"#utility.yul\":6352:6357   */\n      dup2\n        /* \"#utility.yul\":6346:6358   */\n      mload\n        /* \"#utility.yul\":6336:6358   */\n      swap1\n      pop\n        /* \"#utility.yul\":6251:6365   */\n      swap2\n      swap1\n      pop\n      jump\t// out\n        /* \"#utility.yul\":6371:6555   */\n    tag_399:\n        /* \"#utility.yul\":6470:6481   */\n      0x00\n        /* \"#utility.yul\":6504:6510   */\n      dup3\n        /* \"#utility.yul\":6499:6502   */\n      dup3\n        /* \"#utility.yul\":6492:6511   */\n      mstore\n        /* \"#utility.yul\":6544:6548   */\n      0x20\n        /* \"#utility.yul\":6539:6542   */\n      dup3\n        /* \"#utility.yul\":6535:6549   */\n      add\n        /* \"#utility.yul\":6520:6549   */\n      swap1\n      pop\n        /* \"#utility.yul\":6371:6555   */\n      swap3\n      swap2\n      pop\n      pop\n      jump\t// out\n        /* \"#utility.yul\":6561:6693   */\n    tag_400:\n        /* \"#utility.yul\":6628:6632   */\n      0x00\n        /* \"#utility.yul\":6651:6654   */\n      dup2\n        /* \"#utility.yul\":6643:6654   */\n      swap1\n      pop\n        /* \"#utility.yul\":6681:6685   */\n      0x20\n        /* \"#utility.yul\":6676:6679   */\n      dup3\n        /* \"#utility.yul\":6672:6686   */\n      add\n        /* \"#utility.yul\":6664:6686   */\n      swap1\n      pop\n        /* \"#utility.yul\":6561:6693   */\n      swap2\n      swap1\n      pop\n      jump\t// out\n        /* \"#utility.yul\":6699:6807   */\n    tag_401:\n        /* \"#utility.yul\":6776:6800   */\n      tag_489\n        /* \"#utility.yul\":6794:6799   */\n      dup2\n        /* \"#utility.yul\":6776:6800   */\n      tag_385\n      jump\t// in\n    tag_489:\n        /* \"#utility.yul\":6771:6774   */\n      dup3\n        /* \"#utility.yul\":6764:6801   */\n      mstore\n        /* \"#utility.yul\":6699:6807   */\n      pop\n      pop\n      jump\t// out\n        /* \"#utility.yul\":6813:6992   */\n    tag_402:\n        /* \"#utility.yul\":6882:6892   */\n      0x00\n        /* \"#utility.yul\":6903:6949   */\n      tag_491\n        /* \"#utility.yul\":6945:6948   */\n      dup4\n        /* \"#utility.yul\":6937:6943   */\n      dup4\n        /* \"#utility.yul\":6903:6949   */\n      tag_401\n      jump\t// in\n    tag_491:\n        /* \"#utility.yul\":6981:6985   */\n      0x20\n        /* \"#utility.yul\":6976:6979   */\n      dup4\n        /* \"#utility.yul\":6972:6986   */\n      add\n        /* \"#utility.yul\":6958:6986   */\n      swap1\n      pop\n        /* \"#utility.yul\":6813:6992   */\n      swap3\n      swap2\n      pop\n      pop\n      jump\t// out\n        /* \"#utility.yul\":6998:7111   */\n    tag_403:\n        /* \"#utility.yul\":7068:7072   */\n      0x00\n        /* \"#utility.yul\":7100:7104   */\n      0x20\n        /* \"#utility.yul\":7095:7098   */\n      dup3\n        /* \"#utility.yul\":7091:7105   */\n      add\n        /* \"#utility.yul\":7083:7105   */\n      swap1\n      pop\n        /* \"#utility.yul\":6998:7111   */\n      swap2\n      swap1\n      pop\n      jump\t// out\n        /* \"#utility.yul\":7147:7879   */\n    tag_404:\n        /* \"#utility.yul\":7266:7269   */\n      0x00\n        /* \"#utility.yul\":7295:7349   */\n      tag_494\n        /* \"#utility.yul\":7343:7348   */\n      dup3\n        /* \"#utility.yul\":7295:7349   */\n      tag_398\n      jump\t// in\n    tag_494:\n        /* \"#utility.yul\":7365:7451   */\n      tag_495\n        /* \"#utility.yul\":7444:7450   */\n      dup2\n        /* \"#utility.yul\":7439:7442   */\n      dup6\n        /* \"#utility.yul\":7365:7451   */\n      tag_399\n      jump\t// in\n    tag_495:\n        /* \"#utility.yul\":7358:7451   */\n      swap4\n      pop\n        /* \"#utility.yul\":7475:7531   */\n      tag_496\n        /* \"#utility.yul\":7525:7530   */\n      dup4\n        /* \"#utility.yul\":7475:7531   */\n      tag_400\n      jump\t// in\n    tag_496:\n        /* \"#utility.yul\":7554:7561   */\n      dup1\n        /* \"#utility.yul\":7585:7586   */\n      0x00\n        /* \"#utility.yul\":7570:7854   */\n    tag_497:\n        /* \"#utility.yul\":7595:7601   */\n      dup4\n        /* \"#utility.yul\":7592:7593   */\n      dup2\n        /* \"#utility.yul\":7589:7602   */\n      lt\n        /* \"#utility.yul\":7570:7854   */\n      iszero\n      tag_499\n      jumpi\n        /* \"#utility.yul\":7671:7677   */\n      dup2\n        /* \"#utility.yul\":7665:7678   */\n      mload\n        /* \"#utility.yul\":7698:7761   */\n      tag_500\n        /* \"#utility.yul\":7757:7760   */\n      dup9\n        /* \"#utility.yul\":7742:7755   */\n      dup3\n        /* \"#utility.yul\":7698:7761   */\n      tag_402\n      jump\t// in\n    tag_500:\n        /* \"#utility.yul\":7691:7761   */\n      swap8\n      pop\n        /* \"#utility.yul\":7784:7844   */\n      tag_501\n        /* \"#utility.yul\":7837:7843   */\n      dup4\n        /* \"#utility.yul\":7784:7844   */\n      tag_403\n      jump\t// in\n    tag_501:\n        /* \"#utility.yul\":7774:7844   */\n      swap3\n      pop\n        /* \"#utility.yul\":7630:7854   */\n      pop\n        /* \"#utility.yul\":7617:7618   */\n      0x01\n        /* \"#utility.yul\":7614:7615   */\n      dup2\n        /* \"#utility.yul\":7610:7619   */\n      add\n        /* \"#utility.yul\":7605:7619   */\n      swap1\n      pop\n        /* \"#utility.yul\":7570:7854   */\n      jump(tag_497)\n    tag_499:\n        /* \"#utility.yul\":7574:7588   */\n      pop\n        /* \"#utility.yul\":7870:7873   */\n      dup6\n        /* \"#utility.yul\":7863:7873   */\n      swap4\n      pop\n        /* \"#utility.yul\":7271:7879   */\n      pop\n      pop\n      pop\n        /* \"#utility.yul\":7147:7879   */\n      swap3\n      swap2\n      pop\n      pop\n      jump\t// out\n        /* \"#utility.yul\":7885:9100   */\n    tag_90:\n        /* \"#utility.yul\":8234:8238   */\n      0x00\n        /* \"#utility.yul\":8272:8275   */\n      0xe0\n        /* \"#utility.yul\":8261:8270   */\n      dup3\n        /* \"#utility.yul\":8257:8276   */\n      add\n        /* \"#utility.yul\":8249:8276   */\n      swap1\n      pop\n        /* \"#utility.yul\":8286:8355   */\n      tag_503\n        /* \"#utility.yul\":8352:8353   */\n      0x00\n        /* \"#utility.yul\":8341:8350   */\n      dup4\n        /* \"#utility.yul\":8337:8354   */\n      add\n        /* \"#utility.yul\":8328:8334   */\n      dup11\n        /* \"#utility.yul\":8286:8355   */\n      tag_396\n      jump\t// in\n    tag_503:\n        /* \"#utility.yul\":8402:8411   */\n      dup2\n        /* \"#utility.yul\":8396:8400   */\n      dup2\n        /* \"#utility.yul\":8392:8412   */\n      sub\n        /* \"#utility.yul\":8387:8389   */\n      0x20\n        /* \"#utility.yul\":8376:8385   */\n      dup4\n        /* \"#utility.yul\":8372:8390   */\n      add\n        /* \"#utility.yul\":8365:8413   */\n      mstore\n        /* \"#utility.yul\":8430:8508   */\n      tag_504\n        /* \"#utility.yul\":8503:8507   */\n      dup2\n        /* \"#utility.yul\":8494:8500   */\n      dup10\n        /* \"#utility.yul\":8430:8508   */\n      tag_377\n      jump\t// in\n    tag_504:\n        /* \"#utility.yul\":8422:8508   */\n      swap1\n      pop\n        /* \"#utility.yul\":8555:8564   */\n      dup2\n        /* \"#utility.yul\":8549:8553   */\n      dup2\n        /* \"#utility.yul\":8545:8565   */\n      sub\n        /* \"#utility.yul\":8540:8542   */\n      0x40\n        /* \"#utility.yul\":8529:8538   */\n      dup4\n        /* \"#utility.yul\":8525:8543   */\n      add\n        /* \"#utility.yul\":8518:8566   */\n      mstore\n        /* \"#utility.yul\":8583:8661   */\n      tag_505\n        /* \"#utility.yul\":8656:8660   */\n      dup2\n        /* \"#utility.yul\":8647:8653   */\n      dup9\n        /* \"#utility.yul\":8583:8661   */\n      tag_377\n      jump\t// in\n    tag_505:\n        /* \"#utility.yul\":8575:8661   */\n      swap1\n      pop\n        /* \"#utility.yul\":8671:8743   */\n      tag_506\n        /* \"#utility.yul\":8739:8741   */\n      0x60\n        /* \"#utility.yul\":8728:8737   */\n      dup4\n        /* \"#utility.yul\":8724:8742   */\n      add\n        /* \"#utility.yul\":8715:8721   */\n      dup8\n        /* \"#utility.yul\":8671:8743   */\n      tag_390\n      jump\t// in\n    tag_506:\n        /* \"#utility.yul\":8753:8826   */\n      tag_507\n        /* \"#utility.yul\":8821:8824   */\n      0x80\n        /* \"#utility.yul\":8810:8819   */\n      dup4\n        /* \"#utility.yul\":8806:8825   */\n      add\n        /* \"#utility.yul\":8797:8803   */\n      dup7\n        /* \"#utility.yul\":8753:8826   */\n      tag_397\n      jump\t// in\n    tag_507:\n        /* \"#utility.yul\":8836:8909   */\n      tag_508\n        /* \"#utility.yul\":8904:8907   */\n      0xa0\n        /* \"#utility.yul\":8893:8902   */\n      dup4\n        /* \"#utility.yul\":8889:8908   */\n      add\n        /* \"#utility.yul\":8880:8886   */\n      dup6\n        /* \"#utility.yul\":8836:8909   */\n      tag_394\n      jump\t// in\n    tag_508:\n        /* \"#utility.yul\":8957:8966   */\n      dup2\n        /* \"#utility.yul\":8951:8955   */\n      dup2\n        /* \"#utility.yul\":8947:8967   */\n      sub\n        /* \"#utility.yul\":8941:8944   */\n      0xc0\n        /* \"#utility.yul\":8930:8939   */\n      dup4\n        /* \"#utility.yul\":8926:8945   */\n      add\n        /* \"#utility.yul\":8919:8968   */\n      mstore\n        /* \"#utility.yul\":8985:9093   */\n      tag_509\n        /* \"#utility.yul\":9088:9092   */\n      dup2\n        /* \"#utility.yul\":9079:9085   */\n      dup5\n        /* \"#utility.yul\":8985:9093   */\n      tag_404\n      jump\t// in\n    tag_509:\n        /* \"#utility.yul\":8977:9093   */\n      swap1\n      pop\n        /* \"#utility.yul\":7885:9100   */\n      swap9\n      swap8\n      pop\n      pop\n      pop\n      pop\n      pop\n      pop\n      pop\n      pop\n      jump\t// out\n        /* \"#utility.yul\":9106:9328   */\n    tag_94:\n        /* \"#utility.yul\":9199:9203   */\n      0x00\n        /* \"#utility.yul\":9237:9239   */\n      0x20\n        /* \"#utility.yul\":9226:9235   */\n      dup3\n        /* \"#utility.yul\":9222:9240   */\n      add\n        /* \"#utility.yul\":9214:9240   */\n      swap1\n      pop\n        /* \"#utility.yul\":9250:9321   */\n      tag_511\n        /* \"#utility.yul\":9318:9319   */\n      0x00\n        /* \"#utility.yul\":9307:9316   */\n      dup4\n        /* \"#utility.yul\":9303:9320   */\n      add\n        /* \"#utility.yul\":9294:9300   */\n      dup5\n        /* \"#utility.yul\":9250:9321   */\n      tag_397\n      jump\t// in\n    tag_511:\n        /* \"#utility.yul\":9106:9328   */\n      swap3\n      swap2\n      pop\n      pop\n      jump\t// out\n        /* \"#utility.yul\":9334:9452   */\n    tag_405:\n        /* \"#utility.yul\":9405:9427   */\n      tag_513\n        /* \"#utility.yul\":9421:9426   */\n      dup2\n        /* \"#utility.yul\":9405:9427   */\n      tag_391\n      jump\t// in\n    tag_513:\n        /* \"#utility.yul\":9398:9403   */\n      dup2\n        /* \"#utility.yul\":9395:9428   */\n      eq\n        /* \"#utility.yul\":9385:9446   */\n      tag_514\n      jumpi\n        /* \"#utility.yul\":9442:9443   */\n      0x00\n        /* \"#utility.yul\":9439:9440   */\n      dup1\n        /* \"#utility.yul\":9432:9444   */\n      revert\n        /* \"#utility.yul\":9385:9446   */\n    tag_514:\n        /* \"#utility.yul\":9334:9452   */\n      pop\n      jump\t// out\n        /* \"#utility.yul\":9458:9593   */\n    tag_406:\n        /* \"#utility.yul\":9502:9507   */\n      0x00\n        /* \"#utility.yul\":9540:9546   */\n      dup2\n        /* \"#utility.yul\":9527:9547   */\n      calldataload\n        /* \"#utility.yul\":9518:9547   */\n      swap1\n      pop\n        /* \"#utility.yul\":9556:9587   */\n      tag_516\n        /* \"#utility.yul\":9581:9586   */\n      dup2\n        /* \"#utility.yul\":9556:9587   */\n      tag_405\n      jump\t// in\n    tag_516:\n        /* \"#utility.yul\":9458:9593   */\n      swap3\n      swap2\n      pop\n      pop\n      jump\t// out\n        /* \"#utility.yul\":9599:9721   */\n    tag_407:\n        /* \"#utility.yul\":9672:9696   */\n      tag_518\n        /* \"#utility.yul\":9690:9695   */\n      dup2\n        /* \"#utility.yul\":9672:9696   */\n      tag_393\n      jump\t// in\n    tag_518:\n        /* \"#utility.yul\":9665:9670   */\n      dup2\n        /* \"#utility.yul\":9662:9697   */\n      eq\n        /* \"#utility.yul\":9652:9715   */\n      tag_519\n      jumpi\n        /* \"#utility.yul\":9711:9712   */\n      0x00\n        /* \"#utility.yul\":9708:9709   */\n      dup1\n        /* \"#utility.yul\":9701:9713   */\n      revert\n        /* \"#utility.yul\":9652:9715   */\n    tag_519:\n        /* \"#utility.yul\":9599:9721   */\n      pop\n      jump\t// out\n        /* \"#utility.yul\":9727:9866   */\n    tag_408:\n        /* \"#utility.yul\":9773:9778   */\n      0x00\n        /* \"#utility.yul\":9811:9817   */\n      dup2\n        /* \"#utility.yul\":9798:9818   */\n      calldataload\n        /* \"#utility.yul\":9789:9818   */\n      swap1\n      pop\n        /* \"#utility.yul\":9827:9860   */\n      tag_521\n        /* \"#utility.yul\":9854:9859   */\n      dup2\n        /* \"#utility.yul\":9827:9860   */\n      tag_407\n      jump\t// in\n    tag_521:\n        /* \"#utility.yul\":9727:9866   */\n      swap3\n      swap2\n      pop\n      pop\n      jump\t// out\n        /* \"#utility.yul\":9872:11071   */\n    tag_104:\n        /* \"#utility.yul\":9983:9989   */\n      0x00\n        /* \"#utility.yul\":9991:9997   */\n      dup1\n        /* \"#utility.yul\":9999:10005   */\n      0x00\n        /* \"#utility.yul\":10007:10013   */\n      dup1\n        /* \"#utility.yul\":10015:10021   */\n      0x00\n        /* \"#utility.yul\":10023:10029   */\n      dup1\n        /* \"#utility.yul\":10031:10037   */\n      0x00\n        /* \"#utility.yul\":10080:10083   */\n      0xe0\n        /* \"#utility.yul\":10068:10077   */\n      dup9\n        /* \"#utility.yul\":10059:10066   */\n      dup11\n        /* \"#utility.yul\":10055:10078   */\n      sub\n        /* \"#utility.yul\":10051:10084   */\n      slt\n        /* \"#utility.yul\":10048:10168   */\n      iszero\n      tag_523\n      jumpi\n        /* \"#utility.yul\":10087:10166   */\n      tag_524\n      tag_379\n      jump\t// in\n    tag_524:\n        /* \"#utility.yul\":10048:10168   */\n    tag_523:\n        /* \"#utility.yul\":10207:10208   */\n      0x00\n        /* \"#utility.yul\":10232:10285   */\n      tag_525\n        /* \"#utility.yul\":10277:10284   */\n      dup11\n        /* \"#utility.yul\":10268:10274   */\n      dup3\n        /* \"#utility.yul\":10257:10266   */\n      dup12\n        /* \"#utility.yul\":10253:10275   */\n      add\n        /* \"#utility.yul\":10232:10285   */\n      tag_384\n      jump\t// in\n    tag_525:\n        /* \"#utility.yul\":10222:10285   */\n      swap8\n      pop\n        /* \"#utility.yul\":10178:10295   */\n      pop\n        /* \"#utility.yul\":10334:10336   */\n      0x20\n        /* \"#utility.yul\":10360:10413   */\n      tag_526\n        /* \"#utility.yul\":10405:10412   */\n      dup11\n        /* \"#utility.yul\":10396:10402   */\n      dup3\n        /* \"#utility.yul\":10385:10394   */\n      dup12\n        /* \"#utility.yul\":10381:10403   */\n      add\n        /* \"#utility.yul\":10360:10413   */\n      tag_384\n      jump\t// in\n    tag_526:\n        /* \"#utility.yul\":10350:10413   */\n      swap7\n      pop\n        /* \"#utility.yul\":10305:10423   */\n      pop\n        /* \"#utility.yul\":10462:10464   */\n      0x40\n        /* \"#utility.yul\":10488:10541   */\n      tag_527\n        /* \"#utility.yul\":10533:10540   */\n      dup11\n        /* \"#utility.yul\":10524:10530   */\n      dup3\n        /* \"#utility.yul\":10513:10522   */\n      dup12\n        /* \"#utility.yul\":10509:10531   */\n      add\n        /* \"#utility.yul\":10488:10541   */\n      tag_387\n      jump\t// in\n    tag_527:\n        /* \"#utility.yul\":10478:10541   */\n      swap6\n      pop\n        /* \"#utility.yul\":10433:10551   */\n      pop\n        /* \"#utility.yul\":10590:10592   */\n      0x60\n        /* \"#utility.yul\":10616:10669   */\n      tag_528\n        /* \"#utility.yul\":10661:10668   */\n      dup11\n        /* \"#utility.yul\":10652:10658   */\n      dup3\n        /* \"#utility.yul\":10641:10650   */\n      dup12\n        /* \"#utility.yul\":10637:10659   */\n      add\n        /* \"#utility.yul\":10616:10669   */\n      tag_387\n      jump\t// in\n    tag_528:\n        /* \"#utility.yul\":10606:10669   */\n      swap5\n      pop\n        /* \"#utility.yul\":10561:10679   */\n      pop\n        /* \"#utility.yul\":10718:10721   */\n      0x80\n        /* \"#utility.yul\":10745:10796   */\n      tag_529\n        /* \"#utility.yul\":10788:10795   */\n      dup11\n        /* \"#utility.yul\":10779:10785   */\n      dup3\n        /* \"#utility.yul\":10768:10777   */\n      dup12\n        /* \"#utility.yul\":10764:10786   */\n      add\n        /* \"#utility.yul\":10745:10796   */\n      tag_406\n      jump\t// in\n    tag_529:\n        /* \"#utility.yul\":10735:10796   */\n      swap4\n      pop\n        /* \"#utility.yul\":10689:10806   */\n      pop\n        /* \"#utility.yul\":10845:10848   */\n      0xa0\n        /* \"#utility.yul\":10872:10925   */\n      tag_530\n        /* \"#utility.yul\":10917:10924   */\n      dup11\n        /* \"#utility.yul\":10908:10914   */\n      dup3\n        /* \"#utility.yul\":10897:10906   */\n      dup12\n        /* \"#utility.yul\":10893:10915   */\n      add\n        /* \"#utility.yul\":10872:10925   */\n      tag_408\n      jump\t// in\n    tag_530:\n        /* \"#utility.yul\":10862:10925   */\n      swap3\n      pop\n        /* \"#utility.yul\":10816:10935   */\n      pop\n        /* \"#utility.yul\":10974:10977   */\n      0xc0\n        /* \"#utility.yul\":11001:11054   */\n      tag_531\n        /* \"#utility.yul\":11046:11053   */\n      dup11\n        /* \"#utility.yul\":11037:11043   */\n      dup3\n        /* \"#utility.yul\":11026:11035   */\n      dup12\n        /* \"#utility.yul\":11022:11044   */\n      add\n        /* \"#utility.yul\":11001:11054   */\n      tag_408\n      jump\t// in\n    tag_531:\n        /* \"#utility.yul\":10991:11054   */\n      swap2\n      pop\n        /* \"#utility.yul\":10945:11064   */\n      pop\n        /* \"#utility.yul\":9872:11071   */\n      swap3\n      swap6\n      swap9\n      swap2\n      swap5\n      swap8\n      pop\n      swap3\n      swap6\n      pop\n      jump\t// out\n        /* \"#utility.yul\":11077:11551   */\n    tag_108:\n        /* \"#utility.yul\":11145:11151   */\n      0x00\n        /* \"#utility.yul\":11153:11159   */\n      dup1\n        /* \"#utility.yul\":11202:11204   */\n      0x40\n        /* \"#utility.yul\":11190:11199   */\n      dup4\n        /* \"#utility.yul\":11181:11188   */\n      dup6\n        /* \"#utility.yul\":11177:11200   */\n      sub\n        /* \"#utility.yul\":11173:11205   */\n      slt\n        /* \"#utility.yul\":11170:11289   */\n      iszero\n      tag_533\n      jumpi\n        /* \"#utility.yul\":11208:11287   */\n      tag_534\n      tag_379\n      jump\t// in\n    tag_534:\n        /* \"#utility.yul\":11170:11289   */\n    tag_533:\n        /* \"#utility.yul\":11328:11329   */\n      0x00\n        /* \"#utility.yul\":11353:11406   */\n      tag_535\n        /* \"#utility.yul\":11398:11405   */\n      dup6\n        /* \"#utility.yul\":11389:11395   */\n      dup3\n        /* \"#utility.yul\":11378:11387   */\n      dup7\n        /* \"#utility.yul\":11374:11396   */\n      add\n        /* \"#utility.yul\":11353:11406   */\n      tag_384\n      jump\t// in\n    tag_535:\n        /* \"#utility.yul\":11343:11406   */\n      swap3\n      pop\n        /* \"#utility.yul\":11299:11416   */\n      pop\n        /* \"#utility.yul\":11455:11457   */\n      0x20\n        /* \"#utility.yul\":11481:11534   */\n      tag_536\n        /* \"#utility.yul\":11526:11533   */\n      dup6\n        /* \"#utility.yul\":11517:11523   */\n      dup3\n        /* \"#utility.yul\":11506:11515   */\n      dup7\n        /* \"#utility.yul\":11502:11524   */\n      add\n        /* \"#utility.yul\":11481:11534   */\n      tag_384\n      jump\t// in\n    tag_536:\n        /* \"#utility.yul\":11471:11534   */\n      swap2\n      pop\n        /* \"#utility.yul\":11426:11544   */\n      pop\n        /* \"#utility.yul\":11077:11551   */\n      swap3\n      pop\n      swap3\n      swap1\n      pop\n      jump\t// out\n        /* \"#utility.yul\":11557:11737   */\n    tag_409:\n        /* \"#utility.yul\":11605:11682   */\n      0x4e487b7100000000000000000000000000000000000000000000000000000000\n        /* \"#utility.yul\":11602:11603   */\n      0x00\n        /* \"#utility.yul\":11595:11683   */\n      mstore\n        /* \"#utility.yul\":11702:11706   */\n      0x22\n        /* \"#utility.yul\":11699:11700   */\n      0x04\n        /* \"#utility.yul\":11692:11707   */\n      mstore\n        /* \"#utility.yul\":11726:11730   */\n      0x24\n        /* \"#utility.yul\":11723:11724   */\n      0x00\n        /* \"#utility.yul\":11716:11731   */\n      revert\n        /* \"#utility.yul\":11743:12063   */\n    tag_116:\n        /* \"#utility.yul\":11787:11793   */\n      0x00\n        /* \"#utility.yul\":11824:11825   */\n      0x02\n        /* \"#utility.yul\":11818:11822   */\n      dup3\n        /* \"#utility.yul\":11814:11826   */\n      div\n        /* \"#utility.yul\":11804:11826   */\n      swap1\n      pop\n        /* \"#utility.yul\":11871:11872   */\n      0x01\n        /* \"#utility.yul\":11865:11869   */\n      dup3\n        /* \"#utility.yul\":11861:11873   */\n      and\n        /* \"#utility.yul\":11892:11910   */\n      dup1\n        /* \"#utility.yul\":11882:11963   */\n      tag_539\n      jumpi\n        /* \"#utility.yul\":11948:11952   */\n      0x7f\n        /* \"#utility.yul\":11940:11946   */\n      dup3\n        /* \"#utility.yul\":11936:11953   */\n      and\n        /* \"#utility.yul\":11926:11953   */\n      swap2\n      pop\n        /* \"#utility.yul\":11882:11963   */\n    tag_539:\n        /* \"#utility.yul\":12010:12012   */\n      0x20\n        /* \"#utility.yul\":12002:12008   */\n      dup3\n        /* \"#utility.yul\":11999:12013   */\n      lt\n        /* \"#utility.yul\":11979:11997   */\n      dup2\n        /* \"#utility.yul\":11976:12014   */\n      sub\n        /* \"#utility.yul\":11973:12057   */\n      tag_540\n      jumpi\n        /* \"#utility.yul\":12029:12047   */\n      tag_541\n      tag_409\n      jump\t// in\n    tag_541:\n        /* \"#utility.yul\":11973:12057   */\n    tag_540:\n        /* \"#utility.yul\":11794:12063   */\n      pop\n        /* \"#utility.yul\":11743:12063   */\n      swap2\n      swap1\n      pop\n      jump\t// out\n        /* \"#utility.yul\":12069:12249   */\n    tag_410:\n        /* \"#utility.yul\":12117:12194   */\n      0x4e487b7100000000000000000000000000000000000000000000000000000000\n        /* \"#utility.yul\":12114:12115   */\n      0x00\n        /* \"#utility.yul\":12107:12195   */\n      mstore\n        /* \"#utility.yul\":12214:12218   */\n      0x11\n        /* \"#utility.yul\":12211:12212   */\n      0x04\n        /* \"#utility.yul\":12204:12219   */\n      mstore\n        /* \"#utility.yul\":12238:12242   */\n      0x24\n        /* \"#utility.yul\":12235:12236   */\n      0x00\n        /* \"#utility.yul\":12228:12243   */\n      revert\n        /* \"#utility.yul\":12255:12449   */\n    tag_128:\n        /* \"#utility.yul\":12295:12299   */\n      0x00\n        /* \"#utility.yul\":12315:12335   */\n      tag_544\n        /* \"#utility.yul\":12333:12334   */\n      dup3\n        /* \"#utility.yul\":12315:12335   */\n      tag_385\n      jump\t// in\n    tag_544:\n        /* \"#utility.yul\":12310:12335   */\n      swap2\n      pop\n        /* \"#utility.yul\":12349:12369   */\n      tag_545\n        /* \"#utility.yul\":12367:12368   */\n      dup4\n        /* \"#utility.yul\":12349:12369   */\n      tag_385\n      jump\t// in\n    tag_545:\n        /* \"#utility.yul\":12344:12369   */\n      swap3\n      pop\n        /* \"#utility.yul\":12393:12394   */\n      dup3\n        /* \"#utility.yul\":12390:12391   */\n      dup3\n        /* \"#utility.yul\":12386:12395   */\n      sub\n        /* \"#utility.yul\":12378:12395   */\n      swap1\n      pop\n        /* \"#utility.yul\":12417:12418   */\n      dup2\n        /* \"#utility.yul\":12411:12415   */\n      dup2\n        /* \"#utility.yul\":12408:12419   */\n      gt\n        /* \"#utility.yul\":12405:12442   */\n      iszero\n      tag_546\n      jumpi\n        /* \"#utility.yul\":12422:12440   */\n      tag_547\n      tag_410\n      jump\t// in\n    tag_547:\n        /* \"#utility.yul\":12405:12442   */\n    tag_546:\n        /* \"#utility.yul\":12255:12449   */\n      swap3\n      swap2\n      pop\n      pop\n      jump\t// out\n        /* \"#utility.yul\":12455:12632   */\n    tag_411:\n        /* \"#utility.yul\":12595:12624   */\n      0x207374696c6c20696e20636f6f6c20646f776e20706572696f64200000000000\n        /* \"#utility.yul\":12591:12592   */\n      0x00\n        /* \"#utility.yul\":12583:12589   */\n      dup3\n        /* \"#utility.yul\":12579:12593   */\n      add\n        /* \"#utility.yul\":12572:12625   */\n      mstore\n        /* \"#utility.yul\":12455:12632   */\n      pop\n      jump\t// out\n        /* \"#utility.yul\":12638:13004   */\n    tag_412:\n        /* \"#utility.yul\":12780:12783   */\n      0x00\n        /* \"#utility.yul\":12801:12868   */\n      tag_550\n        /* \"#utility.yul\":12865:12867   */\n      0x1b\n        /* \"#utility.yul\":12860:12863   */\n      dup4\n        /* \"#utility.yul\":12801:12868   */\n      tag_374\n      jump\t// in\n    tag_550:\n        /* \"#utility.yul\":12794:12868   */\n      swap2\n      pop\n        /* \"#utility.yul\":12877:12970   */\n      tag_551\n        /* \"#utility.yul\":12966:12969   */\n      dup3\n        /* \"#utility.yul\":12877:12970   */\n      tag_411\n      jump\t// in\n    tag_551:\n        /* \"#utility.yul\":12995:12997   */\n      0x20\n        /* \"#utility.yul\":12990:12993   */\n      dup3\n        /* \"#utility.yul\":12986:12998   */\n      add\n        /* \"#utility.yul\":12979:12998   */\n      swap1\n      pop\n        /* \"#utility.yul\":12638:13004   */\n      swap2\n      swap1\n      pop\n      jump\t// out\n        /* \"#utility.yul\":13010:13429   */\n    tag_131:\n        /* \"#utility.yul\":13176:13180   */\n      0x00\n        /* \"#utility.yul\":13214:13216   */\n      0x20\n        /* \"#utility.yul\":13203:13212   */\n      dup3\n        /* \"#utility.yul\":13199:13217   */\n      add\n        /* \"#utility.yul\":13191:13217   */\n      swap1\n      pop\n        /* \"#utility.yul\":13263:13272   */\n      dup2\n        /* \"#utility.yul\":13257:13261   */\n      dup2\n        /* \"#utility.yul\":13253:13273   */\n      sub\n        /* \"#utility.yul\":13249:13250   */\n      0x00\n        /* \"#utility.yul\":13238:13247   */\n      dup4\n        /* \"#utility.yul\":13234:13251   */\n      add\n        /* \"#utility.yul\":13227:13274   */\n      mstore\n        /* \"#utility.yul\":13291:13422   */\n      tag_553\n        /* \"#utility.yul\":13417:13421   */\n      dup2\n        /* \"#utility.yul\":13291:13422   */\n      tag_412\n      jump\t// in\n    tag_553:\n        /* \"#utility.yul\":13283:13422   */\n      swap1\n      pop\n        /* \"#utility.yul\":13010:13429   */\n      swap2\n      swap1\n      pop\n      jump\t// out\n        /* \"#utility.yul\":13435:13615   */\n    tag_185:\n        /* \"#utility.yul\":13483:13560   */\n      0x4e487b7100000000000000000000000000000000000000000000000000000000\n        /* \"#utility.yul\":13480:13481   */\n      0x00\n        /* \"#utility.yul\":13473:13561   */\n      mstore\n        /* \"#utility.yul\":13580:13584   */\n      0x41\n        /* \"#utility.yul\":13577:13578   */\n      0x04\n        /* \"#utility.yul\":13570:13585   */\n      mstore\n        /* \"#utility.yul\":13604:13608   */\n      0x24\n        /* \"#utility.yul\":13601:13602   */\n      0x00\n        /* \"#utility.yul\":13594:13609   */\n      revert\n        /* \"#utility.yul\":13621:14396   */\n    tag_203:\n        /* \"#utility.yul\":13854:13858   */\n      0x00\n        /* \"#utility.yul\":13892:13895   */\n      0xc0\n        /* \"#utility.yul\":13881:13890   */\n      dup3\n        /* \"#utility.yul\":13877:13896   */\n      add\n        /* \"#utility.yul\":13869:13896   */\n      swap1\n      pop\n        /* \"#utility.yul\":13906:13977   */\n      tag_556\n        /* \"#utility.yul\":13974:13975   */\n      0x00\n        /* \"#utility.yul\":13963:13972   */\n      dup4\n        /* \"#utility.yul\":13959:13976   */\n      add\n        /* \"#utility.yul\":13950:13956   */\n      dup10\n        /* \"#utility.yul\":13906:13977   */\n      tag_394\n      jump\t// in\n    tag_556:\n        /* \"#utility.yul\":13987:14059   */\n      tag_557\n        /* \"#utility.yul\":14055:14057   */\n      0x20\n        /* \"#utility.yul\":14044:14053   */\n      dup4\n        /* \"#utility.yul\":14040:14058   */\n      add\n        /* \"#utility.yul\":14031:14037   */\n      dup9\n        /* \"#utility.yul\":13987:14059   */\n      tag_397\n      jump\t// in\n    tag_557:\n        /* \"#utility.yul\":14069:14141   */\n      tag_558\n        /* \"#utility.yul\":14137:14139   */\n      0x40\n        /* \"#utility.yul\":14126:14135   */\n      dup4\n        /* \"#utility.yul\":14122:14140   */\n      add\n        /* \"#utility.yul\":14113:14119   */\n      dup8\n        /* \"#utility.yul\":14069:14141   */\n      tag_397\n      jump\t// in\n    tag_558:\n        /* \"#utility.yul\":14151:14223   */\n      tag_559\n        /* \"#utility.yul\":14219:14221   */\n      0x60\n        /* \"#utility.yul\":14208:14217   */\n      dup4\n        /* \"#utility.yul\":14204:14222   */\n      add\n        /* \"#utility.yul\":14195:14201   */\n      dup7\n        /* \"#utility.yul\":14151:14223   */\n      tag_390\n      jump\t// in\n    tag_559:\n        /* \"#utility.yul\":14233:14306   */\n      tag_560\n        /* \"#utility.yul\":14301:14304   */\n      0x80\n        /* \"#utility.yul\":14290:14299   */\n      dup4\n        /* \"#utility.yul\":14286:14305   */\n      add\n        /* \"#utility.yul\":14277:14283   */\n      dup6\n        /* \"#utility.yul\":14233:14306   */\n      tag_390\n      jump\t// in\n    tag_560:\n        /* \"#utility.yul\":14316:14389   */\n      tag_561\n        /* \"#utility.yul\":14384:14387   */\n      0xa0\n        /* \"#utility.yul\":14373:14382   */\n      dup4\n        /* \"#utility.yul\":14369:14388   */\n      add\n        /* \"#utility.yul\":14360:14366   */\n      dup5\n        /* \"#utility.yul\":14316:14389   */\n      tag_390\n      jump\t// in\n    tag_561:\n        /* \"#utility.yul\":13621:14396   */\n      swap8\n      swap7\n      pop\n      pop\n      pop\n      pop\n      pop\n      pop\n      pop\n      jump\t// out\n        /* \"#utility.yul\":14402:14734   */\n    tag_210:\n        /* \"#utility.yul\":14523:14527   */\n      0x00\n        /* \"#utility.yul\":14561:14563   */\n      0x40\n        /* \"#utility.yul\":14550:14559   */\n      dup3\n        /* \"#utility.yul\":14546:14564   */\n      add\n        /* \"#utility.yul\":14538:14564   */\n      swap1\n      pop\n        /* \"#utility.yul\":14574:14645   */\n      tag_563\n        /* \"#utility.yul\":14642:14643   */\n      0x00\n        /* \"#utility.yul\":14631:14640   */\n      dup4\n        /* \"#utility.yul\":14627:14644   */\n      add\n        /* \"#utility.yul\":14618:14624   */\n      dup6\n        /* \"#utility.yul\":14574:14645   */\n      tag_397\n      jump\t// in\n    tag_563:\n        /* \"#utility.yul\":14655:14727   */\n      tag_564\n        /* \"#utility.yul\":14723:14725   */\n      0x20\n        /* \"#utility.yul\":14712:14721   */\n      dup4\n        /* \"#utility.yul\":14708:14726   */\n      add\n        /* \"#utility.yul\":14699:14705   */\n      dup5\n        /* \"#utility.yul\":14655:14727   */\n      tag_397\n      jump\t// in\n    tag_564:\n        /* \"#utility.yul\":14402:14734   */\n      swap4\n      swap3\n      pop\n      pop\n      pop\n      jump\t// out\n        /* \"#utility.yul\":14740:15182   */\n    tag_233:\n        /* \"#utility.yul\":14889:14893   */\n      0x00\n        /* \"#utility.yul\":14927:14929   */\n      0x60\n        /* \"#utility.yul\":14916:14925   */\n      dup3\n        /* \"#utility.yul\":14912:14930   */\n      add\n        /* \"#utility.yul\":14904:14930   */\n      swap1\n      pop\n        /* \"#utility.yul\":14940:15011   */\n      tag_566\n        /* \"#utility.yul\":15008:15009   */\n      0x00\n        /* \"#utility.yul\":14997:15006   */\n      dup4\n        /* \"#utility.yul\":14993:15010   */\n      add\n        /* \"#utility.yul\":14984:14990   */\n      dup7\n        /* \"#utility.yul\":14940:15011   */\n      tag_397\n      jump\t// in\n    tag_566:\n        /* \"#utility.yul\":15021:15093   */\n      tag_567\n        /* \"#utility.yul\":15089:15091   */\n      0x20\n        /* \"#utility.yul\":15078:15087   */\n      dup4\n        /* \"#utility.yul\":15074:15092   */\n      add\n        /* \"#utility.yul\":15065:15071   */\n      dup6\n        /* \"#utility.yul\":15021:15093   */\n      tag_390\n      jump\t// in\n    tag_567:\n        /* \"#utility.yul\":15103:15175   */\n      tag_568\n        /* \"#utility.yul\":15171:15173   */\n      0x40\n        /* \"#utility.yul\":15160:15169   */\n      dup4\n        /* \"#utility.yul\":15156:15174   */\n      add\n        /* \"#utility.yul\":15147:15153   */\n      dup5\n        /* \"#utility.yul\":15103:15175   */\n      tag_390\n      jump\t// in\n    tag_568:\n        /* \"#utility.yul\":14740:15182   */\n      swap5\n      swap4\n      pop\n      pop\n      pop\n      pop\n      jump\t// out\n        /* \"#utility.yul\":15188:15852   */\n    tag_298:\n        /* \"#utility.yul\":15393:15397   */\n      0x00\n        /* \"#utility.yul\":15431:15434   */\n      0xa0\n        /* \"#utility.yul\":15420:15429   */\n      dup3\n        /* \"#utility.yul\":15416:15435   */\n      add\n        /* \"#utility.yul\":15408:15435   */\n      swap1\n      pop\n        /* \"#utility.yul\":15445:15516   */\n      tag_570\n        /* \"#utility.yul\":15513:15514   */\n      0x00\n        /* \"#utility.yul\":15502:15511   */\n      dup4\n        /* \"#utility.yul\":15498:15515   */\n      add\n        /* \"#utility.yul\":15489:15495   */\n      dup9\n        /* \"#utility.yul\":15445:15516   */\n      tag_394\n      jump\t// in\n    tag_570:\n        /* \"#utility.yul\":15526:15598   */\n      tag_571\n        /* \"#utility.yul\":15594:15596   */\n      0x20\n        /* \"#utility.yul\":15583:15592   */\n      dup4\n        /* \"#utility.yul\":15579:15597   */\n      add\n        /* \"#utility.yul\":15570:15576   */\n      dup8\n        /* \"#utility.yul\":15526:15598   */\n      tag_394\n      jump\t// in\n    tag_571:\n        /* \"#utility.yul\":15608:15680   */\n      tag_572\n        /* \"#utility.yul\":15676:15678   */\n      0x40\n        /* \"#utility.yul\":15665:15674   */\n      dup4\n        /* \"#utility.yul\":15661:15679   */\n      add\n        /* \"#utility.yul\":15652:15658   */\n      dup7\n        /* \"#utility.yul\":15608:15680   */\n      tag_394\n      jump\t// in\n    tag_572:\n        /* \"#utility.yul\":15690:15762   */\n      tag_573\n        /* \"#utility.yul\":15758:15760   */\n      0x60\n        /* \"#utility.yul\":15747:15756   */\n      dup4\n        /* \"#utility.yul\":15743:15761   */\n      add\n        /* \"#utility.yul\":15734:15740   */\n      dup6\n        /* \"#utility.yul\":15690:15762   */\n      tag_390\n      jump\t// in\n    tag_573:\n        /* \"#utility.yul\":15772:15845   */\n      tag_574\n        /* \"#utility.yul\":15840:15843   */\n      0x80\n        /* \"#utility.yul\":15829:15838   */\n      dup4\n        /* \"#utility.yul\":15825:15844   */\n      add\n        /* \"#utility.yul\":15816:15822   */\n      dup5\n        /* \"#utility.yul\":15772:15845   */\n      tag_397\n      jump\t// in\n    tag_574:\n        /* \"#utility.yul\":15188:15852   */\n      swap7\n      swap6\n      pop\n      pop\n      pop\n      pop\n      pop\n      pop\n      jump\t// out\n        /* \"#utility.yul\":15858:16403   */\n    tag_319:\n        /* \"#utility.yul\":16031:16035   */\n      0x00\n        /* \"#utility.yul\":16069:16072   */\n      0x80\n        /* \"#utility.yul\":16058:16067   */\n      dup3\n        /* \"#utility.yul\":16054:16073   */\n      add\n        /* \"#utility.yul\":16046:16073   */\n      swap1\n      pop\n        /* \"#utility.yul\":16083:16154   */\n      tag_576\n        /* \"#utility.yul\":16151:16152   */\n      0x00\n        /* \"#utility.yul\":16140:16149   */\n      dup4\n        /* \"#utility.yul\":16136:16153   */\n      add\n        /* \"#utility.yul\":16127:16133   */\n      dup8\n        /* \"#utility.yul\":16083:16154   */\n      tag_394\n      jump\t// in\n    tag_576:\n        /* \"#utility.yul\":16164:16232   */\n      tag_577\n        /* \"#utility.yul\":16228:16230   */\n      0x20\n        /* \"#utility.yul\":16217:16226   */\n      dup4\n        /* \"#utility.yul\":16213:16231   */\n      add\n        /* \"#utility.yul\":16204:16210   */\n      dup7\n        /* \"#utility.yul\":16164:16232   */\n      tag_392\n      jump\t// in\n    tag_577:\n        /* \"#utility.yul\":16242:16314   */\n      tag_578\n        /* \"#utility.yul\":16310:16312   */\n      0x40\n        /* \"#utility.yul\":16299:16308   */\n      dup4\n        /* \"#utility.yul\":16295:16313   */\n      add\n        /* \"#utility.yul\":16286:16292   */\n      dup6\n        /* \"#utility.yul\":16242:16314   */\n      tag_394\n      jump\t// in\n    tag_578:\n        /* \"#utility.yul\":16324:16396   */\n      tag_579\n        /* \"#utility.yul\":16392:16394   */\n      0x60\n        /* \"#utility.yul\":16381:16390   */\n      dup4\n        /* \"#utility.yul\":16377:16395   */\n      add\n        /* \"#utility.yul\":16368:16374   */\n      dup5\n        /* \"#utility.yul\":16324:16396   */\n      tag_394\n      jump\t// in\n    tag_579:\n        /* \"#utility.yul\":15858:16403   */\n      swap6\n      swap5\n      pop\n      pop\n      pop\n      pop\n      pop\n      jump\t// out\n        /* \"#utility.yul\":16409:16589   */\n    tag_326:\n        /* \"#utility.yul\":16457:16534   */\n      0x4e487b7100000000000000000000000000000000000000000000000000000000\n        /* \"#utility.yul\":16454:16455   */\n      0x00\n        /* \"#utility.yul\":16447:16535   */\n      mstore\n        /* \"#utility.yul\":16554:16558   */\n      0x21\n        /* \"#utility.yul\":16551:16552   */\n      0x04\n        /* \"#utility.yul\":16544:16559   */\n      mstore\n        /* \"#utility.yul\":16578:16582   */\n      0x24\n        /* \"#utility.yul\":16575:16576   */\n      0x00\n        /* \"#utility.yul\":16568:16583   */\n      revert\n        /* \"#utility.yul\":16595:16786   */\n    tag_364:\n        /* \"#utility.yul\":16635:16638   */\n      0x00\n        /* \"#utility.yul\":16654:16674   */\n      tag_582\n        /* \"#utility.yul\":16672:16673   */\n      dup3\n        /* \"#utility.yul\":16654:16674   */\n      tag_385\n      jump\t// in\n    tag_582:\n        /* \"#utility.yul\":16649:16674   */\n      swap2\n      pop\n        /* \"#utility.yul\":16688:16708   */\n      tag_583\n        /* \"#utility.yul\":16706:16707   */\n      dup4\n        /* \"#utility.yul\":16688:16708   */\n      tag_385\n      jump\t// in\n    tag_583:\n        /* \"#utility.yul\":16683:16708   */\n      swap3\n      pop\n        /* \"#utility.yul\":16731:16732   */\n      dup3\n        /* \"#utility.yul\":16728:16729   */\n      dup3\n        /* \"#utility.yul\":16724:16733   */\n      add\n        /* \"#utility.yul\":16717:16733   */\n      swap1\n      pop\n        /* \"#utility.yul\":16752:16755   */\n      dup1\n        /* \"#utility.yul\":16749:16750   */\n      dup3\n        /* \"#utility.yul\":16746:16756   */\n      gt\n        /* \"#utility.yul\":16743:16779   */\n      iszero\n      tag_584\n      jumpi\n        /* \"#utility.yul\":16759:16777   */\n      tag_585\n      tag_410\n      jump\t// in\n    tag_585:\n        /* \"#utility.yul\":16743:16779   */\n    tag_584:\n        /* \"#utility.yul\":16595:16786   */\n      swap3\n      swap2\n      pop\n      pop\n      jump\t// out\n\n    auxdata: 0xa26469706673582212207a368fbd3f227be02eec6d9583642e260d94dae6f5db1da84f93f61f570c81c464736f6c634300081a0033\n}\n",
				"bytecode": {
					"linkReferences": {},
					"object": "61016060405262015180600955686c6b935b8bbd400000600b55348015610024575f80fd5b50604051612d1f380380612d1f833981810160405281019061004691906104c4565b6040518060400160405280601081526020017f4d657444726f7054657374546f6b656e00000000000000000000000000000000815250806040518060400160405280600181526020017f3100000000000000000000000000000000000000000000000000000000000000815250836040518060400160405280601081526020017f4d657444726f7054657374546f6b656e000000000000000000000000000000008152506040518060400160405280600481526020017f4d44545400000000000000000000000000000000000000000000000000000000815250816003908161012f9190610729565b50806004908161013f9190610729565b5050505f60055f6101000a81548160ff0219169083151502179055505f73ffffffffffffffffffffffffffffffffffffffff168173ffffffffffffffffffffffffffffffffffffffff16036101cb575f6040517f1e4fbdf70000000000000000000000000000000000000000000000000000000081526004016101c29190610807565b60405180910390fd5b6101da8161028c60201b60201c565b506101ef60068361035160201b90919060201c565b610120818152505061020b60078261035160201b90919060201c565b6101408181525050818051906020012060e08181525050808051906020012061010081815250504660a0818152505061024861039e60201b60201c565b608081815250503073ffffffffffffffffffffffffffffffffffffffff1660c08173ffffffffffffffffffffffffffffffffffffffff1681525050505050506109b1565b5f600560019054906101000a900473ffffffffffffffffffffffffffffffffffffffff16905081600560016101000a81548173ffffffffffffffffffffffffffffffffffffffff021916908373ffffffffffffffffffffffffffffffffffffffff1602179055508173ffffffffffffffffffffffffffffffffffffffff168173ffffffffffffffffffffffffffffffffffffffff167f8be0079c531659141344cd1fd0a4f28419497f9722a3daafe3b4186f6b6457e060405160405180910390a35050565b5f6020835110156103725761036b836103f860201b60201c565b9050610398565b826103828361045d60201b60201c565b5f0190816103909190610729565b5060ff5f1b90505b92915050565b5f7f8b73c3c69bb8fe3d512ecc4cf759cc79239f7b179b0ffacaa9a75d522b39400f60e0516101005146306040516020016103dd959493929190610847565b60405160208183030381529060405280519060200120905090565b5f80829050601f8151111561044457826040517f305a27a900000000000000000000000000000000000000000000000000000000815260040161043b91906108fe565b60405180910390fd5b8051816104509061094b565b5f1c175f1b915050919050565b5f819050919050565b5f80fd5b5f73ffffffffffffffffffffffffffffffffffffffff82169050919050565b5f6104938261046a565b9050919050565b6104a381610489565b81146104ad575f80fd5b50565b5f815190506104be8161049a565b92915050565b5f602082840312156104d9576104d8610466565b5b5f6104e6848285016104b0565b91505092915050565b5f81519050919050565b7f4e487b71000000000000000000000000000000000000000000000000000000005f52604160045260245ffd5b7f4e487b71000000000000000000000000000000000000000000000000000000005f52602260045260245ffd5b5f600282049050600182168061056a57607f821691505b60208210810361057d5761057c610526565b5b50919050565b5f819050815f5260205f209050919050565b5f6020601f8301049050919050565b5f82821b905092915050565b5f600883026105df7fffffffffffffffffffffffffffffffffffffffffffffffffffffffffffffffff826105a4565b6105e986836105a4565b95508019841693508086168417925050509392505050565b5f819050919050565b5f819050919050565b5f61062d61062861062384610601565b61060a565b610601565b9050919050565b5f819050919050565b61064683610613565b61065a61065282610634565b8484546105b0565b825550505050565b5f90565b61066e610662565b61067981848461063d565b505050565b5b8181101561069c576106915f82610666565b60018101905061067f565b5050565b601f8211156106e1576106b281610583565b6106bb84610595565b810160208510156106ca578190505b6106de6106d685610595565b83018261067e565b50505b505050565b5f82821c905092915050565b5f6107015f19846008026106e6565b1980831691505092915050565b5f61071983836106f2565b9150826002028217905092915050565b610732826104ef565b67ffffffffffffffff81111561074b5761074a6104f9565b5b6107558254610553565b6107608282856106a0565b5f60209050601f831160018114610791575f841561077f578287015190505b610789858261070e565b8655506107f0565b601f19841661079f86610583565b5f5b828110156107c6578489015182556001820191506020850194506020810190506107a1565b868310156107e357848901516107df601f8916826106f2565b8355505b6001600288020188555050505b505050505050565b61080181610489565b82525050565b5f60208201905061081a5f8301846107f8565b92915050565b5f819050919050565b61083281610820565b82525050565b61084181610601565b82525050565b5f60a08201905061085a5f830188610829565b6108676020830187610829565b6108746040830186610829565b6108816060830185610838565b61088e60808301846107f8565b9695505050505050565b5f82825260208201905092915050565b8281835e5f83830152505050565b5f601f19601f8301169050919050565b5f6108d0826104ef565b6108da8185610898565b93506108ea8185602086016108a8565b6108f3816108b6565b840191505092915050565b5f6020820190508181035f83015261091681846108c6565b905092915050565b5f81519050919050565b5f819050602082019050919050565b5f6109428251610820565b80915050919050565b5f6109558261091e565b8261095f84610928565b905061096a81610937565b925060208210156109aa576109a57fffffffffffffffffffffffffffffffffffffffffffffffffffffffffffffffff836020036008026105a4565b831692505b5050919050565b60805160a05160c05160e05161010051610120516101405161231d610a025f395f61106f01525f61103401525f61135f01525f61133e01525f610ca401525f610cfa01525f610d23015261231d5ff3fe608060405234801561000f575f80fd5b506004361061014b575f3560e01c806370a08231116100c15780638da5cb5b1161007a5780638da5cb5b1461035957806395d89b4114610377578063a9059cbb14610395578063d505accf146103c5578063dd62ed3e146103e1578063f2fde38b146104115761014b565b806370a08231146102a5578063715018a6146102d557806379cc6790146102df5780637ecebe00146102fb5780638456cb591461032b57806384b0196e146103355761014b565b8063313ce56711610113578063313ce567146102095780633644e515146102275780633f4ba83a1461024557806340c10f191461024f57806342966c681461026b5780635c975abb146102875761014b565b806306fdde031461014f578063095ea7b31461016d5780631249c58b1461019d57806318160ddd146101bb57806323b872dd146101d9575b5f80fd5b61015761042d565b6040516101649190611ac7565b60405180910390f35b61018760048036038101906101829190611b78565b6104bd565b6040516101949190611bd0565b60405180910390f35b6101a56104df565b6040516101b29190611bf8565b60405180910390f35b6101c3610583565b6040516101d09190611bf8565b60405180910390f35b6101f360048036038101906101ee9190611c11565b61058c565b6040516102009190611bd0565b60405180910390f35b6102116105ba565b60405161021e9190611c7c565b60405180910390f35b61022f6105c2565b60405161023c9190611cad565b60405180910390f35b61024d6105d0565b005b61026960048036038101906102649190611b78565b6105e2565b005b61028560048036038101906102809190611cc6565b6105f8565b005b61028f61060c565b60405161029c9190611bd0565b60405180910390f35b6102bf60048036038101906102ba9190611cf1565b610621565b6040516102cc9190611bf8565b60405180910390f35b6102dd610666565b005b6102f960048036038101906102f49190611b78565b610679565b005b61031560048036038101906103109190611cf1565b610699565b6040516103229190611bf8565b60405180910390f35b6103336106aa565b005b61033d6106bc565b6040516103509796959493929190611e1c565b60405180910390f35b610361610761565b60405161036e9190611e9e565b60405180910390f35b61037f61078a565b60405161038c9190611ac7565b60405180910390f35b6103af60048036038101906103aa9190611b78565b61081a565b6040516103bc9190611bd0565b60405180910390f35b6103df60048036038101906103da9190611f0b565b61083c565b005b6103fb60048036038101906103f69190611fa8565b610981565b6040516104089190611bf8565b60405180910390f35b61042b60048036038101906104269190611cf1565b610a03565b005b60606003805461043c90612013565b80601f016020809104026020016040519081016040528092919081815260200182805461046890612013565b80156104b35780601f1061048a576101008083540402835291602001916104b3565b820191905f5260205f20905b81548152906001019060200180831161049657829003601f168201915b5050505050905090565b5f806104c7610a87565b90506104d4818585610a8e565b600191505092915050565b5f80600a5f3373ffffffffffffffffffffffffffffffffffffffff1673ffffffffffffffffffffffffffffffffffffffff1681526020019081526020015f20544261052a9190612070565b90506009548113610570576040517f08c379a0000000000000000000000000000000000000000000000000000000008152600401610567906120ed565b60405180910390fd5b600b54915061057f3383610aa0565b5090565b5f600254905090565b5f80610596610a87565b90506105a3858285610b1f565b6105ae858585610bb1565b60019150509392505050565b5f6012905090565b5f6105cb610ca1565b905090565b6105d8610d57565b6105e0610dde565b565b6105ea610d57565b6105f48282610aa0565b5050565b610609610603610a87565b82610e3f565b50565b5f60055f9054906101000a900460ff16905090565b5f805f8373ffffffffffffffffffffffffffffffffffffffff1673ffffffffffffffffffffffffffffffffffffffff1681526020019081526020015f20549050919050565b61066e610d57565b6106775f610ebe565b565b61068b82610685610a87565b83610b1f565b6106958282610e3f565b5050565b5f6106a382610f83565b9050919050565b6106b2610d57565b6106ba610fc9565b565b5f6060805f805f60606106cd61102b565b6106d5611066565b46305f801b5f67ffffffffffffffff8111156106f4576106f361210b565b5b6040519080825280602002602001820160405280156107225781602001602082028036833780820191505090505b507f0f00000000000000000000000000000000000000000000000000000000000000959493929190965096509650965096509650965090919293949596565b5f600560019054906101000a900473ffffffffffffffffffffffffffffffffffffffff16905090565b60606004805461079990612013565b80601f01602080910402602001604051908101604052809291908181526020018280546107c590612013565b80156108105780601f106107e757610100808354040283529160200191610810565b820191905f5260205f20905b8154815290600101906020018083116107f357829003601f168201915b5050505050905090565b5f80610824610a87565b9050610831818585610bb1565b600191505092915050565b8342111561088157836040517f627913020000000000000000000000000000000000000000000000000000000081526004016108789190611bf8565b60405180910390fd5b5f7f6e71edae12b1b97f4d1f60370fef10105fa2faae0126114a169c64845d6126c98888886108af8c6110a1565b896040516020016108c596959493929190612138565b6040516020818303038152906040528051906020012090505f6108e7826110f4565b90505f6108f68287878761110d565b90508973ffffffffffffffffffffffffffffffffffffffff168173ffffffffffffffffffffffffffffffffffffffff161461096a57808a6040517f4b800e46000000000000000000000000000000000000000000000000000000008152600401610961929190612197565b60405180910390fd5b6109758a8a8a610a8e565b50505050505050505050565b5f60015f8473ffffffffffffffffffffffffffffffffffffffff1673ffffffffffffffffffffffffffffffffffffffff1681526020019081526020015f205f8373ffffffffffffffffffffffffffffffffffffffff1673ffffffffffffffffffffffffffffffffffffffff1681526020019081526020015f2054905092915050565b610a0b610d57565b5f73ffffffffffffffffffffffffffffffffffffffff168173ffffffffffffffffffffffffffffffffffffffff1603610a7b575f6040517f1e4fbdf7000000000000000000000000000000000000000000000000000000008152600401610a729190611e9e565b60405180910390fd5b610a8481610ebe565b50565b5f33905090565b610a9b838383600161113b565b505050565b5f73ffffffffffffffffffffffffffffffffffffffff168273ffffffffffffffffffffffffffffffffffffffff1603610b10575f6040517fec442f05000000000000000000000000000000000000000000000000000000008152600401610b079190611e9e565b60405180910390fd5b610b1b5f838361130a565b5050565b5f610b2a8484610981565b90507fffffffffffffffffffffffffffffffffffffffffffffffffffffffffffffffff8114610bab5781811015610b9c578281836040517ffb8f41b2000000000000000000000000000000000000000000000000000000008152600401610b93939291906121be565b60405180910390fd5b610baa84848484035f61113b565b5b50505050565b5f73ffffffffffffffffffffffffffffffffffffffff168373ffffffffffffffffffffffffffffffffffffffff1603610c21575f6040517f96c6fd1e000000000000000000000000000000000000000000000000000000008152600401610c189190611e9e565b60405180910390fd5b5f73ffffffffffffffffffffffffffffffffffffffff168273ffffffffffffffffffffffffffffffffffffffff1603610c91575f6040517fec442f05000000000000000000000000000000000000000000000000000000008152600401610c889190611e9e565b60405180910390fd5b610c9c83838361130a565b505050565b5f7f000000000000000000000000000000000000000000000000000000000000000073ffffffffffffffffffffffffffffffffffffffff163073ffffffffffffffffffffffffffffffffffffffff16148015610d1c57507f000000000000000000000000000000000000000000000000000000000000000046145b15610d49577f00000000000000000000000000000000000000000000000000000000000000009050610d54565b610d5161131a565b90505b90565b610d5f610a87565b73ffffffffffffffffffffffffffffffffffffffff16610d7d610761565b73ffffffffffffffffffffffffffffffffffffffff1614610ddc57610da0610a87565b6040517f118cdaa7000000000000000000000000000000000000000000000000000000008152600401610dd39190611e9e565b60405180910390fd5b565b610de66113af565b5f60055f6101000a81548160ff0219169083151502179055507f5db9ee0a495bf2e6ff9c91a7834c1ba4fdd244a5e8aa4e537bd38aeae4b073aa610e28610a87565b604051610e359190611e9e565b60405180910390a1565b5f73ffffffffffffffffffffffffffffffffffffffff168273ffffffffffffffffffffffffffffffffffffffff1603610eaf575f6040517f96c6fd1e000000000000000000000000000000000000000000000000000000008152600401610ea69190611e9e565b60405180910390fd5b610eba825f8361130a565b5050565b5f600560019054906101000a900473ffffffffffffffffffffffffffffffffffffffff16905081600560016101000a81548173ffffffffffffffffffffffffffffffffffffffff021916908373ffffffffffffffffffffffffffffffffffffffff1602179055508173ffffffffffffffffffffffffffffffffffffffff168173ffffffffffffffffffffffffffffffffffffffff167f8be0079c531659141344cd1fd0a4f28419497f9722a3daafe3b4186f6b6457e060405160405180910390a35050565b5f60085f8373ffffffffffffffffffffffffffffffffffffffff1673ffffffffffffffffffffffffffffffffffffffff1681526020019081526020015f20549050919050565b610fd16113ef565b600160055f6101000a81548160ff0219169083151502179055507f62e78cea01bee320cd4e420270b5ea74000d11b0c9f74754ebdbfc544b05a258611014610a87565b6040516110219190611e9e565b60405180910390a1565b606061106160067f000000000000000000000000000000000000000000000000000000000000000061143090919063ffffffff16565b905090565b606061109c60077f000000000000000000000000000000000000000000000000000000000000000061143090919063ffffffff16565b905090565b5f60085f8373ffffffffffffffffffffffffffffffffffffffff1673ffffffffffffffffffffffffffffffffffffffff1681526020019081526020015f205f815480929190600101919050559050919050565b5f611106611100610ca1565b836114dd565b9050919050565b5f805f8061111d8888888861151d565b92509250925061112d8282611604565b829350505050949350505050565b5f73ffffffffffffffffffffffffffffffffffffffff168473ffffffffffffffffffffffffffffffffffffffff16036111ab575f6040517fe602df050000000000000000000000000000000000000000000000000000000081526004016111a29190611e9e565b60405180910390fd5b5f73ffffffffffffffffffffffffffffffffffffffff168373ffffffffffffffffffffffffffffffffffffffff160361121b575f6040517f94280d620000000000000000000000000000000000000000000000000000000081526004016112129190611e9e565b60405180910390fd5b8160015f8673ffffffffffffffffffffffffffffffffffffffff1673ffffffffffffffffffffffffffffffffffffffff1681526020019081526020015f205f8573ffffffffffffffffffffffffffffffffffffffff1673ffffffffffffffffffffffffffffffffffffffff1681526020019081526020015f20819055508015611304578273ffffffffffffffffffffffffffffffffffffffff168473ffffffffffffffffffffffffffffffffffffffff167f8c5be1e5ebec7d5bd14f71427d1e84f3dd0314c0f7b2291e5b200ac8c7c3b925846040516112fb9190611bf8565b60405180910390a35b50505050565b611315838383611766565b505050565b5f7f8b73c3c69bb8fe3d512ecc4cf759cc79239f7b179b0ffacaa9a75d522b39400f7f00000000000000000000000000000000000000000000000000000000000000007f000000000000000000000000000000000000000000000000000000000000000046306040516020016113949594939291906121f3565b60405160208183030381529060405280519060200120905090565b6113b761060c565b6113ed576040517f8dfc202b00000000000000000000000000000000000000000000000000000000815260040160405180910390fd5b565b6113f761060c565b1561142e576040517fd93c066500000000000000000000000000000000000000000000000000000000815260040160405180910390fd5b565b606060ff5f1b831461144c576114458361177e565b90506114d7565b81805461145890612013565b80601f016020809104026020016040519081016040528092919081815260200182805461148490612013565b80156114cf5780601f106114a6576101008083540402835291602001916114cf565b820191905f5260205f20905b8154815290600101906020018083116114b257829003601f168201915b505050505090505b92915050565b5f6040517f190100000000000000000000000000000000000000000000000000000000000081528360028201528260228201526042812091505092915050565b5f805f7f7fffffffffffffffffffffffffffffff5d576e7357a4501ddfe92f46681b20a0845f1c1115611559575f6003859250925092506115fa565b5f6001888888886040515f815260200160405260405161157c9493929190612244565b6020604051602081039080840390855afa15801561159c573d5f803e3d5ffd5b5050506020604051035190505f73ffffffffffffffffffffffffffffffffffffffff168173ffffffffffffffffffffffffffffffffffffffff16036115ed575f60015f801b935093509350506115fa565b805f805f1b935093509350505b9450945094915050565b5f600381111561161757611616612287565b5b82600381111561162a57611629612287565b5b0315611762576001600381111561164457611643612287565b5b82600381111561165757611656612287565b5b0361168e576040517ff645eedf00000000000000000000000000000000000000000000000000000000815260040160405180910390fd5b600260038111156116a2576116a1612287565b5b8260038111156116b5576116b4612287565b5b036116f957805f1c6040517ffce698f70000000000000000000000000000000000000000000000000000000081526004016116f09190611bf8565b60405180910390fd5b60038081111561170c5761170b612287565b5b82600381111561171f5761171e612287565b5b0361176157806040517fd78bce0c0000000000000000000000000000000000000000000000000000000081526004016117589190611cad565b60405180910390fd5b5b5050565b61176e6113ef565b6117798383836117f0565b505050565b60605f61178a83611a09565b90505f602067ffffffffffffffff8111156117a8576117a761210b565b5b6040519080825280601f01601f1916602001820160405280156117da5781602001600182028036833780820191505090505b5090508181528360208201528092505050919050565b5f73ffffffffffffffffffffffffffffffffffffffff168373ffffffffffffffffffffffffffffffffffffffff1603611840578060025f82825461183491906122b4565b9250508190555061190e565b5f805f8573ffffffffffffffffffffffffffffffffffffffff1673ffffffffffffffffffffffffffffffffffffffff1681526020019081526020015f20549050818110156118c9578381836040517fe450d38c0000000000000000000000000000000000000000000000000000000081526004016118c0939291906121be565b60405180910390fd5b8181035f808673ffffffffffffffffffffffffffffffffffffffff1673ffffffffffffffffffffffffffffffffffffffff1681526020019081526020015f2081905550505b5f73ffffffffffffffffffffffffffffffffffffffff168273ffffffffffffffffffffffffffffffffffffffff1603611955578060025f828254039250508190555061199f565b805f808473ffffffffffffffffffffffffffffffffffffffff1673ffffffffffffffffffffffffffffffffffffffff1681526020019081526020015f205f82825401925050819055505b8173ffffffffffffffffffffffffffffffffffffffff168373ffffffffffffffffffffffffffffffffffffffff167fddf252ad1be2c89b69c2b068fc378daa952ba7f163c4a11628f55a4df523b3ef836040516119fc9190611bf8565b60405180910390a3505050565b5f8060ff835f1c169050601f811115611a4e576040517fb3512b0c00000000000000000000000000000000000000000000000000000000815260040160405180910390fd5b80915050919050565b5f81519050919050565b5f82825260208201905092915050565b8281835e5f83830152505050565b5f601f19601f8301169050919050565b5f611a9982611a57565b611aa38185611a61565b9350611ab3818560208601611a71565b611abc81611a7f565b840191505092915050565b5f6020820190508181035f830152611adf8184611a8f565b905092915050565b5f80fd5b5f73ffffffffffffffffffffffffffffffffffffffff82169050919050565b5f611b1482611aeb565b9050919050565b611b2481611b0a565b8114611b2e575f80fd5b50565b5f81359050611b3f81611b1b565b92915050565b5f819050919050565b611b5781611b45565b8114611b61575f80fd5b50565b5f81359050611b7281611b4e565b92915050565b5f8060408385031215611b8e57611b8d611ae7565b5b5f611b9b85828601611b31565b9250506020611bac85828601611b64565b9150509250929050565b5f8115159050919050565b611bca81611bb6565b82525050565b5f602082019050611be35f830184611bc1565b92915050565b611bf281611b45565b82525050565b5f602082019050611c0b5f830184611be9565b92915050565b5f805f60608486031215611c2857611c27611ae7565b5b5f611c3586828701611b31565b9350506020611c4686828701611b31565b9250506040611c5786828701611b64565b9150509250925092565b5f60ff82169050919050565b611c7681611c61565b82525050565b5f602082019050611c8f5f830184611c6d565b92915050565b5f819050919050565b611ca781611c95565b82525050565b5f602082019050611cc05f830184611c9e565b92915050565b5f60208284031215611cdb57611cda611ae7565b5b5f611ce884828501611b64565b91505092915050565b5f60208284031215611d0657611d05611ae7565b5b5f611d1384828501611b31565b91505092915050565b5f7fff0000000000000000000000000000000000000000000000000000000000000082169050919050565b611d5081611d1c565b82525050565b611d5f81611b0a565b82525050565b5f81519050919050565b5f82825260208201905092915050565b5f819050602082019050919050565b611d9781611b45565b82525050565b5f611da88383611d8e565b60208301905092915050565b5f602082019050919050565b5f611dca82611d65565b611dd48185611d6f565b9350611ddf83611d7f565b805f5b83811015611e0f578151611df68882611d9d565b9750611e0183611db4565b925050600181019050611de2565b5085935050505092915050565b5f60e082019050611e2f5f83018a611d47565b8181036020830152611e418189611a8f565b90508181036040830152611e558188611a8f565b9050611e646060830187611be9565b611e716080830186611d56565b611e7e60a0830185611c9e565b81810360c0830152611e908184611dc0565b905098975050505050505050565b5f602082019050611eb15f830184611d56565b92915050565b611ec081611c61565b8114611eca575f80fd5b50565b5f81359050611edb81611eb7565b92915050565b611eea81611c95565b8114611ef4575f80fd5b50565b5f81359050611f0581611ee1565b92915050565b5f805f805f805f60e0888a031215611f2657611f25611ae7565b5b5f611f338a828b01611b31565b9750506020611f448a828b01611b31565b9650506040611f558a828b01611b64565b9550506060611f668a828b01611b64565b9450506080611f778a828b01611ecd565b93505060a0611f888a828b01611ef7565b92505060c0611f998a828b01611ef7565b91505092959891949750929550565b5f8060408385031215611fbe57611fbd611ae7565b5b5f611fcb85828601611b31565b9250506020611fdc85828601611b31565b9150509250929050565b7f4e487b71000000000000000000000000000000000000000000000000000000005f52602260045260245ffd5b5f600282049050600182168061202a57607f821691505b60208210810361203d5761203c611fe6565b5b50919050565b7f4e487b71000000000000000000000000000000000000000000000000000000005f52601160045260245ffd5b5f61207a82611b45565b915061208583611b45565b925082820390508181111561209d5761209c612043565b5b92915050565b7f207374696c6c20696e20636f6f6c20646f776e20706572696f642000000000005f82015250565b5f6120d7601b83611a61565b91506120e2826120a3565b602082019050919050565b5f6020820190508181035f830152612104816120cb565b9050919050565b7f4e487b71000000000000000000000000000000000000000000000000000000005f52604160045260245ffd5b5f60c08201905061214b5f830189611c9e565b6121586020830188611d56565b6121656040830187611d56565b6121726060830186611be9565b61217f6080830185611be9565b61218c60a0830184611be9565b979650505050505050565b5f6040820190506121aa5f830185611d56565b6121b76020830184611d56565b9392505050565b5f6060820190506121d15f830186611d56565b6121de6020830185611be9565b6121eb6040830184611be9565b949350505050565b5f60a0820190506122065f830188611c9e565b6122136020830187611c9e565b6122206040830186611c9e565b61222d6060830185611be9565b61223a6080830184611d56565b9695505050505050565b5f6080820190506122575f830187611c9e565b6122646020830186611c6d565b6122716040830185611c9e565b61227e6060830184611c9e565b95945050505050565b7f4e487b71000000000000000000000000000000000000000000000000000000005f52602160045260245ffd5b5f6122be82611b45565b91506122c983611b45565b92508282019050808211156122e1576122e0612043565b5b9291505056fea26469706673582212207a368fbd3f227be02eec6d9583642e260d94dae6f5db1da84f93f61f570c81c464736f6c634300081a0033",
					"opcodes": "PUSH2 0x160 PUSH1 0x40 MSTORE PUSH3 0x15180 PUSH1 0x9 SSTORE PUSH9 0x6C6B935B8BBD400000 PUSH1 0xB SSTORE CALLVALUE DUP1 ISZERO PUSH2 0x24 JUMPI PUSH0 DUP1 REVERT JUMPDEST POP PUSH1 0x40 MLOAD PUSH2 0x2D1F CODESIZE SUB DUP1 PUSH2 0x2D1F DUP4 CODECOPY DUP2 DUP2 ADD PUSH1 0x40 MSTORE DUP2 ADD SWAP1 PUSH2 0x46 SWAP2 SWAP1 PUSH2 0x4C4 JUMP JUMPDEST PUSH1 0x40 MLOAD DUP1 PUSH1 0x40 ADD PUSH1 0x40 MSTORE DUP1 PUSH1 0x10 DUP2 MSTORE PUSH1 0x20 ADD PUSH32 0x4D657444726F7054657374546F6B656E00000000000000000000000000000000 DUP2 MSTORE POP DUP1 PUSH1 0x40 MLOAD DUP1 PUSH1 0x40 ADD PUSH1 0x40 MSTORE DUP1 PUSH1 0x1 DUP2 MSTORE PUSH1 0x20 ADD PUSH32 0x3100000000000000000000000000000000000000000000000000000000000000 DUP2 MSTORE POP DUP4 PUSH1 0x40 MLOAD DUP1 PUSH1 0x40 ADD PUSH1 0x40 MSTORE DUP1 PUSH1 0x10 DUP2 MSTORE PUSH1 0x20 ADD PUSH32 0x4D657444726F7054657374546F6B656E00000000000000000000000000000000 DUP2 MSTORE POP PUSH1 0x40 MLOAD DUP1 PUSH1 0x40 ADD PUSH1 0x40 MSTORE DUP1 PUSH1 0x4 DUP2 MSTORE PUSH1 0x20 ADD PUSH32 0x4D44545400000000000000000000000000000000000000000000000000000000 DUP2 MSTORE POP DUP2 PUSH1 0x3 SWAP1 DUP2 PUSH2 0x12F SWAP2 SWAP1 PUSH2 0x729 JUMP JUMPDEST POP DUP1 PUSH1 0x4 SWAP1 DUP2 PUSH2 0x13F SWAP2 SWAP1 PUSH2 0x729 JUMP JUMPDEST POP POP POP PUSH0 PUSH1 0x5 PUSH0 PUSH2 0x100 EXP DUP2 SLOAD DUP2 PUSH1 0xFF MUL NOT AND SWAP1 DUP4 ISZERO ISZERO MUL OR SWAP1 SSTORE POP PUSH0 PUSH20 0xFFFFFFFFFFFFFFFFFFFFFFFFFFFFFFFFFFFFFFFF AND DUP2 PUSH20 0xFFFFFFFFFFFFFFFFFFFFFFFFFFFFFFFFFFFFFFFF AND SUB PUSH2 0x1CB JUMPI PUSH0 PUSH1 0x40 MLOAD PUSH32 0x1E4FBDF700000000000000000000000000000000000000000000000000000000 DUP2 MSTORE PUSH1 0x4 ADD PUSH2 0x1C2 SWAP2 SWAP1 PUSH2 0x807 JUMP JUMPDEST PUSH1 0x40 MLOAD DUP1 SWAP2 SUB SWAP1 REVERT JUMPDEST PUSH2 0x1DA DUP2 PUSH2 0x28C PUSH1 0x20 SHL PUSH1 0x20 SHR JUMP JUMPDEST POP PUSH2 0x1EF PUSH1 0x6 DUP4 PUSH2 0x351 PUSH1 0x20 SHL SWAP1 SWAP2 SWAP1 PUSH1 0x20 SHR JUMP JUMPDEST PUSH2 0x120 DUP2 DUP2 MSTORE POP POP PUSH2 0x20B PUSH1 0x7 DUP3 PUSH2 0x351 PUSH1 0x20 SHL SWAP1 SWAP2 SWAP1 PUSH1 0x20 SHR JUMP JUMPDEST PUSH2 0x140 DUP2 DUP2 MSTORE POP POP DUP2 DUP1 MLOAD SWAP1 PUSH1 0x20 ADD KECCAK256 PUSH1 0xE0 DUP2 DUP2 MSTORE POP POP DUP1 DUP1 MLOAD SWAP1 PUSH1 0x20 ADD KECCAK256 PUSH2 0x100 DUP2 DUP2 MSTORE POP POP CHAINID PUSH1 0xA0 DUP2 DUP2 MSTORE POP POP PUSH2 0x248 PUSH2 0x39E PUSH1 0x20 SHL PUSH1 0x20 SHR JUMP JUMPDEST PUSH1 0x80 DUP2 DUP2 MSTORE POP POP ADDRESS PUSH20 0xFFFFFFFFFFFFFFFFFFFFFFFFFFFFFFFFFFFFFFFF AND PUSH1 0xC0 DUP2 PUSH20 0xFFFFFFFFFFFFFFFFFFFFFFFFFFFFFFFFFFFFFFFF AND DUP2 MSTORE POP POP POP POP POP POP PUSH2 0x9B1 JUMP JUMPDEST PUSH0 PUSH1 0x5 PUSH1 0x1 SWAP1 SLOAD SWAP1 PUSH2 0x100 EXP SWAP1 DIV PUSH20 0xFFFFFFFFFFFFFFFFFFFFFFFFFFFFFFFFFFFFFFFF AND SWAP1 POP DUP2 PUSH1 0x5 PUSH1 0x1 PUSH2 0x100 EXP DUP2 SLOAD DUP2 PUSH20 0xFFFFFFFFFFFFFFFFFFFFFFFFFFFFFFFFFFFFFFFF MUL NOT AND SWAP1 DUP4 PUSH20 0xFFFFFFFFFFFFFFFFFFFFFFFFFFFFFFFFFFFFFFFF AND MUL OR SWAP1 SSTORE POP DUP2 PUSH20 0xFFFFFFFFFFFFFFFFFFFFFFFFFFFFFFFFFFFFFFFF AND DUP2 PUSH20 0xFFFFFFFFFFFFFFFFFFFFFFFFFFFFFFFFFFFFFFFF AND PUSH32 0x8BE0079C531659141344CD1FD0A4F28419497F9722A3DAAFE3B4186F6B6457E0 PUSH1 0x40 MLOAD PUSH1 0x40 MLOAD DUP1 SWAP2 SUB SWAP1 LOG3 POP POP JUMP JUMPDEST PUSH0 PUSH1 0x20 DUP4 MLOAD LT ISZERO PUSH2 0x372 JUMPI PUSH2 0x36B DUP4 PUSH2 0x3F8 PUSH1 0x20 SHL PUSH1 0x20 SHR JUMP JUMPDEST SWAP1 POP PUSH2 0x398 JUMP JUMPDEST DUP3 PUSH2 0x382 DUP4 PUSH2 0x45D PUSH1 0x20 SHL PUSH1 0x20 SHR JUMP JUMPDEST PUSH0 ADD SWAP1 DUP2 PUSH2 0x390 SWAP2 SWAP1 PUSH2 0x729 JUMP JUMPDEST POP PUSH1 0xFF PUSH0 SHL SWAP1 POP JUMPDEST SWAP3 SWAP2 POP POP JUMP JUMPDEST PUSH0 PUSH32 0x8B73C3C69BB8FE3D512ECC4CF759CC79239F7B179B0FFACAA9A75D522B39400F PUSH1 0xE0 MLOAD PUSH2 0x100 MLOAD CHAINID ADDRESS PUSH1 0x40 MLOAD PUSH1 0x20 ADD PUSH2 0x3DD SWAP6 SWAP5 SWAP4 SWAP3 SWAP2 SWAP1 PUSH2 0x847 JUMP JUMPDEST PUSH1 0x40 MLOAD PUSH1 0x20 DUP2 DUP4 SUB SUB DUP2 MSTORE SWAP1 PUSH1 0x40 MSTORE DUP1 MLOAD SWAP1 PUSH1 0x20 ADD KECCAK256 SWAP1 POP SWAP1 JUMP JUMPDEST PUSH0 DUP1 DUP3 SWAP1 POP PUSH1 0x1F DUP2 MLOAD GT ISZERO PUSH2 0x444 JUMPI DUP3 PUSH1 0x40 MLOAD PUSH32 0x305A27A900000000000000000000000000000000000000000000000000000000 DUP2 MSTORE PUSH1 0x4 ADD PUSH2 0x43B SWAP2 SWAP1 PUSH2 0x8FE JUMP JUMPDEST PUSH1 0x40 MLOAD DUP1 SWAP2 SUB SWAP1 REVERT JUMPDEST DUP1 MLOAD DUP2 PUSH2 0x450 SWAP1 PUSH2 0x94B JUMP JUMPDEST PUSH0 SHR OR PUSH0 SHL SWAP2 POP POP SWAP2 SWAP1 POP JUMP JUMPDEST PUSH0 DUP2 SWAP1 POP SWAP2 SWAP1 POP JUMP JUMPDEST PUSH0 DUP1 REVERT JUMPDEST PUSH0 PUSH20 0xFFFFFFFFFFFFFFFFFFFFFFFFFFFFFFFFFFFFFFFF DUP3 AND SWAP1 POP SWAP2 SWAP1 POP JUMP JUMPDEST PUSH0 PUSH2 0x493 DUP3 PUSH2 0x46A JUMP JUMPDEST SWAP1 POP SWAP2 SWAP1 POP JUMP JUMPDEST PUSH2 0x4A3 DUP2 PUSH2 0x489 JUMP JUMPDEST DUP2 EQ PUSH2 0x4AD JUMPI PUSH0 DUP1 REVERT JUMPDEST POP JUMP JUMPDEST PUSH0 DUP2 MLOAD SWAP1 POP PUSH2 0x4BE DUP2 PUSH2 0x49A JUMP JUMPDEST SWAP3 SWAP2 POP POP JUMP JUMPDEST PUSH0 PUSH1 0x20 DUP3 DUP5 SUB SLT ISZERO PUSH2 0x4D9 JUMPI PUSH2 0x4D8 PUSH2 0x466 JUMP JUMPDEST JUMPDEST PUSH0 PUSH2 0x4E6 DUP5 DUP3 DUP6 ADD PUSH2 0x4B0 JUMP JUMPDEST SWAP2 POP POP SWAP3 SWAP2 POP POP JUMP JUMPDEST PUSH0 DUP2 MLOAD SWAP1 POP SWAP2 SWAP1 POP JUMP JUMPDEST PUSH32 0x4E487B7100000000000000000000000000000000000000000000000000000000 PUSH0 MSTORE PUSH1 0x41 PUSH1 0x4 MSTORE PUSH1 0x24 PUSH0 REVERT JUMPDEST PUSH32 0x4E487B7100000000000000000000000000000000000000000000000000000000 PUSH0 MSTORE PUSH1 0x22 PUSH1 0x4 MSTORE PUSH1 0x24 PUSH0 REVERT JUMPDEST PUSH0 PUSH1 0x2 DUP3 DIV SWAP1 POP PUSH1 0x1 DUP3 AND DUP1 PUSH2 0x56A JUMPI PUSH1 0x7F DUP3 AND SWAP2 POP JUMPDEST PUSH1 0x20 DUP3 LT DUP2 SUB PUSH2 0x57D JUMPI PUSH2 0x57C PUSH2 0x526 JUMP JUMPDEST JUMPDEST POP SWAP2 SWAP1 POP JUMP JUMPDEST PUSH0 DUP2 SWAP1 POP DUP2 PUSH0 MSTORE PUSH1 0x20 PUSH0 KECCAK256 SWAP1 POP SWAP2 SWAP1 POP JUMP JUMPDEST PUSH0 PUSH1 0x20 PUSH1 0x1F DUP4 ADD DIV SWAP1 POP SWAP2 SWAP1 POP JUMP JUMPDEST PUSH0 DUP3 DUP3 SHL SWAP1 POP SWAP3 SWAP2 POP POP JUMP JUMPDEST PUSH0 PUSH1 0x8 DUP4 MUL PUSH2 0x5DF PUSH32 0xFFFFFFFFFFFFFFFFFFFFFFFFFFFFFFFFFFFFFFFFFFFFFFFFFFFFFFFFFFFFFFFF DUP3 PUSH2 0x5A4 JUMP JUMPDEST PUSH2 0x5E9 DUP7 DUP4 PUSH2 0x5A4 JUMP JUMPDEST SWAP6 POP DUP1 NOT DUP5 AND SWAP4 POP DUP1 DUP7 AND DUP5 OR SWAP3 POP POP POP SWAP4 SWAP3 POP POP POP JUMP JUMPDEST PUSH0 DUP2 SWAP1 POP SWAP2 SWAP1 POP JUMP JUMPDEST PUSH0 DUP2 SWAP1 POP SWAP2 SWAP1 POP JUMP JUMPDEST PUSH0 PUSH2 0x62D PUSH2 0x628 PUSH2 0x623 DUP5 PUSH2 0x601 JUMP JUMPDEST PUSH2 0x60A JUMP JUMPDEST PUSH2 0x601 JUMP JUMPDEST SWAP1 POP SWAP2 SWAP1 POP JUMP JUMPDEST PUSH0 DUP2 SWAP1 POP SWAP2 SWAP1 POP JUMP JUMPDEST PUSH2 0x646 DUP4 PUSH2 0x613 JUMP JUMPDEST PUSH2 0x65A PUSH2 0x652 DUP3 PUSH2 0x634 JUMP JUMPDEST DUP5 DUP5 SLOAD PUSH2 0x5B0 JUMP JUMPDEST DUP3 SSTORE POP POP POP POP JUMP JUMPDEST PUSH0 SWAP1 JUMP JUMPDEST PUSH2 0x66E PUSH2 0x662 JUMP JUMPDEST PUSH2 0x679 DUP2 DUP5 DUP5 PUSH2 0x63D JUMP JUMPDEST POP POP POP JUMP JUMPDEST JUMPDEST DUP2 DUP2 LT ISZERO PUSH2 0x69C JUMPI PUSH2 0x691 PUSH0 DUP3 PUSH2 0x666 JUMP JUMPDEST PUSH1 0x1 DUP2 ADD SWAP1 POP PUSH2 0x67F JUMP JUMPDEST POP POP JUMP JUMPDEST PUSH1 0x1F DUP3 GT ISZERO PUSH2 0x6E1 JUMPI PUSH2 0x6B2 DUP2 PUSH2 0x583 JUMP JUMPDEST PUSH2 0x6BB DUP5 PUSH2 0x595 JUMP JUMPDEST DUP2 ADD PUSH1 0x20 DUP6 LT ISZERO PUSH2 0x6CA JUMPI DUP2 SWAP1 POP JUMPDEST PUSH2 0x6DE PUSH2 0x6D6 DUP6 PUSH2 0x595 JUMP JUMPDEST DUP4 ADD DUP3 PUSH2 0x67E JUMP JUMPDEST POP POP JUMPDEST POP POP POP JUMP JUMPDEST PUSH0 DUP3 DUP3 SHR SWAP1 POP SWAP3 SWAP2 POP POP JUMP JUMPDEST PUSH0 PUSH2 0x701 PUSH0 NOT DUP5 PUSH1 0x8 MUL PUSH2 0x6E6 JUMP JUMPDEST NOT DUP1 DUP4 AND SWAP2 POP POP SWAP3 SWAP2 POP POP JUMP JUMPDEST PUSH0 PUSH2 0x719 DUP4 DUP4 PUSH2 0x6F2 JUMP JUMPDEST SWAP2 POP DUP3 PUSH1 0x2 MUL DUP3 OR SWAP1 POP SWAP3 SWAP2 POP POP JUMP JUMPDEST PUSH2 0x732 DUP3 PUSH2 0x4EF JUMP JUMPDEST PUSH8 0xFFFFFFFFFFFFFFFF DUP2 GT ISZERO PUSH2 0x74B JUMPI PUSH2 0x74A PUSH2 0x4F9 JUMP JUMPDEST JUMPDEST PUSH2 0x755 DUP3 SLOAD PUSH2 0x553 JUMP JUMPDEST PUSH2 0x760 DUP3 DUP3 DUP6 PUSH2 0x6A0 JUMP JUMPDEST PUSH0 PUSH1 0x20 SWAP1 POP PUSH1 0x1F DUP4 GT PUSH1 0x1 DUP2 EQ PUSH2 0x791 JUMPI PUSH0 DUP5 ISZERO PUSH2 0x77F JUMPI DUP3 DUP8 ADD MLOAD SWAP1 POP JUMPDEST PUSH2 0x789 DUP6 DUP3 PUSH2 0x70E JUMP JUMPDEST DUP7 SSTORE POP PUSH2 0x7F0 JUMP JUMPDEST PUSH1 0x1F NOT DUP5 AND PUSH2 0x79F DUP7 PUSH2 0x583 JUMP JUMPDEST PUSH0 JUMPDEST DUP3 DUP2 LT ISZERO PUSH2 0x7C6 JUMPI DUP5 DUP10 ADD MLOAD DUP3 SSTORE PUSH1 0x1 DUP3 ADD SWAP2 POP PUSH1 0x20 DUP6 ADD SWAP5 POP PUSH1 0x20 DUP2 ADD SWAP1 POP PUSH2 0x7A1 JUMP JUMPDEST DUP7 DUP4 LT ISZERO PUSH2 0x7E3 JUMPI DUP5 DUP10 ADD MLOAD PUSH2 0x7DF PUSH1 0x1F DUP10 AND DUP3 PUSH2 0x6F2 JUMP JUMPDEST DUP4 SSTORE POP JUMPDEST PUSH1 0x1 PUSH1 0x2 DUP9 MUL ADD DUP9 SSTORE POP POP POP JUMPDEST POP POP POP POP POP POP JUMP JUMPDEST PUSH2 0x801 DUP2 PUSH2 0x489 JUMP JUMPDEST DUP3 MSTORE POP POP JUMP JUMPDEST PUSH0 PUSH1 0x20 DUP3 ADD SWAP1 POP PUSH2 0x81A PUSH0 DUP4 ADD DUP5 PUSH2 0x7F8 JUMP JUMPDEST SWAP3 SWAP2 POP POP JUMP JUMPDEST PUSH0 DUP2 SWAP1 POP SWAP2 SWAP1 POP JUMP JUMPDEST PUSH2 0x832 DUP2 PUSH2 0x820 JUMP JUMPDEST DUP3 MSTORE POP POP JUMP JUMPDEST PUSH2 0x841 DUP2 PUSH2 0x601 JUMP JUMPDEST DUP3 MSTORE POP POP JUMP JUMPDEST PUSH0 PUSH1 0xA0 DUP3 ADD SWAP1 POP PUSH2 0x85A PUSH0 DUP4 ADD DUP9 PUSH2 0x829 JUMP JUMPDEST PUSH2 0x867 PUSH1 0x20 DUP4 ADD DUP8 PUSH2 0x829 JUMP JUMPDEST PUSH2 0x874 PUSH1 0x40 DUP4 ADD DUP7 PUSH2 0x829 JUMP JUMPDEST PUSH2 0x881 PUSH1 0x60 DUP4 ADD DUP6 PUSH2 0x838 JUMP JUMPDEST PUSH2 0x88E PUSH1 0x80 DUP4 ADD DUP5 PUSH2 0x7F8 JUMP JUMPDEST SWAP7 SWAP6 POP POP POP POP POP POP JUMP JUMPDEST PUSH0 DUP3 DUP3 MSTORE PUSH1 0x20 DUP3 ADD SWAP1 POP SWAP3 SWAP2 POP POP JUMP JUMPDEST DUP3 DUP2 DUP4 MCOPY PUSH0 DUP4 DUP4 ADD MSTORE POP POP POP JUMP JUMPDEST PUSH0 PUSH1 0x1F NOT PUSH1 0x1F DUP4 ADD AND SWAP1 POP SWAP2 SWAP1 POP JUMP JUMPDEST PUSH0 PUSH2 0x8D0 DUP3 PUSH2 0x4EF JUMP JUMPDEST PUSH2 0x8DA DUP2 DUP6 PUSH2 0x898 JUMP JUMPDEST SWAP4 POP PUSH2 0x8EA DUP2 DUP6 PUSH1 0x20 DUP7 ADD PUSH2 0x8A8 JUMP JUMPDEST PUSH2 0x8F3 DUP2 PUSH2 0x8B6 JUMP JUMPDEST DUP5 ADD SWAP2 POP POP SWAP3 SWAP2 POP POP JUMP JUMPDEST PUSH0 PUSH1 0x20 DUP3 ADD SWAP1 POP DUP2 DUP2 SUB PUSH0 DUP4 ADD MSTORE PUSH2 0x916 DUP2 DUP5 PUSH2 0x8C6 JUMP JUMPDEST SWAP1 POP SWAP3 SWAP2 POP POP JUMP JUMPDEST PUSH0 DUP2 MLOAD SWAP1 POP SWAP2 SWAP1 POP JUMP JUMPDEST PUSH0 DUP2 SWAP1 POP PUSH1 0x20 DUP3 ADD SWAP1 POP SWAP2 SWAP1 POP JUMP JUMPDEST PUSH0 PUSH2 0x942 DUP3 MLOAD PUSH2 0x820 JUMP JUMPDEST DUP1 SWAP2 POP POP SWAP2 SWAP1 POP JUMP JUMPDEST PUSH0 PUSH2 0x955 DUP3 PUSH2 0x91E JUMP JUMPDEST DUP3 PUSH2 0x95F DUP5 PUSH2 0x928 JUMP JUMPDEST SWAP1 POP PUSH2 0x96A DUP2 PUSH2 0x937 JUMP JUMPDEST SWAP3 POP PUSH1 0x20 DUP3 LT ISZERO PUSH2 0x9AA JUMPI PUSH2 0x9A5 PUSH32 0xFFFFFFFFFFFFFFFFFFFFFFFFFFFFFFFFFFFFFFFFFFFFFFFFFFFFFFFFFFFFFFFF DUP4 PUSH1 0x20 SUB PUSH1 0x8 MUL PUSH2 0x5A4 JUMP JUMPDEST DUP4 AND SWAP3 POP JUMPDEST POP POP SWAP2 SWAP1 POP JUMP JUMPDEST PUSH1 0x80 MLOAD PUSH1 0xA0 MLOAD PUSH1 0xC0 MLOAD PUSH1 0xE0 MLOAD PUSH2 0x100 MLOAD PUSH2 0x120 MLOAD PUSH2 0x140 MLOAD PUSH2 0x231D PUSH2 0xA02 PUSH0 CODECOPY PUSH0 PUSH2 0x106F ADD MSTORE PUSH0 PUSH2 0x1034 ADD MSTORE PUSH0 PUSH2 0x135F ADD MSTORE PUSH0 PUSH2 0x133E ADD MSTORE PUSH0 PUSH2 0xCA4 ADD MSTORE PUSH0 PUSH2 0xCFA ADD MSTORE PUSH0 PUSH2 0xD23 ADD MSTORE PUSH2 0x231D PUSH0 RETURN INVALID PUSH1 0x80 PUSH1 0x40 MSTORE CALLVALUE DUP1 ISZERO PUSH2 0xF JUMPI PUSH0 DUP1 REVERT JUMPDEST POP PUSH1 0x4 CALLDATASIZE LT PUSH2 0x14B JUMPI PUSH0 CALLDATALOAD PUSH1 0xE0 SHR DUP1 PUSH4 0x70A08231 GT PUSH2 0xC1 JUMPI DUP1 PUSH4 0x8DA5CB5B GT PUSH2 0x7A JUMPI DUP1 PUSH4 0x8DA5CB5B EQ PUSH2 0x359 JUMPI DUP1 PUSH4 0x95D89B41 EQ PUSH2 0x377 JUMPI DUP1 PUSH4 0xA9059CBB EQ PUSH2 0x395 JUMPI DUP1 PUSH4 0xD505ACCF EQ PUSH2 0x3C5 JUMPI DUP1 PUSH4 0xDD62ED3E EQ PUSH2 0x3E1 JUMPI DUP1 PUSH4 0xF2FDE38B EQ PUSH2 0x411 JUMPI PUSH2 0x14B JUMP JUMPDEST DUP1 PUSH4 0x70A08231 EQ PUSH2 0x2A5 JUMPI DUP1 PUSH4 0x715018A6 EQ PUSH2 0x2D5 JUMPI DUP1 PUSH4 0x79CC6790 EQ PUSH2 0x2DF JUMPI DUP1 PUSH4 0x7ECEBE00 EQ PUSH2 0x2FB JUMPI DUP1 PUSH4 0x8456CB59 EQ PUSH2 0x32B JUMPI DUP1 PUSH4 0x84B0196E EQ PUSH2 0x335 JUMPI PUSH2 0x14B JUMP JUMPDEST DUP1 PUSH4 0x313CE567 GT PUSH2 0x113 JUMPI DUP1 PUSH4 0x313CE567 EQ PUSH2 0x209 JUMPI DUP1 PUSH4 0x3644E515 EQ PUSH2 0x227 JUMPI DUP1 PUSH4 0x3F4BA83A EQ PUSH2 0x245 JUMPI DUP1 PUSH4 0x40C10F19 EQ PUSH2 0x24F JUMPI DUP1 PUSH4 0x42966C68 EQ PUSH2 0x26B JUMPI DUP1 PUSH4 0x5C975ABB EQ PUSH2 0x287 JUMPI PUSH2 0x14B JUMP JUMPDEST DUP1 PUSH4 0x6FDDE03 EQ PUSH2 0x14F JUMPI DUP1 PUSH4 0x95EA7B3 EQ PUSH2 0x16D JUMPI DUP1 PUSH4 0x1249C58B EQ PUSH2 0x19D JUMPI DUP1 PUSH4 0x18160DDD EQ PUSH2 0x1BB JUMPI DUP1 PUSH4 0x23B872DD EQ PUSH2 0x1D9 JUMPI JUMPDEST PUSH0 DUP1 REVERT JUMPDEST PUSH2 0x157 PUSH2 0x42D JUMP JUMPDEST PUSH1 0x40 MLOAD PUSH2 0x164 SWAP2 SWAP1 PUSH2 0x1AC7 JUMP JUMPDEST PUSH1 0x40 MLOAD DUP1 SWAP2 SUB SWAP1 RETURN JUMPDEST PUSH2 0x187 PUSH1 0x4 DUP1 CALLDATASIZE SUB DUP2 ADD SWAP1 PUSH2 0x182 SWAP2 SWAP1 PUSH2 0x1B78 JUMP JUMPDEST PUSH2 0x4BD JUMP JUMPDEST PUSH1 0x40 MLOAD PUSH2 0x194 SWAP2 SWAP1 PUSH2 0x1BD0 JUMP JUMPDEST PUSH1 0x40 MLOAD DUP1 SWAP2 SUB SWAP1 RETURN JUMPDEST PUSH2 0x1A5 PUSH2 0x4DF JUMP JUMPDEST PUSH1 0x40 MLOAD PUSH2 0x1B2 SWAP2 SWAP1 PUSH2 0x1BF8 JUMP JUMPDEST PUSH1 0x40 MLOAD DUP1 SWAP2 SUB SWAP1 RETURN JUMPDEST PUSH2 0x1C3 PUSH2 0x583 JUMP JUMPDEST PUSH1 0x40 MLOAD PUSH2 0x1D0 SWAP2 SWAP1 PUSH2 0x1BF8 JUMP JUMPDEST PUSH1 0x40 MLOAD DUP1 SWAP2 SUB SWAP1 RETURN JUMPDEST PUSH2 0x1F3 PUSH1 0x4 DUP1 CALLDATASIZE SUB DUP2 ADD SWAP1 PUSH2 0x1EE SWAP2 SWAP1 PUSH2 0x1C11 JUMP JUMPDEST PUSH2 0x58C JUMP JUMPDEST PUSH1 0x40 MLOAD PUSH2 0x200 SWAP2 SWAP1 PUSH2 0x1BD0 JUMP JUMPDEST PUSH1 0x40 MLOAD DUP1 SWAP2 SUB SWAP1 RETURN JUMPDEST PUSH2 0x211 PUSH2 0x5BA JUMP JUMPDEST PUSH1 0x40 MLOAD PUSH2 0x21E SWAP2 SWAP1 PUSH2 0x1C7C JUMP JUMPDEST PUSH1 0x40 MLOAD DUP1 SWAP2 SUB SWAP1 RETURN JUMPDEST PUSH2 0x22F PUSH2 0x5C2 JUMP JUMPDEST PUSH1 0x40 MLOAD PUSH2 0x23C SWAP2 SWAP1 PUSH2 0x1CAD JUMP JUMPDEST PUSH1 0x40 MLOAD DUP1 SWAP2 SUB SWAP1 RETURN JUMPDEST PUSH2 0x24D PUSH2 0x5D0 JUMP JUMPDEST STOP JUMPDEST PUSH2 0x269 PUSH1 0x4 DUP1 CALLDATASIZE SUB DUP2 ADD SWAP1 PUSH2 0x264 SWAP2 SWAP1 PUSH2 0x1B78 JUMP JUMPDEST PUSH2 0x5E2 JUMP JUMPDEST STOP JUMPDEST PUSH2 0x285 PUSH1 0x4 DUP1 CALLDATASIZE SUB DUP2 ADD SWAP1 PUSH2 0x280 SWAP2 SWAP1 PUSH2 0x1CC6 JUMP JUMPDEST PUSH2 0x5F8 JUMP JUMPDEST STOP JUMPDEST PUSH2 0x28F PUSH2 0x60C JUMP JUMPDEST PUSH1 0x40 MLOAD PUSH2 0x29C SWAP2 SWAP1 PUSH2 0x1BD0 JUMP JUMPDEST PUSH1 0x40 MLOAD DUP1 SWAP2 SUB SWAP1 RETURN JUMPDEST PUSH2 0x2BF PUSH1 0x4 DUP1 CALLDATASIZE SUB DUP2 ADD SWAP1 PUSH2 0x2BA SWAP2 SWAP1 PUSH2 0x1CF1 JUMP JUMPDEST PUSH2 0x621 JUMP JUMPDEST PUSH1 0x40 MLOAD PUSH2 0x2CC SWAP2 SWAP1 PUSH2 0x1BF8 JUMP JUMPDEST PUSH1 0x40 MLOAD DUP1 SWAP2 SUB SWAP1 RETURN JUMPDEST PUSH2 0x2DD PUSH2 0x666 JUMP JUMPDEST STOP JUMPDEST PUSH2 0x2F9 PUSH1 0x4 DUP1 CALLDATASIZE SUB DUP2 ADD SWAP1 PUSH2 0x2F4 SWAP2 SWAP1 PUSH2 0x1B78 JUMP JUMPDEST PUSH2 0x679 JUMP JUMPDEST STOP JUMPDEST PUSH2 0x315 PUSH1 0x4 DUP1 CALLDATASIZE SUB DUP2 ADD SWAP1 PUSH2 0x310 SWAP2 SWAP1 PUSH2 0x1CF1 JUMP JUMPDEST PUSH2 0x699 JUMP JUMPDEST PUSH1 0x40 MLOAD PUSH2 0x322 SWAP2 SWAP1 PUSH2 0x1BF8 JUMP JUMPDEST PUSH1 0x40 MLOAD DUP1 SWAP2 SUB SWAP1 RETURN JUMPDEST PUSH2 0x333 PUSH2 0x6AA JUMP JUMPDEST STOP JUMPDEST PUSH2 0x33D PUSH2 0x6BC JUMP JUMPDEST PUSH1 0x40 MLOAD PUSH2 0x350 SWAP8 SWAP7 SWAP6 SWAP5 SWAP4 SWAP3 SWAP2 SWAP1 PUSH2 0x1E1C JUMP JUMPDEST PUSH1 0x40 MLOAD DUP1 SWAP2 SUB SWAP1 RETURN JUMPDEST PUSH2 0x361 PUSH2 0x761 JUMP JUMPDEST PUSH1 0x40 MLOAD PUSH2 0x36E SWAP2 SWAP1 PUSH2 0x1E9E JUMP JUMPDEST PUSH1 0x40 MLOAD DUP1 SWAP2 SUB SWAP1 RETURN JUMPDEST PUSH2 0x37F PUSH2 0x78A JUMP JUMPDEST PUSH1 0x40 MLOAD PUSH2 0x38C SWAP2 SWAP1 PUSH2 0x1AC7 JUMP JUMPDEST PUSH1 0x40 MLOAD DUP1 SWAP2 SUB SWAP1 RETURN JUMPDEST PUSH2 0x3AF PUSH1 0x4 DUP1 CALLDATASIZE SUB DUP2 ADD SWAP1 PUSH2 0x3AA SWAP2 SWAP1 PUSH2 0x1B78 JUMP JUMPDEST PUSH2 0x81A JUMP JUMPDEST PUSH1 0x40 MLOAD PUSH2 0x3BC SWAP2 SWAP1 PUSH2 0x1BD0 JUMP JUMPDEST PUSH1 0x40 MLOAD DUP1 SWAP2 SUB SWAP1 RETURN JUMPDEST PUSH2 0x3DF PUSH1 0x4 DUP1 CALLDATASIZE SUB DUP2 ADD SWAP1 PUSH2 0x3DA SWAP2 SWAP1 PUSH2 0x1F0B JUMP JUMPDEST PUSH2 0x83C JUMP JUMPDEST STOP JUMPDEST PUSH2 0x3FB PUSH1 0x4 DUP1 CALLDATASIZE SUB DUP2 ADD SWAP1 PUSH2 0x3F6 SWAP2 SWAP1 PUSH2 0x1FA8 JUMP JUMPDEST PUSH2 0x981 JUMP JUMPDEST PUSH1 0x40 MLOAD PUSH2 0x408 SWAP2 SWAP1 PUSH2 0x1BF8 JUMP JUMPDEST PUSH1 0x40 MLOAD DUP1 SWAP2 SUB SWAP1 RETURN JUMPDEST PUSH2 0x42B PUSH1 0x4 DUP1 CALLDATASIZE SUB DUP2 ADD SWAP1 PUSH2 0x426 SWAP2 SWAP1 PUSH2 0x1CF1 JUMP JUMPDEST PUSH2 0xA03 JUMP JUMPDEST STOP JUMPDEST PUSH1 0x60 PUSH1 0x3 DUP1 SLOAD PUSH2 0x43C SWAP1 PUSH2 0x2013 JUMP JUMPDEST DUP1 PUSH1 0x1F ADD PUSH1 0x20 DUP1 SWAP2 DIV MUL PUSH1 0x20 ADD PUSH1 0x40 MLOAD SWAP1 DUP2 ADD PUSH1 0x40 MSTORE DUP1 SWAP3 SWAP2 SWAP1 DUP2 DUP2 MSTORE PUSH1 0x20 ADD DUP3 DUP1 SLOAD PUSH2 0x468 SWAP1 PUSH2 0x2013 JUMP JUMPDEST DUP1 ISZERO PUSH2 0x4B3 JUMPI DUP1 PUSH1 0x1F LT PUSH2 0x48A JUMPI PUSH2 0x100 DUP1 DUP4 SLOAD DIV MUL DUP4 MSTORE SWAP2 PUSH1 0x20 ADD SWAP2 PUSH2 0x4B3 JUMP JUMPDEST DUP3 ADD SWAP2 SWAP1 PUSH0 MSTORE PUSH1 0x20 PUSH0 KECCAK256 SWAP1 JUMPDEST DUP2 SLOAD DUP2 MSTORE SWAP1 PUSH1 0x1 ADD SWAP1 PUSH1 0x20 ADD DUP1 DUP4 GT PUSH2 0x496 JUMPI DUP3 SWAP1 SUB PUSH1 0x1F AND DUP3 ADD SWAP2 JUMPDEST POP POP POP POP POP SWAP1 POP SWAP1 JUMP JUMPDEST PUSH0 DUP1 PUSH2 0x4C7 PUSH2 0xA87 JUMP JUMPDEST SWAP1 POP PUSH2 0x4D4 DUP2 DUP6 DUP6 PUSH2 0xA8E JUMP JUMPDEST PUSH1 0x1 SWAP2 POP POP SWAP3 SWAP2 POP POP JUMP JUMPDEST PUSH0 DUP1 PUSH1 0xA PUSH0 CALLER PUSH20 0xFFFFFFFFFFFFFFFFFFFFFFFFFFFFFFFFFFFFFFFF AND PUSH20 0xFFFFFFFFFFFFFFFFFFFFFFFFFFFFFFFFFFFFFFFF AND DUP2 MSTORE PUSH1 0x20 ADD SWAP1 DUP2 MSTORE PUSH1 0x20 ADD PUSH0 KECCAK256 SLOAD TIMESTAMP PUSH2 0x52A SWAP2 SWAP1 PUSH2 0x2070 JUMP JUMPDEST SWAP1 POP PUSH1 0x9 SLOAD DUP2 SGT PUSH2 0x570 JUMPI PUSH1 0x40 MLOAD PUSH32 0x8C379A000000000000000000000000000000000000000000000000000000000 DUP2 MSTORE PUSH1 0x4 ADD PUSH2 0x567 SWAP1 PUSH2 0x20ED JUMP JUMPDEST PUSH1 0x40 MLOAD DUP1 SWAP2 SUB SWAP1 REVERT JUMPDEST PUSH1 0xB SLOAD SWAP2 POP PUSH2 0x57F CALLER DUP4 PUSH2 0xAA0 JUMP JUMPDEST POP SWAP1 JUMP JUMPDEST PUSH0 PUSH1 0x2 SLOAD SWAP1 POP SWAP1 JUMP JUMPDEST PUSH0 DUP1 PUSH2 0x596 PUSH2 0xA87 JUMP JUMPDEST SWAP1 POP PUSH2 0x5A3 DUP6 DUP3 DUP6 PUSH2 0xB1F JUMP JUMPDEST PUSH2 0x5AE DUP6 DUP6 DUP6 PUSH2 0xBB1 JUMP JUMPDEST PUSH1 0x1 SWAP2 POP POP SWAP4 SWAP3 POP POP POP JUMP JUMPDEST PUSH0 PUSH1 0x12 SWAP1 POP SWAP1 JUMP JUMPDEST PUSH0 PUSH2 0x5CB PUSH2 0xCA1 JUMP JUMPDEST SWAP1 POP SWAP1 JUMP JUMPDEST PUSH2 0x5D8 PUSH2 0xD57 JUMP JUMPDEST PUSH2 0x5E0 PUSH2 0xDDE JUMP JUMPDEST JUMP JUMPDEST PUSH2 0x5EA PUSH2 0xD57 JUMP JUMPDEST PUSH2 0x5F4 DUP3 DUP3 PUSH2 0xAA0 JUMP JUMPDEST POP POP JUMP JUMPDEST PUSH2 0x609 PUSH2 0x603 PUSH2 0xA87 JUMP JUMPDEST DUP3 PUSH2 0xE3F JUMP JUMPDEST POP JUMP JUMPDEST PUSH0 PUSH1 0x5 PUSH0 SWAP1 SLOAD SWAP1 PUSH2 0x100 EXP SWAP1 DIV PUSH1 0xFF AND SWAP1 POP SWAP1 JUMP JUMPDEST PUSH0 DUP1 PUSH0 DUP4 PUSH20 0xFFFFFFFFFFFFFFFFFFFFFFFFFFFFFFFFFFFFFFFF AND PUSH20 0xFFFFFFFFFFFFFFFFFFFFFFFFFFFFFFFFFFFFFFFF AND DUP2 MSTORE PUSH1 0x20 ADD SWAP1 DUP2 MSTORE PUSH1 0x20 ADD PUSH0 KECCAK256 SLOAD SWAP1 POP SWAP2 SWAP1 POP JUMP JUMPDEST PUSH2 0x66E PUSH2 0xD57 JUMP JUMPDEST PUSH2 0x677 PUSH0 PUSH2 0xEBE JUMP JUMPDEST JUMP JUMPDEST PUSH2 0x68B DUP3 PUSH2 0x685 PUSH2 0xA87 JUMP JUMPDEST DUP4 PUSH2 0xB1F JUMP JUMPDEST PUSH2 0x695 DUP3 DUP3 PUSH2 0xE3F JUMP JUMPDEST POP POP JUMP JUMPDEST PUSH0 PUSH2 0x6A3 DUP3 PUSH2 0xF83 JUMP JUMPDEST SWAP1 POP SWAP2 SWAP1 POP JUMP JUMPDEST PUSH2 0x6B2 PUSH2 0xD57 JUMP JUMPDEST PUSH2 0x6BA PUSH2 0xFC9 JUMP JUMPDEST JUMP JUMPDEST PUSH0 PUSH1 0x60 DUP1 PUSH0 DUP1 PUSH0 PUSH1 0x60 PUSH2 0x6CD PUSH2 0x102B JUMP JUMPDEST PUSH2 0x6D5 PUSH2 0x1066 JUMP JUMPDEST CHAINID ADDRESS PUSH0 DUP1 SHL PUSH0 PUSH8 0xFFFFFFFFFFFFFFFF DUP2 GT ISZERO PUSH2 0x6F4 JUMPI PUSH2 0x6F3 PUSH2 0x210B JUMP JUMPDEST JUMPDEST PUSH1 0x40 MLOAD SWAP1 DUP1 DUP3 MSTORE DUP1 PUSH1 0x20 MUL PUSH1 0x20 ADD DUP3 ADD PUSH1 0x40 MSTORE DUP1 ISZERO PUSH2 0x722 JUMPI DUP2 PUSH1 0x20 ADD PUSH1 0x20 DUP3 MUL DUP1 CALLDATASIZE DUP4 CALLDATACOPY DUP1 DUP3 ADD SWAP2 POP POP SWAP1 POP JUMPDEST POP PUSH32 0xF00000000000000000000000000000000000000000000000000000000000000 SWAP6 SWAP5 SWAP4 SWAP3 SWAP2 SWAP1 SWAP7 POP SWAP7 POP SWAP7 POP SWAP7 POP SWAP7 POP SWAP7 POP SWAP7 POP SWAP1 SWAP2 SWAP3 SWAP4 SWAP5 SWAP6 SWAP7 JUMP JUMPDEST PUSH0 PUSH1 0x5 PUSH1 0x1 SWAP1 SLOAD SWAP1 PUSH2 0x100 EXP SWAP1 DIV PUSH20 0xFFFFFFFFFFFFFFFFFFFFFFFFFFFFFFFFFFFFFFFF AND SWAP1 POP SWAP1 JUMP JUMPDEST PUSH1 0x60 PUSH1 0x4 DUP1 SLOAD PUSH2 0x799 SWAP1 PUSH2 0x2013 JUMP JUMPDEST DUP1 PUSH1 0x1F ADD PUSH1 0x20 DUP1 SWAP2 DIV MUL PUSH1 0x20 ADD PUSH1 0x40 MLOAD SWAP1 DUP2 ADD PUSH1 0x40 MSTORE DUP1 SWAP3 SWAP2 SWAP1 DUP2 DUP2 MSTORE PUSH1 0x20 ADD DUP3 DUP1 SLOAD PUSH2 0x7C5 SWAP1 PUSH2 0x2013 JUMP JUMPDEST DUP1 ISZERO PUSH2 0x810 JUMPI DUP1 PUSH1 0x1F LT PUSH2 0x7E7 JUMPI PUSH2 0x100 DUP1 DUP4 SLOAD DIV MUL DUP4 MSTORE SWAP2 PUSH1 0x20 ADD SWAP2 PUSH2 0x810 JUMP JUMPDEST DUP3 ADD SWAP2 SWAP1 PUSH0 MSTORE PUSH1 0x20 PUSH0 KECCAK256 SWAP1 JUMPDEST DUP2 SLOAD DUP2 MSTORE SWAP1 PUSH1 0x1 ADD SWAP1 PUSH1 0x20 ADD DUP1 DUP4 GT PUSH2 0x7F3 JUMPI DUP3 SWAP1 SUB PUSH1 0x1F AND DUP3 ADD SWAP2 JUMPDEST POP POP POP POP POP SWAP1 POP SWAP1 JUMP JUMPDEST PUSH0 DUP1 PUSH2 0x824 PUSH2 0xA87 JUMP JUMPDEST SWAP1 POP PUSH2 0x831 DUP2 DUP6 DUP6 PUSH2 0xBB1 JUMP JUMPDEST PUSH1 0x1 SWAP2 POP POP SWAP3 SWAP2 POP POP JUMP JUMPDEST DUP4 TIMESTAMP GT ISZERO PUSH2 0x881 JUMPI DUP4 PUSH1 0x40 MLOAD PUSH32 0x6279130200000000000000000000000000000000000000000000000000000000 DUP2 MSTORE PUSH1 0x4 ADD PUSH2 0x878 SWAP2 SWAP1 PUSH2 0x1BF8 JUMP JUMPDEST PUSH1 0x40 MLOAD DUP1 SWAP2 SUB SWAP1 REVERT JUMPDEST PUSH0 PUSH32 0x6E71EDAE12B1B97F4D1F60370FEF10105FA2FAAE0126114A169C64845D6126C9 DUP9 DUP9 DUP9 PUSH2 0x8AF DUP13 PUSH2 0x10A1 JUMP JUMPDEST DUP10 PUSH1 0x40 MLOAD PUSH1 0x20 ADD PUSH2 0x8C5 SWAP7 SWAP6 SWAP5 SWAP4 SWAP3 SWAP2 SWAP1 PUSH2 0x2138 JUMP JUMPDEST PUSH1 0x40 MLOAD PUSH1 0x20 DUP2 DUP4 SUB SUB DUP2 MSTORE SWAP1 PUSH1 0x40 MSTORE DUP1 MLOAD SWAP1 PUSH1 0x20 ADD KECCAK256 SWAP1 POP PUSH0 PUSH2 0x8E7 DUP3 PUSH2 0x10F4 JUMP JUMPDEST SWAP1 POP PUSH0 PUSH2 0x8F6 DUP3 DUP8 DUP8 DUP8 PUSH2 0x110D JUMP JUMPDEST SWAP1 POP DUP10 PUSH20 0xFFFFFFFFFFFFFFFFFFFFFFFFFFFFFFFFFFFFFFFF AND DUP2 PUSH20 0xFFFFFFFFFFFFFFFFFFFFFFFFFFFFFFFFFFFFFFFF AND EQ PUSH2 0x96A JUMPI DUP1 DUP11 PUSH1 0x40 MLOAD PUSH32 0x4B800E4600000000000000000000000000000000000000000000000000000000 DUP2 MSTORE PUSH1 0x4 ADD PUSH2 0x961 SWAP3 SWAP2 SWAP1 PUSH2 0x2197 JUMP JUMPDEST PUSH1 0x40 MLOAD DUP1 SWAP2 SUB SWAP1 REVERT JUMPDEST PUSH2 0x975 DUP11 DUP11 DUP11 PUSH2 0xA8E JUMP JUMPDEST POP POP POP POP POP POP POP POP POP POP JUMP JUMPDEST PUSH0 PUSH1 0x1 PUSH0 DUP5 PUSH20 0xFFFFFFFFFFFFFFFFFFFFFFFFFFFFFFFFFFFFFFFF AND PUSH20 0xFFFFFFFFFFFFFFFFFFFFFFFFFFFFFFFFFFFFFFFF AND DUP2 MSTORE PUSH1 0x20 ADD SWAP1 DUP2 MSTORE PUSH1 0x20 ADD PUSH0 KECCAK256 PUSH0 DUP4 PUSH20 0xFFFFFFFFFFFFFFFFFFFFFFFFFFFFFFFFFFFFFFFF AND PUSH20 0xFFFFFFFFFFFFFFFFFFFFFFFFFFFFFFFFFFFFFFFF AND DUP2 MSTORE PUSH1 0x20 ADD SWAP1 DUP2 MSTORE PUSH1 0x20 ADD PUSH0 KECCAK256 SLOAD SWAP1 POP SWAP3 SWAP2 POP POP JUMP JUMPDEST PUSH2 0xA0B PUSH2 0xD57 JUMP JUMPDEST PUSH0 PUSH20 0xFFFFFFFFFFFFFFFFFFFFFFFFFFFFFFFFFFFFFFFF AND DUP2 PUSH20 0xFFFFFFFFFFFFFFFFFFFFFFFFFFFFFFFFFFFFFFFF AND SUB PUSH2 0xA7B JUMPI PUSH0 PUSH1 0x40 MLOAD PUSH32 0x1E4FBDF700000000000000000000000000000000000000000000000000000000 DUP2 MSTORE PUSH1 0x4 ADD PUSH2 0xA72 SWAP2 SWAP1 PUSH2 0x1E9E JUMP JUMPDEST PUSH1 0x40 MLOAD DUP1 SWAP2 SUB SWAP1 REVERT JUMPDEST PUSH2 0xA84 DUP2 PUSH2 0xEBE JUMP JUMPDEST POP JUMP JUMPDEST PUSH0 CALLER SWAP1 POP SWAP1 JUMP JUMPDEST PUSH2 0xA9B DUP4 DUP4 DUP4 PUSH1 0x1 PUSH2 0x113B JUMP JUMPDEST POP POP POP JUMP JUMPDEST PUSH0 PUSH20 0xFFFFFFFFFFFFFFFFFFFFFFFFFFFFFFFFFFFFFFFF AND DUP3 PUSH20 0xFFFFFFFFFFFFFFFFFFFFFFFFFFFFFFFFFFFFFFFF AND SUB PUSH2 0xB10 JUMPI PUSH0 PUSH1 0x40 MLOAD PUSH32 0xEC442F0500000000000000000000000000000000000000000000000000000000 DUP2 MSTORE PUSH1 0x4 ADD PUSH2 0xB07 SWAP2 SWAP1 PUSH2 0x1E9E JUMP JUMPDEST PUSH1 0x40 MLOAD DUP1 SWAP2 SUB SWAP1 REVERT JUMPDEST PUSH2 0xB1B PUSH0 DUP4 DUP4 PUSH2 0x130A JUMP JUMPDEST POP POP JUMP JUMPDEST PUSH0 PUSH2 0xB2A DUP5 DUP5 PUSH2 0x981 JUMP JUMPDEST SWAP1 POP PUSH32 0xFFFFFFFFFFFFFFFFFFFFFFFFFFFFFFFFFFFFFFFFFFFFFFFFFFFFFFFFFFFFFFFF DUP2 EQ PUSH2 0xBAB JUMPI DUP2 DUP2 LT ISZERO PUSH2 0xB9C JUMPI DUP3 DUP2 DUP4 PUSH1 0x40 MLOAD PUSH32 0xFB8F41B200000000000000000000000000000000000000000000000000000000 DUP2 MSTORE PUSH1 0x4 ADD PUSH2 0xB93 SWAP4 SWAP3 SWAP2 SWAP1 PUSH2 0x21BE JUMP JUMPDEST PUSH1 0x40 MLOAD DUP1 SWAP2 SUB SWAP1 REVERT JUMPDEST PUSH2 0xBAA DUP5 DUP5 DUP5 DUP5 SUB PUSH0 PUSH2 0x113B JUMP JUMPDEST JUMPDEST POP POP POP POP JUMP JUMPDEST PUSH0 PUSH20 0xFFFFFFFFFFFFFFFFFFFFFFFFFFFFFFFFFFFFFFFF AND DUP4 PUSH20 0xFFFFFFFFFFFFFFFFFFFFFFFFFFFFFFFFFFFFFFFF AND SUB PUSH2 0xC21 JUMPI PUSH0 PUSH1 0x40 MLOAD PUSH32 0x96C6FD1E00000000000000000000000000000000000000000000000000000000 DUP2 MSTORE PUSH1 0x4 ADD PUSH2 0xC18 SWAP2 SWAP1 PUSH2 0x1E9E JUMP JUMPDEST PUSH1 0x40 MLOAD DUP1 SWAP2 SUB SWAP1 REVERT JUMPDEST PUSH0 PUSH20 0xFFFFFFFFFFFFFFFFFFFFFFFFFFFFFFFFFFFFFFFF AND DUP3 PUSH20 0xFFFFFFFFFFFFFFFFFFFFFFFFFFFFFFFFFFFFFFFF AND SUB PUSH2 0xC91 JUMPI PUSH0 PUSH1 0x40 MLOAD PUSH32 0xEC442F0500000000000000000000000000000000000000000000000000000000 DUP2 MSTORE PUSH1 0x4 ADD PUSH2 0xC88 SWAP2 SWAP1 PUSH2 0x1E9E JUMP JUMPDEST PUSH1 0x40 MLOAD DUP1 SWAP2 SUB SWAP1 REVERT JUMPDEST PUSH2 0xC9C DUP4 DUP4 DUP4 PUSH2 0x130A JUMP JUMPDEST POP POP POP JUMP JUMPDEST PUSH0 PUSH32 0x0 PUSH20 0xFFFFFFFFFFFFFFFFFFFFFFFFFFFFFFFFFFFFFFFF AND ADDRESS PUSH20 0xFFFFFFFFFFFFFFFFFFFFFFFFFFFFFFFFFFFFFFFF AND EQ DUP1 ISZERO PUSH2 0xD1C JUMPI POP PUSH32 0x0 CHAINID EQ JUMPDEST ISZERO PUSH2 0xD49 JUMPI PUSH32 0x0 SWAP1 POP PUSH2 0xD54 JUMP JUMPDEST PUSH2 0xD51 PUSH2 0x131A JUMP JUMPDEST SWAP1 POP JUMPDEST SWAP1 JUMP JUMPDEST PUSH2 0xD5F PUSH2 0xA87 JUMP JUMPDEST PUSH20 0xFFFFFFFFFFFFFFFFFFFFFFFFFFFFFFFFFFFFFFFF AND PUSH2 0xD7D PUSH2 0x761 JUMP JUMPDEST PUSH20 0xFFFFFFFFFFFFFFFFFFFFFFFFFFFFFFFFFFFFFFFF AND EQ PUSH2 0xDDC JUMPI PUSH2 0xDA0 PUSH2 0xA87 JUMP JUMPDEST PUSH1 0x40 MLOAD PUSH32 0x118CDAA700000000000000000000000000000000000000000000000000000000 DUP2 MSTORE PUSH1 0x4 ADD PUSH2 0xDD3 SWAP2 SWAP1 PUSH2 0x1E9E JUMP JUMPDEST PUSH1 0x40 MLOAD DUP1 SWAP2 SUB SWAP1 REVERT JUMPDEST JUMP JUMPDEST PUSH2 0xDE6 PUSH2 0x13AF JUMP JUMPDEST PUSH0 PUSH1 0x5 PUSH0 PUSH2 0x100 EXP DUP2 SLOAD DUP2 PUSH1 0xFF MUL NOT AND SWAP1 DUP4 ISZERO ISZERO MUL OR SWAP1 SSTORE POP PUSH32 0x5DB9EE0A495BF2E6FF9C91A7834C1BA4FDD244A5E8AA4E537BD38AEAE4B073AA PUSH2 0xE28 PUSH2 0xA87 JUMP JUMPDEST PUSH1 0x40 MLOAD PUSH2 0xE35 SWAP2 SWAP1 PUSH2 0x1E9E JUMP JUMPDEST PUSH1 0x40 MLOAD DUP1 SWAP2 SUB SWAP1 LOG1 JUMP JUMPDEST PUSH0 PUSH20 0xFFFFFFFFFFFFFFFFFFFFFFFFFFFFFFFFFFFFFFFF AND DUP3 PUSH20 0xFFFFFFFFFFFFFFFFFFFFFFFFFFFFFFFFFFFFFFFF AND SUB PUSH2 0xEAF JUMPI PUSH0 PUSH1 0x40 MLOAD PUSH32 0x96C6FD1E00000000000000000000000000000000000000000000000000000000 DUP2 MSTORE PUSH1 0x4 ADD PUSH2 0xEA6 SWAP2 SWAP1 PUSH2 0x1E9E JUMP JUMPDEST PUSH1 0x40 MLOAD DUP1 SWAP2 SUB SWAP1 REVERT JUMPDEST PUSH2 0xEBA DUP3 PUSH0 DUP4 PUSH2 0x130A JUMP JUMPDEST POP POP JUMP JUMPDEST PUSH0 PUSH1 0x5 PUSH1 0x1 SWAP1 SLOAD SWAP1 PUSH2 0x100 EXP SWAP1 DIV PUSH20 0xFFFFFFFFFFFFFFFFFFFFFFFFFFFFFFFFFFFFFFFF AND SWAP1 POP DUP2 PUSH1 0x5 PUSH1 0x1 PUSH2 0x100 EXP DUP2 SLOAD DUP2 PUSH20 0xFFFFFFFFFFFFFFFFFFFFFFFFFFFFFFFFFFFFFFFF MUL NOT AND SWAP1 DUP4 PUSH20 0xFFFFFFFFFFFFFFFFFFFFFFFFFFFFFFFFFFFFFFFF AND MUL OR SWAP1 SSTORE POP DUP2 PUSH20 0xFFFFFFFFFFFFFFFFFFFFFFFFFFFFFFFFFFFFFFFF AND DUP2 PUSH20 0xFFFFFFFFFFFFFFFFFFFFFFFFFFFFFFFFFFFFFFFF AND PUSH32 0x8BE0079C531659141344CD1FD0A4F28419497F9722A3DAAFE3B4186F6B6457E0 PUSH1 0x40 MLOAD PUSH1 0x40 MLOAD DUP1 SWAP2 SUB SWAP1 LOG3 POP POP JUMP JUMPDEST PUSH0 PUSH1 0x8 PUSH0 DUP4 PUSH20 0xFFFFFFFFFFFFFFFFFFFFFFFFFFFFFFFFFFFFFFFF AND PUSH20 0xFFFFFFFFFFFFFFFFFFFFFFFFFFFFFFFFFFFFFFFF AND DUP2 MSTORE PUSH1 0x20 ADD SWAP1 DUP2 MSTORE PUSH1 0x20 ADD PUSH0 KECCAK256 SLOAD SWAP1 POP SWAP2 SWAP1 POP JUMP JUMPDEST PUSH2 0xFD1 PUSH2 0x13EF JUMP JUMPDEST PUSH1 0x1 PUSH1 0x5 PUSH0 PUSH2 0x100 EXP DUP2 SLOAD DUP2 PUSH1 0xFF MUL NOT AND SWAP1 DUP4 ISZERO ISZERO MUL OR SWAP1 SSTORE POP PUSH32 0x62E78CEA01BEE320CD4E420270B5EA74000D11B0C9F74754EBDBFC544B05A258 PUSH2 0x1014 PUSH2 0xA87 JUMP JUMPDEST PUSH1 0x40 MLOAD PUSH2 0x1021 SWAP2 SWAP1 PUSH2 0x1E9E JUMP JUMPDEST PUSH1 0x40 MLOAD DUP1 SWAP2 SUB SWAP1 LOG1 JUMP JUMPDEST PUSH1 0x60 PUSH2 0x1061 PUSH1 0x6 PUSH32 0x0 PUSH2 0x1430 SWAP1 SWAP2 SWAP1 PUSH4 0xFFFFFFFF AND JUMP JUMPDEST SWAP1 POP SWAP1 JUMP JUMPDEST PUSH1 0x60 PUSH2 0x109C PUSH1 0x7 PUSH32 0x0 PUSH2 0x1430 SWAP1 SWAP2 SWAP1 PUSH4 0xFFFFFFFF AND JUMP JUMPDEST SWAP1 POP SWAP1 JUMP JUMPDEST PUSH0 PUSH1 0x8 PUSH0 DUP4 PUSH20 0xFFFFFFFFFFFFFFFFFFFFFFFFFFFFFFFFFFFFFFFF AND PUSH20 0xFFFFFFFFFFFFFFFFFFFFFFFFFFFFFFFFFFFFFFFF AND DUP2 MSTORE PUSH1 0x20 ADD SWAP1 DUP2 MSTORE PUSH1 0x20 ADD PUSH0 KECCAK256 PUSH0 DUP2 SLOAD DUP1 SWAP3 SWAP2 SWAP1 PUSH1 0x1 ADD SWAP2 SWAP1 POP SSTORE SWAP1 POP SWAP2 SWAP1 POP JUMP JUMPDEST PUSH0 PUSH2 0x1106 PUSH2 0x1100 PUSH2 0xCA1 JUMP JUMPDEST DUP4 PUSH2 0x14DD JUMP JUMPDEST SWAP1 POP SWAP2 SWAP1 POP JUMP JUMPDEST PUSH0 DUP1 PUSH0 DUP1 PUSH2 0x111D DUP9 DUP9 DUP9 DUP9 PUSH2 0x151D JUMP JUMPDEST SWAP3 POP SWAP3 POP SWAP3 POP PUSH2 0x112D DUP3 DUP3 PUSH2 0x1604 JUMP JUMPDEST DUP3 SWAP4 POP POP POP POP SWAP5 SWAP4 POP POP POP POP JUMP JUMPDEST PUSH0 PUSH20 0xFFFFFFFFFFFFFFFFFFFFFFFFFFFFFFFFFFFFFFFF AND DUP5 PUSH20 0xFFFFFFFFFFFFFFFFFFFFFFFFFFFFFFFFFFFFFFFF AND SUB PUSH2 0x11AB JUMPI PUSH0 PUSH1 0x40 MLOAD PUSH32 0xE602DF0500000000000000000000000000000000000000000000000000000000 DUP2 MSTORE PUSH1 0x4 ADD PUSH2 0x11A2 SWAP2 SWAP1 PUSH2 0x1E9E JUMP JUMPDEST PUSH1 0x40 MLOAD DUP1 SWAP2 SUB SWAP1 REVERT JUMPDEST PUSH0 PUSH20 0xFFFFFFFFFFFFFFFFFFFFFFFFFFFFFFFFFFFFFFFF AND DUP4 PUSH20 0xFFFFFFFFFFFFFFFFFFFFFFFFFFFFFFFFFFFFFFFF AND SUB PUSH2 0x121B JUMPI PUSH0 PUSH1 0x40 MLOAD PUSH32 0x94280D6200000000000000000000000000000000000000000000000000000000 DUP2 MSTORE PUSH1 0x4 ADD PUSH2 0x1212 SWAP2 SWAP1 PUSH2 0x1E9E JUMP JUMPDEST PUSH1 0x40 MLOAD DUP1 SWAP2 SUB SWAP1 REVERT JUMPDEST DUP2 PUSH1 0x1 PUSH0 DUP7 PUSH20 0xFFFFFFFFFFFFFFFFFFFFFFFFFFFFFFFFFFFFFFFF AND PUSH20 0xFFFFFFFFFFFFFFFFFFFFFFFFFFFFFFFFFFFFFFFF AND DUP2 MSTORE PUSH1 0x20 ADD SWAP1 DUP2 MSTORE PUSH1 0x20 ADD PUSH0 KECCAK256 PUSH0 DUP6 PUSH20 0xFFFFFFFFFFFFFFFFFFFFFFFFFFFFFFFFFFFFFFFF AND PUSH20 0xFFFFFFFFFFFFFFFFFFFFFFFFFFFFFFFFFFFFFFFF AND DUP2 MSTORE PUSH1 0x20 ADD SWAP1 DUP2 MSTORE PUSH1 0x20 ADD PUSH0 KECCAK256 DUP2 SWAP1 SSTORE POP DUP1 ISZERO PUSH2 0x1304 JUMPI DUP3 PUSH20 0xFFFFFFFFFFFFFFFFFFFFFFFFFFFFFFFFFFFFFFFF AND DUP5 PUSH20 0xFFFFFFFFFFFFFFFFFFFFFFFFFFFFFFFFFFFFFFFF AND PUSH32 0x8C5BE1E5EBEC7D5BD14F71427D1E84F3DD0314C0F7B2291E5B200AC8C7C3B925 DUP5 PUSH1 0x40 MLOAD PUSH2 0x12FB SWAP2 SWAP1 PUSH2 0x1BF8 JUMP JUMPDEST PUSH1 0x40 MLOAD DUP1 SWAP2 SUB SWAP1 LOG3 JUMPDEST POP POP POP POP JUMP JUMPDEST PUSH2 0x1315 DUP4 DUP4 DUP4 PUSH2 0x1766 JUMP JUMPDEST POP POP POP JUMP JUMPDEST PUSH0 PUSH32 0x8B73C3C69BB8FE3D512ECC4CF759CC79239F7B179B0FFACAA9A75D522B39400F PUSH32 0x0 PUSH32 0x0 CHAINID ADDRESS PUSH1 0x40 MLOAD PUSH1 0x20 ADD PUSH2 0x1394 SWAP6 SWAP5 SWAP4 SWAP3 SWAP2 SWAP1 PUSH2 0x21F3 JUMP JUMPDEST PUSH1 0x40 MLOAD PUSH1 0x20 DUP2 DUP4 SUB SUB DUP2 MSTORE SWAP1 PUSH1 0x40 MSTORE DUP1 MLOAD SWAP1 PUSH1 0x20 ADD KECCAK256 SWAP1 POP SWAP1 JUMP JUMPDEST PUSH2 0x13B7 PUSH2 0x60C JUMP JUMPDEST PUSH2 0x13ED JUMPI PUSH1 0x40 MLOAD PUSH32 0x8DFC202B00000000000000000000000000000000000000000000000000000000 DUP2 MSTORE PUSH1 0x4 ADD PUSH1 0x40 MLOAD DUP1 SWAP2 SUB SWAP1 REVERT JUMPDEST JUMP JUMPDEST PUSH2 0x13F7 PUSH2 0x60C JUMP JUMPDEST ISZERO PUSH2 0x142E JUMPI PUSH1 0x40 MLOAD PUSH32 0xD93C066500000000000000000000000000000000000000000000000000000000 DUP2 MSTORE PUSH1 0x4 ADD PUSH1 0x40 MLOAD DUP1 SWAP2 SUB SWAP1 REVERT JUMPDEST JUMP JUMPDEST PUSH1 0x60 PUSH1 0xFF PUSH0 SHL DUP4 EQ PUSH2 0x144C JUMPI PUSH2 0x1445 DUP4 PUSH2 0x177E JUMP JUMPDEST SWAP1 POP PUSH2 0x14D7 JUMP JUMPDEST DUP2 DUP1 SLOAD PUSH2 0x1458 SWAP1 PUSH2 0x2013 JUMP JUMPDEST DUP1 PUSH1 0x1F ADD PUSH1 0x20 DUP1 SWAP2 DIV MUL PUSH1 0x20 ADD PUSH1 0x40 MLOAD SWAP1 DUP2 ADD PUSH1 0x40 MSTORE DUP1 SWAP3 SWAP2 SWAP1 DUP2 DUP2 MSTORE PUSH1 0x20 ADD DUP3 DUP1 SLOAD PUSH2 0x1484 SWAP1 PUSH2 0x2013 JUMP JUMPDEST DUP1 ISZERO PUSH2 0x14CF JUMPI DUP1 PUSH1 0x1F LT PUSH2 0x14A6 JUMPI PUSH2 0x100 DUP1 DUP4 SLOAD DIV MUL DUP4 MSTORE SWAP2 PUSH1 0x20 ADD SWAP2 PUSH2 0x14CF JUMP JUMPDEST DUP3 ADD SWAP2 SWAP1 PUSH0 MSTORE PUSH1 0x20 PUSH0 KECCAK256 SWAP1 JUMPDEST DUP2 SLOAD DUP2 MSTORE SWAP1 PUSH1 0x1 ADD SWAP1 PUSH1 0x20 ADD DUP1 DUP4 GT PUSH2 0x14B2 JUMPI DUP3 SWAP1 SUB PUSH1 0x1F AND DUP3 ADD SWAP2 JUMPDEST POP POP POP POP POP SWAP1 POP JUMPDEST SWAP3 SWAP2 POP POP JUMP JUMPDEST PUSH0 PUSH1 0x40 MLOAD PUSH32 0x1901000000000000000000000000000000000000000000000000000000000000 DUP2 MSTORE DUP4 PUSH1 0x2 DUP3 ADD MSTORE DUP3 PUSH1 0x22 DUP3 ADD MSTORE PUSH1 0x42 DUP2 KECCAK256 SWAP2 POP POP SWAP3 SWAP2 POP POP JUMP JUMPDEST PUSH0 DUP1 PUSH0 PUSH32 0x7FFFFFFFFFFFFFFFFFFFFFFFFFFFFFFF5D576E7357A4501DDFE92F46681B20A0 DUP5 PUSH0 SHR GT ISZERO PUSH2 0x1559 JUMPI PUSH0 PUSH1 0x3 DUP6 SWAP3 POP SWAP3 POP SWAP3 POP PUSH2 0x15FA JUMP JUMPDEST PUSH0 PUSH1 0x1 DUP9 DUP9 DUP9 DUP9 PUSH1 0x40 MLOAD PUSH0 DUP2 MSTORE PUSH1 0x20 ADD PUSH1 0x40 MSTORE PUSH1 0x40 MLOAD PUSH2 0x157C SWAP5 SWAP4 SWAP3 SWAP2 SWAP1 PUSH2 0x2244 JUMP JUMPDEST PUSH1 0x20 PUSH1 0x40 MLOAD PUSH1 0x20 DUP2 SUB SWAP1 DUP1 DUP5 SUB SWAP1 DUP6 GAS STATICCALL ISZERO DUP1 ISZERO PUSH2 0x159C JUMPI RETURNDATASIZE PUSH0 DUP1 RETURNDATACOPY RETURNDATASIZE PUSH0 REVERT JUMPDEST POP POP POP PUSH1 0x20 PUSH1 0x40 MLOAD SUB MLOAD SWAP1 POP PUSH0 PUSH20 0xFFFFFFFFFFFFFFFFFFFFFFFFFFFFFFFFFFFFFFFF AND DUP2 PUSH20 0xFFFFFFFFFFFFFFFFFFFFFFFFFFFFFFFFFFFFFFFF AND SUB PUSH2 0x15ED JUMPI PUSH0 PUSH1 0x1 PUSH0 DUP1 SHL SWAP4 POP SWAP4 POP SWAP4 POP POP PUSH2 0x15FA JUMP JUMPDEST DUP1 PUSH0 DUP1 PUSH0 SHL SWAP4 POP SWAP4 POP SWAP4 POP POP JUMPDEST SWAP5 POP SWAP5 POP SWAP5 SWAP2 POP POP JUMP JUMPDEST PUSH0 PUSH1 0x3 DUP2 GT ISZERO PUSH2 0x1617 JUMPI PUSH2 0x1616 PUSH2 0x2287 JUMP JUMPDEST JUMPDEST DUP3 PUSH1 0x3 DUP2 GT ISZERO PUSH2 0x162A JUMPI PUSH2 0x1629 PUSH2 0x2287 JUMP JUMPDEST JUMPDEST SUB ISZERO PUSH2 0x1762 JUMPI PUSH1 0x1 PUSH1 0x3 DUP2 GT ISZERO PUSH2 0x1644 JUMPI PUSH2 0x1643 PUSH2 0x2287 JUMP JUMPDEST JUMPDEST DUP3 PUSH1 0x3 DUP2 GT ISZERO PUSH2 0x1657 JUMPI PUSH2 0x1656 PUSH2 0x2287 JUMP JUMPDEST JUMPDEST SUB PUSH2 0x168E JUMPI PUSH1 0x40 MLOAD PUSH32 0xF645EEDF00000000000000000000000000000000000000000000000000000000 DUP2 MSTORE PUSH1 0x4 ADD PUSH1 0x40 MLOAD DUP1 SWAP2 SUB SWAP1 REVERT JUMPDEST PUSH1 0x2 PUSH1 0x3 DUP2 GT ISZERO PUSH2 0x16A2 JUMPI PUSH2 0x16A1 PUSH2 0x2287 JUMP JUMPDEST JUMPDEST DUP3 PUSH1 0x3 DUP2 GT ISZERO PUSH2 0x16B5 JUMPI PUSH2 0x16B4 PUSH2 0x2287 JUMP JUMPDEST JUMPDEST SUB PUSH2 0x16F9 JUMPI DUP1 PUSH0 SHR PUSH1 0x40 MLOAD PUSH32 0xFCE698F700000000000000000000000000000000000000000000000000000000 DUP2 MSTORE PUSH1 0x4 ADD PUSH2 0x16F0 SWAP2 SWAP1 PUSH2 0x1BF8 JUMP JUMPDEST PUSH1 0x40 MLOAD DUP1 SWAP2 SUB SWAP1 REVERT JUMPDEST PUSH1 0x3 DUP1 DUP2 GT ISZERO PUSH2 0x170C JUMPI PUSH2 0x170B PUSH2 0x2287 JUMP JUMPDEST JUMPDEST DUP3 PUSH1 0x3 DUP2 GT ISZERO PUSH2 0x171F JUMPI PUSH2 0x171E PUSH2 0x2287 JUMP JUMPDEST JUMPDEST SUB PUSH2 0x1761 JUMPI DUP1 PUSH1 0x40 MLOAD PUSH32 0xD78BCE0C00000000000000000000000000000000000000000000000000000000 DUP2 MSTORE PUSH1 0x4 ADD PUSH2 0x1758 SWAP2 SWAP1 PUSH2 0x1CAD JUMP JUMPDEST PUSH1 0x40 MLOAD DUP1 SWAP2 SUB SWAP1 REVERT JUMPDEST JUMPDEST POP POP JUMP JUMPDEST PUSH2 0x176E PUSH2 0x13EF JUMP JUMPDEST PUSH2 0x1779 DUP4 DUP4 DUP4 PUSH2 0x17F0 JUMP JUMPDEST POP POP POP JUMP JUMPDEST PUSH1 0x60 PUSH0 PUSH2 0x178A DUP4 PUSH2 0x1A09 JUMP JUMPDEST SWAP1 POP PUSH0 PUSH1 0x20 PUSH8 0xFFFFFFFFFFFFFFFF DUP2 GT ISZERO PUSH2 0x17A8 JUMPI PUSH2 0x17A7 PUSH2 0x210B JUMP JUMPDEST JUMPDEST PUSH1 0x40 MLOAD SWAP1 DUP1 DUP3 MSTORE DUP1 PUSH1 0x1F ADD PUSH1 0x1F NOT AND PUSH1 0x20 ADD DUP3 ADD PUSH1 0x40 MSTORE DUP1 ISZERO PUSH2 0x17DA JUMPI DUP2 PUSH1 0x20 ADD PUSH1 0x1 DUP3 MUL DUP1 CALLDATASIZE DUP4 CALLDATACOPY DUP1 DUP3 ADD SWAP2 POP POP SWAP1 POP JUMPDEST POP SWAP1 POP DUP2 DUP2 MSTORE DUP4 PUSH1 0x20 DUP3 ADD MSTORE DUP1 SWAP3 POP POP POP SWAP2 SWAP1 POP JUMP JUMPDEST PUSH0 PUSH20 0xFFFFFFFFFFFFFFFFFFFFFFFFFFFFFFFFFFFFFFFF AND DUP4 PUSH20 0xFFFFFFFFFFFFFFFFFFFFFFFFFFFFFFFFFFFFFFFF AND SUB PUSH2 0x1840 JUMPI DUP1 PUSH1 0x2 PUSH0 DUP3 DUP3 SLOAD PUSH2 0x1834 SWAP2 SWAP1 PUSH2 0x22B4 JUMP JUMPDEST SWAP3 POP POP DUP2 SWAP1 SSTORE POP PUSH2 0x190E JUMP JUMPDEST PUSH0 DUP1 PUSH0 DUP6 PUSH20 0xFFFFFFFFFFFFFFFFFFFFFFFFFFFFFFFFFFFFFFFF AND PUSH20 0xFFFFFFFFFFFFFFFFFFFFFFFFFFFFFFFFFFFFFFFF AND DUP2 MSTORE PUSH1 0x20 ADD SWAP1 DUP2 MSTORE PUSH1 0x20 ADD PUSH0 KECCAK256 SLOAD SWAP1 POP DUP2 DUP2 LT ISZERO PUSH2 0x18C9 JUMPI DUP4 DUP2 DUP4 PUSH1 0x40 MLOAD PUSH32 0xE450D38C00000000000000000000000000000000000000000000000000000000 DUP2 MSTORE PUSH1 0x4 ADD PUSH2 0x18C0 SWAP4 SWAP3 SWAP2 SWAP1 PUSH2 0x21BE JUMP JUMPDEST PUSH1 0x40 MLOAD DUP1 SWAP2 SUB SWAP1 REVERT JUMPDEST DUP2 DUP2 SUB PUSH0 DUP1 DUP7 PUSH20 0xFFFFFFFFFFFFFFFFFFFFFFFFFFFFFFFFFFFFFFFF AND PUSH20 0xFFFFFFFFFFFFFFFFFFFFFFFFFFFFFFFFFFFFFFFF AND DUP2 MSTORE PUSH1 0x20 ADD SWAP1 DUP2 MSTORE PUSH1 0x20 ADD PUSH0 KECCAK256 DUP2 SWAP1 SSTORE POP POP JUMPDEST PUSH0 PUSH20 0xFFFFFFFFFFFFFFFFFFFFFFFFFFFFFFFFFFFFFFFF AND DUP3 PUSH20 0xFFFFFFFFFFFFFFFFFFFFFFFFFFFFFFFFFFFFFFFF AND SUB PUSH2 0x1955 JUMPI DUP1 PUSH1 0x2 PUSH0 DUP3 DUP3 SLOAD SUB SWAP3 POP POP DUP2 SWAP1 SSTORE POP PUSH2 0x199F JUMP JUMPDEST DUP1 PUSH0 DUP1 DUP5 PUSH20 0xFFFFFFFFFFFFFFFFFFFFFFFFFFFFFFFFFFFFFFFF AND PUSH20 0xFFFFFFFFFFFFFFFFFFFFFFFFFFFFFFFFFFFFFFFF AND DUP2 MSTORE PUSH1 0x20 ADD SWAP1 DUP2 MSTORE PUSH1 0x20 ADD PUSH0 KECCAK256 PUSH0 DUP3 DUP3 SLOAD ADD SWAP3 POP POP DUP2 SWAP1 SSTORE POP JUMPDEST DUP2 PUSH20 0xFFFFFFFFFFFFFFFFFFFFFFFFFFFFFFFFFFFFFFFF AND DUP4 PUSH20 0xFFFFFFFFFFFFFFFFFFFFFFFFFFFFFFFFFFFFFFFF AND PUSH32 0xDDF252AD1BE2C89B69C2B068FC378DAA952BA7F163C4A11628F55A4DF523B3EF DUP4 PUSH1 0x40 MLOAD PUSH2 0x19FC SWAP2 SWAP1 PUSH2 0x1BF8 JUMP JUMPDEST PUSH1 0x40 MLOAD DUP1 SWAP2 SUB SWAP1 LOG3 POP POP POP JUMP JUMPDEST PUSH0 DUP1 PUSH1 0xFF DUP4 PUSH0 SHR AND SWAP1 POP PUSH1 0x1F DUP2 GT ISZERO PUSH2 0x1A4E JUMPI PUSH1 0x40 MLOAD PUSH32 0xB3512B0C00000000000000000000000000000000000000000000000000000000 DUP2 MSTORE PUSH1 0x4 ADD PUSH1 0x40 MLOAD DUP1 SWAP2 SUB SWAP1 REVERT JUMPDEST DUP1 SWAP2 POP POP SWAP2 SWAP1 POP JUMP JUMPDEST PUSH0 DUP2 MLOAD SWAP1 POP SWAP2 SWAP1 POP JUMP JUMPDEST PUSH0 DUP3 DUP3 MSTORE PUSH1 0x20 DUP3 ADD SWAP1 POP SWAP3 SWAP2 POP POP JUMP JUMPDEST DUP3 DUP2 DUP4 MCOPY PUSH0 DUP4 DUP4 ADD MSTORE POP POP POP JUMP JUMPDEST PUSH0 PUSH1 0x1F NOT PUSH1 0x1F DUP4 ADD AND SWAP1 POP SWAP2 SWAP1 POP JUMP JUMPDEST PUSH0 PUSH2 0x1A99 DUP3 PUSH2 0x1A57 JUMP JUMPDEST PUSH2 0x1AA3 DUP2 DUP6 PUSH2 0x1A61 JUMP JUMPDEST SWAP4 POP PUSH2 0x1AB3 DUP2 DUP6 PUSH1 0x20 DUP7 ADD PUSH2 0x1A71 JUMP JUMPDEST PUSH2 0x1ABC DUP2 PUSH2 0x1A7F JUMP JUMPDEST DUP5 ADD SWAP2 POP POP SWAP3 SWAP2 POP POP JUMP JUMPDEST PUSH0 PUSH1 0x20 DUP3 ADD SWAP1 POP DUP2 DUP2 SUB PUSH0 DUP4 ADD MSTORE PUSH2 0x1ADF DUP2 DUP5 PUSH2 0x1A8F JUMP JUMPDEST SWAP1 POP SWAP3 SWAP2 POP POP JUMP JUMPDEST PUSH0 DUP1 REVERT JUMPDEST PUSH0 PUSH20 0xFFFFFFFFFFFFFFFFFFFFFFFFFFFFFFFFFFFFFFFF DUP3 AND SWAP1 POP SWAP2 SWAP1 POP JUMP JUMPDEST PUSH0 PUSH2 0x1B14 DUP3 PUSH2 0x1AEB JUMP JUMPDEST SWAP1 POP SWAP2 SWAP1 POP JUMP JUMPDEST PUSH2 0x1B24 DUP2 PUSH2 0x1B0A JUMP JUMPDEST DUP2 EQ PUSH2 0x1B2E JUMPI PUSH0 DUP1 REVERT JUMPDEST POP JUMP JUMPDEST PUSH0 DUP2 CALLDATALOAD SWAP1 POP PUSH2 0x1B3F DUP2 PUSH2 0x1B1B JUMP JUMPDEST SWAP3 SWAP2 POP POP JUMP JUMPDEST PUSH0 DUP2 SWAP1 POP SWAP2 SWAP1 POP JUMP JUMPDEST PUSH2 0x1B57 DUP2 PUSH2 0x1B45 JUMP JUMPDEST DUP2 EQ PUSH2 0x1B61 JUMPI PUSH0 DUP1 REVERT JUMPDEST POP JUMP JUMPDEST PUSH0 DUP2 CALLDATALOAD SWAP1 POP PUSH2 0x1B72 DUP2 PUSH2 0x1B4E JUMP JUMPDEST SWAP3 SWAP2 POP POP JUMP JUMPDEST PUSH0 DUP1 PUSH1 0x40 DUP4 DUP6 SUB SLT ISZERO PUSH2 0x1B8E JUMPI PUSH2 0x1B8D PUSH2 0x1AE7 JUMP JUMPDEST JUMPDEST PUSH0 PUSH2 0x1B9B DUP6 DUP3 DUP7 ADD PUSH2 0x1B31 JUMP JUMPDEST SWAP3 POP POP PUSH1 0x20 PUSH2 0x1BAC DUP6 DUP3 DUP7 ADD PUSH2 0x1B64 JUMP JUMPDEST SWAP2 POP POP SWAP3 POP SWAP3 SWAP1 POP JUMP JUMPDEST PUSH0 DUP2 ISZERO ISZERO SWAP1 POP SWAP2 SWAP1 POP JUMP JUMPDEST PUSH2 0x1BCA DUP2 PUSH2 0x1BB6 JUMP JUMPDEST DUP3 MSTORE POP POP JUMP JUMPDEST PUSH0 PUSH1 0x20 DUP3 ADD SWAP1 POP PUSH2 0x1BE3 PUSH0 DUP4 ADD DUP5 PUSH2 0x1BC1 JUMP JUMPDEST SWAP3 SWAP2 POP POP JUMP JUMPDEST PUSH2 0x1BF2 DUP2 PUSH2 0x1B45 JUMP JUMPDEST DUP3 MSTORE POP POP JUMP JUMPDEST PUSH0 PUSH1 0x20 DUP3 ADD SWAP1 POP PUSH2 0x1C0B PUSH0 DUP4 ADD DUP5 PUSH2 0x1BE9 JUMP JUMPDEST SWAP3 SWAP2 POP POP JUMP JUMPDEST PUSH0 DUP1 PUSH0 PUSH1 0x60 DUP5 DUP7 SUB SLT ISZERO PUSH2 0x1C28 JUMPI PUSH2 0x1C27 PUSH2 0x1AE7 JUMP JUMPDEST JUMPDEST PUSH0 PUSH2 0x1C35 DUP7 DUP3 DUP8 ADD PUSH2 0x1B31 JUMP JUMPDEST SWAP4 POP POP PUSH1 0x20 PUSH2 0x1C46 DUP7 DUP3 DUP8 ADD PUSH2 0x1B31 JUMP JUMPDEST SWAP3 POP POP PUSH1 0x40 PUSH2 0x1C57 DUP7 DUP3 DUP8 ADD PUSH2 0x1B64 JUMP JUMPDEST SWAP2 POP POP SWAP3 POP SWAP3 POP SWAP3 JUMP JUMPDEST PUSH0 PUSH1 0xFF DUP3 AND SWAP1 POP SWAP2 SWAP1 POP JUMP JUMPDEST PUSH2 0x1C76 DUP2 PUSH2 0x1C61 JUMP JUMPDEST DUP3 MSTORE POP POP JUMP JUMPDEST PUSH0 PUSH1 0x20 DUP3 ADD SWAP1 POP PUSH2 0x1C8F PUSH0 DUP4 ADD DUP5 PUSH2 0x1C6D JUMP JUMPDEST SWAP3 SWAP2 POP POP JUMP JUMPDEST PUSH0 DUP2 SWAP1 POP SWAP2 SWAP1 POP JUMP JUMPDEST PUSH2 0x1CA7 DUP2 PUSH2 0x1C95 JUMP JUMPDEST DUP3 MSTORE POP POP JUMP JUMPDEST PUSH0 PUSH1 0x20 DUP3 ADD SWAP1 POP PUSH2 0x1CC0 PUSH0 DUP4 ADD DUP5 PUSH2 0x1C9E JUMP JUMPDEST SWAP3 SWAP2 POP POP JUMP JUMPDEST PUSH0 PUSH1 0x20 DUP3 DUP5 SUB SLT ISZERO PUSH2 0x1CDB JUMPI PUSH2 0x1CDA PUSH2 0x1AE7 JUMP JUMPDEST JUMPDEST PUSH0 PUSH2 0x1CE8 DUP5 DUP3 DUP6 ADD PUSH2 0x1B64 JUMP JUMPDEST SWAP2 POP POP SWAP3 SWAP2 POP POP JUMP JUMPDEST PUSH0 PUSH1 0x20 DUP3 DUP5 SUB SLT ISZERO PUSH2 0x1D06 JUMPI PUSH2 0x1D05 PUSH2 0x1AE7 JUMP JUMPDEST JUMPDEST PUSH0 PUSH2 0x1D13 DUP5 DUP3 DUP6 ADD PUSH2 0x1B31 JUMP JUMPDEST SWAP2 POP POP SWAP3 SWAP2 POP POP JUMP JUMPDEST PUSH0 PUSH32 0xFF00000000000000000000000000000000000000000000000000000000000000 DUP3 AND SWAP1 POP SWAP2 SWAP1 POP JUMP JUMPDEST PUSH2 0x1D50 DUP2 PUSH2 0x1D1C JUMP JUMPDEST DUP3 MSTORE POP POP JUMP JUMPDEST PUSH2 0x1D5F DUP2 PUSH2 0x1B0A JUMP JUMPDEST DUP3 MSTORE POP POP JUMP JUMPDEST PUSH0 DUP2 MLOAD SWAP1 POP SWAP2 SWAP1 POP JUMP JUMPDEST PUSH0 DUP3 DUP3 MSTORE PUSH1 0x20 DUP3 ADD SWAP1 POP SWAP3 SWAP2 POP POP JUMP JUMPDEST PUSH0 DUP2 SWAP1 POP PUSH1 0x20 DUP3 ADD SWAP1 POP SWAP2 SWAP1 POP JUMP JUMPDEST PUSH2 0x1D97 DUP2 PUSH2 0x1B45 JUMP JUMPDEST DUP3 MSTORE POP POP JUMP JUMPDEST PUSH0 PUSH2 0x1DA8 DUP4 DUP4 PUSH2 0x1D8E JUMP JUMPDEST PUSH1 0x20 DUP4 ADD SWAP1 POP SWAP3 SWAP2 POP POP JUMP JUMPDEST PUSH0 PUSH1 0x20 DUP3 ADD SWAP1 POP SWAP2 SWAP1 POP JUMP JUMPDEST PUSH0 PUSH2 0x1DCA DUP3 PUSH2 0x1D65 JUMP JUMPDEST PUSH2 0x1DD4 DUP2 DUP6 PUSH2 0x1D6F JUMP JUMPDEST SWAP4 POP PUSH2 0x1DDF DUP4 PUSH2 0x1D7F JUMP JUMPDEST DUP1 PUSH0 JUMPDEST DUP4 DUP2 LT ISZERO PUSH2 0x1E0F JUMPI DUP2 MLOAD PUSH2 0x1DF6 DUP9 DUP3 PUSH2 0x1D9D JUMP JUMPDEST SWAP8 POP PUSH2 0x1E01 DUP4 PUSH2 0x1DB4 JUMP JUMPDEST SWAP3 POP POP PUSH1 0x1 DUP2 ADD SWAP1 POP PUSH2 0x1DE2 JUMP JUMPDEST POP DUP6 SWAP4 POP POP POP POP SWAP3 SWAP2 POP POP JUMP JUMPDEST PUSH0 PUSH1 0xE0 DUP3 ADD SWAP1 POP PUSH2 0x1E2F PUSH0 DUP4 ADD DUP11 PUSH2 0x1D47 JUMP JUMPDEST DUP2 DUP2 SUB PUSH1 0x20 DUP4 ADD MSTORE PUSH2 0x1E41 DUP2 DUP10 PUSH2 0x1A8F JUMP JUMPDEST SWAP1 POP DUP2 DUP2 SUB PUSH1 0x40 DUP4 ADD MSTORE PUSH2 0x1E55 DUP2 DUP9 PUSH2 0x1A8F JUMP JUMPDEST SWAP1 POP PUSH2 0x1E64 PUSH1 0x60 DUP4 ADD DUP8 PUSH2 0x1BE9 JUMP JUMPDEST PUSH2 0x1E71 PUSH1 0x80 DUP4 ADD DUP7 PUSH2 0x1D56 JUMP JUMPDEST PUSH2 0x1E7E PUSH1 0xA0 DUP4 ADD DUP6 PUSH2 0x1C9E JUMP JUMPDEST DUP2 DUP2 SUB PUSH1 0xC0 DUP4 ADD MSTORE PUSH2 0x1E90 DUP2 DUP5 PUSH2 0x1DC0 JUMP JUMPDEST SWAP1 POP SWAP9 SWAP8 POP POP POP POP POP POP POP POP JUMP JUMPDEST PUSH0 PUSH1 0x20 DUP3 ADD SWAP1 POP PUSH2 0x1EB1 PUSH0 DUP4 ADD DUP5 PUSH2 0x1D56 JUMP JUMPDEST SWAP3 SWAP2 POP POP JUMP JUMPDEST PUSH2 0x1EC0 DUP2 PUSH2 0x1C61 JUMP JUMPDEST DUP2 EQ PUSH2 0x1ECA JUMPI PUSH0 DUP1 REVERT JUMPDEST POP JUMP JUMPDEST PUSH0 DUP2 CALLDATALOAD SWAP1 POP PUSH2 0x1EDB DUP2 PUSH2 0x1EB7 JUMP JUMPDEST SWAP3 SWAP2 POP POP JUMP JUMPDEST PUSH2 0x1EEA DUP2 PUSH2 0x1C95 JUMP JUMPDEST DUP2 EQ PUSH2 0x1EF4 JUMPI PUSH0 DUP1 REVERT JUMPDEST POP JUMP JUMPDEST PUSH0 DUP2 CALLDATALOAD SWAP1 POP PUSH2 0x1F05 DUP2 PUSH2 0x1EE1 JUMP JUMPDEST SWAP3 SWAP2 POP POP JUMP JUMPDEST PUSH0 DUP1 PUSH0 DUP1 PUSH0 DUP1 PUSH0 PUSH1 0xE0 DUP9 DUP11 SUB SLT ISZERO PUSH2 0x1F26 JUMPI PUSH2 0x1F25 PUSH2 0x1AE7 JUMP JUMPDEST JUMPDEST PUSH0 PUSH2 0x1F33 DUP11 DUP3 DUP12 ADD PUSH2 0x1B31 JUMP JUMPDEST SWAP8 POP POP PUSH1 0x20 PUSH2 0x1F44 DUP11 DUP3 DUP12 ADD PUSH2 0x1B31 JUMP JUMPDEST SWAP7 POP POP PUSH1 0x40 PUSH2 0x1F55 DUP11 DUP3 DUP12 ADD PUSH2 0x1B64 JUMP JUMPDEST SWAP6 POP POP PUSH1 0x60 PUSH2 0x1F66 DUP11 DUP3 DUP12 ADD PUSH2 0x1B64 JUMP JUMPDEST SWAP5 POP POP PUSH1 0x80 PUSH2 0x1F77 DUP11 DUP3 DUP12 ADD PUSH2 0x1ECD JUMP JUMPDEST SWAP4 POP POP PUSH1 0xA0 PUSH2 0x1F88 DUP11 DUP3 DUP12 ADD PUSH2 0x1EF7 JUMP JUMPDEST SWAP3 POP POP PUSH1 0xC0 PUSH2 0x1F99 DUP11 DUP3 DUP12 ADD PUSH2 0x1EF7 JUMP JUMPDEST SWAP2 POP POP SWAP3 SWAP6 SWAP9 SWAP2 SWAP5 SWAP8 POP SWAP3 SWAP6 POP JUMP JUMPDEST PUSH0 DUP1 PUSH1 0x40 DUP4 DUP6 SUB SLT ISZERO PUSH2 0x1FBE JUMPI PUSH2 0x1FBD PUSH2 0x1AE7 JUMP JUMPDEST JUMPDEST PUSH0 PUSH2 0x1FCB DUP6 DUP3 DUP7 ADD PUSH2 0x1B31 JUMP JUMPDEST SWAP3 POP POP PUSH1 0x20 PUSH2 0x1FDC DUP6 DUP3 DUP7 ADD PUSH2 0x1B31 JUMP JUMPDEST SWAP2 POP POP SWAP3 POP SWAP3 SWAP1 POP JUMP JUMPDEST PUSH32 0x4E487B7100000000000000000000000000000000000000000000000000000000 PUSH0 MSTORE PUSH1 0x22 PUSH1 0x4 MSTORE PUSH1 0x24 PUSH0 REVERT JUMPDEST PUSH0 PUSH1 0x2 DUP3 DIV SWAP1 POP PUSH1 0x1 DUP3 AND DUP1 PUSH2 0x202A JUMPI PUSH1 0x7F DUP3 AND SWAP2 POP JUMPDEST PUSH1 0x20 DUP3 LT DUP2 SUB PUSH2 0x203D JUMPI PUSH2 0x203C PUSH2 0x1FE6 JUMP JUMPDEST JUMPDEST POP SWAP2 SWAP1 POP JUMP JUMPDEST PUSH32 0x4E487B7100000000000000000000000000000000000000000000000000000000 PUSH0 MSTORE PUSH1 0x11 PUSH1 0x4 MSTORE PUSH1 0x24 PUSH0 REVERT JUMPDEST PUSH0 PUSH2 0x207A DUP3 PUSH2 0x1B45 JUMP JUMPDEST SWAP2 POP PUSH2 0x2085 DUP4 PUSH2 0x1B45 JUMP JUMPDEST SWAP3 POP DUP3 DUP3 SUB SWAP1 POP DUP2 DUP2 GT ISZERO PUSH2 0x209D JUMPI PUSH2 0x209C PUSH2 0x2043 JUMP JUMPDEST JUMPDEST SWAP3 SWAP2 POP POP JUMP JUMPDEST PUSH32 0x207374696C6C20696E20636F6F6C20646F776E20706572696F64200000000000 PUSH0 DUP3 ADD MSTORE POP JUMP JUMPDEST PUSH0 PUSH2 0x20D7 PUSH1 0x1B DUP4 PUSH2 0x1A61 JUMP JUMPDEST SWAP2 POP PUSH2 0x20E2 DUP3 PUSH2 0x20A3 JUMP JUMPDEST PUSH1 0x20 DUP3 ADD SWAP1 POP SWAP2 SWAP1 POP JUMP JUMPDEST PUSH0 PUSH1 0x20 DUP3 ADD SWAP1 POP DUP2 DUP2 SUB PUSH0 DUP4 ADD MSTORE PUSH2 0x2104 DUP2 PUSH2 0x20CB JUMP JUMPDEST SWAP1 POP SWAP2 SWAP1 POP JUMP JUMPDEST PUSH32 0x4E487B7100000000000000000000000000000000000000000000000000000000 PUSH0 MSTORE PUSH1 0x41 PUSH1 0x4 MSTORE PUSH1 0x24 PUSH0 REVERT JUMPDEST PUSH0 PUSH1 0xC0 DUP3 ADD SWAP1 POP PUSH2 0x214B PUSH0 DUP4 ADD DUP10 PUSH2 0x1C9E JUMP JUMPDEST PUSH2 0x2158 PUSH1 0x20 DUP4 ADD DUP9 PUSH2 0x1D56 JUMP JUMPDEST PUSH2 0x2165 PUSH1 0x40 DUP4 ADD DUP8 PUSH2 0x1D56 JUMP JUMPDEST PUSH2 0x2172 PUSH1 0x60 DUP4 ADD DUP7 PUSH2 0x1BE9 JUMP JUMPDEST PUSH2 0x217F PUSH1 0x80 DUP4 ADD DUP6 PUSH2 0x1BE9 JUMP JUMPDEST PUSH2 0x218C PUSH1 0xA0 DUP4 ADD DUP5 PUSH2 0x1BE9 JUMP JUMPDEST SWAP8 SWAP7 POP POP POP POP POP POP POP JUMP JUMPDEST PUSH0 PUSH1 0x40 DUP3 ADD SWAP1 POP PUSH2 0x21AA PUSH0 DUP4 ADD DUP6 PUSH2 0x1D56 JUMP JUMPDEST PUSH2 0x21B7 PUSH1 0x20 DUP4 ADD DUP5 PUSH2 0x1D56 JUMP JUMPDEST SWAP4 SWAP3 POP POP POP JUMP JUMPDEST PUSH0 PUSH1 0x60 DUP3 ADD SWAP1 POP PUSH2 0x21D1 PUSH0 DUP4 ADD DUP7 PUSH2 0x1D56 JUMP JUMPDEST PUSH2 0x21DE PUSH1 0x20 DUP4 ADD DUP6 PUSH2 0x1BE9 JUMP JUMPDEST PUSH2 0x21EB PUSH1 0x40 DUP4 ADD DUP5 PUSH2 0x1BE9 JUMP JUMPDEST SWAP5 SWAP4 POP POP POP POP JUMP JUMPDEST PUSH0 PUSH1 0xA0 DUP3 ADD SWAP1 POP PUSH2 0x2206 PUSH0 DUP4 ADD DUP9 PUSH2 0x1C9E JUMP JUMPDEST PUSH2 0x2213 PUSH1 0x20 DUP4 ADD DUP8 PUSH2 0x1C9E JUMP JUMPDEST PUSH2 0x2220 PUSH1 0x40 DUP4 ADD DUP7 PUSH2 0x1C9E JUMP JUMPDEST PUSH2 0x222D PUSH1 0x60 DUP4 ADD DUP6 PUSH2 0x1BE9 JUMP JUMPDEST PUSH2 0x223A PUSH1 0x80 DUP4 ADD DUP5 PUSH2 0x1D56 JUMP JUMPDEST SWAP7 SWAP6 POP POP POP POP POP POP JUMP JUMPDEST PUSH0 PUSH1 0x80 DUP3 ADD SWAP1 POP PUSH2 0x2257 PUSH0 DUP4 ADD DUP8 PUSH2 0x1C9E JUMP JUMPDEST PUSH2 0x2264 PUSH1 0x20 DUP4 ADD DUP7 PUSH2 0x1C6D JUMP JUMPDEST PUSH2 0x2271 PUSH1 0x40 DUP4 ADD DUP6 PUSH2 0x1C9E JUMP JUMPDEST PUSH2 0x227E PUSH1 0x60 DUP4 ADD DUP5 PUSH2 0x1C9E JUMP JUMPDEST SWAP6 SWAP5 POP POP POP POP POP JUMP JUMPDEST PUSH32 0x4E487B7100000000000000000000000000000000000000000000000000000000 PUSH0 MSTORE PUSH1 0x21 PUSH1 0x4 MSTORE PUSH1 0x24 PUSH0 REVERT JUMPDEST PUSH0 PUSH2 0x22BE DUP3 PUSH2 0x1B45 JUMP JUMPDEST SWAP2 POP PUSH2 0x22C9 DUP4 PUSH2 0x1B45 JUMP JUMPDEST SWAP3 POP DUP3 DUP3 ADD SWAP1 POP DUP1 DUP3 GT ISZERO PUSH2 0x22E1 JUMPI PUSH2 0x22E0 PUSH2 0x2043 JUMP JUMPDEST JUMPDEST SWAP3 SWAP2 POP POP JUMP INVALID LOG2 PUSH5 0x6970667358 0x22 SLT KECCAK256 PUSH27 0x368FBD3F227BE02EEC6D9583642E260D94DAE6F5DB1DA84F93F61F JUMPI 0xC DUP2 0xC4 PUSH5 0x736F6C6343 STOP ADDMOD BYTE STOP CALLER "
				},
				"gasEstimates": {
					"creation": {
						"codeDepositCost": "1797800",
						"executionCost": "infinite",
						"totalCost": "infinite"
					},
					"external": {
						"DOMAIN_SEPARATOR()": "infinite",
						"allowance(address,address)": "infinite",
						"approve(address,uint256)": "infinite",
						"balanceOf(address)": "2852",
						"burn(uint256)": "infinite",
						"burnFrom(address,uint256)": "infinite",
						"decimals()": "361",
						"eip712Domain()": "infinite",
						"mint()": "infinite",
						"mint(address,uint256)": "infinite",
						"name()": "infinite",
						"nonces(address)": "2960",
						"owner()": "2588",
						"pause()": "infinite",
						"paused()": "2606",
						"permit(address,address,uint256,uint256,uint8,bytes32,bytes32)": "infinite",
						"renounceOwnership()": "infinite",
						"symbol()": "infinite",
						"totalSupply()": "2522",
						"transfer(address,uint256)": "infinite",
						"transferFrom(address,address,uint256)": "infinite",
						"transferOwnership(address)": "infinite",
						"unpause()": "infinite"
					},
					"internal": {
						"_update(address,address,uint256)": "infinite"
					}
				},
				"methodIdentifiers": {
					"DOMAIN_SEPARATOR()": "3644e515",
					"allowance(address,address)": "dd62ed3e",
					"approve(address,uint256)": "095ea7b3",
					"balanceOf(address)": "70a08231",
					"burn(uint256)": "42966c68",
					"burnFrom(address,uint256)": "79cc6790",
					"decimals()": "313ce567",
					"eip712Domain()": "84b0196e",
					"mint()": "1249c58b",
					"mint(address,uint256)": "40c10f19",
					"name()": "06fdde03",
					"nonces(address)": "7ecebe00",
					"owner()": "8da5cb5b",
					"pause()": "8456cb59",
					"paused()": "5c975abb",
					"permit(address,address,uint256,uint256,uint8,bytes32,bytes32)": "d505accf",
					"renounceOwnership()": "715018a6",
					"symbol()": "95d89b41",
					"totalSupply()": "18160ddd",
					"transfer(address,uint256)": "a9059cbb",
					"transferFrom(address,address,uint256)": "23b872dd",
					"transferOwnership(address)": "f2fde38b",
					"unpause()": "3f4ba83a"
				}
			},
			"storageLayout": {
				"storage": [
					{
						"astId": 279,
						"contract": "contracts/MetDropTestToken_flattened.sol:MetDropTestToken",
						"label": "_balances",
						"offset": 0,
						"slot": "0",
						"type": "t_mapping(t_address,t_uint256)"
					},
					{
						"astId": 285,
						"contract": "contracts/MetDropTestToken_flattened.sol:MetDropTestToken",
						"label": "_allowances",
						"offset": 0,
						"slot": "1",
						"type": "t_mapping(t_address,t_mapping(t_address,t_uint256))"
					},
					{
						"astId": 287,
						"contract": "contracts/MetDropTestToken_flattened.sol:MetDropTestToken",
						"label": "_totalSupply",
						"offset": 0,
						"slot": "2",
						"type": "t_uint256"
					},
					{
						"astId": 289,
						"contract": "contracts/MetDropTestToken_flattened.sol:MetDropTestToken",
						"label": "_name",
						"offset": 0,
						"slot": "3",
						"type": "t_string_storage"
					},
					{
						"astId": 291,
						"contract": "contracts/MetDropTestToken_flattened.sol:MetDropTestToken",
						"label": "_symbol",
						"offset": 0,
						"slot": "4",
						"type": "t_string_storage"
					},
					{
						"astId": 818,
						"contract": "contracts/MetDropTestToken_flattened.sol:MetDropTestToken",
						"label": "_paused",
						"offset": 0,
						"slot": "5",
						"type": "t_bool"
					},
					{
						"astId": 961,
						"contract": "contracts/MetDropTestToken_flattened.sol:MetDropTestToken",
						"label": "_owner",
						"offset": 1,
						"slot": "5",
						"type": "t_address"
					},
					{
						"astId": 3336,
						"contract": "contracts/MetDropTestToken_flattened.sol:MetDropTestToken",
						"label": "_nameFallback",
						"offset": 0,
						"slot": "6",
						"type": "t_string_storage"
					},
					{
						"astId": 3338,
						"contract": "contracts/MetDropTestToken_flattened.sol:MetDropTestToken",
						"label": "_versionFallback",
						"offset": 0,
						"slot": "7",
						"type": "t_string_storage"
					},
					{
						"astId": 3539,
						"contract": "contracts/MetDropTestToken_flattened.sol:MetDropTestToken",
						"label": "_nonces",
						"offset": 0,
						"slot": "8",
						"type": "t_mapping(t_address,t_uint256)"
					},
					{
						"astId": 3754,
						"contract": "contracts/MetDropTestToken_flattened.sol:MetDropTestToken",
						"label": "coolDown",
						"offset": 0,
						"slot": "9",
						"type": "t_int256"
					},
					{
						"astId": 3758,
						"contract": "contracts/MetDropTestToken_flattened.sol:MetDropTestToken",
						"label": "lastMintDateByAddress",
						"offset": 0,
						"slot": "10",
						"type": "t_mapping(t_address,t_uint256)"
					},
					{
						"astId": 3763,
						"contract": "contracts/MetDropTestToken_flattened.sol:MetDropTestToken",
						"label": "defaultAmount",
						"offset": 0,
						"slot": "11",
						"type": "t_uint256"
					}
				],
				"types": {
					"t_address": {
						"encoding": "inplace",
						"label": "address",
						"numberOfBytes": "20"
					},
					"t_bool": {
						"encoding": "inplace",
						"label": "bool",
						"numberOfBytes": "1"
					},
					"t_int256": {
						"encoding": "inplace",
						"label": "int256",
						"numberOfBytes": "32"
					},
					"t_mapping(t_address,t_mapping(t_address,t_uint256))": {
						"encoding": "mapping",
						"key": "t_address",
						"label": "mapping(address => mapping(address => uint256))",
						"numberOfBytes": "32",
						"value": "t_mapping(t_address,t_uint256)"
					},
					"t_mapping(t_address,t_uint256)": {
						"encoding": "mapping",
						"key": "t_address",
						"label": "mapping(address => uint256)",
						"numberOfBytes": "32",
						"value": "t_uint256"
					},
					"t_string_storage": {
						"encoding": "bytes",
						"label": "string",
						"numberOfBytes": "32"
					},
					"t_uint256": {
						"encoding": "inplace",
						"label": "uint256",
						"numberOfBytes": "32"
					}
				}
			},
			"userdoc": {
				"kind": "user",
				"methods": {},
				"version": 1
			}
		}
	}
}