{
	"data": {
		"bytecode": {
			"linkReferences": {},
			"object": "61016060405262015180600955686c6b935b8bbd400000600b55348015610024575f80fd5b50604051612d1f380380612d1f833981810160405281019061004691906104c4565b6040518060400160405280601081526020017f4d657444726f7054657374546f6b656e00000000000000000000000000000000815250806040518060400160405280600181526020017f3100000000000000000000000000000000000000000000000000000000000000815250836040518060400160405280601081526020017f4d657444726f7054657374546f6b656e000000000000000000000000000000008152506040518060400160405280600481526020017f4d44545400000000000000000000000000000000000000000000000000000000815250816003908161012f9190610729565b50806004908161013f9190610729565b5050505f60055f6101000a81548160ff0219169083151502179055505f73ffffffffffffffffffffffffffffffffffffffff168173ffffffffffffffffffffffffffffffffffffffff16036101cb575f6040517f1e4fbdf70000000000000000000000000000000000000000000000000000000081526004016101c29190610807565b60405180910390fd5b6101da8161028c60201b60201c565b506101ef60068361035160201b90919060201c565b610120818152505061020b60078261035160201b90919060201c565b6101408181525050818051906020012060e08181525050808051906020012061010081815250504660a0818152505061024861039e60201b60201c565b608081815250503073ffffffffffffffffffffffffffffffffffffffff1660c08173ffffffffffffffffffffffffffffffffffffffff1681525050505050506109b1565b5f600560019054906101000a900473ffffffffffffffffffffffffffffffffffffffff16905081600560016101000a81548173ffffffffffffffffffffffffffffffffffffffff021916908373ffffffffffffffffffffffffffffffffffffffff1602179055508173ffffffffffffffffffffffffffffffffffffffff168173ffffffffffffffffffffffffffffffffffffffff167f8be0079c531659141344cd1fd0a4f28419497f9722a3daafe3b4186f6b6457e060405160405180910390a35050565b5f6020835110156103725761036b836103f860201b60201c565b9050610398565b826103828361045d60201b60201c565b5f0190816103909190610729565b5060ff5f1b90505b92915050565b5f7f8b73c3c69bb8fe3d512ecc4cf759cc79239f7b179b0ffacaa9a75d522b39400f60e0516101005146306040516020016103dd959493929190610847565b60405160208183030381529060405280519060200120905090565b5f80829050601f8151111561044457826040517f305a27a900000000000000000000000000000000000000000000000000000000815260040161043b91906108fe565b60405180910390fd5b8051816104509061094b565b5f1c175f1b915050919050565b5f819050919050565b5f80fd5b5f73ffffffffffffffffffffffffffffffffffffffff82169050919050565b5f6104938261046a565b9050919050565b6104a381610489565b81146104ad575f80fd5b50565b5f815190506104be8161049a565b92915050565b5f602082840312156104d9576104d8610466565b5b5f6104e6848285016104b0565b91505092915050565b5f81519050919050565b7f4e487b71000000000000000000000000000000000000000000000000000000005f52604160045260245ffd5b7f4e487b71000000000000000000000000000000000000000000000000000000005f52602260045260245ffd5b5f600282049050600182168061056a57607f821691505b60208210810361057d5761057c610526565b5b50919050565b5f819050815f5260205f209050919050565b5f6020601f8301049050919050565b5f82821b905092915050565b5f600883026105df7fffffffffffffffffffffffffffffffffffffffffffffffffffffffffffffffff826105a4565b6105e986836105a4565b95508019841693508086168417925050509392505050565b5f819050919050565b5f819050919050565b5f61062d61062861062384610601565b61060a565b610601565b9050919050565b5f819050919050565b61064683610613565b61065a61065282610634565b8484546105b0565b825550505050565b5f90565b61066e610662565b61067981848461063d565b505050565b5b8181101561069c576106915f82610666565b60018101905061067f565b5050565b601f8211156106e1576106b281610583565b6106bb84610595565b810160208510156106ca578190505b6106de6106d685610595565b83018261067e565b50505b505050565b5f82821c905092915050565b5f6107015f19846008026106e6565b1980831691505092915050565b5f61071983836106f2565b9150826002028217905092915050565b610732826104ef565b67ffffffffffffffff81111561074b5761074a6104f9565b5b6107558254610553565b6107608282856106a0565b5f60209050601f831160018114610791575f841561077f578287015190505b610789858261070e565b8655506107f0565b601f19841661079f86610583565b5f5b828110156107c6578489015182556001820191506020850194506020810190506107a1565b868310156107e357848901516107df601f8916826106f2565b8355505b6001600288020188555050505b505050505050565b61080181610489565b82525050565b5f60208201905061081a5f8301846107f8565b92915050565b5f819050919050565b61083281610820565b82525050565b61084181610601565b82525050565b5f60a08201905061085a5f830188610829565b6108676020830187610829565b6108746040830186610829565b6108816060830185610838565b61088e60808301846107f8565b9695505050505050565b5f82825260208201905092915050565b8281835e5f83830152505050565b5f601f19601f8301169050919050565b5f6108d0826104ef565b6108da8185610898565b93506108ea8185602086016108a8565b6108f3816108b6565b840191505092915050565b5f6020820190508181035f83015261091681846108c6565b905092915050565b5f81519050919050565b5f819050602082019050919050565b5f6109428251610820565b80915050919050565b5f6109558261091e565b8261095f84610928565b905061096a81610937565b925060208210156109aa576109a57fffffffffffffffffffffffffffffffffffffffffffffffffffffffffffffffff836020036008026105a4565b831692505b5050919050565b60805160a05160c05160e05161010051610120516101405161231d610a025f395f61106f01525f61103401525f61135f01525f61133e01525f610ca401525f610cfa01525f610d23015261231d5ff3fe608060405234801561000f575f80fd5b506004361061014b575f3560e01c806370a08231116100c15780638da5cb5b1161007a5780638da5cb5b1461035957806395d89b4114610377578063a9059cbb14610395578063d505accf146103c5578063dd62ed3e146103e1578063f2fde38b146104115761014b565b806370a08231146102a5578063715018a6146102d557806379cc6790146102df5780637ecebe00146102fb5780638456cb591461032b57806384b0196e146103355761014b565b8063313ce56711610113578063313ce567146102095780633644e515146102275780633f4ba83a1461024557806340c10f191461024f57806342966c681461026b5780635c975abb146102875761014b565b806306fdde031461014f578063095ea7b31461016d5780631249c58b1461019d57806318160ddd146101bb57806323b872dd146101d9575b5f80fd5b61015761042d565b6040516101649190611ac7565b60405180910390f35b61018760048036038101906101829190611b78565b6104bd565b6040516101949190611bd0565b60405180910390f35b6101a56104df565b6040516101b29190611bf8565b60405180910390f35b6101c3610583565b6040516101d09190611bf8565b60405180910390f35b6101f360048036038101906101ee9190611c11565b61058c565b6040516102009190611bd0565b60405180910390f35b6102116105ba565b60405161021e9190611c7c565b60405180910390f35b61022f6105c2565b60405161023c9190611cad565b60405180910390f35b61024d6105d0565b005b61026960048036038101906102649190611b78565b6105e2565b005b61028560048036038101906102809190611cc6565b6105f8565b005b61028f61060c565b60405161029c9190611bd0565b60405180910390f35b6102bf60048036038101906102ba9190611cf1565b610621565b6040516102cc9190611bf8565b60405180910390f35b6102dd610666565b005b6102f960048036038101906102f49190611b78565b610679565b005b61031560048036038101906103109190611cf1565b610699565b6040516103229190611bf8565b60405180910390f35b6103336106aa565b005b61033d6106bc565b6040516103509796959493929190611e1c565b60405180910390f35b610361610761565b60405161036e9190611e9e565b60405180910390f35b61037f61078a565b60405161038c9190611ac7565b60405180910390f35b6103af60048036038101906103aa9190611b78565b61081a565b6040516103bc9190611bd0565b60405180910390f35b6103df60048036038101906103da9190611f0b565b61083c565b005b6103fb60048036038101906103f69190611fa8565b610981565b6040516104089190611bf8565b60405180910390f35b61042b60048036038101906104269190611cf1565b610a03565b005b60606003805461043c90612013565b80601f016020809104026020016040519081016040528092919081815260200182805461046890612013565b80156104b35780601f1061048a576101008083540402835291602001916104b3565b820191905f5260205f20905b81548152906001019060200180831161049657829003601f168201915b5050505050905090565b5f806104c7610a87565b90506104d4818585610a8e565b600191505092915050565b5f80600a5f3373ffffffffffffffffffffffffffffffffffffffff1673ffffffffffffffffffffffffffffffffffffffff1681526020019081526020015f20544261052a9190612070565b90506009548113610570576040517f08c379a0000000000000000000000000000000000000000000000000000000008152600401610567906120ed565b60405180910390fd5b600b54915061057f3383610aa0565b5090565b5f600254905090565b5f80610596610a87565b90506105a3858285610b1f565b6105ae858585610bb1565b60019150509392505050565b5f6012905090565b5f6105cb610ca1565b905090565b6105d8610d57565b6105e0610dde565b565b6105ea610d57565b6105f48282610aa0565b5050565b610609610603610a87565b82610e3f565b50565b5f60055f9054906101000a900460ff16905090565b5f805f8373ffffffffffffffffffffffffffffffffffffffff1673ffffffffffffffffffffffffffffffffffffffff1681526020019081526020015f20549050919050565b61066e610d57565b6106775f610ebe565b565b61068b82610685610a87565b83610b1f565b6106958282610e3f565b5050565b5f6106a382610f83565b9050919050565b6106b2610d57565b6106ba610fc9565b565b5f6060805f805f60606106cd61102b565b6106d5611066565b46305f801b5f67ffffffffffffffff8111156106f4576106f361210b565b5b6040519080825280602002602001820160405280156107225781602001602082028036833780820191505090505b507f0f00000000000000000000000000000000000000000000000000000000000000959493929190965096509650965096509650965090919293949596565b5f600560019054906101000a900473ffffffffffffffffffffffffffffffffffffffff16905090565b60606004805461079990612013565b80601f01602080910402602001604051908101604052809291908181526020018280546107c590612013565b80156108105780601f106107e757610100808354040283529160200191610810565b820191905f5260205f20905b8154815290600101906020018083116107f357829003601f168201915b5050505050905090565b5f80610824610a87565b9050610831818585610bb1565b600191505092915050565b8342111561088157836040517f627913020000000000000000000000000000000000000000000000000000000081526004016108789190611bf8565b60405180910390fd5b5f7f6e71edae12b1b97f4d1f60370fef10105fa2faae0126114a169c64845d6126c98888886108af8c6110a1565b896040516020016108c596959493929190612138565b6040516020818303038152906040528051906020012090505f6108e7826110f4565b90505f6108f68287878761110d565b90508973ffffffffffffffffffffffffffffffffffffffff168173ffffffffffffffffffffffffffffffffffffffff161461096a57808a6040517f4b800e46000000000000000000000000000000000000000000000000000000008152600401610961929190612197565b60405180910390fd5b6109758a8a8a610a8e565b50505050505050505050565b5f60015f8473ffffffffffffffffffffffffffffffffffffffff1673ffffffffffffffffffffffffffffffffffffffff1681526020019081526020015f205f8373ffffffffffffffffffffffffffffffffffffffff1673ffffffffffffffffffffffffffffffffffffffff1681526020019081526020015f2054905092915050565b610a0b610d57565b5f73ffffffffffffffffffffffffffffffffffffffff168173ffffffffffffffffffffffffffffffffffffffff1603610a7b575f6040517f1e4fbdf7000000000000000000000000000000000000000000000000000000008152600401610a729190611e9e565b60405180910390fd5b610a8481610ebe565b50565b5f33905090565b610a9b838383600161113b565b505050565b5f73ffffffffffffffffffffffffffffffffffffffff168273ffffffffffffffffffffffffffffffffffffffff1603610b10575f6040517fec442f05000000000000000000000000000000000000000000000000000000008152600401610b079190611e9e565b60405180910390fd5b610b1b5f838361130a565b5050565b5f610b2a8484610981565b90507fffffffffffffffffffffffffffffffffffffffffffffffffffffffffffffffff8114610bab5781811015610b9c578281836040517ffb8f41b2000000000000000000000000000000000000000000000000000000008152600401610b93939291906121be565b60405180910390fd5b610baa84848484035f61113b565b5b50505050565b5f73ffffffffffffffffffffffffffffffffffffffff168373ffffffffffffffffffffffffffffffffffffffff1603610c21575f6040517f96c6fd1e000000000000000000000000000000000000000000000000000000008152600401610c189190611e9e565b60405180910390fd5b5f73ffffffffffffffffffffffffffffffffffffffff168273ffffffffffffffffffffffffffffffffffffffff1603610c91575f6040517fec442f05000000000000000000000000000000000000000000000000000000008152600401610c889190611e9e565b60405180910390fd5b610c9c83838361130a565b505050565b5f7f000000000000000000000000000000000000000000000000000000000000000073ffffffffffffffffffffffffffffffffffffffff163073ffffffffffffffffffffffffffffffffffffffff16148015610d1c57507f000000000000000000000000000000000000000000000000000000000000000046145b15610d49577f00000000000000000000000000000000000000000000000000000000000000009050610d54565b610d5161131a565b90505b90565b610d5f610a87565b73ffffffffffffffffffffffffffffffffffffffff16610d7d610761565b73ffffffffffffffffffffffffffffffffffffffff1614610ddc57610da0610a87565b6040517f118cdaa7000000000000000000000000000000000000000000000000000000008152600401610dd39190611e9e565b60405180910390fd5b565b610de66113af565b5f60055f6101000a81548160ff0219169083151502179055507f5db9ee0a495bf2e6ff9c91a7834c1ba4fdd244a5e8aa4e537bd38aeae4b073aa610e28610a87565b604051610e359190611e9e565b60405180910390a1565b5f73ffffffffffffffffffffffffffffffffffffffff168273ffffffffffffffffffffffffffffffffffffffff1603610eaf575f6040517f96c6fd1e000000000000000000000000000000000000000000000000000000008152600401610ea69190611e9e565b60405180910390fd5b610eba825f8361130a565b5050565b5f600560019054906101000a900473ffffffffffffffffffffffffffffffffffffffff16905081600560016101000a81548173ffffffffffffffffffffffffffffffffffffffff021916908373ffffffffffffffffffffffffffffffffffffffff1602179055508173ffffffffffffffffffffffffffffffffffffffff168173ffffffffffffffffffffffffffffffffffffffff167f8be0079c531659141344cd1fd0a4f28419497f9722a3daafe3b4186f6b6457e060405160405180910390a35050565b5f60085f8373ffffffffffffffffffffffffffffffffffffffff1673ffffffffffffffffffffffffffffffffffffffff1681526020019081526020015f20549050919050565b610fd16113ef565b600160055f6101000a81548160ff0219169083151502179055507f62e78cea01bee320cd4e420270b5ea74000d11b0c9f74754ebdbfc544b05a258611014610a87565b6040516110219190611e9e565b60405180910390a1565b606061106160067f000000000000000000000000000000000000000000000000000000000000000061143090919063ffffffff16565b905090565b606061109c60077f000000000000000000000000000000000000000000000000000000000000000061143090919063ffffffff16565b905090565b5f60085f8373ffffffffffffffffffffffffffffffffffffffff1673ffffffffffffffffffffffffffffffffffffffff1681526020019081526020015f205f815480929190600101919050559050919050565b5f611106611100610ca1565b836114dd565b9050919050565b5f805f8061111d8888888861151d565b92509250925061112d8282611604565b829350505050949350505050565b5f73ffffffffffffffffffffffffffffffffffffffff168473ffffffffffffffffffffffffffffffffffffffff16036111ab575f6040517fe602df050000000000000000000000000000000000000000000000000000000081526004016111a29190611e9e565b60405180910390fd5b5f73ffffffffffffffffffffffffffffffffffffffff168373ffffffffffffffffffffffffffffffffffffffff160361121b575f6040517f94280d620000000000000000000000000000000000000000000000000000000081526004016112129190611e9e565b60405180910390fd5b8160015f8673ffffffffffffffffffffffffffffffffffffffff1673ffffffffffffffffffffffffffffffffffffffff1681526020019081526020015f205f8573ffffffffffffffffffffffffffffffffffffffff1673ffffffffffffffffffffffffffffffffffffffff1681526020019081526020015f20819055508015611304578273ffffffffffffffffffffffffffffffffffffffff168473ffffffffffffffffffffffffffffffffffffffff167f8c5be1e5ebec7d5bd14f71427d1e84f3dd0314c0f7b2291e5b200ac8c7c3b925846040516112fb9190611bf8565b60405180910390a35b50505050565b611315838383611766565b505050565b5f7f8b73c3c69bb8fe3d512ecc4cf759cc79239f7b179b0ffacaa9a75d522b39400f7f00000000000000000000000000000000000000000000000000000000000000007f000000000000000000000000000000000000000000000000000000000000000046306040516020016113949594939291906121f3565b60405160208183030381529060405280519060200120905090565b6113b761060c565b6113ed576040517f8dfc202b00000000000000000000000000000000000000000000000000000000815260040160405180910390fd5b565b6113f761060c565b1561142e576040517fd93c066500000000000000000000000000000000000000000000000000000000815260040160405180910390fd5b565b606060ff5f1b831461144c576114458361177e565b90506114d7565b81805461145890612013565b80601f016020809104026020016040519081016040528092919081815260200182805461148490612013565b80156114cf5780601f106114a6576101008083540402835291602001916114cf565b820191905f5260205f20905b8154815290600101906020018083116114b257829003601f168201915b505050505090505b92915050565b5f6040517f190100000000000000000000000000000000000000000000000000000000000081528360028201528260228201526042812091505092915050565b5f805f7f7fffffffffffffffffffffffffffffff5d576e7357a4501ddfe92f46681b20a0845f1c1115611559575f6003859250925092506115fa565b5f6001888888886040515f815260200160405260405161157c9493929190612244565b6020604051602081039080840390855afa15801561159c573d5f803e3d5ffd5b5050506020604051035190505f73ffffffffffffffffffffffffffffffffffffffff168173ffffffffffffffffffffffffffffffffffffffff16036115ed575f60015f801b935093509350506115fa565b805f805f1b935093509350505b9450945094915050565b5f600381111561161757611616612287565b5b82600381111561162a57611629612287565b5b0315611762576001600381111561164457611643612287565b5b82600381111561165757611656612287565b5b0361168e576040517ff645eedf00000000000000000000000000000000000000000000000000000000815260040160405180910390fd5b600260038111156116a2576116a1612287565b5b8260038111156116b5576116b4612287565b5b036116f957805f1c6040517ffce698f70000000000000000000000000000000000000000000000000000000081526004016116f09190611bf8565b60405180910390fd5b60038081111561170c5761170b612287565b5b82600381111561171f5761171e612287565b5b0361176157806040517fd78bce0c0000000000000000000000000000000000000000000000000000000081526004016117589190611cad565b60405180910390fd5b5b5050565b61176e6113ef565b6117798383836117f0565b505050565b60605f61178a83611a09565b90505f602067ffffffffffffffff8111156117a8576117a761210b565b5b6040519080825280601f01601f1916602001820160405280156117da5781602001600182028036833780820191505090505b5090508181528360208201528092505050919050565b5f73ffffffffffffffffffffffffffffffffffffffff168373ffffffffffffffffffffffffffffffffffffffff1603611840578060025f82825461183491906122b4565b9250508190555061190e565b5f805f8573ffffffffffffffffffffffffffffffffffffffff1673ffffffffffffffffffffffffffffffffffffffff1681526020019081526020015f20549050818110156118c9578381836040517fe450d38c0000000000000000000000000000000000000000000000000000000081526004016118c0939291906121be565b60405180910390fd5b8181035f808673ffffffffffffffffffffffffffffffffffffffff1673ffffffffffffffffffffffffffffffffffffffff1681526020019081526020015f2081905550505b5f73ffffffffffffffffffffffffffffffffffffffff168273ffffffffffffffffffffffffffffffffffffffff1603611955578060025f828254039250508190555061199f565b805f808473ffffffffffffffffffffffffffffffffffffffff1673ffffffffffffffffffffffffffffffffffffffff1681526020019081526020015f205f82825401925050819055505b8173ffffffffffffffffffffffffffffffffffffffff168373ffffffffffffffffffffffffffffffffffffffff167fddf252ad1be2c89b69c2b068fc378daa952ba7f163c4a11628f55a4df523b3ef836040516119fc9190611bf8565b60405180910390a3505050565b5f8060ff835f1c169050601f811115611a4e576040517fb3512b0c00000000000000000000000000000000000000000000000000000000815260040160405180910390fd5b80915050919050565b5f81519050919050565b5f82825260208201905092915050565b8281835e5f83830152505050565b5f601f19601f8301169050919050565b5f611a9982611a57565b611aa38185611a61565b9350611ab3818560208601611a71565b611abc81611a7f565b840191505092915050565b5f6020820190508181035f830152611adf8184611a8f565b905092915050565b5f80fd5b5f73ffffffffffffffffffffffffffffffffffffffff82169050919050565b5f611b1482611aeb565b9050919050565b611b2481611b0a565b8114611b2e575f80fd5b50565b5f81359050611b3f81611b1b565b92915050565b5f819050919050565b611b5781611b45565b8114611b61575f80fd5b50565b5f81359050611b7281611b4e565b92915050565b5f8060408385031215611b8e57611b8d611ae7565b5b5f611b9b85828601611b31565b9250506020611bac85828601611b64565b9150509250929050565b5f8115159050919050565b611bca81611bb6565b82525050565b5f602082019050611be35f830184611bc1565b92915050565b611bf281611b45565b82525050565b5f602082019050611c0b5f830184611be9565b92915050565b5f805f60608486031215611c2857611c27611ae7565b5b5f611c3586828701611b31565b9350506020611c4686828701611b31565b9250506040611c5786828701611b64565b9150509250925092565b5f60ff82169050919050565b611c7681611c61565b82525050565b5f602082019050611c8f5f830184611c6d565b92915050565b5f819050919050565b611ca781611c95565b82525050565b5f602082019050611cc05f830184611c9e565b92915050565b5f60208284031215611cdb57611cda611ae7565b5b5f611ce884828501611b64565b91505092915050565b5f60208284031215611d0657611d05611ae7565b5b5f611d1384828501611b31565b91505092915050565b5f7fff0000000000000000000000000000000000000000000000000000000000000082169050919050565b611d5081611d1c565b82525050565b611d5f81611b0a565b82525050565b5f81519050919050565b5f82825260208201905092915050565b5f819050602082019050919050565b611d9781611b45565b82525050565b5f611da88383611d8e565b60208301905092915050565b5f602082019050919050565b5f611dca82611d65565b611dd48185611d6f565b9350611ddf83611d7f565b805f5b83811015611e0f578151611df68882611d9d565b9750611e0183611db4565b925050600181019050611de2565b5085935050505092915050565b5f60e082019050611e2f5f83018a611d47565b8181036020830152611e418189611a8f565b90508181036040830152611e558188611a8f565b9050611e646060830187611be9565b611e716080830186611d56565b611e7e60a0830185611c9e565b81810360c0830152611e908184611dc0565b905098975050505050505050565b5f602082019050611eb15f830184611d56565b92915050565b611ec081611c61565b8114611eca575f80fd5b50565b5f81359050611edb81611eb7565b92915050565b611eea81611c95565b8114611ef4575f80fd5b50565b5f81359050611f0581611ee1565b92915050565b5f805f805f805f60e0888a031215611f2657611f25611ae7565b5b5f611f338a828b01611b31565b9750506020611f448a828b01611b31565b9650506040611f558a828b01611b64565b9550506060611f668a828b01611b64565b9450506080611f778a828b01611ecd565b93505060a0611f888a828b01611ef7565b92505060c0611f998a828b01611ef7565b91505092959891949750929550565b5f8060408385031215611fbe57611fbd611ae7565b5b5f611fcb85828601611b31565b9250506020611fdc85828601611b31565b9150509250929050565b7f4e487b71000000000000000000000000000000000000000000000000000000005f52602260045260245ffd5b5f600282049050600182168061202a57607f821691505b60208210810361203d5761203c611fe6565b5b50919050565b7f4e487b71000000000000000000000000000000000000000000000000000000005f52601160045260245ffd5b5f61207a82611b45565b915061208583611b45565b925082820390508181111561209d5761209c612043565b5b92915050565b7f207374696c6c20696e20636f6f6c20646f776e20706572696f642000000000005f82015250565b5f6120d7601b83611a61565b91506120e2826120a3565b602082019050919050565b5f6020820190508181035f830152612104816120cb565b9050919050565b7f4e487b71000000000000000000000000000000000000000000000000000000005f52604160045260245ffd5b5f60c08201905061214b5f830189611c9e565b6121586020830188611d56565b6121656040830187611d56565b6121726060830186611be9565b61217f6080830185611be9565b61218c60a0830184611be9565b979650505050505050565b5f6040820190506121aa5f830185611d56565b6121b76020830184611d56565b9392505050565b5f6060820190506121d15f830186611d56565b6121de6020830185611be9565b6121eb6040830184611be9565b949350505050565b5f60a0820190506122065f830188611c9e565b6122136020830187611c9e565b6122206040830186611c9e565b61222d6060830185611be9565b61223a6080830184611d56565b9695505050505050565b5f6080820190506122575f830187611c9e565b6122646020830186611c6d565b6122716040830185611c9e565b61227e6060830184611c9e565b95945050505050565b7f4e487b71000000000000000000000000000000000000000000000000000000005f52602160045260245ffd5b5f6122be82611b45565b91506122c983611b45565b92508282019050808211156122e1576122e0612043565b5b9291505056fea26469706673582212207a368fbd3f227be02eec6d9583642e260d94dae6f5db1da84f93f61f570c81c464736f6c634300081a0033",
			"opcodes": "PUSH2 0x160 PUSH1 0x40 MSTORE PUSH3 0x15180 PUSH1 0x9 SSTORE PUSH9 0x6C6B935B8BBD400000 PUSH1 0xB SSTORE CALLVALUE DUP1 ISZERO PUSH2 0x24 JUMPI PUSH0 DUP1 REVERT JUMPDEST POP PUSH1 0x40 MLOAD PUSH2 0x2D1F CODESIZE SUB DUP1 PUSH2 0x2D1F DUP4 CODECOPY DUP2 DUP2 ADD PUSH1 0x40 MSTORE DUP2 ADD SWAP1 PUSH2 0x46 SWAP2 SWAP1 PUSH2 0x4C4 JUMP JUMPDEST PUSH1 0x40 MLOAD DUP1 PUSH1 0x40 ADD PUSH1 0x40 MSTORE DUP1 PUSH1 0x10 DUP2 MSTORE PUSH1 0x20 ADD PUSH32 0x4D657444726F7054657374546F6B656E00000000000000000000000000000000 DUP2 MSTORE POP DUP1 PUSH1 0x40 MLOAD DUP1 PUSH1 0x40 ADD PUSH1 0x40 MSTORE DUP1 PUSH1 0x1 DUP2 MSTORE PUSH1 0x20 ADD PUSH32 0x3100000000000000000000000000000000000000000000000000000000000000 DUP2 MSTORE POP DUP4 PUSH1 0x40 MLOAD DUP1 PUSH1 0x40 ADD PUSH1 0x40 MSTORE DUP1 PUSH1 0x10 DUP2 MSTORE PUSH1 0x20 ADD PUSH32 0x4D657444726F7054657374546F6B656E00000000000000000000000000000000 DUP2 MSTORE POP PUSH1 0x40 MLOAD DUP1 PUSH1 0x40 ADD PUSH1 0x40 MSTORE DUP1 PUSH1 0x4 DUP2 MSTORE PUSH1 0x20 ADD PUSH32 0x4D44545400000000000000000000000000000000000000000000000000000000 DUP2 MSTORE POP DUP2 PUSH1 0x3 SWAP1 DUP2 PUSH2 0x12F SWAP2 SWAP1 PUSH2 0x729 JUMP JUMPDEST POP DUP1 PUSH1 0x4 SWAP1 DUP2 PUSH2 0x13F SWAP2 SWAP1 PUSH2 0x729 JUMP JUMPDEST POP POP POP PUSH0 PUSH1 0x5 PUSH0 PUSH2 0x100 EXP DUP2 SLOAD DUP2 PUSH1 0xFF MUL NOT AND SWAP1 DUP4 ISZERO ISZERO MUL OR SWAP1 SSTORE POP PUSH0 PUSH20 0xFFFFFFFFFFFFFFFFFFFFFFFFFFFFFFFFFFFFFFFF AND DUP2 PUSH20 0xFFFFFFFFFFFFFFFFFFFFFFFFFFFFFFFFFFFFFFFF AND SUB PUSH2 0x1CB JUMPI PUSH0 PUSH1 0x40 MLOAD PUSH32 0x1E4FBDF700000000000000000000000000000000000000000000000000000000 DUP2 MSTORE PUSH1 0x4 ADD PUSH2 0x1C2 SWAP2 SWAP1 PUSH2 0x807 JUMP JUMPDEST PUSH1 0x40 MLOAD DUP1 SWAP2 SUB SWAP1 REVERT JUMPDEST PUSH2 0x1DA DUP2 PUSH2 0x28C PUSH1 0x20 SHL PUSH1 0x20 SHR JUMP JUMPDEST POP PUSH2 0x1EF PUSH1 0x6 DUP4 PUSH2 0x351 PUSH1 0x20 SHL SWAP1 SWAP2 SWAP1 PUSH1 0x20 SHR JUMP JUMPDEST PUSH2 0x120 DUP2 DUP2 MSTORE POP POP PUSH2 0x20B PUSH1 0x7 DUP3 PUSH2 0x351 PUSH1 0x20 SHL SWAP1 SWAP2 SWAP1 PUSH1 0x20 SHR JUMP JUMPDEST PUSH2 0x140 DUP2 DUP2 MSTORE POP POP DUP2 DUP1 MLOAD SWAP1 PUSH1 0x20 ADD KECCAK256 PUSH1 0xE0 DUP2 DUP2 MSTORE POP POP DUP1 DUP1 MLOAD SWAP1 PUSH1 0x20 ADD KECCAK256 PUSH2 0x100 DUP2 DUP2 MSTORE POP POP CHAINID PUSH1 0xA0 DUP2 DUP2 MSTORE POP POP PUSH2 0x248 PUSH2 0x39E PUSH1 0x20 SHL PUSH1 0x20 SHR JUMP JUMPDEST PUSH1 0x80 DUP2 DUP2 MSTORE POP POP ADDRESS PUSH20 0xFFFFFFFFFFFFFFFFFFFFFFFFFFFFFFFFFFFFFFFF AND PUSH1 0xC0 DUP2 PUSH20 0xFFFFFFFFFFFFFFFFFFFFFFFFFFFFFFFFFFFFFFFF AND DUP2 MSTORE POP POP POP POP POP POP PUSH2 0x9B1 JUMP JUMPDEST PUSH0 PUSH1 0x5 PUSH1 0x1 SWAP1 SLOAD SWAP1 PUSH2 0x100 EXP SWAP1 DIV PUSH20 0xFFFFFFFFFFFFFFFFFFFFFFFFFFFFFFFFFFFFFFFF AND SWAP1 POP DUP2 PUSH1 0x5 PUSH1 0x1 PUSH2 0x100 EXP DUP2 SLOAD DUP2 PUSH20 0xFFFFFFFFFFFFFFFFFFFFFFFFFFFFFFFFFFFFFFFF MUL NOT AND SWAP1 DUP4 PUSH20 0xFFFFFFFFFFFFFFFFFFFFFFFFFFFFFFFFFFFFFFFF AND MUL OR SWAP1 SSTORE POP DUP2 PUSH20 0xFFFFFFFFFFFFFFFFFFFFFFFFFFFFFFFFFFFFFFFF AND DUP2 PUSH20 0xFFFFFFFFFFFFFFFFFFFFFFFFFFFFFFFFFFFFFFFF AND PUSH32 0x8BE0079C531659141344CD1FD0A4F28419497F9722A3DAAFE3B4186F6B6457E0 PUSH1 0x40 MLOAD PUSH1 0x40 MLOAD DUP1 SWAP2 SUB SWAP1 LOG3 POP POP JUMP JUMPDEST PUSH0 PUSH1 0x20 DUP4 MLOAD LT ISZERO PUSH2 0x372 JUMPI PUSH2 0x36B DUP4 PUSH2 0x3F8 PUSH1 0x20 SHL PUSH1 0x20 SHR JUMP JUMPDEST SWAP1 POP PUSH2 0x398 JUMP JUMPDEST DUP3 PUSH2 0x382 DUP4 PUSH2 0x45D PUSH1 0x20 SHL PUSH1 0x20 SHR JUMP JUMPDEST PUSH0 ADD SWAP1 DUP2 PUSH2 0x390 SWAP2 SWAP1 PUSH2 0x729 JUMP JUMPDEST POP PUSH1 0xFF PUSH0 SHL SWAP1 POP JUMPDEST SWAP3 SWAP2 POP POP JUMP JUMPDEST PUSH0 PUSH32 0x8B73C3C69BB8FE3D512ECC4CF759CC79239F7B179B0FFACAA9A75D522B39400F PUSH1 0xE0 MLOAD PUSH2 0x100 MLOAD CHAINID ADDRESS PUSH1 0x40 MLOAD PUSH1 0x20 ADD PUSH2 0x3DD SWAP6 SWAP5 SWAP4 SWAP3 SWAP2 SWAP1 PUSH2 0x847 JUMP JUMPDEST PUSH1 0x40 MLOAD PUSH1 0x20 DUP2 DUP4 SUB SUB DUP2 MSTORE SWAP1 PUSH1 0x40 MSTORE DUP1 MLOAD SWAP1 PUSH1 0x20 ADD KECCAK256 SWAP1 POP SWAP1 JUMP JUMPDEST PUSH0 DUP1 DUP3 SWAP1 POP PUSH1 0x1F DUP2 MLOAD GT ISZERO PUSH2 0x444 JUMPI DUP3 PUSH1 0x40 MLOAD PUSH32 0x305A27A900000000000000000000000000000000000000000000000000000000 DUP2 MSTORE PUSH1 0x4 ADD PUSH2 0x43B SWAP2 SWAP1 PUSH2 0x8FE JUMP JUMPDEST PUSH1 0x40 MLOAD DUP1 SWAP2 SUB SWAP1 REVERT JUMPDEST DUP1 MLOAD DUP2 PUSH2 0x450 SWAP1 PUSH2 0x94B JUMP JUMPDEST PUSH0 SHR OR PUSH0 SHL SWAP2 POP POP SWAP2 SWAP1 POP JUMP JUMPDEST PUSH0 DUP2 SWAP1 POP SWAP2 SWAP1 POP JUMP JUMPDEST PUSH0 DUP1 REVERT JUMPDEST PUSH0 PUSH20 0xFFFFFFFFFFFFFFFFFFFFFFFFFFFFFFFFFFFFFFFF DUP3 AND SWAP1 POP SWAP2 SWAP1 POP JUMP JUMPDEST PUSH0 PUSH2 0x493 DUP3 PUSH2 0x46A JUMP JUMPDEST SWAP1 POP SWAP2 SWAP1 POP JUMP JUMPDEST PUSH2 0x4A3 DUP2 PUSH2 0x489 JUMP JUMPDEST DUP2 EQ PUSH2 0x4AD JUMPI PUSH0 DUP1 REVERT JUMPDEST POP JUMP JUMPDEST PUSH0 DUP2 MLOAD SWAP1 POP PUSH2 0x4BE DUP2 PUSH2 0x49A JUMP JUMPDEST SWAP3 SWAP2 POP POP JUMP JUMPDEST PUSH0 PUSH1 0x20 DUP3 DUP5 SUB SLT ISZERO PUSH2 0x4D9 JUMPI PUSH2 0x4D8 PUSH2 0x466 JUMP JUMPDEST JUMPDEST PUSH0 PUSH2 0x4E6 DUP5 DUP3 DUP6 ADD PUSH2 0x4B0 JUMP JUMPDEST SWAP2 POP POP SWAP3 SWAP2 POP POP JUMP JUMPDEST PUSH0 DUP2 MLOAD SWAP1 POP SWAP2 SWAP1 POP JUMP JUMPDEST PUSH32 0x4E487B7100000000000000000000000000000000000000000000000000000000 PUSH0 MSTORE PUSH1 0x41 PUSH1 0x4 MSTORE PUSH1 0x24 PUSH0 REVERT JUMPDEST PUSH32 0x4E487B7100000000000000000000000000000000000000000000000000000000 PUSH0 MSTORE PUSH1 0x22 PUSH1 0x4 MSTORE PUSH1 0x24 PUSH0 REVERT JUMPDEST PUSH0 PUSH1 0x2 DUP3 DIV SWAP1 POP PUSH1 0x1 DUP3 AND DUP1 PUSH2 0x56A JUMPI PUSH1 0x7F DUP3 AND SWAP2 POP JUMPDEST PUSH1 0x20 DUP3 LT DUP2 SUB PUSH2 0x57D JUMPI PUSH2 0x57C PUSH2 0x526 JUMP JUMPDEST JUMPDEST POP SWAP2 SWAP1 POP JUMP JUMPDEST PUSH0 DUP2 SWAP1 POP DUP2 PUSH0 MSTORE PUSH1 0x20 PUSH0 KECCAK256 SWAP1 POP SWAP2 SWAP1 POP JUMP JUMPDEST PUSH0 PUSH1 0x20 PUSH1 0x1F DUP4 ADD DIV SWAP1 POP SWAP2 SWAP1 POP JUMP JUMPDEST PUSH0 DUP3 DUP3 SHL SWAP1 POP SWAP3 SWAP2 POP POP JUMP JUMPDEST PUSH0 PUSH1 0x8 DUP4 MUL PUSH2 0x5DF PUSH32 0xFFFFFFFFFFFFFFFFFFFFFFFFFFFFFFFFFFFFFFFFFFFFFFFFFFFFFFFFFFFFFFFF DUP3 PUSH2 0x5A4 JUMP JUMPDEST PUSH2 0x5E9 DUP7 DUP4 PUSH2 0x5A4 JUMP JUMPDEST SWAP6 POP DUP1 NOT DUP5 AND SWAP4 POP DUP1 DUP7 AND DUP5 OR SWAP3 POP POP POP SWAP4 SWAP3 POP POP POP JUMP JUMPDEST PUSH0 DUP2 SWAP1 POP SWAP2 SWAP1 POP JUMP JUMPDEST PUSH0 DUP2 SWAP1 POP SWAP2 SWAP1 POP JUMP JUMPDEST PUSH0 PUSH2 0x62D PUSH2 0x628 PUSH2 0x623 DUP5 PUSH2 0x601 JUMP JUMPDEST PUSH2 0x60A JUMP JUMPDEST PUSH2 0x601 JUMP JUMPDEST SWAP1 POP SWAP2 SWAP1 POP JUMP JUMPDEST PUSH0 DUP2 SWAP1 POP SWAP2 SWAP1 POP JUMP JUMPDEST PUSH2 0x646 DUP4 PUSH2 0x613 JUMP JUMPDEST PUSH2 0x65A PUSH2 0x652 DUP3 PUSH2 0x634 JUMP JUMPDEST DUP5 DUP5 SLOAD PUSH2 0x5B0 JUMP JUMPDEST DUP3 SSTORE POP POP POP POP JUMP JUMPDEST PUSH0 SWAP1 JUMP JUMPDEST PUSH2 0x66E PUSH2 0x662 JUMP JUMPDEST PUSH2 0x679 DUP2 DUP5 DUP5 PUSH2 0x63D JUMP JUMPDEST POP POP POP JUMP JUMPDEST JUMPDEST DUP2 DUP2 LT ISZERO PUSH2 0x69C JUMPI PUSH2 0x691 PUSH0 DUP3 PUSH2 0x666 JUMP JUMPDEST PUSH1 0x1 DUP2 ADD SWAP1 POP PUSH2 0x67F JUMP JUMPDEST POP POP JUMP JUMPDEST PUSH1 0x1F DUP3 GT ISZERO PUSH2 0x6E1 JUMPI PUSH2 0x6B2 DUP2 PUSH2 0x583 JUMP JUMPDEST PUSH2 0x6BB DUP5 PUSH2 0x595 JUMP JUMPDEST DUP2 ADD PUSH1 0x20 DUP6 LT ISZERO PUSH2 0x6CA JUMPI DUP2 SWAP1 POP JUMPDEST PUSH2 0x6DE PUSH2 0x6D6 DUP6 PUSH2 0x595 JUMP JUMPDEST DUP4 ADD DUP3 PUSH2 0x67E JUMP JUMPDEST POP POP JUMPDEST POP POP POP JUMP JUMPDEST PUSH0 DUP3 DUP3 SHR SWAP1 POP SWAP3 SWAP2 POP POP JUMP JUMPDEST PUSH0 PUSH2 0x701 PUSH0 NOT DUP5 PUSH1 0x8 MUL PUSH2 0x6E6 JUMP JUMPDEST NOT DUP1 DUP4 AND SWAP2 POP POP SWAP3 SWAP2 POP POP JUMP JUMPDEST PUSH0 PUSH2 0x719 DUP4 DUP4 PUSH2 0x6F2 JUMP JUMPDEST SWAP2 POP DUP3 PUSH1 0x2 MUL DUP3 OR SWAP1 POP SWAP3 SWAP2 POP POP JUMP JUMPDEST PUSH2 0x732 DUP3 PUSH2 0x4EF JUMP JUMPDEST PUSH8 0xFFFFFFFFFFFFFFFF DUP2 GT ISZERO PUSH2 0x74B JUMPI PUSH2 0x74A PUSH2 0x4F9 JUMP JUMPDEST JUMPDEST PUSH2 0x755 DUP3 SLOAD PUSH2 0x553 JUMP JUMPDEST PUSH2 0x760 DUP3 DUP3 DUP6 PUSH2 0x6A0 JUMP JUMPDEST PUSH0 PUSH1 0x20 SWAP1 POP PUSH1 0x1F DUP4 GT PUSH1 0x1 DUP2 EQ PUSH2 0x791 JUMPI PUSH0 DUP5 ISZERO PUSH2 0x77F JUMPI DUP3 DUP8 ADD MLOAD SWAP1 POP JUMPDEST PUSH2 0x789 DUP6 DUP3 PUSH2 0x70E JUMP JUMPDEST DUP7 SSTORE POP PUSH2 0x7F0 JUMP JUMPDEST PUSH1 0x1F NOT DUP5 AND PUSH2 0x79F DUP7 PUSH2 0x583 JUMP JUMPDEST PUSH0 JUMPDEST DUP3 DUP2 LT ISZERO PUSH2 0x7C6 JUMPI DUP5 DUP10 ADD MLOAD DUP3 SSTORE PUSH1 0x1 DUP3 ADD SWAP2 POP PUSH1 0x20 DUP6 ADD SWAP5 POP PUSH1 0x20 DUP2 ADD SWAP1 POP PUSH2 0x7A1 JUMP JUMPDEST DUP7 DUP4 LT ISZERO PUSH2 0x7E3 JUMPI DUP5 DUP10 ADD MLOAD PUSH2 0x7DF PUSH1 0x1F DUP10 AND DUP3 PUSH2 0x6F2 JUMP JUMPDEST DUP4 SSTORE POP JUMPDEST PUSH1 0x1 PUSH1 0x2 DUP9 MUL ADD DUP9 SSTORE POP POP POP JUMPDEST POP POP POP POP POP POP JUMP JUMPDEST PUSH2 0x801 DUP2 PUSH2 0x489 JUMP JUMPDEST DUP3 MSTORE POP POP JUMP JUMPDEST PUSH0 PUSH1 0x20 DUP3 ADD SWAP1 POP PUSH2 0x81A PUSH0 DUP4 ADD DUP5 PUSH2 0x7F8 JUMP JUMPDEST SWAP3 SWAP2 POP POP JUMP JUMPDEST PUSH0 DUP2 SWAP1 POP SWAP2 SWAP1 POP JUMP JUMPDEST PUSH2 0x832 DUP2 PUSH2 0x820 JUMP JUMPDEST DUP3 MSTORE POP POP JUMP JUMPDEST PUSH2 0x841 DUP2 PUSH2 0x601 JUMP JUMPDEST DUP3 MSTORE POP POP JUMP JUMPDEST PUSH0 PUSH1 0xA0 DUP3 ADD SWAP1 POP PUSH2 0x85A PUSH0 DUP4 ADD DUP9 PUSH2 0x829 JUMP JUMPDEST PUSH2 0x867 PUSH1 0x20 DUP4 ADD DUP8 PUSH2 0x829 JUMP JUMPDEST PUSH2 0x874 PUSH1 0x40 DUP4 ADD DUP7 PUSH2 0x829 JUMP JUMPDEST PUSH2 0x881 PUSH1 0x60 DUP4 ADD DUP6 PUSH2 0x838 JUMP JUMPDEST PUSH2 0x88E PUSH1 0x80 DUP4 ADD DUP5 PUSH2 0x7F8 JUMP JUMPDEST SWAP7 SWAP6 POP POP POP POP POP POP JUMP JUMPDEST PUSH0 DUP3 DUP3 MSTORE PUSH1 0x20 DUP3 ADD SWAP1 POP SWAP3 SWAP2 POP POP JUMP JUMPDEST DUP3 DUP2 DUP4 MCOPY PUSH0 DUP4 DUP4 ADD MSTORE POP POP POP JUMP JUMPDEST PUSH0 PUSH1 0x1F NOT PUSH1 0x1F DUP4 ADD AND SWAP1 POP SWAP2 SWAP1 POP JUMP JUMPDEST PUSH0 PUSH2 0x8D0 DUP3 PUSH2 0x4EF JUMP JUMPDEST PUSH2 0x8DA DUP2 DUP6 PUSH2 0x898 JUMP JUMPDEST SWAP4 POP PUSH2 0x8EA DUP2 DUP6 PUSH1 0x20 DUP7 ADD PUSH2 0x8A8 JUMP JUMPDEST PUSH2 0x8F3 DUP2 PUSH2 0x8B6 JUMP JUMPDEST DUP5 ADD SWAP2 POP POP SWAP3 SWAP2 POP POP JUMP JUMPDEST PUSH0 PUSH1 0x20 DUP3 ADD SWAP1 POP DUP2 DUP2 SUB PUSH0 DUP4 ADD MSTORE PUSH2 0x916 DUP2 DUP5 PUSH2 0x8C6 JUMP JUMPDEST SWAP1 POP SWAP3 SWAP2 POP POP JUMP JUMPDEST PUSH0 DUP2 MLOAD SWAP1 POP SWAP2 SWAP1 POP JUMP JUMPDEST PUSH0 DUP2 SWAP1 POP PUSH1 0x20 DUP3 ADD SWAP1 POP SWAP2 SWAP1 POP JUMP JUMPDEST PUSH0 PUSH2 0x942 DUP3 MLOAD PUSH2 0x820 JUMP JUMPDEST DUP1 SWAP2 POP POP SWAP2 SWAP1 POP JUMP JUMPDEST PUSH0 PUSH2 0x955 DUP3 PUSH2 0x91E JUMP JUMPDEST DUP3 PUSH2 0x95F DUP5 PUSH2 0x928 JUMP JUMPDEST SWAP1 POP PUSH2 0x96A DUP2 PUSH2 0x937 JUMP JUMPDEST SWAP3 POP PUSH1 0x20 DUP3 LT ISZERO PUSH2 0x9AA JUMPI PUSH2 0x9A5 PUSH32 0xFFFFFFFFFFFFFFFFFFFFFFFFFFFFFFFFFFFFFFFFFFFFFFFFFFFFFFFFFFFFFFFF DUP4 PUSH1 0x20 SUB PUSH1 0x8 MUL PUSH2 0x5A4 JUMP JUMPDEST DUP4 AND SWAP3 POP JUMPDEST POP POP SWAP2 SWAP1 POP JUMP JUMPDEST PUSH1 0x80 MLOAD PUSH1 0xA0 MLOAD PUSH1 0xC0 MLOAD PUSH1 0xE0 MLOAD PUSH2 0x100 MLOAD PUSH2 0x120 MLOAD PUSH2 0x140 MLOAD PUSH2 0x231D PUSH2 0xA02 PUSH0 CODECOPY PUSH0 PUSH2 0x106F ADD MSTORE PUSH0 PUSH2 0x1034 ADD MSTORE PUSH0 PUSH2 0x135F ADD MSTORE PUSH0 PUSH2 0x133E ADD MSTORE PUSH0 PUSH2 0xCA4 ADD MSTORE PUSH0 PUSH2 0xCFA ADD MSTORE PUSH0 PUSH2 0xD23 ADD MSTORE PUSH2 0x231D PUSH0 RETURN INVALID PUSH1 0x80 PUSH1 0x40 MSTORE CALLVALUE DUP1 ISZERO PUSH2 0xF JUMPI PUSH0 DUP1 REVERT JUMPDEST POP PUSH1 0x4 CALLDATASIZE LT PUSH2 0x14B JUMPI PUSH0 CALLDATALOAD PUSH1 0xE0 SHR DUP1 PUSH4 0x70A08231 GT PUSH2 0xC1 JUMPI DUP1 PUSH4 0x8DA5CB5B GT PUSH2 0x7A JUMPI DUP1 PUSH4 0x8DA5CB5B EQ PUSH2 0x359 JUMPI DUP1 PUSH4 0x95D89B41 EQ PUSH2 0x377 JUMPI DUP1 PUSH4 0xA9059CBB EQ PUSH2 0x395 JUMPI DUP1 PUSH4 0xD505ACCF EQ PUSH2 0x3C5 JUMPI DUP1 PUSH4 0xDD62ED3E EQ PUSH2 0x3E1 JUMPI DUP1 PUSH4 0xF2FDE38B EQ PUSH2 0x411 JUMPI PUSH2 0x14B JUMP JUMPDEST DUP1 PUSH4 0x70A08231 EQ PUSH2 0x2A5 JUMPI DUP1 PUSH4 0x715018A6 EQ PUSH2 0x2D5 JUMPI DUP1 PUSH4 0x79CC6790 EQ PUSH2 0x2DF JUMPI DUP1 PUSH4 0x7ECEBE00 EQ PUSH2 0x2FB JUMPI DUP1 PUSH4 0x8456CB59 EQ PUSH2 0x32B JUMPI DUP1 PUSH4 0x84B0196E EQ PUSH2 0x335 JUMPI PUSH2 0x14B JUMP JUMPDEST DUP1 PUSH4 0x313CE567 GT PUSH2 0x113 JUMPI DUP1 PUSH4 0x313CE567 EQ PUSH2 0x209 JUMPI DUP1 PUSH4 0x3644E515 EQ PUSH2 0x227 JUMPI DUP1 PUSH4 0x3F4BA83A EQ PUSH2 0x245 JUMPI DUP1 PUSH4 0x40C10F19 EQ PUSH2 0x24F JUMPI DUP1 PUSH4 0x42966C68 EQ PUSH2 0x26B JUMPI DUP1 PUSH4 0x5C975ABB EQ PUSH2 0x287 JUMPI PUSH2 0x14B JUMP JUMPDEST DUP1 PUSH4 0x6FDDE03 EQ PUSH2 0x14F JUMPI DUP1 PUSH4 0x95EA7B3 EQ PUSH2 0x16D JUMPI DUP1 PUSH4 0x1249C58B EQ PUSH2 0x19D JUMPI DUP1 PUSH4 0x18160DDD EQ PUSH2 0x1BB JUMPI DUP1 PUSH4 0x23B872DD EQ PUSH2 0x1D9 JUMPI JUMPDEST PUSH0 DUP1 REVERT JUMPDEST PUSH2 0x157 PUSH2 0x42D JUMP JUMPDEST PUSH1 0x40 MLOAD PUSH2 0x164 SWAP2 SWAP1 PUSH2 0x1AC7 JUMP JUMPDEST PUSH1 0x40 MLOAD DUP1 SWAP2 SUB SWAP1 RETURN JUMPDEST PUSH2 0x187 PUSH1 0x4 DUP1 CALLDATASIZE SUB DUP2 ADD SWAP1 PUSH2 0x182 SWAP2 SWAP1 PUSH2 0x1B78 JUMP JUMPDEST PUSH2 0x4BD JUMP JUMPDEST PUSH1 0x40 MLOAD PUSH2 0x194 SWAP2 SWAP1 PUSH2 0x1BD0 JUMP JUMPDEST PUSH1 0x40 MLOAD DUP1 SWAP2 SUB SWAP1 RETURN JUMPDEST PUSH2 0x1A5 PUSH2 0x4DF JUMP JUMPDEST PUSH1 0x40 MLOAD PUSH2 0x1B2 SWAP2 SWAP1 PUSH2 0x1BF8 JUMP JUMPDEST PUSH1 0x40 MLOAD DUP1 SWAP2 SUB SWAP1 RETURN JUMPDEST PUSH2 0x1C3 PUSH2 0x583 JUMP JUMPDEST PUSH1 0x40 MLOAD PUSH2 0x1D0 SWAP2 SWAP1 PUSH2 0x1BF8 JUMP JUMPDEST PUSH1 0x40 MLOAD DUP1 SWAP2 SUB SWAP1 RETURN JUMPDEST PUSH2 0x1F3 PUSH1 0x4 DUP1 CALLDATASIZE SUB DUP2 ADD SWAP1 PUSH2 0x1EE SWAP2 SWAP1 PUSH2 0x1C11 JUMP JUMPDEST PUSH2 0x58C JUMP JUMPDEST PUSH1 0x40 MLOAD PUSH2 0x200 SWAP2 SWAP1 PUSH2 0x1BD0 JUMP JUMPDEST PUSH1 0x40 MLOAD DUP1 SWAP2 SUB SWAP1 RETURN JUMPDEST PUSH2 0x211 PUSH2 0x5BA JUMP JUMPDEST PUSH1 0x40 MLOAD PUSH2 0x21E SWAP2 SWAP1 PUSH2 0x1C7C JUMP JUMPDEST PUSH1 0x40 MLOAD DUP1 SWAP2 SUB SWAP1 RETURN JUMPDEST PUSH2 0x22F PUSH2 0x5C2 JUMP JUMPDEST PUSH1 0x40 MLOAD PUSH2 0x23C SWAP2 SWAP1 PUSH2 0x1CAD JUMP JUMPDEST PUSH1 0x40 MLOAD DUP1 SWAP2 SUB SWAP1 RETURN JUMPDEST PUSH2 0x24D PUSH2 0x5D0 JUMP JUMPDEST STOP JUMPDEST PUSH2 0x269 PUSH1 0x4 DUP1 CALLDATASIZE SUB DUP2 ADD SWAP1 PUSH2 0x264 SWAP2 SWAP1 PUSH2 0x1B78 JUMP JUMPDEST PUSH2 0x5E2 JUMP JUMPDEST STOP JUMPDEST PUSH2 0x285 PUSH1 0x4 DUP1 CALLDATASIZE SUB DUP2 ADD SWAP1 PUSH2 0x280 SWAP2 SWAP1 PUSH2 0x1CC6 JUMP JUMPDEST PUSH2 0x5F8 JUMP JUMPDEST STOP JUMPDEST PUSH2 0x28F PUSH2 0x60C JUMP JUMPDEST PUSH1 0x40 MLOAD PUSH2 0x29C SWAP2 SWAP1 PUSH2 0x1BD0 JUMP JUMPDEST PUSH1 0x40 MLOAD DUP1 SWAP2 SUB SWAP1 RETURN JUMPDEST PUSH2 0x2BF PUSH1 0x4 DUP1 CALLDATASIZE SUB DUP2 ADD SWAP1 PUSH2 0x2BA SWAP2 SWAP1 PUSH2 0x1CF1 JUMP JUMPDEST PUSH2 0x621 JUMP JUMPDEST PUSH1 0x40 MLOAD PUSH2 0x2CC SWAP2 SWAP1 PUSH2 0x1BF8 JUMP JUMPDEST PUSH1 0x40 MLOAD DUP1 SWAP2 SUB SWAP1 RETURN JUMPDEST PUSH2 0x2DD PUSH2 0x666 JUMP JUMPDEST STOP JUMPDEST PUSH2 0x2F9 PUSH1 0x4 DUP1 CALLDATASIZE SUB DUP2 ADD SWAP1 PUSH2 0x2F4 SWAP2 SWAP1 PUSH2 0x1B78 JUMP JUMPDEST PUSH2 0x679 JUMP JUMPDEST STOP JUMPDEST PUSH2 0x315 PUSH1 0x4 DUP1 CALLDATASIZE SUB DUP2 ADD SWAP1 PUSH2 0x310 SWAP2 SWAP1 PUSH2 0x1CF1 JUMP JUMPDEST PUSH2 0x699 JUMP JUMPDEST PUSH1 0x40 MLOAD PUSH2 0x322 SWAP2 SWAP1 PUSH2 0x1BF8 JUMP JUMPDEST PUSH1 0x40 MLOAD DUP1 SWAP2 SUB SWAP1 RETURN JUMPDEST PUSH2 0x333 PUSH2 0x6AA JUMP JUMPDEST STOP JUMPDEST PUSH2 0x33D PUSH2 0x6BC JUMP JUMPDEST PUSH1 0x40 MLOAD PUSH2 0x350 SWAP8 SWAP7 SWAP6 SWAP5 SWAP4 SWAP3 SWAP2 SWAP1 PUSH2 0x1E1C JUMP JUMPDEST PUSH1 0x40 MLOAD DUP1 SWAP2 SUB SWAP1 RETURN JUMPDEST PUSH2 0x361 PUSH2 0x761 JUMP JUMPDEST PUSH1 0x40 MLOAD PUSH2 0x36E SWAP2 SWAP1 PUSH2 0x1E9E JUMP JUMPDEST PUSH1 0x40 MLOAD DUP1 SWAP2 SUB SWAP1 RETURN JUMPDEST PUSH2 0x37F PUSH2 0x78A JUMP JUMPDEST PUSH1 0x40 MLOAD PUSH2 0x38C SWAP2 SWAP1 PUSH2 0x1AC7 JUMP JUMPDEST PUSH1 0x40 MLOAD DUP1 SWAP2 SUB SWAP1 RETURN JUMPDEST PUSH2 0x3AF PUSH1 0x4 DUP1 CALLDATASIZE SUB DUP2 ADD SWAP1 PUSH2 0x3AA SWAP2 SWAP1 PUSH2 0x1B78 JUMP JUMPDEST PUSH2 0x81A JUMP JUMPDEST PUSH1 0x40 MLOAD PUSH2 0x3BC SWAP2 SWAP1 PUSH2 0x1BD0 JUMP JUMPDEST PUSH1 0x40 MLOAD DUP1 SWAP2 SUB SWAP1 RETURN JUMPDEST PUSH2 0x3DF PUSH1 0x4 DUP1 CALLDATASIZE SUB DUP2 ADD SWAP1 PUSH2 0x3DA SWAP2 SWAP1 PUSH2 0x1F0B JUMP JUMPDEST PUSH2 0x83C JUMP JUMPDEST STOP JUMPDEST PUSH2 0x3FB PUSH1 0x4 DUP1 CALLDATASIZE SUB DUP2 ADD SWAP1 PUSH2 0x3F6 SWAP2 SWAP1 PUSH2 0x1FA8 JUMP JUMPDEST PUSH2 0x981 JUMP JUMPDEST PUSH1 0x40 MLOAD PUSH2 0x408 SWAP2 SWAP1 PUSH2 0x1BF8 JUMP JUMPDEST PUSH1 0x40 MLOAD DUP1 SWAP2 SUB SWAP1 RETURN JUMPDEST PUSH2 0x42B PUSH1 0x4 DUP1 CALLDATASIZE SUB DUP2 ADD SWAP1 PUSH2 0x426 SWAP2 SWAP1 PUSH2 0x1CF1 JUMP JUMPDEST PUSH2 0xA03 JUMP JUMPDEST STOP JUMPDEST PUSH1 0x60 PUSH1 0x3 DUP1 SLOAD PUSH2 0x43C SWAP1 PUSH2 0x2013 JUMP JUMPDEST DUP1 PUSH1 0x1F ADD PUSH1 0x20 DUP1 SWAP2 DIV MUL PUSH1 0x20 ADD PUSH1 0x40 MLOAD SWAP1 DUP2 ADD PUSH1 0x40 MSTORE DUP1 SWAP3 SWAP2 SWAP1 DUP2 DUP2 MSTORE PUSH1 0x20 ADD DUP3 DUP1 SLOAD PUSH2 0x468 SWAP1 PUSH2 0x2013 JUMP JUMPDEST DUP1 ISZERO PUSH2 0x4B3 JUMPI DUP1 PUSH1 0x1F LT PUSH2 0x48A JUMPI PUSH2 0x100 DUP1 DUP4 SLOAD DIV MUL DUP4 MSTORE SWAP2 PUSH1 0x20 ADD SWAP2 PUSH2 0x4B3 JUMP JUMPDEST DUP3 ADD SWAP2 SWAP1 PUSH0 MSTORE PUSH1 0x20 PUSH0 KECCAK256 SWAP1 JUMPDEST DUP2 SLOAD DUP2 MSTORE SWAP1 PUSH1 0x1 ADD SWAP1 PUSH1 0x20 ADD DUP1 DUP4 GT PUSH2 0x496 JUMPI DUP3 SWAP1 SUB PUSH1 0x1F AND DUP3 ADD SWAP2 JUMPDEST POP POP POP POP POP SWAP1 POP SWAP1 JUMP JUMPDEST PUSH0 DUP1 PUSH2 0x4C7 PUSH2 0xA87 JUMP JUMPDEST SWAP1 POP PUSH2 0x4D4 DUP2 DUP6 DUP6 PUSH2 0xA8E JUMP JUMPDEST PUSH1 0x1 SWAP2 POP POP SWAP3 SWAP2 POP POP JUMP JUMPDEST PUSH0 DUP1 PUSH1 0xA PUSH0 CALLER PUSH20 0xFFFFFFFFFFFFFFFFFFFFFFFFFFFFFFFFFFFFFFFF AND PUSH20 0xFFFFFFFFFFFFFFFFFFFFFFFFFFFFFFFFFFFFFFFF AND DUP2 MSTORE PUSH1 0x20 ADD SWAP1 DUP2 MSTORE PUSH1 0x20 ADD PUSH0 KECCAK256 SLOAD TIMESTAMP PUSH2 0x52A SWAP2 SWAP1 PUSH2 0x2070 JUMP JUMPDEST SWAP1 POP PUSH1 0x9 SLOAD DUP2 SGT PUSH2 0x570 JUMPI PUSH1 0x40 MLOAD PUSH32 0x8C379A000000000000000000000000000000000000000000000000000000000 DUP2 MSTORE PUSH1 0x4 ADD PUSH2 0x567 SWAP1 PUSH2 0x20ED JUMP JUMPDEST PUSH1 0x40 MLOAD DUP1 SWAP2 SUB SWAP1 REVERT JUMPDEST PUSH1 0xB SLOAD SWAP2 POP PUSH2 0x57F CALLER DUP4 PUSH2 0xAA0 JUMP JUMPDEST POP SWAP1 JUMP JUMPDEST PUSH0 PUSH1 0x2 SLOAD SWAP1 POP SWAP1 JUMP JUMPDEST PUSH0 DUP1 PUSH2 0x596 PUSH2 0xA87 JUMP JUMPDEST SWAP1 POP PUSH2 0x5A3 DUP6 DUP3 DUP6 PUSH2 0xB1F JUMP JUMPDEST PUSH2 0x5AE DUP6 DUP6 DUP6 PUSH2 0xBB1 JUMP JUMPDEST PUSH1 0x1 SWAP2 POP POP SWAP4 SWAP3 POP POP POP JUMP JUMPDEST PUSH0 PUSH1 0x12 SWAP1 POP SWAP1 JUMP JUMPDEST PUSH0 PUSH2 0x5CB PUSH2 0xCA1 JUMP JUMPDEST SWAP1 POP SWAP1 JUMP JUMPDEST PUSH2 0x5D8 PUSH2 0xD57 JUMP JUMPDEST PUSH2 0x5E0 PUSH2 0xDDE JUMP JUMPDEST JUMP JUMPDEST PUSH2 0x5EA PUSH2 0xD57 JUMP JUMPDEST PUSH2 0x5F4 DUP3 DUP3 PUSH2 0xAA0 JUMP JUMPDEST POP POP JUMP JUMPDEST PUSH2 0x609 PUSH2 0x603 PUSH2 0xA87 JUMP JUMPDEST DUP3 PUSH2 0xE3F JUMP JUMPDEST POP JUMP JUMPDEST PUSH0 PUSH1 0x5 PUSH0 SWAP1 SLOAD SWAP1 PUSH2 0x100 EXP SWAP1 DIV PUSH1 0xFF AND SWAP1 POP SWAP1 JUMP JUMPDEST PUSH0 DUP1 PUSH0 DUP4 PUSH20 0xFFFFFFFFFFFFFFFFFFFFFFFFFFFFFFFFFFFFFFFF AND PUSH20 0xFFFFFFFFFFFFFFFFFFFFFFFFFFFFFFFFFFFFFFFF AND DUP2 MSTORE PUSH1 0x20 ADD SWAP1 DUP2 MSTORE PUSH1 0x20 ADD PUSH0 KECCAK256 SLOAD SWAP1 POP SWAP2 SWAP1 POP JUMP JUMPDEST PUSH2 0x66E PUSH2 0xD57 JUMP JUMPDEST PUSH2 0x677 PUSH0 PUSH2 0xEBE JUMP JUMPDEST JUMP JUMPDEST PUSH2 0x68B DUP3 PUSH2 0x685 PUSH2 0xA87 JUMP JUMPDEST DUP4 PUSH2 0xB1F JUMP JUMPDEST PUSH2 0x695 DUP3 DUP3 PUSH2 0xE3F JUMP JUMPDEST POP POP JUMP JUMPDEST PUSH0 PUSH2 0x6A3 DUP3 PUSH2 0xF83 JUMP JUMPDEST SWAP1 POP SWAP2 SWAP1 POP JUMP JUMPDEST PUSH2 0x6B2 PUSH2 0xD57 JUMP JUMPDEST PUSH2 0x6BA PUSH2 0xFC9 JUMP JUMPDEST JUMP JUMPDEST PUSH0 PUSH1 0x60 DUP1 PUSH0 DUP1 PUSH0 PUSH1 0x60 PUSH2 0x6CD PUSH2 0x102B JUMP JUMPDEST PUSH2 0x6D5 PUSH2 0x1066 JUMP JUMPDEST CHAINID ADDRESS PUSH0 DUP1 SHL PUSH0 PUSH8 0xFFFFFFFFFFFFFFFF DUP2 GT ISZERO PUSH2 0x6F4 JUMPI PUSH2 0x6F3 PUSH2 0x210B JUMP JUMPDEST JUMPDEST PUSH1 0x40 MLOAD SWAP1 DUP1 DUP3 MSTORE DUP1 PUSH1 0x20 MUL PUSH1 0x20 ADD DUP3 ADD PUSH1 0x40 MSTORE DUP1 ISZERO PUSH2 0x722 JUMPI DUP2 PUSH1 0x20 ADD PUSH1 0x20 DUP3 MUL DUP1 CALLDATASIZE DUP4 CALLDATACOPY DUP1 DUP3 ADD SWAP2 POP POP SWAP1 POP JUMPDEST POP PUSH32 0xF00000000000000000000000000000000000000000000000000000000000000 SWAP6 SWAP5 SWAP4 SWAP3 SWAP2 SWAP1 SWAP7 POP SWAP7 POP SWAP7 POP SWAP7 POP SWAP7 POP SWAP7 POP SWAP7 POP SWAP1 SWAP2 SWAP3 SWAP4 SWAP5 SWAP6 SWAP7 JUMP JUMPDEST PUSH0 PUSH1 0x5 PUSH1 0x1 SWAP1 SLOAD SWAP1 PUSH2 0x100 EXP SWAP1 DIV PUSH20 0xFFFFFFFFFFFFFFFFFFFFFFFFFFFFFFFFFFFFFFFF AND SWAP1 POP SWAP1 JUMP JUMPDEST PUSH1 0x60 PUSH1 0x4 DUP1 SLOAD PUSH2 0x799 SWAP1 PUSH2 0x2013 JUMP JUMPDEST DUP1 PUSH1 0x1F ADD PUSH1 0x20 DUP1 SWAP2 DIV MUL PUSH1 0x20 ADD PUSH1 0x40 MLOAD SWAP1 DUP2 ADD PUSH1 0x40 MSTORE DUP1 SWAP3 SWAP2 SWAP1 DUP2 DUP2 MSTORE PUSH1 0x20 ADD DUP3 DUP1 SLOAD PUSH2 0x7C5 SWAP1 PUSH2 0x2013 JUMP JUMPDEST DUP1 ISZERO PUSH2 0x810 JUMPI DUP1 PUSH1 0x1F LT PUSH2 0x7E7 JUMPI PUSH2 0x100 DUP1 DUP4 SLOAD DIV MUL DUP4 MSTORE SWAP2 PUSH1 0x20 ADD SWAP2 PUSH2 0x810 JUMP JUMPDEST DUP3 ADD SWAP2 SWAP1 PUSH0 MSTORE PUSH1 0x20 PUSH0 KECCAK256 SWAP1 JUMPDEST DUP2 SLOAD DUP2 MSTORE SWAP1 PUSH1 0x1 ADD SWAP1 PUSH1 0x20 ADD DUP1 DUP4 GT PUSH2 0x7F3 JUMPI DUP3 SWAP1 SUB PUSH1 0x1F AND DUP3 ADD SWAP2 JUMPDEST POP POP POP POP POP SWAP1 POP SWAP1 JUMP JUMPDEST PUSH0 DUP1 PUSH2 0x824 PUSH2 0xA87 JUMP JUMPDEST SWAP1 POP PUSH2 0x831 DUP2 DUP6 DUP6 PUSH2 0xBB1 JUMP JUMPDEST PUSH1 0x1 SWAP2 POP POP SWAP3 SWAP2 POP POP JUMP JUMPDEST DUP4 TIMESTAMP GT ISZERO PUSH2 0x881 JUMPI DUP4 PUSH1 0x40 MLOAD PUSH32 0x6279130200000000000000000000000000000000000000000000000000000000 DUP2 MSTORE PUSH1 0x4 ADD PUSH2 0x878 SWAP2 SWAP1 PUSH2 0x1BF8 JUMP JUMPDEST PUSH1 0x40 MLOAD DUP1 SWAP2 SUB SWAP1 REVERT JUMPDEST PUSH0 PUSH32 0x6E71EDAE12B1B97F4D1F60370FEF10105FA2FAAE0126114A169C64845D6126C9 DUP9 DUP9 DUP9 PUSH2 0x8AF DUP13 PUSH2 0x10A1 JUMP JUMPDEST DUP10 PUSH1 0x40 MLOAD PUSH1 0x20 ADD PUSH2 0x8C5 SWAP7 SWAP6 SWAP5 SWAP4 SWAP3 SWAP2 SWAP1 PUSH2 0x2138 JUMP JUMPDEST PUSH1 0x40 MLOAD PUSH1 0x20 DUP2 DUP4 SUB SUB DUP2 MSTORE SWAP1 PUSH1 0x40 MSTORE DUP1 MLOAD SWAP1 PUSH1 0x20 ADD KECCAK256 SWAP1 POP PUSH0 PUSH2 0x8E7 DUP3 PUSH2 0x10F4 JUMP JUMPDEST SWAP1 POP PUSH0 PUSH2 0x8F6 DUP3 DUP8 DUP8 DUP8 PUSH2 0x110D JUMP JUMPDEST SWAP1 POP DUP10 PUSH20 0xFFFFFFFFFFFFFFFFFFFFFFFFFFFFFFFFFFFFFFFF AND DUP2 PUSH20 0xFFFFFFFFFFFFFFFFFFFFFFFFFFFFFFFFFFFFFFFF AND EQ PUSH2 0x96A JUMPI DUP1 DUP11 PUSH1 0x40 MLOAD PUSH32 0x4B800E4600000000000000000000000000000000000000000000000000000000 DUP2 MSTORE PUSH1 0x4 ADD PUSH2 0x961 SWAP3 SWAP2 SWAP1 PUSH2 0x2197 JUMP JUMPDEST PUSH1 0x40 MLOAD DUP1 SWAP2 SUB SWAP1 REVERT JUMPDEST PUSH2 0x975 DUP11 DUP11 DUP11 PUSH2 0xA8E JUMP JUMPDEST POP POP POP POP POP POP POP POP POP POP JUMP JUMPDEST PUSH0 PUSH1 0x1 PUSH0 DUP5 PUSH20 0xFFFFFFFFFFFFFFFFFFFFFFFFFFFFFFFFFFFFFFFF AND PUSH20 0xFFFFFFFFFFFFFFFFFFFFFFFFFFFFFFFFFFFFFFFF AND DUP2 MSTORE PUSH1 0x20 ADD SWAP1 DUP2 MSTORE PUSH1 0x20 ADD PUSH0 KECCAK256 PUSH0 DUP4 PUSH20 0xFFFFFFFFFFFFFFFFFFFFFFFFFFFFFFFFFFFFFFFF AND PUSH20 0xFFFFFFFFFFFFFFFFFFFFFFFFFFFFFFFFFFFFFFFF AND DUP2 MSTORE PUSH1 0x20 ADD SWAP1 DUP2 MSTORE PUSH1 0x20 ADD PUSH0 KECCAK256 SLOAD SWAP1 POP SWAP3 SWAP2 POP POP JUMP JUMPDEST PUSH2 0xA0B PUSH2 0xD57 JUMP JUMPDEST PUSH0 PUSH20 0xFFFFFFFFFFFFFFFFFFFFFFFFFFFFFFFFFFFFFFFF AND DUP2 PUSH20 0xFFFFFFFFFFFFFFFFFFFFFFFFFFFFFFFFFFFFFFFF AND SUB PUSH2 0xA7B JUMPI PUSH0 PUSH1 0x40 MLOAD PUSH32 0x1E4FBDF700000000000000000000000000000000000000000000000000000000 DUP2 MSTORE PUSH1 0x4 ADD PUSH2 0xA72 SWAP2 SWAP1 PUSH2 0x1E9E JUMP JUMPDEST PUSH1 0x40 MLOAD DUP1 SWAP2 SUB SWAP1 REVERT JUMPDEST PUSH2 0xA84 DUP2 PUSH2 0xEBE JUMP JUMPDEST POP JUMP JUMPDEST PUSH0 CALLER SWAP1 POP SWAP1 JUMP JUMPDEST PUSH2 0xA9B DUP4 DUP4 DUP4 PUSH1 0x1 PUSH2 0x113B JUMP JUMPDEST POP POP POP JUMP JUMPDEST PUSH0 PUSH20 0xFFFFFFFFFFFFFFFFFFFFFFFFFFFFFFFFFFFFFFFF AND DUP3 PUSH20 0xFFFFFFFFFFFFFFFFFFFFFFFFFFFFFFFFFFFFFFFF AND SUB PUSH2 0xB10 JUMPI PUSH0 PUSH1 0x40 MLOAD PUSH32 0xEC442F0500000000000000000000000000000000000000000000000000000000 DUP2 MSTORE PUSH1 0x4 ADD PUSH2 0xB07 SWAP2 SWAP1 PUSH2 0x1E9E JUMP JUMPDEST PUSH1 0x40 MLOAD DUP1 SWAP2 SUB SWAP1 REVERT JUMPDEST PUSH2 0xB1B PUSH0 DUP4 DUP4 PUSH2 0x130A JUMP JUMPDEST POP POP JUMP JUMPDEST PUSH0 PUSH2 0xB2A DUP5 DUP5 PUSH2 0x981 JUMP JUMPDEST SWAP1 POP PUSH32 0xFFFFFFFFFFFFFFFFFFFFFFFFFFFFFFFFFFFFFFFFFFFFFFFFFFFFFFFFFFFFFFFF DUP2 EQ PUSH2 0xBAB JUMPI DUP2 DUP2 LT ISZERO PUSH2 0xB9C JUMPI DUP3 DUP2 DUP4 PUSH1 0x40 MLOAD PUSH32 0xFB8F41B200000000000000000000000000000000000000000000000000000000 DUP2 MSTORE PUSH1 0x4 ADD PUSH2 0xB93 SWAP4 SWAP3 SWAP2 SWAP1 PUSH2 0x21BE JUMP JUMPDEST PUSH1 0x40 MLOAD DUP1 SWAP2 SUB SWAP1 REVERT JUMPDEST PUSH2 0xBAA DUP5 DUP5 DUP5 DUP5 SUB PUSH0 PUSH2 0x113B JUMP JUMPDEST JUMPDEST POP POP POP POP JUMP JUMPDEST PUSH0 PUSH20 0xFFFFFFFFFFFFFFFFFFFFFFFFFFFFFFFFFFFFFFFF AND DUP4 PUSH20 0xFFFFFFFFFFFFFFFFFFFFFFFFFFFFFFFFFFFFFFFF AND SUB PUSH2 0xC21 JUMPI PUSH0 PUSH1 0x40 MLOAD PUSH32 0x96C6FD1E00000000000000000000000000000000000000000000000000000000 DUP2 MSTORE PUSH1 0x4 ADD PUSH2 0xC18 SWAP2 SWAP1 PUSH2 0x1E9E JUMP JUMPDEST PUSH1 0x40 MLOAD DUP1 SWAP2 SUB SWAP1 REVERT JUMPDEST PUSH0 PUSH20 0xFFFFFFFFFFFFFFFFFFFFFFFFFFFFFFFFFFFFFFFF AND DUP3 PUSH20 0xFFFFFFFFFFFFFFFFFFFFFFFFFFFFFFFFFFFFFFFF AND SUB PUSH2 0xC91 JUMPI PUSH0 PUSH1 0x40 MLOAD PUSH32 0xEC442F0500000000000000000000000000000000000000000000000000000000 DUP2 MSTORE PUSH1 0x4 ADD PUSH2 0xC88 SWAP2 SWAP1 PUSH2 0x1E9E JUMP JUMPDEST PUSH1 0x40 MLOAD DUP1 SWAP2 SUB SWAP1 REVERT JUMPDEST PUSH2 0xC9C DUP4 DUP4 DUP4 PUSH2 0x130A JUMP JUMPDEST POP POP POP JUMP JUMPDEST PUSH0 PUSH32 0x0 PUSH20 0xFFFFFFFFFFFFFFFFFFFFFFFFFFFFFFFFFFFFFFFF AND ADDRESS PUSH20 0xFFFFFFFFFFFFFFFFFFFFFFFFFFFFFFFFFFFFFFFF AND EQ DUP1 ISZERO PUSH2 0xD1C JUMPI POP PUSH32 0x0 CHAINID EQ JUMPDEST ISZERO PUSH2 0xD49 JUMPI PUSH32 0x0 SWAP1 POP PUSH2 0xD54 JUMP JUMPDEST PUSH2 0xD51 PUSH2 0x131A JUMP JUMPDEST SWAP1 POP JUMPDEST SWAP1 JUMP JUMPDEST PUSH2 0xD5F PUSH2 0xA87 JUMP JUMPDEST PUSH20 0xFFFFFFFFFFFFFFFFFFFFFFFFFFFFFFFFFFFFFFFF AND PUSH2 0xD7D PUSH2 0x761 JUMP JUMPDEST PUSH20 0xFFFFFFFFFFFFFFFFFFFFFFFFFFFFFFFFFFFFFFFF AND EQ PUSH2 0xDDC JUMPI PUSH2 0xDA0 PUSH2 0xA87 JUMP JUMPDEST PUSH1 0x40 MLOAD PUSH32 0x118CDAA700000000000000000000000000000000000000000000000000000000 DUP2 MSTORE PUSH1 0x4 ADD PUSH2 0xDD3 SWAP2 SWAP1 PUSH2 0x1E9E JUMP JUMPDEST PUSH1 0x40 MLOAD DUP1 SWAP2 SUB SWAP1 REVERT JUMPDEST JUMP JUMPDEST PUSH2 0xDE6 PUSH2 0x13AF JUMP JUMPDEST PUSH0 PUSH1 0x5 PUSH0 PUSH2 0x100 EXP DUP2 SLOAD DUP2 PUSH1 0xFF MUL NOT AND SWAP1 DUP4 ISZERO ISZERO MUL OR SWAP1 SSTORE POP PUSH32 0x5DB9EE0A495BF2E6FF9C91A7834C1BA4FDD244A5E8AA4E537BD38AEAE4B073AA PUSH2 0xE28 PUSH2 0xA87 JUMP JUMPDEST PUSH1 0x40 MLOAD PUSH2 0xE35 SWAP2 SWAP1 PUSH2 0x1E9E JUMP JUMPDEST PUSH1 0x40 MLOAD DUP1 SWAP2 SUB SWAP1 LOG1 JUMP JUMPDEST PUSH0 PUSH20 0xFFFFFFFFFFFFFFFFFFFFFFFFFFFFFFFFFFFFFFFF AND DUP3 PUSH20 0xFFFFFFFFFFFFFFFFFFFFFFFFFFFFFFFFFFFFFFFF AND SUB PUSH2 0xEAF JUMPI PUSH0 PUSH1 0x40 MLOAD PUSH32 0x96C6FD1E00000000000000000000000000000000000000000000000000000000 DUP2 MSTORE PUSH1 0x4 ADD PUSH2 0xEA6 SWAP2 SWAP1 PUSH2 0x1E9E JUMP JUMPDEST PUSH1 0x40 MLOAD DUP1 SWAP2 SUB SWAP1 REVERT JUMPDEST PUSH2 0xEBA DUP3 PUSH0 DUP4 PUSH2 0x130A JUMP JUMPDEST POP POP JUMP JUMPDEST PUSH0 PUSH1 0x5 PUSH1 0x1 SWAP1 SLOAD SWAP1 PUSH2 0x100 EXP SWAP1 DIV PUSH20 0xFFFFFFFFFFFFFFFFFFFFFFFFFFFFFFFFFFFFFFFF AND SWAP1 POP DUP2 PUSH1 0x5 PUSH1 0x1 PUSH2 0x100 EXP DUP2 SLOAD DUP2 PUSH20 0xFFFFFFFFFFFFFFFFFFFFFFFFFFFFFFFFFFFFFFFF MUL NOT AND SWAP1 DUP4 PUSH20 0xFFFFFFFFFFFFFFFFFFFFFFFFFFFFFFFFFFFFFFFF AND MUL OR SWAP1 SSTORE POP DUP2 PUSH20 0xFFFFFFFFFFFFFFFFFFFFFFFFFFFFFFFFFFFFFFFF AND DUP2 PUSH20 0xFFFFFFFFFFFFFFFFFFFFFFFFFFFFFFFFFFFFFFFF AND PUSH32 0x8BE0079C531659141344CD1FD0A4F28419497F9722A3DAAFE3B4186F6B6457E0 PUSH1 0x40 MLOAD PUSH1 0x40 MLOAD DUP1 SWAP2 SUB SWAP1 LOG3 POP POP JUMP JUMPDEST PUSH0 PUSH1 0x8 PUSH0 DUP4 PUSH20 0xFFFFFFFFFFFFFFFFFFFFFFFFFFFFFFFFFFFFFFFF AND PUSH20 0xFFFFFFFFFFFFFFFFFFFFFFFFFFFFFFFFFFFFFFFF AND DUP2 MSTORE PUSH1 0x20 ADD SWAP1 DUP2 MSTORE PUSH1 0x20 ADD PUSH0 KECCAK256 SLOAD SWAP1 POP SWAP2 SWAP1 POP JUMP JUMPDEST PUSH2 0xFD1 PUSH2 0x13EF JUMP JUMPDEST PUSH1 0x1 PUSH1 0x5 PUSH0 PUSH2 0x100 EXP DUP2 SLOAD DUP2 PUSH1 0xFF MUL NOT AND SWAP1 DUP4 ISZERO ISZERO MUL OR SWAP1 SSTORE POP PUSH32 0x62E78CEA01BEE320CD4E420270B5EA74000D11B0C9F74754EBDBFC544B05A258 PUSH2 0x1014 PUSH2 0xA87 JUMP JUMPDEST PUSH1 0x40 MLOAD PUSH2 0x1021 SWAP2 SWAP1 PUSH2 0x1E9E JUMP JUMPDEST PUSH1 0x40 MLOAD DUP1 SWAP2 SUB SWAP1 LOG1 JUMP JUMPDEST PUSH1 0x60 PUSH2 0x1061 PUSH1 0x6 PUSH32 0x0 PUSH2 0x1430 SWAP1 SWAP2 SWAP1 PUSH4 0xFFFFFFFF AND JUMP JUMPDEST SWAP1 POP SWAP1 JUMP JUMPDEST PUSH1 0x60 PUSH2 0x109C PUSH1 0x7 PUSH32 0x0 PUSH2 0x1430 SWAP1 SWAP2 SWAP1 PUSH4 0xFFFFFFFF AND JUMP JUMPDEST SWAP1 POP SWAP1 JUMP JUMPDEST PUSH0 PUSH1 0x8 PUSH0 DUP4 PUSH20 0xFFFFFFFFFFFFFFFFFFFFFFFFFFFFFFFFFFFFFFFF AND PUSH20 0xFFFFFFFFFFFFFFFFFFFFFFFFFFFFFFFFFFFFFFFF AND DUP2 MSTORE PUSH1 0x20 ADD SWAP1 DUP2 MSTORE PUSH1 0x20 ADD PUSH0 KECCAK256 PUSH0 DUP2 SLOAD DUP1 SWAP3 SWAP2 SWAP1 PUSH1 0x1 ADD SWAP2 SWAP1 POP SSTORE SWAP1 POP SWAP2 SWAP1 POP JUMP JUMPDEST PUSH0 PUSH2 0x1106 PUSH2 0x1100 PUSH2 0xCA1 JUMP JUMPDEST DUP4 PUSH2 0x14DD JUMP JUMPDEST SWAP1 POP SWAP2 SWAP1 POP JUMP JUMPDEST PUSH0 DUP1 PUSH0 DUP1 PUSH2 0x111D DUP9 DUP9 DUP9 DUP9 PUSH2 0x151D JUMP JUMPDEST SWAP3 POP SWAP3 POP SWAP3 POP PUSH2 0x112D DUP3 DUP3 PUSH2 0x1604 JUMP JUMPDEST DUP3 SWAP4 POP POP POP POP SWAP5 SWAP4 POP POP POP POP JUMP JUMPDEST PUSH0 PUSH20 0xFFFFFFFFFFFFFFFFFFFFFFFFFFFFFFFFFFFFFFFF AND DUP5 PUSH20 0xFFFFFFFFFFFFFFFFFFFFFFFFFFFFFFFFFFFFFFFF AND SUB PUSH2 0x11AB JUMPI PUSH0 PUSH1 0x40 MLOAD PUSH32 0xE602DF0500000000000000000000000000000000000000000000000000000000 DUP2 MSTORE PUSH1 0x4 ADD PUSH2 0x11A2 SWAP2 SWAP1 PUSH2 0x1E9E JUMP JUMPDEST PUSH1 0x40 MLOAD DUP1 SWAP2 SUB SWAP1 REVERT JUMPDEST PUSH0 PUSH20 0xFFFFFFFFFFFFFFFFFFFFFFFFFFFFFFFFFFFFFFFF AND DUP4 PUSH20 0xFFFFFFFFFFFFFFFFFFFFFFFFFFFFFFFFFFFFFFFF AND SUB PUSH2 0x121B JUMPI PUSH0 PUSH1 0x40 MLOAD PUSH32 0x94280D6200000000000000000000000000000000000000000000000000000000 DUP2 MSTORE PUSH1 0x4 ADD PUSH2 0x1212 SWAP2 SWAP1 PUSH2 0x1E9E JUMP JUMPDEST PUSH1 0x40 MLOAD DUP1 SWAP2 SUB SWAP1 REVERT JUMPDEST DUP2 PUSH1 0x1 PUSH0 DUP7 PUSH20 0xFFFFFFFFFFFFFFFFFFFFFFFFFFFFFFFFFFFFFFFF AND PUSH20 0xFFFFFFFFFFFFFFFFFFFFFFFFFFFFFFFFFFFFFFFF AND DUP2 MSTORE PUSH1 0x20 ADD SWAP1 DUP2 MSTORE PUSH1 0x20 ADD PUSH0 KECCAK256 PUSH0 DUP6 PUSH20 0xFFFFFFFFFFFFFFFFFFFFFFFFFFFFFFFFFFFFFFFF AND PUSH20 0xFFFFFFFFFFFFFFFFFFFFFFFFFFFFFFFFFFFFFFFF AND DUP2 MSTORE PUSH1 0x20 ADD SWAP1 DUP2 MSTORE PUSH1 0x20 ADD PUSH0 KECCAK256 DUP2 SWAP1 SSTORE POP DUP1 ISZERO PUSH2 0x1304 JUMPI DUP3 PUSH20 0xFFFFFFFFFFFFFFFFFFFFFFFFFFFFFFFFFFFFFFFF AND DUP5 PUSH20 0xFFFFFFFFFFFFFFFFFFFFFFFFFFFFFFFFFFFFFFFF AND PUSH32 0x8C5BE1E5EBEC7D5BD14F71427D1E84F3DD0314C0F7B2291E5B200AC8C7C3B925 DUP5 PUSH1 0x40 MLOAD PUSH2 0x12FB SWAP2 SWAP1 PUSH2 0x1BF8 JUMP JUMPDEST PUSH1 0x40 MLOAD DUP1 SWAP2 SUB SWAP1 LOG3 JUMPDEST POP POP POP POP JUMP JUMPDEST PUSH2 0x1315 DUP4 DUP4 DUP4 PUSH2 0x1766 JUMP JUMPDEST POP POP POP JUMP JUMPDEST PUSH0 PUSH32 0x8B73C3C69BB8FE3D512ECC4CF759CC79239F7B179B0FFACAA9A75D522B39400F PUSH32 0x0 PUSH32 0x0 CHAINID ADDRESS PUSH1 0x40 MLOAD PUSH1 0x20 ADD PUSH2 0x1394 SWAP6 SWAP5 SWAP4 SWAP3 SWAP2 SWAP1 PUSH2 0x21F3 JUMP JUMPDEST PUSH1 0x40 MLOAD PUSH1 0x20 DUP2 DUP4 SUB SUB DUP2 MSTORE SWAP1 PUSH1 0x40 MSTORE DUP1 MLOAD SWAP1 PUSH1 0x20 ADD KECCAK256 SWAP1 POP SWAP1 JUMP JUMPDEST PUSH2 0x13B7 PUSH2 0x60C JUMP JUMPDEST PUSH2 0x13ED JUMPI PUSH1 0x40 MLOAD PUSH32 0x8DFC202B00000000000000000000000000000000000000000000000000000000 DUP2 MSTORE PUSH1 0x4 ADD PUSH1 0x40 MLOAD DUP1 SWAP2 SUB SWAP1 REVERT JUMPDEST JUMP JUMPDEST PUSH2 0x13F7 PUSH2 0x60C JUMP JUMPDEST ISZERO PUSH2 0x142E JUMPI PUSH1 0x40 MLOAD PUSH32 0xD93C066500000000000000000000000000000000000000000000000000000000 DUP2 MSTORE PUSH1 0x4 ADD PUSH1 0x40 MLOAD DUP1 SWAP2 SUB SWAP1 REVERT JUMPDEST JUMP JUMPDEST PUSH1 0x60 PUSH1 0xFF PUSH0 SHL DUP4 EQ PUSH2 0x144C JUMPI PUSH2 0x1445 DUP4 PUSH2 0x177E JUMP JUMPDEST SWAP1 POP PUSH2 0x14D7 JUMP JUMPDEST DUP2 DUP1 SLOAD PUSH2 0x1458 SWAP1 PUSH2 0x2013 JUMP JUMPDEST DUP1 PUSH1 0x1F ADD PUSH1 0x20 DUP1 SWAP2 DIV MUL PUSH1 0x20 ADD PUSH1 0x40 MLOAD SWAP1 DUP2 ADD PUSH1 0x40 MSTORE DUP1 SWAP3 SWAP2 SWAP1 DUP2 DUP2 MSTORE PUSH1 0x20 ADD DUP3 DUP1 SLOAD PUSH2 0x1484 SWAP1 PUSH2 0x2013 JUMP JUMPDEST DUP1 ISZERO PUSH2 0x14CF JUMPI DUP1 PUSH1 0x1F LT PUSH2 0x14A6 JUMPI PUSH2 0x100 DUP1 DUP4 SLOAD DIV MUL DUP4 MSTORE SWAP2 PUSH1 0x20 ADD SWAP2 PUSH2 0x14CF JUMP JUMPDEST DUP3 ADD SWAP2 SWAP1 PUSH0 MSTORE PUSH1 0x20 PUSH0 KECCAK256 SWAP1 JUMPDEST DUP2 SLOAD DUP2 MSTORE SWAP1 PUSH1 0x1 ADD SWAP1 PUSH1 0x20 ADD DUP1 DUP4 GT PUSH2 0x14B2 JUMPI DUP3 SWAP1 SUB PUSH1 0x1F AND DUP3 ADD SWAP2 JUMPDEST POP POP POP POP POP SWAP1 POP JUMPDEST SWAP3 SWAP2 POP POP JUMP JUMPDEST PUSH0 PUSH1 0x40 MLOAD PUSH32 0x1901000000000000000000000000000000000000000000000000000000000000 DUP2 MSTORE DUP4 PUSH1 0x2 DUP3 ADD MSTORE DUP3 PUSH1 0x22 DUP3 ADD MSTORE PUSH1 0x42 DUP2 KECCAK256 SWAP2 POP POP SWAP3 SWAP2 POP POP JUMP JUMPDEST PUSH0 DUP1 PUSH0 PUSH32 0x7FFFFFFFFFFFFFFFFFFFFFFFFFFFFFFF5D576E7357A4501DDFE92F46681B20A0 DUP5 PUSH0 SHR GT ISZERO PUSH2 0x1559 JUMPI PUSH0 PUSH1 0x3 DUP6 SWAP3 POP SWAP3 POP SWAP3 POP PUSH2 0x15FA JUMP JUMPDEST PUSH0 PUSH1 0x1 DUP9 DUP9 DUP9 DUP9 PUSH1 0x40 MLOAD PUSH0 DUP2 MSTORE PUSH1 0x20 ADD PUSH1 0x40 MSTORE PUSH1 0x40 MLOAD PUSH2 0x157C SWAP5 SWAP4 SWAP3 SWAP2 SWAP1 PUSH2 0x2244 JUMP JUMPDEST PUSH1 0x20 PUSH1 0x40 MLOAD PUSH1 0x20 DUP2 SUB SWAP1 DUP1 DUP5 SUB SWAP1 DUP6 GAS STATICCALL ISZERO DUP1 ISZERO PUSH2 0x159C JUMPI RETURNDATASIZE PUSH0 DUP1 RETURNDATACOPY RETURNDATASIZE PUSH0 REVERT JUMPDEST POP POP POP PUSH1 0x20 PUSH1 0x40 MLOAD SUB MLOAD SWAP1 POP PUSH0 PUSH20 0xFFFFFFFFFFFFFFFFFFFFFFFFFFFFFFFFFFFFFFFF AND DUP2 PUSH20 0xFFFFFFFFFFFFFFFFFFFFFFFFFFFFFFFFFFFFFFFF AND SUB PUSH2 0x15ED JUMPI PUSH0 PUSH1 0x1 PUSH0 DUP1 SHL SWAP4 POP SWAP4 POP SWAP4 POP POP PUSH2 0x15FA JUMP JUMPDEST DUP1 PUSH0 DUP1 PUSH0 SHL SWAP4 POP SWAP4 POP SWAP4 POP POP JUMPDEST SWAP5 POP SWAP5 POP SWAP5 SWAP2 POP POP JUMP JUMPDEST PUSH0 PUSH1 0x3 DUP2 GT ISZERO PUSH2 0x1617 JUMPI PUSH2 0x1616 PUSH2 0x2287 JUMP JUMPDEST JUMPDEST DUP3 PUSH1 0x3 DUP2 GT ISZERO PUSH2 0x162A JUMPI PUSH2 0x1629 PUSH2 0x2287 JUMP JUMPDEST JUMPDEST SUB ISZERO PUSH2 0x1762 JUMPI PUSH1 0x1 PUSH1 0x3 DUP2 GT ISZERO PUSH2 0x1644 JUMPI PUSH2 0x1643 PUSH2 0x2287 JUMP JUMPDEST JUMPDEST DUP3 PUSH1 0x3 DUP2 GT ISZERO PUSH2 0x1657 JUMPI PUSH2 0x1656 PUSH2 0x2287 JUMP JUMPDEST JUMPDEST SUB PUSH2 0x168E JUMPI PUSH1 0x40 MLOAD PUSH32 0xF645EEDF00000000000000000000000000000000000000000000000000000000 DUP2 MSTORE PUSH1 0x4 ADD PUSH1 0x40 MLOAD DUP1 SWAP2 SUB SWAP1 REVERT JUMPDEST PUSH1 0x2 PUSH1 0x3 DUP2 GT ISZERO PUSH2 0x16A2 JUMPI PUSH2 0x16A1 PUSH2 0x2287 JUMP JUMPDEST JUMPDEST DUP3 PUSH1 0x3 DUP2 GT ISZERO PUSH2 0x16B5 JUMPI PUSH2 0x16B4 PUSH2 0x2287 JUMP JUMPDEST JUMPDEST SUB PUSH2 0x16F9 JUMPI DUP1 PUSH0 SHR PUSH1 0x40 MLOAD PUSH32 0xFCE698F700000000000000000000000000000000000000000000000000000000 DUP2 MSTORE PUSH1 0x4 ADD PUSH2 0x16F0 SWAP2 SWAP1 PUSH2 0x1BF8 JUMP JUMPDEST PUSH1 0x40 MLOAD DUP1 SWAP2 SUB SWAP1 REVERT JUMPDEST PUSH1 0x3 DUP1 DUP2 GT ISZERO PUSH2 0x170C JUMPI PUSH2 0x170B PUSH2 0x2287 JUMP JUMPDEST JUMPDEST DUP3 PUSH1 0x3 DUP2 GT ISZERO PUSH2 0x171F JUMPI PUSH2 0x171E PUSH2 0x2287 JUMP JUMPDEST JUMPDEST SUB PUSH2 0x1761 JUMPI DUP1 PUSH1 0x40 MLOAD PUSH32 0xD78BCE0C00000000000000000000000000000000000000000000000000000000 DUP2 MSTORE PUSH1 0x4 ADD PUSH2 0x1758 SWAP2 SWAP1 PUSH2 0x1CAD JUMP JUMPDEST PUSH1 0x40 MLOAD DUP1 SWAP2 SUB SWAP1 REVERT JUMPDEST JUMPDEST POP POP JUMP JUMPDEST PUSH2 0x176E PUSH2 0x13EF JUMP JUMPDEST PUSH2 0x1779 DUP4 DUP4 DUP4 PUSH2 0x17F0 JUMP JUMPDEST POP POP POP JUMP JUMPDEST PUSH1 0x60 PUSH0 PUSH2 0x178A DUP4 PUSH2 0x1A09 JUMP JUMPDEST SWAP1 POP PUSH0 PUSH1 0x20 PUSH8 0xFFFFFFFFFFFFFFFF DUP2 GT ISZERO PUSH2 0x17A8 JUMPI PUSH2 0x17A7 PUSH2 0x210B JUMP JUMPDEST JUMPDEST PUSH1 0x40 MLOAD SWAP1 DUP1 DUP3 MSTORE DUP1 PUSH1 0x1F ADD PUSH1 0x1F NOT AND PUSH1 0x20 ADD DUP3 ADD PUSH1 0x40 MSTORE DUP1 ISZERO PUSH2 0x17DA JUMPI DUP2 PUSH1 0x20 ADD PUSH1 0x1 DUP3 MUL DUP1 CALLDATASIZE DUP4 CALLDATACOPY DUP1 DUP3 ADD SWAP2 POP POP SWAP1 POP JUMPDEST POP SWAP1 POP DUP2 DUP2 MSTORE DUP4 PUSH1 0x20 DUP3 ADD MSTORE DUP1 SWAP3 POP POP POP SWAP2 SWAP1 POP JUMP JUMPDEST PUSH0 PUSH20 0xFFFFFFFFFFFFFFFFFFFFFFFFFFFFFFFFFFFFFFFF AND DUP4 PUSH20 0xFFFFFFFFFFFFFFFFFFFFFFFFFFFFFFFFFFFFFFFF AND SUB PUSH2 0x1840 JUMPI DUP1 PUSH1 0x2 PUSH0 DUP3 DUP3 SLOAD PUSH2 0x1834 SWAP2 SWAP1 PUSH2 0x22B4 JUMP JUMPDEST SWAP3 POP POP DUP2 SWAP1 SSTORE POP PUSH2 0x190E JUMP JUMPDEST PUSH0 DUP1 PUSH0 DUP6 PUSH20 0xFFFFFFFFFFFFFFFFFFFFFFFFFFFFFFFFFFFFFFFF AND PUSH20 0xFFFFFFFFFFFFFFFFFFFFFFFFFFFFFFFFFFFFFFFF AND DUP2 MSTORE PUSH1 0x20 ADD SWAP1 DUP2 MSTORE PUSH1 0x20 ADD PUSH0 KECCAK256 SLOAD SWAP1 POP DUP2 DUP2 LT ISZERO PUSH2 0x18C9 JUMPI DUP4 DUP2 DUP4 PUSH1 0x40 MLOAD PUSH32 0xE450D38C00000000000000000000000000000000000000000000000000000000 DUP2 MSTORE PUSH1 0x4 ADD PUSH2 0x18C0 SWAP4 SWAP3 SWAP2 SWAP1 PUSH2 0x21BE JUMP JUMPDEST PUSH1 0x40 MLOAD DUP1 SWAP2 SUB SWAP1 REVERT JUMPDEST DUP2 DUP2 SUB PUSH0 DUP1 DUP7 PUSH20 0xFFFFFFFFFFFFFFFFFFFFFFFFFFFFFFFFFFFFFFFF AND PUSH20 0xFFFFFFFFFFFFFFFFFFFFFFFFFFFFFFFFFFFFFFFF AND DUP2 MSTORE PUSH1 0x20 ADD SWAP1 DUP2 MSTORE PUSH1 0x20 ADD PUSH0 KECCAK256 DUP2 SWAP1 SSTORE POP POP JUMPDEST PUSH0 PUSH20 0xFFFFFFFFFFFFFFFFFFFFFFFFFFFFFFFFFFFFFFFF AND DUP3 PUSH20 0xFFFFFFFFFFFFFFFFFFFFFFFFFFFFFFFFFFFFFFFF AND SUB PUSH2 0x1955 JUMPI DUP1 PUSH1 0x2 PUSH0 DUP3 DUP3 SLOAD SUB SWAP3 POP POP DUP2 SWAP1 SSTORE POP PUSH2 0x199F JUMP JUMPDEST DUP1 PUSH0 DUP1 DUP5 PUSH20 0xFFFFFFFFFFFFFFFFFFFFFFFFFFFFFFFFFFFFFFFF AND PUSH20 0xFFFFFFFFFFFFFFFFFFFFFFFFFFFFFFFFFFFFFFFF AND DUP2 MSTORE PUSH1 0x20 ADD SWAP1 DUP2 MSTORE PUSH1 0x20 ADD PUSH0 KECCAK256 PUSH0 DUP3 DUP3 SLOAD ADD SWAP3 POP POP DUP2 SWAP1 SSTORE POP JUMPDEST DUP2 PUSH20 0xFFFFFFFFFFFFFFFFFFFFFFFFFFFFFFFFFFFFFFFF AND DUP4 PUSH20 0xFFFFFFFFFFFFFFFFFFFFFFFFFFFFFFFFFFFFFFFF AND PUSH32 0xDDF252AD1BE2C89B69C2B068FC378DAA952BA7F163C4A11628F55A4DF523B3EF DUP4 PUSH1 0x40 MLOAD PUSH2 0x19FC SWAP2 SWAP1 PUSH2 0x1BF8 JUMP JUMPDEST PUSH1 0x40 MLOAD DUP1 SWAP2 SUB SWAP1 LOG3 POP POP POP JUMP JUMPDEST PUSH0 DUP1 PUSH1 0xFF DUP4 PUSH0 SHR AND SWAP1 POP PUSH1 0x1F DUP2 GT ISZERO PUSH2 0x1A4E JUMPI PUSH1 0x40 MLOAD PUSH32 0xB3512B0C00000000000000000000000000000000000000000000000000000000 DUP2 MSTORE PUSH1 0x4 ADD PUSH1 0x40 MLOAD DUP1 SWAP2 SUB SWAP1 REVERT JUMPDEST DUP1 SWAP2 POP POP SWAP2 SWAP1 POP JUMP JUMPDEST PUSH0 DUP2 MLOAD SWAP1 POP SWAP2 SWAP1 POP JUMP JUMPDEST PUSH0 DUP3 DUP3 MSTORE PUSH1 0x20 DUP3 ADD SWAP1 POP SWAP3 SWAP2 POP POP JUMP JUMPDEST DUP3 DUP2 DUP4 MCOPY PUSH0 DUP4 DUP4 ADD MSTORE POP POP POP JUMP JUMPDEST PUSH0 PUSH1 0x1F NOT PUSH1 0x1F DUP4 ADD AND SWAP1 POP SWAP2 SWAP1 POP JUMP JUMPDEST PUSH0 PUSH2 0x1A99 DUP3 PUSH2 0x1A57 JUMP JUMPDEST PUSH2 0x1AA3 DUP2 DUP6 PUSH2 0x1A61 JUMP JUMPDEST SWAP4 POP PUSH2 0x1AB3 DUP2 DUP6 PUSH1 0x20 DUP7 ADD PUSH2 0x1A71 JUMP JUMPDEST PUSH2 0x1ABC DUP2 PUSH2 0x1A7F JUMP JUMPDEST DUP5 ADD SWAP2 POP POP SWAP3 SWAP2 POP POP JUMP JUMPDEST PUSH0 PUSH1 0x20 DUP3 ADD SWAP1 POP DUP2 DUP2 SUB PUSH0 DUP4 ADD MSTORE PUSH2 0x1ADF DUP2 DUP5 PUSH2 0x1A8F JUMP JUMPDEST SWAP1 POP SWAP3 SWAP2 POP POP JUMP JUMPDEST PUSH0 DUP1 REVERT JUMPDEST PUSH0 PUSH20 0xFFFFFFFFFFFFFFFFFFFFFFFFFFFFFFFFFFFFFFFF DUP3 AND SWAP1 POP SWAP2 SWAP1 POP JUMP JUMPDEST PUSH0 PUSH2 0x1B14 DUP3 PUSH2 0x1AEB JUMP JUMPDEST SWAP1 POP SWAP2 SWAP1 POP JUMP JUMPDEST PUSH2 0x1B24 DUP2 PUSH2 0x1B0A JUMP JUMPDEST DUP2 EQ PUSH2 0x1B2E JUMPI PUSH0 DUP1 REVERT JUMPDEST POP JUMP JUMPDEST PUSH0 DUP2 CALLDATALOAD SWAP1 POP PUSH2 0x1B3F DUP2 PUSH2 0x1B1B JUMP JUMPDEST SWAP3 SWAP2 POP POP JUMP JUMPDEST PUSH0 DUP2 SWAP1 POP SWAP2 SWAP1 POP JUMP JUMPDEST PUSH2 0x1B57 DUP2 PUSH2 0x1B45 JUMP JUMPDEST DUP2 EQ PUSH2 0x1B61 JUMPI PUSH0 DUP1 REVERT JUMPDEST POP JUMP JUMPDEST PUSH0 DUP2 CALLDATALOAD SWAP1 POP PUSH2 0x1B72 DUP2 PUSH2 0x1B4E JUMP JUMPDEST SWAP3 SWAP2 POP POP JUMP JUMPDEST PUSH0 DUP1 PUSH1 0x40 DUP4 DUP6 SUB SLT ISZERO PUSH2 0x1B8E JUMPI PUSH2 0x1B8D PUSH2 0x1AE7 JUMP JUMPDEST JUMPDEST PUSH0 PUSH2 0x1B9B DUP6 DUP3 DUP7 ADD PUSH2 0x1B31 JUMP JUMPDEST SWAP3 POP POP PUSH1 0x20 PUSH2 0x1BAC DUP6 DUP3 DUP7 ADD PUSH2 0x1B64 JUMP JUMPDEST SWAP2 POP POP SWAP3 POP SWAP3 SWAP1 POP JUMP JUMPDEST PUSH0 DUP2 ISZERO ISZERO SWAP1 POP SWAP2 SWAP1 POP JUMP JUMPDEST PUSH2 0x1BCA DUP2 PUSH2 0x1BB6 JUMP JUMPDEST DUP3 MSTORE POP POP JUMP JUMPDEST PUSH0 PUSH1 0x20 DUP3 ADD SWAP1 POP PUSH2 0x1BE3 PUSH0 DUP4 ADD DUP5 PUSH2 0x1BC1 JUMP JUMPDEST SWAP3 SWAP2 POP POP JUMP JUMPDEST PUSH2 0x1BF2 DUP2 PUSH2 0x1B45 JUMP JUMPDEST DUP3 MSTORE POP POP JUMP JUMPDEST PUSH0 PUSH1 0x20 DUP3 ADD SWAP1 POP PUSH2 0x1C0B PUSH0 DUP4 ADD DUP5 PUSH2 0x1BE9 JUMP JUMPDEST SWAP3 SWAP2 POP POP JUMP JUMPDEST PUSH0 DUP1 PUSH0 PUSH1 0x60 DUP5 DUP7 SUB SLT ISZERO PUSH2 0x1C28 JUMPI PUSH2 0x1C27 PUSH2 0x1AE7 JUMP JUMPDEST JUMPDEST PUSH0 PUSH2 0x1C35 DUP7 DUP3 DUP8 ADD PUSH2 0x1B31 JUMP JUMPDEST SWAP4 POP POP PUSH1 0x20 PUSH2 0x1C46 DUP7 DUP3 DUP8 ADD PUSH2 0x1B31 JUMP JUMPDEST SWAP3 POP POP PUSH1 0x40 PUSH2 0x1C57 DUP7 DUP3 DUP8 ADD PUSH2 0x1B64 JUMP JUMPDEST SWAP2 POP POP SWAP3 POP SWAP3 POP SWAP3 JUMP JUMPDEST PUSH0 PUSH1 0xFF DUP3 AND SWAP1 POP SWAP2 SWAP1 POP JUMP JUMPDEST PUSH2 0x1C76 DUP2 PUSH2 0x1C61 JUMP JUMPDEST DUP3 MSTORE POP POP JUMP JUMPDEST PUSH0 PUSH1 0x20 DUP3 ADD SWAP1 POP PUSH2 0x1C8F PUSH0 DUP4 ADD DUP5 PUSH2 0x1C6D JUMP JUMPDEST SWAP3 SWAP2 POP POP JUMP JUMPDEST PUSH0 DUP2 SWAP1 POP SWAP2 SWAP1 POP JUMP JUMPDEST PUSH2 0x1CA7 DUP2 PUSH2 0x1C95 JUMP JUMPDEST DUP3 MSTORE POP POP JUMP JUMPDEST PUSH0 PUSH1 0x20 DUP3 ADD SWAP1 POP PUSH2 0x1CC0 PUSH0 DUP4 ADD DUP5 PUSH2 0x1C9E JUMP JUMPDEST SWAP3 SWAP2 POP POP JUMP JUMPDEST PUSH0 PUSH1 0x20 DUP3 DUP5 SUB SLT ISZERO PUSH2 0x1CDB JUMPI PUSH2 0x1CDA PUSH2 0x1AE7 JUMP JUMPDEST JUMPDEST PUSH0 PUSH2 0x1CE8 DUP5 DUP3 DUP6 ADD PUSH2 0x1B64 JUMP JUMPDEST SWAP2 POP POP SWAP3 SWAP2 POP POP JUMP JUMPDEST PUSH0 PUSH1 0x20 DUP3 DUP5 SUB SLT ISZERO PUSH2 0x1D06 JUMPI PUSH2 0x1D05 PUSH2 0x1AE7 JUMP JUMPDEST JUMPDEST PUSH0 PUSH2 0x1D13 DUP5 DUP3 DUP6 ADD PUSH2 0x1B31 JUMP JUMPDEST SWAP2 POP POP SWAP3 SWAP2 POP POP JUMP JUMPDEST PUSH0 PUSH32 0xFF00000000000000000000000000000000000000000000000000000000000000 DUP3 AND SWAP1 POP SWAP2 SWAP1 POP JUMP JUMPDEST PUSH2 0x1D50 DUP2 PUSH2 0x1D1C JUMP JUMPDEST DUP3 MSTORE POP POP JUMP JUMPDEST PUSH2 0x1D5F DUP2 PUSH2 0x1B0A JUMP JUMPDEST DUP3 MSTORE POP POP JUMP JUMPDEST PUSH0 DUP2 MLOAD SWAP1 POP SWAP2 SWAP1 POP JUMP JUMPDEST PUSH0 DUP3 DUP3 MSTORE PUSH1 0x20 DUP3 ADD SWAP1 POP SWAP3 SWAP2 POP POP JUMP JUMPDEST PUSH0 DUP2 SWAP1 POP PUSH1 0x20 DUP3 ADD SWAP1 POP SWAP2 SWAP1 POP JUMP JUMPDEST PUSH2 0x1D97 DUP2 PUSH2 0x1B45 JUMP JUMPDEST DUP3 MSTORE POP POP JUMP JUMPDEST PUSH0 PUSH2 0x1DA8 DUP4 DUP4 PUSH2 0x1D8E JUMP JUMPDEST PUSH1 0x20 DUP4 ADD SWAP1 POP SWAP3 SWAP2 POP POP JUMP JUMPDEST PUSH0 PUSH1 0x20 DUP3 ADD SWAP1 POP SWAP2 SWAP1 POP JUMP JUMPDEST PUSH0 PUSH2 0x1DCA DUP3 PUSH2 0x1D65 JUMP JUMPDEST PUSH2 0x1DD4 DUP2 DUP6 PUSH2 0x1D6F JUMP JUMPDEST SWAP4 POP PUSH2 0x1DDF DUP4 PUSH2 0x1D7F JUMP JUMPDEST DUP1 PUSH0 JUMPDEST DUP4 DUP2 LT ISZERO PUSH2 0x1E0F JUMPI DUP2 MLOAD PUSH2 0x1DF6 DUP9 DUP3 PUSH2 0x1D9D JUMP JUMPDEST SWAP8 POP PUSH2 0x1E01 DUP4 PUSH2 0x1DB4 JUMP JUMPDEST SWAP3 POP POP PUSH1 0x1 DUP2 ADD SWAP1 POP PUSH2 0x1DE2 JUMP JUMPDEST POP DUP6 SWAP4 POP POP POP POP SWAP3 SWAP2 POP POP JUMP JUMPDEST PUSH0 PUSH1 0xE0 DUP3 ADD SWAP1 POP PUSH2 0x1E2F PUSH0 DUP4 ADD DUP11 PUSH2 0x1D47 JUMP JUMPDEST DUP2 DUP2 SUB PUSH1 0x20 DUP4 ADD MSTORE PUSH2 0x1E41 DUP2 DUP10 PUSH2 0x1A8F JUMP JUMPDEST SWAP1 POP DUP2 DUP2 SUB PUSH1 0x40 DUP4 ADD MSTORE PUSH2 0x1E55 DUP2 DUP9 PUSH2 0x1A8F JUMP JUMPDEST SWAP1 POP PUSH2 0x1E64 PUSH1 0x60 DUP4 ADD DUP8 PUSH2 0x1BE9 JUMP JUMPDEST PUSH2 0x1E71 PUSH1 0x80 DUP4 ADD DUP7 PUSH2 0x1D56 JUMP JUMPDEST PUSH2 0x1E7E PUSH1 0xA0 DUP4 ADD DUP6 PUSH2 0x1C9E JUMP JUMPDEST DUP2 DUP2 SUB PUSH1 0xC0 DUP4 ADD MSTORE PUSH2 0x1E90 DUP2 DUP5 PUSH2 0x1DC0 JUMP JUMPDEST SWAP1 POP SWAP9 SWAP8 POP POP POP POP POP POP POP POP JUMP JUMPDEST PUSH0 PUSH1 0x20 DUP3 ADD SWAP1 POP PUSH2 0x1EB1 PUSH0 DUP4 ADD DUP5 PUSH2 0x1D56 JUMP JUMPDEST SWAP3 SWAP2 POP POP JUMP JUMPDEST PUSH2 0x1EC0 DUP2 PUSH2 0x1C61 JUMP JUMPDEST DUP2 EQ PUSH2 0x1ECA JUMPI PUSH0 DUP1 REVERT JUMPDEST POP JUMP JUMPDEST PUSH0 DUP2 CALLDATALOAD SWAP1 POP PUSH2 0x1EDB DUP2 PUSH2 0x1EB7 JUMP JUMPDEST SWAP3 SWAP2 POP POP JUMP JUMPDEST PUSH2 0x1EEA DUP2 PUSH2 0x1C95 JUMP JUMPDEST DUP2 EQ PUSH2 0x1EF4 JUMPI PUSH0 DUP1 REVERT JUMPDEST POP JUMP JUMPDEST PUSH0 DUP2 CALLDATALOAD SWAP1 POP PUSH2 0x1F05 DUP2 PUSH2 0x1EE1 JUMP JUMPDEST SWAP3 SWAP2 POP POP JUMP JUMPDEST PUSH0 DUP1 PUSH0 DUP1 PUSH0 DUP1 PUSH0 PUSH1 0xE0 DUP9 DUP11 SUB SLT ISZERO PUSH2 0x1F26 JUMPI PUSH2 0x1F25 PUSH2 0x1AE7 JUMP JUMPDEST JUMPDEST PUSH0 PUSH2 0x1F33 DUP11 DUP3 DUP12 ADD PUSH2 0x1B31 JUMP JUMPDEST SWAP8 POP POP PUSH1 0x20 PUSH2 0x1F44 DUP11 DUP3 DUP12 ADD PUSH2 0x1B31 JUMP JUMPDEST SWAP7 POP POP PUSH1 0x40 PUSH2 0x1F55 DUP11 DUP3 DUP12 ADD PUSH2 0x1B64 JUMP JUMPDEST SWAP6 POP POP PUSH1 0x60 PUSH2 0x1F66 DUP11 DUP3 DUP12 ADD PUSH2 0x1B64 JUMP JUMPDEST SWAP5 POP POP PUSH1 0x80 PUSH2 0x1F77 DUP11 DUP3 DUP12 ADD PUSH2 0x1ECD JUMP JUMPDEST SWAP4 POP POP PUSH1 0xA0 PUSH2 0x1F88 DUP11 DUP3 DUP12 ADD PUSH2 0x1EF7 JUMP JUMPDEST SWAP3 POP POP PUSH1 0xC0 PUSH2 0x1F99 DUP11 DUP3 DUP12 ADD PUSH2 0x1EF7 JUMP JUMPDEST SWAP2 POP POP SWAP3 SWAP6 SWAP9 SWAP2 SWAP5 SWAP8 POP SWAP3 SWAP6 POP JUMP JUMPDEST PUSH0 DUP1 PUSH1 0x40 DUP4 DUP6 SUB SLT ISZERO PUSH2 0x1FBE JUMPI PUSH2 0x1FBD PUSH2 0x1AE7 JUMP JUMPDEST JUMPDEST PUSH0 PUSH2 0x1FCB DUP6 DUP3 DUP7 ADD PUSH2 0x1B31 JUMP JUMPDEST SWAP3 POP POP PUSH1 0x20 PUSH2 0x1FDC DUP6 DUP3 DUP7 ADD PUSH2 0x1B31 JUMP JUMPDEST SWAP2 POP POP SWAP3 POP SWAP3 SWAP1 POP JUMP JUMPDEST PUSH32 0x4E487B7100000000000000000000000000000000000000000000000000000000 PUSH0 MSTORE PUSH1 0x22 PUSH1 0x4 MSTORE PUSH1 0x24 PUSH0 REVERT JUMPDEST PUSH0 PUSH1 0x2 DUP3 DIV SWAP1 POP PUSH1 0x1 DUP3 AND DUP1 PUSH2 0x202A JUMPI PUSH1 0x7F DUP3 AND SWAP2 POP JUMPDEST PUSH1 0x20 DUP3 LT DUP2 SUB PUSH2 0x203D JUMPI PUSH2 0x203C PUSH2 0x1FE6 JUMP JUMPDEST JUMPDEST POP SWAP2 SWAP1 POP JUMP JUMPDEST PUSH32 0x4E487B7100000000000000000000000000000000000000000000000000000000 PUSH0 MSTORE PUSH1 0x11 PUSH1 0x4 MSTORE PUSH1 0x24 PUSH0 REVERT JUMPDEST PUSH0 PUSH2 0x207A DUP3 PUSH2 0x1B45 JUMP JUMPDEST SWAP2 POP PUSH2 0x2085 DUP4 PUSH2 0x1B45 JUMP JUMPDEST SWAP3 POP DUP3 DUP3 SUB SWAP1 POP DUP2 DUP2 GT ISZERO PUSH2 0x209D JUMPI PUSH2 0x209C PUSH2 0x2043 JUMP JUMPDEST JUMPDEST SWAP3 SWAP2 POP POP JUMP JUMPDEST PUSH32 0x207374696C6C20696E20636F6F6C20646F776E20706572696F64200000000000 PUSH0 DUP3 ADD MSTORE POP JUMP JUMPDEST PUSH0 PUSH2 0x20D7 PUSH1 0x1B DUP4 PUSH2 0x1A61 JUMP JUMPDEST SWAP2 POP PUSH2 0x20E2 DUP3 PUSH2 0x20A3 JUMP JUMPDEST PUSH1 0x20 DUP3 ADD SWAP1 POP SWAP2 SWAP1 POP JUMP JUMPDEST PUSH0 PUSH1 0x20 DUP3 ADD SWAP1 POP DUP2 DUP2 SUB PUSH0 DUP4 ADD MSTORE PUSH2 0x2104 DUP2 PUSH2 0x20CB JUMP JUMPDEST SWAP1 POP SWAP2 SWAP1 POP JUMP JUMPDEST PUSH32 0x4E487B7100000000000000000000000000000000000000000000000000000000 PUSH0 MSTORE PUSH1 0x41 PUSH1 0x4 MSTORE PUSH1 0x24 PUSH0 REVERT JUMPDEST PUSH0 PUSH1 0xC0 DUP3 ADD SWAP1 POP PUSH2 0x214B PUSH0 DUP4 ADD DUP10 PUSH2 0x1C9E JUMP JUMPDEST PUSH2 0x2158 PUSH1 0x20 DUP4 ADD DUP9 PUSH2 0x1D56 JUMP JUMPDEST PUSH2 0x2165 PUSH1 0x40 DUP4 ADD DUP8 PUSH2 0x1D56 JUMP JUMPDEST PUSH2 0x2172 PUSH1 0x60 DUP4 ADD DUP7 PUSH2 0x1BE9 JUMP JUMPDEST PUSH2 0x217F PUSH1 0x80 DUP4 ADD DUP6 PUSH2 0x1BE9 JUMP JUMPDEST PUSH2 0x218C PUSH1 0xA0 DUP4 ADD DUP5 PUSH2 0x1BE9 JUMP JUMPDEST SWAP8 SWAP7 POP POP POP POP POP POP POP JUMP JUMPDEST PUSH0 PUSH1 0x40 DUP3 ADD SWAP1 POP PUSH2 0x21AA PUSH0 DUP4 ADD DUP6 PUSH2 0x1D56 JUMP JUMPDEST PUSH2 0x21B7 PUSH1 0x20 DUP4 ADD DUP5 PUSH2 0x1D56 JUMP JUMPDEST SWAP4 SWAP3 POP POP POP JUMP JUMPDEST PUSH0 PUSH1 0x60 DUP3 ADD SWAP1 POP PUSH2 0x21D1 PUSH0 DUP4 ADD DUP7 PUSH2 0x1D56 JUMP JUMPDEST PUSH2 0x21DE PUSH1 0x20 DUP4 ADD DUP6 PUSH2 0x1BE9 JUMP JUMPDEST PUSH2 0x21EB PUSH1 0x40 DUP4 ADD DUP5 PUSH2 0x1BE9 JUMP JUMPDEST SWAP5 SWAP4 POP POP POP POP JUMP JUMPDEST PUSH0 PUSH1 0xA0 DUP3 ADD SWAP1 POP PUSH2 0x2206 PUSH0 DUP4 ADD DUP9 PUSH2 0x1C9E JUMP JUMPDEST PUSH2 0x2213 PUSH1 0x20 DUP4 ADD DUP8 PUSH2 0x1C9E JUMP JUMPDEST PUSH2 0x2220 PUSH1 0x40 DUP4 ADD DUP7 PUSH2 0x1C9E JUMP JUMPDEST PUSH2 0x222D PUSH1 0x60 DUP4 ADD DUP6 PUSH2 0x1BE9 JUMP JUMPDEST PUSH2 0x223A PUSH1 0x80 DUP4 ADD DUP5 PUSH2 0x1D56 JUMP JUMPDEST SWAP7 SWAP6 POP POP POP POP POP POP JUMP JUMPDEST PUSH0 PUSH1 0x80 DUP3 ADD SWAP1 POP PUSH2 0x2257 PUSH0 DUP4 ADD DUP8 PUSH2 0x1C9E JUMP JUMPDEST PUSH2 0x2264 PUSH1 0x20 DUP4 ADD DUP7 PUSH2 0x1C6D JUMP JUMPDEST PUSH2 0x2271 PUSH1 0x40 DUP4 ADD DUP6 PUSH2 0x1C9E JUMP JUMPDEST PUSH2 0x227E PUSH1 0x60 DUP4 ADD DUP5 PUSH2 0x1C9E JUMP JUMPDEST SWAP6 SWAP5 POP POP POP POP POP JUMP JUMPDEST PUSH32 0x4E487B7100000000000000000000000000000000000000000000000000000000 PUSH0 MSTORE PUSH1 0x21 PUSH1 0x4 MSTORE PUSH1 0x24 PUSH0 REVERT JUMPDEST PUSH0 PUSH2 0x22BE DUP3 PUSH2 0x1B45 JUMP JUMPDEST SWAP2 POP PUSH2 0x22C9 DUP4 PUSH2 0x1B45 JUMP JUMPDEST SWAP3 POP DUP3 DUP3 ADD SWAP1 POP DUP1 DUP3 GT ISZERO PUSH2 0x22E1 JUMPI PUSH2 0x22E0 PUSH2 0x2043 JUMP JUMPDEST JUMPDEST SWAP3 SWAP2 POP POP JUMP INVALID LOG2 PUSH5 0x6970667358 0x22 SLT KECCAK256 PUSH27 0x368FBD3F227BE02EEC6D9583642E260D94DAE6F5DB1DA84F93F61F JUMPI 0xC DUP2 0xC4 PUSH5 0x736F6C6343 STOP ADDMOD BYTE STOP CALLER "
		},
		"gasEstimates": {
			"creation": {
				"codeDepositCost": "1797800",
				"executionCost": "infinite",
				"totalCost": "infinite"
			},
			"external": {
				"DOMAIN_SEPARATOR()": "infinite",
				"allowance(address,address)": "infinite",
				"approve(address,uint256)": "infinite",
				"balanceOf(address)": "2852",
				"burn(uint256)": "infinite",
				"burnFrom(address,uint256)": "infinite",
				"decimals()": "361",
				"eip712Domain()": "infinite",
				"mint()": "infinite",
				"mint(address,uint256)": "infinite",
				"name()": "infinite",
				"nonces(address)": "2960",
				"owner()": "2588",
				"pause()": "infinite",
				"paused()": "2606",
				"permit(address,address,uint256,uint256,uint8,bytes32,bytes32)": "infinite",
				"renounceOwnership()": "infinite",
				"symbol()": "infinite",
				"totalSupply()": "2522",
				"transfer(address,uint256)": "infinite",
				"transferFrom(address,address,uint256)": "infinite",
				"transferOwnership(address)": "infinite",
				"unpause()": "infinite"
			},
			"internal": {
				"_update(address,address,uint256)": "infinite"
			}
		},
		"methodIdentifiers": {
			"DOMAIN_SEPARATOR()": "3644e515",
			"allowance(address,address)": "dd62ed3e",
			"approve(address,uint256)": "095ea7b3",
			"balanceOf(address)": "70a08231",
			"burn(uint256)": "42966c68",
			"burnFrom(address,uint256)": "79cc6790",
			"decimals()": "313ce567",
			"eip712Domain()": "84b0196e",
			"mint()": "1249c58b",
			"mint(address,uint256)": "40c10f19",
			"name()": "06fdde03",
			"nonces(address)": "7ecebe00",
			"owner()": "8da5cb5b",
			"pause()": "8456cb59",
			"paused()": "5c975abb",
			"permit(address,address,uint256,uint256,uint8,bytes32,bytes32)": "d505accf",
			"renounceOwnership()": "715018a6",
			"symbol()": "95d89b41",
			"totalSupply()": "18160ddd",
			"transfer(address,uint256)": "a9059cbb",
			"transferFrom(address,address,uint256)": "23b872dd",
			"transferOwnership(address)": "f2fde38b",
			"unpause()": "3f4ba83a"
		}
	},
	"abi": [
		{
			"inputs": [
				{
					"internalType": "address",
					"name": "initialOwner",
					"type": "address"
				}
			],
			"stateMutability": "nonpayable",
			"type": "constructor"
		},
		{
			"inputs": [],
			"name": "ECDSAInvalidSignature",
			"type": "error"
		},
		{
			"inputs": [
				{
					"internalType": "uint256",
					"name": "length",
					"type": "uint256"
				}
			],
			"name": "ECDSAInvalidSignatureLength",
			"type": "error"
		},
		{
			"inputs": [
				{
					"internalType": "bytes32",
					"name": "s",
					"type": "bytes32"
				}
			],
			"name": "ECDSAInvalidSignatureS",
			"type": "error"
		},
		{
			"inputs": [
				{
					"internalType": "address",
					"name": "spender",
					"type": "address"
				},
				{
					"internalType": "uint256",
					"name": "allowance",
					"type": "uint256"
				},
				{
					"internalType": "uint256",
					"name": "needed",
					"type": "uint256"
				}
			],
			"name": "ERC20InsufficientAllowance",
			"type": "error"
		},
		{
			"inputs": [
				{
					"internalType": "address",
					"name": "sender",
					"type": "address"
				},
				{
					"internalType": "uint256",
					"name": "balance",
					"type": "uint256"
				},
				{
					"internalType": "uint256",
					"name": "needed",
					"type": "uint256"
				}
			],
			"name": "ERC20InsufficientBalance",
			"type": "error"
		},
		{
			"inputs": [
				{
					"internalType": "address",
					"name": "approver",
					"type": "address"
				}
			],
			"name": "ERC20InvalidApprover",
			"type": "error"
		},
		{
			"inputs": [
				{
					"internalType": "address",
					"name": "receiver",
					"type": "address"
				}
			],
			"name": "ERC20InvalidReceiver",
			"type": "error"
		},
		{
			"inputs": [
				{
					"internalType": "address",
					"name": "sender",
					"type": "address"
				}
			],
			"name": "ERC20InvalidSender",
			"type": "error"
		},
		{
			"inputs": [
				{
					"internalType": "address",
					"name": "spender",
					"type": "address"
				}
			],
			"name": "ERC20InvalidSpender",
			"type": "error"
		},
		{
			"inputs": [
				{
					"internalType": "uint256",
					"name": "deadline",
					"type": "uint256"
				}
			],
			"name": "ERC2612ExpiredSignature",
			"type": "error"
		},
		{
			"inputs": [
				{
					"internalType": "address",
					"name": "signer",
					"type": "address"
				},
				{
					"internalType": "address",
					"name": "owner",
					"type": "address"
				}
			],
			"name": "ERC2612InvalidSigner",
			"type": "error"
		},
		{
			"inputs": [],
			"name": "EnforcedPause",
			"type": "error"
		},
		{
			"inputs": [],
			"name": "ExpectedPause",
			"type": "error"
		},
		{
			"inputs": [
				{
					"internalType": "address",
					"name": "account",
					"type": "address"
				},
				{
					"internalType": "uint256",
					"name": "currentNonce",
					"type": "uint256"
				}
			],
			"name": "InvalidAccountNonce",
			"type": "error"
		},
		{
			"inputs": [],
			"name": "InvalidShortString",
			"type": "error"
		},
		{
			"inputs": [
				{
					"internalType": "address",
					"name": "owner",
					"type": "address"
				}
			],
			"name": "OwnableInvalidOwner",
			"type": "error"
		},
		{
			"inputs": [
				{
					"internalType": "address",
					"name": "account",
					"type": "address"
				}
			],
			"name": "OwnableUnauthorizedAccount",
			"type": "error"
		},
		{
			"inputs": [
				{
					"internalType": "string",
					"name": "str",
					"type": "string"
				}
			],
			"name": "StringTooLong",
			"type": "error"
		},
		{
			"anonymous": false,
			"inputs": [
				{
					"indexed": true,
					"internalType": "address",
					"name": "owner",
					"type": "address"
				},
				{
					"indexed": true,
					"internalType": "address",
					"name": "spender",
					"type": "address"
				},
				{
					"indexed": false,
					"internalType": "uint256",
					"name": "value",
					"type": "uint256"
				}
			],
			"name": "Approval",
			"type": "event"
		},
		{
			"anonymous": false,
			"inputs": [],
			"name": "EIP712DomainChanged",
			"type": "event"
		},
		{
			"anonymous": false,
			"inputs": [
				{
					"indexed": true,
					"internalType": "address",
					"name": "previousOwner",
					"type": "address"
				},
				{
					"indexed": true,
					"internalType": "address",
					"name": "newOwner",
					"type": "address"
				}
			],
			"name": "OwnershipTransferred",
			"type": "event"
		},
		{
			"anonymous": false,
			"inputs": [
				{
					"indexed": false,
					"internalType": "address",
					"name": "account",
					"type": "address"
				}
			],
			"name": "Paused",
			"type": "event"
		},
		{
			"anonymous": false,
			"inputs": [
				{
					"indexed": true,
					"internalType": "address",
					"name": "from",
					"type": "address"
				},
				{
					"indexed": true,
					"internalType": "address",
					"name": "to",
					"type": "address"
				},
				{
					"indexed": false,
					"internalType": "uint256",
					"name": "value",
					"type": "uint256"
				}
			],
			"name": "Transfer",
			"type": "event"
		},
		{
			"anonymous": false,
			"inputs": [
				{
					"indexed": false,
					"internalType": "address",
					"name": "account",
					"type": "address"
				}
			],
			"name": "Unpaused",
			"type": "event"
		},
		{
			"inputs": [],
			"name": "DOMAIN_SEPARATOR",
			"outputs": [
				{
					"internalType": "bytes32",
					"name": "",
					"type": "bytes32"
				}
			],
			"stateMutability": "view",
			"type": "function"
		},
		{
			"inputs": [
				{
					"internalType": "address",
					"name": "owner",
					"type": "address"
				},
				{
					"internalType": "address",
					"name": "spender",
					"type": "address"
				}
			],
			"name": "allowance",
			"outputs": [
				{
					"internalType": "uint256",
					"name": "",
					"type": "uint256"
				}
			],
			"stateMutability": "view",
			"type": "function"
		},
		{
			"inputs": [
				{
					"internalType": "address",
					"name": "spender",
					"type": "address"
				},
				{
					"internalType": "uint256",
					"name": "value",
					"type": "uint256"
				}
			],
			"name": "approve",
			"outputs": [
				{
					"internalType": "bool",
					"name": "",
					"type": "bool"
				}
			],
			"stateMutability": "nonpayable",
			"type": "function"
		},
		{
			"inputs": [
				{
					"internalType": "address",
					"name": "account",
					"type": "address"
				}
			],
			"name": "balanceOf",
			"outputs": [
				{
					"internalType": "uint256",
					"name": "",
					"type": "uint256"
				}
			],
			"stateMutability": "view",
			"type": "function"
		},
		{
			"inputs": [
				{
					"internalType": "uint256",
					"name": "value",
					"type": "uint256"
				}
			],
			"name": "burn",
			"outputs": [],
			"stateMutability": "nonpayable",
			"type": "function"
		},
		{
			"inputs": [
				{
					"internalType": "address",
					"name": "account",
					"type": "address"
				},
				{
					"internalType": "uint256",
					"name": "value",
					"type": "uint256"
				}
			],
			"name": "burnFrom",
			"outputs": [],
			"stateMutability": "nonpayable",
			"type": "function"
		},
		{
			"inputs": [],
			"name": "decimals",
			"outputs": [
				{
					"internalType": "uint8",
					"name": "",
					"type": "uint8"
				}
			],
			"stateMutability": "view",
			"type": "function"
		},
		{
			"inputs": [],
			"name": "eip712Domain",
			"outputs": [
				{
					"internalType": "bytes1",
					"name": "fields",
					"type": "bytes1"
				},
				{
					"internalType": "string",
					"name": "name",
					"type": "string"
				},
				{
					"internalType": "string",
					"name": "version",
					"type": "string"
				},
				{
					"internalType": "uint256",
					"name": "chainId",
					"type": "uint256"
				},
				{
					"internalType": "address",
					"name": "verifyingContract",
					"type": "address"
				},
				{
					"internalType": "bytes32",
					"name": "salt",
					"type": "bytes32"
				},
				{
					"internalType": "uint256[]",
					"name": "extensions",
					"type": "uint256[]"
				}
			],
			"stateMutability": "view",
			"type": "function"
		},
		{
			"inputs": [],
			"name": "mint",
			"outputs": [
				{
					"internalType": "uint256",
					"name": "_amount",
					"type": "uint256"
				}
			],
			"stateMutability": "nonpayable",
			"type": "function"
		},
		{
			"inputs": [
				{
					"internalType": "address",
					"name": "to",
					"type": "address"
				},
				{
					"internalType": "uint256",
					"name": "amount",
					"type": "uint256"
				}
			],
			"name": "mint",
			"outputs": [],
			"stateMutability": "nonpayable",
			"type": "function"
		},
		{
			"inputs": [],
			"name": "name",
			"outputs": [
				{
					"internalType": "string",
					"name": "",
					"type": "string"
				}
			],
			"stateMutability": "view",
			"type": "function"
		},
		{
			"inputs": [
				{
					"internalType": "address",
					"name": "owner",
					"type": "address"
				}
			],
			"name": "nonces",
			"outputs": [
				{
					"internalType": "uint256",
					"name": "",
					"type": "uint256"
				}
			],
			"stateMutability": "view",
			"type": "function"
		},
		{
			"inputs": [],
			"name": "owner",
			"outputs": [
				{
					"internalType": "address",
					"name": "",
					"type": "address"
				}
			],
			"stateMutability": "view",
			"type": "function"
		},
		{
			"inputs": [],
			"name": "pause",
			"outputs": [],
			"stateMutability": "nonpayable",
			"type": "function"
		},
		{
			"inputs": [],
			"name": "paused",
			"outputs": [
				{
					"internalType": "bool",
					"name": "",
					"type": "bool"
				}
			],
			"stateMutability": "view",
			"type": "function"
		},
		{
			"inputs": [
				{
					"internalType": "address",
					"name": "owner",
					"type": "address"
				},
				{
					"internalType": "address",
					"name": "spender",
					"type": "address"
				},
				{
					"internalType": "uint256",
					"name": "value",
					"type": "uint256"
				},
				{
					"internalType": "uint256",
					"name": "deadline",
					"type": "uint256"
				},
				{
					"internalType": "uint8",
					"name": "v",
					"type": "uint8"
				},
				{
					"internalType": "bytes32",
					"name": "r",
					"type": "bytes32"
				},
				{
					"internalType": "bytes32",
					"name": "s",
					"type": "bytes32"
				}
			],
			"name": "permit",
			"outputs": [],
			"stateMutability": "nonpayable",
			"type": "function"
		},
		{
			"inputs": [],
			"name": "renounceOwnership",
			"outputs": [],
			"stateMutability": "nonpayable",
			"type": "function"
		},
		{
			"inputs": [],
			"name": "symbol",
			"outputs": [
				{
					"internalType": "string",
					"name": "",
					"type": "string"
				}
			],
			"stateMutability": "view",
			"type": "function"
		},
		{
			"inputs": [],
			"name": "totalSupply",
			"outputs": [
				{
					"internalType": "uint256",
					"name": "",
					"type": "uint256"
				}
			],
			"stateMutability": "view",
			"type": "function"
		},
		{
			"inputs": [
				{
					"internalType": "address",
					"name": "to",
					"type": "address"
				},
				{
					"internalType": "uint256",
					"name": "value",
					"type": "uint256"
				}
			],
			"name": "transfer",
			"outputs": [
				{
					"internalType": "bool",
					"name": "",
					"type": "bool"
				}
			],
			"stateMutability": "nonpayable",
			"type": "function"
		},
		{
			"inputs": [
				{
					"internalType": "address",
					"name": "from",
					"type": "address"
				},
				{
					"internalType": "address",
					"name": "to",
					"type": "address"
				},
				{
					"internalType": "uint256",
					"name": "value",
					"type": "uint256"
				}
			],
			"name": "transferFrom",
			"outputs": [
				{
					"internalType": "bool",
					"name": "",
					"type": "bool"
				}
			],
			"stateMutability": "nonpayable",
			"type": "function"
		},
		{
			"inputs": [
				{
					"internalType": "address",
					"name": "newOwner",
					"type": "address"
				}
			],
			"name": "transferOwnership",
			"outputs": [],
			"stateMutability": "nonpayable",
			"type": "function"
		},
		{
			"inputs": [],
			"name": "unpause",
			"outputs": [],
			"stateMutability": "nonpayable",
			"type": "function"
		}
	]
}